{
  "contractName": "Certi",
  "abi": [
    {
      "inputs": [
        {
          "internalType": "address",
          "name": "_issuer",
          "type": "address"
        },
        {
          "internalType": "address",
          "name": "_user",
          "type": "address"
        },
        {
          "internalType": "string",
          "name": "_hash",
          "type": "string"
        },
        {
          "internalType": "string",
          "name": "_title",
          "type": "string"
        },
        {
          "internalType": "string",
          "name": "_filePath",
          "type": "string"
        }
      ],
      "name": "addCertificate",
      "outputs": [],
      "stateMutability": "nonpayable",
      "type": "function"
    },
    {
      "inputs": [
        {
          "internalType": "address",
          "name": "issuedBy",
          "type": "address"
        },
        {
          "internalType": "address",
          "name": "user",
          "type": "address"
        },
        {
          "internalType": "address",
          "name": "organizationAddress",
          "type": "address"
        },
        {
          "internalType": "string",
          "name": "username",
          "type": "string"
        },
        {
          "internalType": "string",
          "name": "organizationName",
          "type": "string"
        },
        {
          "internalType": "string",
          "name": "filepath",
          "type": "string"
        }
      ],
      "name": "addVerificationCertificate",
      "outputs": [],
      "stateMutability": "nonpayable",
      "type": "function"
    },
    {
      "inputs": [
        {
          "internalType": "address",
          "name": "organization",
          "type": "address"
        },
        {
          "internalType": "uint256",
          "name": "certificateId",
          "type": "uint256"
        },
        {
          "internalType": "string",
          "name": "newStatus",
          "type": "string"
        }
      ],
      "name": "updateCertificateStatus",
      "outputs": [],
      "stateMutability": "nonpayable",
      "type": "function"
    },
    {
      "inputs": [
        {
          "internalType": "address",
          "name": "user",
          "type": "address"
        }
      ],
      "name": "getUserVerificationCertificates",
      "outputs": [
        {
          "components": [
            {
              "internalType": "uint256",
              "name": "id",
              "type": "uint256"
            },
            {
              "internalType": "address",
              "name": "issuedBy",
              "type": "address"
            },
            {
              "internalType": "address",
              "name": "user",
              "type": "address"
            },
            {
              "internalType": "address",
              "name": "organizationAddress",
              "type": "address"
            },
            {
              "internalType": "string",
              "name": "username",
              "type": "string"
            },
            {
              "internalType": "string",
              "name": "organizationName",
              "type": "string"
            },
            {
              "internalType": "string",
              "name": "filepath",
              "type": "string"
            },
            {
              "internalType": "string",
              "name": "status",
              "type": "string"
            }
          ],
          "internalType": "struct Certi.VerificationCertificates[]",
          "name": "",
          "type": "tuple[]"
        }
      ],
      "stateMutability": "view",
      "type": "function",
      "constant": true
    },
    {
      "inputs": [
        {
          "internalType": "address",
          "name": "organizationAddress",
          "type": "address"
        }
      ],
      "name": "getOrganizationVerificationCertificates",
      "outputs": [
        {
          "components": [
            {
              "internalType": "uint256",
              "name": "id",
              "type": "uint256"
            },
            {
              "internalType": "address",
              "name": "issuedBy",
              "type": "address"
            },
            {
              "internalType": "address",
              "name": "user",
              "type": "address"
            },
            {
              "internalType": "address",
              "name": "organizationAddress",
              "type": "address"
            },
            {
              "internalType": "string",
              "name": "username",
              "type": "string"
            },
            {
              "internalType": "string",
              "name": "organizationName",
              "type": "string"
            },
            {
              "internalType": "string",
              "name": "filepath",
              "type": "string"
            },
            {
              "internalType": "string",
              "name": "status",
              "type": "string"
            }
          ],
          "internalType": "struct Certi.VerificationCertificates[]",
          "name": "",
          "type": "tuple[]"
        }
      ],
      "stateMutability": "view",
      "type": "function",
      "constant": true
    },
    {
      "inputs": [
        {
          "internalType": "string",
          "name": "fullName",
          "type": "string"
        },
        {
          "internalType": "string",
          "name": "email",
          "type": "string"
        },
        {
          "internalType": "string",
          "name": "password",
          "type": "string"
        },
        {
          "internalType": "string",
          "name": "username",
          "type": "string"
        },
        {
          "internalType": "string",
          "name": "usertype",
          "type": "string"
        }
      ],
      "name": "addUser",
      "outputs": [],
      "stateMutability": "nonpayable",
      "type": "function"
    },
    {
      "inputs": [
        {
          "internalType": "address",
          "name": "userAddress",
          "type": "address"
        }
      ],
      "name": "getUser",
      "outputs": [
        {
          "internalType": "string",
          "name": "fullName",
          "type": "string"
        },
        {
          "internalType": "string",
          "name": "email",
          "type": "string"
        },
        {
          "internalType": "string",
          "name": "username",
          "type": "string"
        },
        {
          "internalType": "string",
          "name": "password",
          "type": "string"
        },
        {
          "internalType": "string",
          "name": "usertype",
          "type": "string"
        }
      ],
      "stateMutability": "view",
      "type": "function",
      "constant": true
    },
    {
      "inputs": [
        {
          "internalType": "address",
          "name": "userAddress",
          "type": "address"
        }
      ],
      "name": "getCertificates",
      "outputs": [
        {
          "components": [
            {
              "internalType": "address",
              "name": "issuer",
              "type": "address"
            },
            {
              "internalType": "address",
              "name": "user",
              "type": "address"
            },
            {
              "internalType": "string",
              "name": "hash",
              "type": "string"
            },
            {
              "internalType": "string",
              "name": "title",
              "type": "string"
            },
            {
              "internalType": "string",
              "name": "filePath",
              "type": "string"
            },
            {
              "internalType": "bool",
              "name": "exist",
              "type": "bool"
            }
          ],
          "internalType": "struct Certi.Certificate[]",
          "name": "",
          "type": "tuple[]"
        }
      ],
      "stateMutability": "view",
      "type": "function",
      "constant": true
    },
    {
      "inputs": [
        {
          "internalType": "address",
          "name": "_issuer",
          "type": "address"
        }
      ],
      "name": "getOrganizationCertificates",
      "outputs": [
        {
          "components": [
            {
              "internalType": "address",
              "name": "issuer",
              "type": "address"
            },
            {
              "internalType": "address",
              "name": "user",
              "type": "address"
            },
            {
              "internalType": "string",
              "name": "hash",
              "type": "string"
            },
            {
              "internalType": "string",
              "name": "title",
              "type": "string"
            },
            {
              "internalType": "string",
              "name": "filePath",
              "type": "string"
            },
            {
              "internalType": "bool",
              "name": "exist",
              "type": "bool"
            }
          ],
          "internalType": "struct Certi.Certificate[]",
          "name": "",
          "type": "tuple[]"
        }
      ],
      "stateMutability": "view",
      "type": "function",
      "constant": true
    },
    {
      "inputs": [
        {
          "internalType": "address",
          "name": "userAddress",
          "type": "address"
        }
      ],
      "name": "getUsername",
      "outputs": [
        {
          "internalType": "string",
          "name": "",
          "type": "string"
        }
      ],
      "stateMutability": "view",
      "type": "function",
      "constant": true
    },
    {
      "inputs": [
        {
          "internalType": "address",
          "name": "organizationAddress",
          "type": "address"
        },
        {
          "internalType": "string",
          "name": "hash",
          "type": "string"
        }
      ],
      "name": "checkHashExists",
      "outputs": [
        {
          "internalType": "string",
          "name": "",
          "type": "string"
        }
      ],
      "stateMutability": "view",
      "type": "function",
      "constant": true
    }
  ],
  "bytecode": "0x608060405234801561001057600080fd5b50613765806100206000396000f3fe608060405234801561001057600080fd5b50600436106100a95760003560e01c8063a1fd5d7211610071578063a1fd5d721461017a578063ac0696ab146101aa578063b37a3d82146101da578063ce43c032146101f6578063ef5e9fc514610226578063f1c49c6214610242576100a9565b806346340591146100ae57806359f74bc0146100de5780636234f6e3146100fa5780636f77926b146101165780638d945b571461014a575b600080fd5b6100c860048036038101906100c39190612577565b610272565b6040516100d59190612652565b60405180910390f35b6100f860048036038101906100f39190612674565b6103cf565b005b610114600480360381019061010f9190612755565b6107eb565b005b610130600480360381019061012b9190612824565b610c20565b604051610141959493929190612851565b60405180910390f35b610164600480360381019061015f9190612824565b610fc5565b6040516101719190612ac0565b60405180910390f35b610194600480360381019061018f9190612824565b6113b8565b6040516101a19190612ac0565b60405180910390f35b6101c460048036038101906101bf9190612824565b6117ab565b6040516101d19190612c56565b60405180910390f35b6101f460048036038101906101ef9190612c78565b611ac6565b005b610210600480360381019061020b9190612824565b611e2c565b60405161021d9190612652565b60405180910390f35b610240600480360381019061023b9190612dab565b611f91565b005b61025c60048036038101906102579190612824565b6120a5565b6040516102699190612c56565b60405180910390f35b60606000600160008573ffffffffffffffffffffffffffffffffffffffff1673ffffffffffffffffffffffffffffffffffffffff168152602001908152602001600020905060005b818054905081101561038e57836040516020016102d79190612e56565b60405160208183030381529060405280519060200120828281548110610300576102ff612e6d565b5b90600052602060002090600602016002016040516020016103219190612f94565b604051602081830303815290604052805190602001200361037b576040518060400160405280601781526020017f4365727469666963617465206861736820657869737473000000000000000000815250925050506103c9565b808061038690612fda565b9150506102ba565b506040518060400160405280601f81526020017f4365727469666963617465206861736820646f6573206e6f74206578697374008152509150505b92915050565b600460008154809291906103e290612fda565b9190505550600060405180610100016040528060045481526020018873ffffffffffffffffffffffffffffffffffffffff1681526020018773ffffffffffffffffffffffffffffffffffffffff1681526020018673ffffffffffffffffffffffffffffffffffffffff1681526020018581526020018481526020018381526020016040518060400160405280600781526020017f70656e64696e67000000000000000000000000000000000000000000000000008152508152509050600260008773ffffffffffffffffffffffffffffffffffffffff1673ffffffffffffffffffffffffffffffffffffffff1681526020019081526020016000208190806001815401808255809150506001900390600052602060002090600802016000909190919091506000820151816000015560208201518160010160006101000a81548173ffffffffffffffffffffffffffffffffffffffff021916908373ffffffffffffffffffffffffffffffffffffffff16021790555060408201518160020160006101000a81548173ffffffffffffffffffffffffffffffffffffffff021916908373ffffffffffffffffffffffffffffffffffffffff16021790555060608201518160030160006101000a81548173ffffffffffffffffffffffffffffffffffffffff021916908373ffffffffffffffffffffffffffffffffffffffff16021790555060808201518160040190816105fb91906131b9565b5060a082015181600501908161061191906131b9565b5060c082015181600601908161062791906131b9565b5060e082015181600701908161063d91906131b9565b505050600360008673ffffffffffffffffffffffffffffffffffffffff1673ffffffffffffffffffffffffffffffffffffffff1681526020019081526020016000208190806001815401808255809150506001900390600052602060002090600802016000909190919091506000820151816000015560208201518160010160006101000a81548173ffffffffffffffffffffffffffffffffffffffff021916908373ffffffffffffffffffffffffffffffffffffffff16021790555060408201518160020160006101000a81548173ffffffffffffffffffffffffffffffffffffffff021916908373ffffffffffffffffffffffffffffffffffffffff16021790555060608201518160030160006101000a81548173ffffffffffffffffffffffffffffffffffffffff021916908373ffffffffffffffffffffffffffffffffffffffff160217905550608082015181600401908161079d91906131b9565b5060a08201518160050190816107b391906131b9565b5060c08201518160060190816107c991906131b9565b5060e08201518160070190816107df91906131b9565b50505050505050505050565b6000600160008773ffffffffffffffffffffffffffffffffffffffff1673ffffffffffffffffffffffffffffffffffffffff168152602001908152602001600020905060005b8180549050811015610901578460405160200161084e9190612e56565b6040516020818303038152906040528051906020012082828154811061087757610876612e6d565b5b90600052602060002090600602016002016040516020016108989190612f94565b60405160208183030381529060405280519060200120036108ee576040517f08c379a00000000000000000000000000000000000000000000000000000000081526004016108e5906132d7565b60405180910390fd5b80806108f990612fda565b915050610831565b5060006040518060c001604052808873ffffffffffffffffffffffffffffffffffffffff1681526020018773ffffffffffffffffffffffffffffffffffffffff1681526020018681526020018581526020018481526020016001151581525090506000808773ffffffffffffffffffffffffffffffffffffffff1673ffffffffffffffffffffffffffffffffffffffff16815260200190815260200160002081908060018154018082558091505060019003906000526020600020906006020160009091909190915060008201518160000160006101000a81548173ffffffffffffffffffffffffffffffffffffffff021916908373ffffffffffffffffffffffffffffffffffffffff16021790555060208201518160010160006101000a81548173ffffffffffffffffffffffffffffffffffffffff021916908373ffffffffffffffffffffffffffffffffffffffff1602179055506040820151816002019081610a6d91906131b9565b506060820151816003019081610a8391906131b9565b506080820151816004019081610a9991906131b9565b5060a08201518160050160006101000a81548160ff0219169083151502179055505050600160008873ffffffffffffffffffffffffffffffffffffffff1673ffffffffffffffffffffffffffffffffffffffff16815260200190815260200160002081908060018154018082558091505060019003906000526020600020906006020160009091909190915060008201518160000160006101000a81548173ffffffffffffffffffffffffffffffffffffffff021916908373ffffffffffffffffffffffffffffffffffffffff16021790555060208201518160010160006101000a81548173ffffffffffffffffffffffffffffffffffffffff021916908373ffffffffffffffffffffffffffffffffffffffff1602179055506040820151816002019081610bc891906131b9565b506060820151816003019081610bde91906131b9565b506080820151816004019081610bf491906131b9565b5060a08201518160050160006101000a81548160ff021916908315150217905550505050505050505050565b60608060608060606000600560008873ffffffffffffffffffffffffffffffffffffffff1673ffffffffffffffffffffffffffffffffffffffff1681526020019081526020016000206040518060a0016040529081600082018054610c8490612ecb565b80601f0160208091040260200160405190810160405280929190818152602001828054610cb090612ecb565b8015610cfd5780601f10610cd257610100808354040283529160200191610cfd565b820191906000526020600020905b815481529060010190602001808311610ce057829003601f168201915b50505050508152602001600182018054610d1690612ecb565b80601f0160208091040260200160405190810160405280929190818152602001828054610d4290612ecb565b8015610d8f5780601f10610d6457610100808354040283529160200191610d8f565b820191906000526020600020905b815481529060010190602001808311610d7257829003601f168201915b50505050508152602001600282018054610da890612ecb565b80601f0160208091040260200160405190810160405280929190818152602001828054610dd490612ecb565b8015610e215780601f10610df657610100808354040283529160200191610e21565b820191906000526020600020905b815481529060010190602001808311610e0457829003601f168201915b50505050508152602001600382018054610e3a90612ecb565b80601f0160208091040260200160405190810160405280929190818152602001828054610e6690612ecb565b8015610eb35780601f10610e8857610100808354040283529160200191610eb3565b820191906000526020600020905b815481529060010190602001808311610e9657829003601f168201915b50505050508152602001600482018054610ecc90612ecb565b80601f0160208091040260200160405190810160405280929190818152602001828054610ef890612ecb565b8015610f455780601f10610f1a57610100808354040283529160200191610f45565b820191906000526020600020905b815481529060010190602001808311610f2857829003601f168201915b5050505050815250509050600081602001515111610f98576040517f08c379a0000000000000000000000000000000000000000000000000000000008152600401610f8f90613343565b60405180910390fd5b80600001518160200151826060015183604001518460800151955095509550955095505091939590929450565b6060600360008373ffffffffffffffffffffffffffffffffffffffff1673ffffffffffffffffffffffffffffffffffffffff168152602001908152602001600020805480602002602001604051908101604052809291908181526020016000905b828210156113ad578382906000526020600020906008020160405180610100016040529081600082015481526020016001820160009054906101000a900473ffffffffffffffffffffffffffffffffffffffff1673ffffffffffffffffffffffffffffffffffffffff1673ffffffffffffffffffffffffffffffffffffffff1681526020016002820160009054906101000a900473ffffffffffffffffffffffffffffffffffffffff1673ffffffffffffffffffffffffffffffffffffffff1673ffffffffffffffffffffffffffffffffffffffff1681526020016003820160009054906101000a900473ffffffffffffffffffffffffffffffffffffffff1673ffffffffffffffffffffffffffffffffffffffff1673ffffffffffffffffffffffffffffffffffffffff16815260200160048201805461116690612ecb565b80601f016020809104026020016040519081016040528092919081815260200182805461119290612ecb565b80156111df5780601f106111b4576101008083540402835291602001916111df565b820191906000526020600020905b8154815290600101906020018083116111c257829003601f168201915b505050505081526020016005820180546111f890612ecb565b80601f016020809104026020016040519081016040528092919081815260200182805461122490612ecb565b80156112715780601f1061124657610100808354040283529160200191611271565b820191906000526020600020905b81548152906001019060200180831161125457829003601f168201915b5050505050815260200160068201805461128a90612ecb565b80601f01602080910402602001604051908101604052809291908181526020018280546112b690612ecb565b80156113035780601f106112d857610100808354040283529160200191611303565b820191906000526020600020905b8154815290600101906020018083116112e657829003601f168201915b5050505050815260200160078201805461131c90612ecb565b80601f016020809104026020016040519081016040528092919081815260200182805461134890612ecb565b80156113955780601f1061136a57610100808354040283529160200191611395565b820191906000526020600020905b81548152906001019060200180831161137857829003601f168201915b50505050508152505081526020019060010190611026565b505050509050919050565b6060600260008373ffffffffffffffffffffffffffffffffffffffff1673ffffffffffffffffffffffffffffffffffffffff168152602001908152602001600020805480602002602001604051908101604052809291908181526020016000905b828210156117a0578382906000526020600020906008020160405180610100016040529081600082015481526020016001820160009054906101000a900473ffffffffffffffffffffffffffffffffffffffff1673ffffffffffffffffffffffffffffffffffffffff1673ffffffffffffffffffffffffffffffffffffffff1681526020016002820160009054906101000a900473ffffffffffffffffffffffffffffffffffffffff1673ffffffffffffffffffffffffffffffffffffffff1673ffffffffffffffffffffffffffffffffffffffff1681526020016003820160009054906101000a900473ffffffffffffffffffffffffffffffffffffffff1673ffffffffffffffffffffffffffffffffffffffff1673ffffffffffffffffffffffffffffffffffffffff16815260200160048201805461155990612ecb565b80601f016020809104026020016040519081016040528092919081815260200182805461158590612ecb565b80156115d25780601f106115a7576101008083540402835291602001916115d2565b820191906000526020600020905b8154815290600101906020018083116115b557829003601f168201915b505050505081526020016005820180546115eb90612ecb565b80601f016020809104026020016040519081016040528092919081815260200182805461161790612ecb565b80156116645780601f1061163957610100808354040283529160200191611664565b820191906000526020600020905b81548152906001019060200180831161164757829003601f168201915b5050505050815260200160068201805461167d90612ecb565b80601f01602080910402602001604051908101604052809291908181526020018280546116a990612ecb565b80156116f65780601f106116cb576101008083540402835291602001916116f6565b820191906000526020600020905b8154815290600101906020018083116116d957829003601f168201915b5050505050815260200160078201805461170f90612ecb565b80601f016020809104026020016040519081016040528092919081815260200182805461173b90612ecb565b80156117885780601f1061175d57610100808354040283529160200191611788565b820191906000526020600020905b81548152906001019060200180831161176b57829003601f168201915b50505050508152505081526020019060010190611419565b505050509050919050565b6060600160008373ffffffffffffffffffffffffffffffffffffffff1673ffffffffffffffffffffffffffffffffffffffff168152602001908152602001600020805480602002602001604051908101604052809291908181526020016000905b82821015611abb57838290600052602060002090600602016040518060c00160405290816000820160009054906101000a900473ffffffffffffffffffffffffffffffffffffffff1673ffffffffffffffffffffffffffffffffffffffff1673ffffffffffffffffffffffffffffffffffffffff1681526020016001820160009054906101000a900473ffffffffffffffffffffffffffffffffffffffff1673ffffffffffffffffffffffffffffffffffffffff1673ffffffffffffffffffffffffffffffffffffffff1681526020016002820180546118eb90612ecb565b80601f016020809104026020016040519081016040528092919081815260200182805461191790612ecb565b80156119645780601f1061193957610100808354040283529160200191611964565b820191906000526020600020905b81548152906001019060200180831161194757829003601f168201915b5050505050815260200160038201805461197d90612ecb565b80601f01602080910402602001604051908101604052809291908181526020018280546119a990612ecb565b80156119f65780601f106119cb576101008083540402835291602001916119f6565b820191906000526020600020905b8154815290600101906020018083116119d957829003601f168201915b50505050508152602001600482018054611a0f90612ecb565b80601f0160208091040260200160405190810160405280929190818152602001828054611a3b90612ecb565b8015611a885780601f10611a5d57610100808354040283529160200191611a88565b820191906000526020600020905b815481529060010190602001808311611a6b57829003601f168201915b505050505081526020016005820160009054906101000a900460ff1615151515815250508152602001906001019061180c565b505050509050919050565b6000855111611b0a576040517f08c379a0000000000000000000000000000000000000000000000000000000008152600401611b01906133af565b60405180910390fd5b6000845111611b4e576040517f08c379a0000000000000000000000000000000000000000000000000000000008152600401611b459061341b565b60405180910390fd5b6000835111611b92576040517f08c379a0000000000000000000000000000000000000000000000000000000008152600401611b8990613487565b60405180910390fd5b6000825111611bd6576040517f08c379a0000000000000000000000000000000000000000000000000000000008152600401611bcd906134f3565b60405180910390fd5b6000815111611c1a576040517f08c379a0000000000000000000000000000000000000000000000000000000008152600401611c119061355f565b60405180910390fd5b6000600560003373ffffffffffffffffffffffffffffffffffffffff1673ffffffffffffffffffffffffffffffffffffffff1681526020019081526020016000206001018054611c6990612ecb565b905014611cab576040517f08c379a0000000000000000000000000000000000000000000000000000000008152600401611ca2906135cb565b60405180910390fd5b600682604051611cbb9190612e56565b908152602001604051809103902060009054906101000a900460ff1615611d17576040517f08c379a0000000000000000000000000000000000000000000000000000000008152600401611d0e90613637565b60405180910390fd5b6040518060a0016040528086815260200185815260200184815260200183815260200182815250600560003373ffffffffffffffffffffffffffffffffffffffff1673ffffffffffffffffffffffffffffffffffffffff1681526020019081526020016000206000820151816000019081611d9291906131b9565b506020820151816001019081611da891906131b9565b506040820151816002019081611dbe91906131b9565b506060820151816003019081611dd491906131b9565b506080820151816004019081611dea91906131b9565b509050506001600683604051611e009190612e56565b908152602001604051809103902060006101000a81548160ff0219169083151502179055505050505050565b60606000600560008473ffffffffffffffffffffffffffffffffffffffff1673ffffffffffffffffffffffffffffffffffffffff1681526020019081526020016000206001018054611e7d90612ecb565b905011611ebf576040517f08c379a0000000000000000000000000000000000000000000000000000000008152600401611eb6906136a3565b60405180910390fd5b600560008373ffffffffffffffffffffffffffffffffffffffff1673ffffffffffffffffffffffffffffffffffffffff1681526020019081526020016000206003018054611f0c90612ecb565b80601f0160208091040260200160405190810160405280929190818152602001828054611f3890612ecb565b8015611f855780601f10611f5a57610100808354040283529160200191611f85565b820191906000526020600020905b815481529060010190602001808311611f6857829003601f168201915b50505050509050919050565b6000600360008573ffffffffffffffffffffffffffffffffffffffff1673ffffffffffffffffffffffffffffffffffffffff16815260200190815260200160002090506000805b828054905081101561205d5784838281548110611ff857611ff7612e6d565b5b9060005260206000209060080201600001540361204a578383828154811061202357612022612e6d565b5b9060005260206000209060080201600701908161204091906131b9565b506001915061205d565b808061205590612fda565b915050611fd8565b508061209e576040517f08c379a00000000000000000000000000000000000000000000000000000000081526004016120959061370f565b60405180910390fd5b5050505050565b60606000808373ffffffffffffffffffffffffffffffffffffffff1673ffffffffffffffffffffffffffffffffffffffff168152602001908152602001600020805480602002602001604051908101604052809291908181526020016000905b828210156123b457838290600052602060002090600602016040518060c00160405290816000820160009054906101000a900473ffffffffffffffffffffffffffffffffffffffff1673ffffffffffffffffffffffffffffffffffffffff1673ffffffffffffffffffffffffffffffffffffffff1681526020016001820160009054906101000a900473ffffffffffffffffffffffffffffffffffffffff1673ffffffffffffffffffffffffffffffffffffffff1673ffffffffffffffffffffffffffffffffffffffff1681526020016002820180546121e490612ecb565b80601f016020809104026020016040519081016040528092919081815260200182805461221090612ecb565b801561225d5780601f106122325761010080835404028352916020019161225d565b820191906000526020600020905b81548152906001019060200180831161224057829003601f168201915b5050505050815260200160038201805461227690612ecb565b80601f01602080910402602001604051908101604052809291908181526020018280546122a290612ecb565b80156122ef5780601f106122c4576101008083540402835291602001916122ef565b820191906000526020600020905b8154815290600101906020018083116122d257829003601f168201915b5050505050815260200160048201805461230890612ecb565b80601f016020809104026020016040519081016040528092919081815260200182805461233490612ecb565b80156123815780601f1061235657610100808354040283529160200191612381565b820191906000526020600020905b81548152906001019060200180831161236457829003601f168201915b505050505081526020016005820160009054906101000a900460ff16151515158152505081526020019060010190612105565b505050509050919050565b6000604051905090565b600080fd5b600080fd5b600073ffffffffffffffffffffffffffffffffffffffff82169050919050565b60006123fe826123d3565b9050919050565b61240e816123f3565b811461241957600080fd5b50565b60008135905061242b81612405565b92915050565b600080fd5b600080fd5b6000601f19601f8301169050919050565b7f4e487b7100000000000000000000000000000000000000000000000000000000600052604160045260246000fd5b6124848261243b565b810181811067ffffffffffffffff821117156124a3576124a261244c565b5b80604052505050565b60006124b66123bf565b90506124c2828261247b565b919050565b600067ffffffffffffffff8211156124e2576124e161244c565b5b6124eb8261243b565b9050602081019050919050565b82818337600083830152505050565b600061251a612515846124c7565b6124ac565b90508281526020810184848401111561253657612535612436565b5b6125418482856124f8565b509392505050565b600082601f83011261255e5761255d612431565b5b813561256e848260208601612507565b91505092915050565b6000806040838503121561258e5761258d6123c9565b5b600061259c8582860161241c565b925050602083013567ffffffffffffffff8111156125bd576125bc6123ce565b5b6125c985828601612549565b9150509250929050565b600081519050919050565b600082825260208201905092915050565b60005b8381101561260d5780820151818401526020810190506125f2565b60008484015250505050565b6000612624826125d3565b61262e81856125de565b935061263e8185602086016125ef565b6126478161243b565b840191505092915050565b6000602082019050818103600083015261266c8184612619565b905092915050565b60008060008060008060c08789031215612691576126906123c9565b5b600061269f89828a0161241c565b96505060206126b089828a0161241c565b95505060406126c189828a0161241c565b945050606087013567ffffffffffffffff8111156126e2576126e16123ce565b5b6126ee89828a01612549565b935050608087013567ffffffffffffffff81111561270f5761270e6123ce565b5b61271b89828a01612549565b92505060a087013567ffffffffffffffff81111561273c5761273b6123ce565b5b61274889828a01612549565b9150509295509295509295565b600080600080600060a08688031215612771576127706123c9565b5b600061277f8882890161241c565b95505060206127908882890161241c565b945050604086013567ffffffffffffffff8111156127b1576127b06123ce565b5b6127bd88828901612549565b935050606086013567ffffffffffffffff8111156127de576127dd6123ce565b5b6127ea88828901612549565b925050608086013567ffffffffffffffff81111561280b5761280a6123ce565b5b61281788828901612549565b9150509295509295909350565b60006020828403121561283a576128396123c9565b5b60006128488482850161241c565b91505092915050565b600060a082019050818103600083015261286b8188612619565b9050818103602083015261287f8187612619565b905081810360408301526128938186612619565b905081810360608301526128a78185612619565b905081810360808301526128bb8184612619565b90509695505050505050565b600081519050919050565b600082825260208201905092915050565b6000819050602082019050919050565b6000819050919050565b612906816128f3565b82525050565b612915816123f3565b82525050565b600082825260208201905092915050565b6000612937826125d3565b612941818561291b565b93506129518185602086016125ef565b61295a8161243b565b840191505092915050565b60006101008301600083015161297e60008601826128fd565b506020830151612991602086018261290c565b5060408301516129a4604086018261290c565b5060608301516129b7606086018261290c565b50608083015184820360808601526129cf828261292c565b91505060a083015184820360a08601526129e9828261292c565b91505060c083015184820360c0860152612a03828261292c565b91505060e083015184820360e0860152612a1d828261292c565b9150508091505092915050565b6000612a368383612965565b905092915050565b6000602082019050919050565b6000612a56826128c7565b612a6081856128d2565b935083602082028501612a72856128e3565b8060005b85811015612aae5784840389528151612a8f8582612a2a565b9450612a9a83612a3e565b925060208a01995050600181019050612a76565b50829750879550505050505092915050565b60006020820190508181036000830152612ada8184612a4b565b905092915050565b600081519050919050565b600082825260208201905092915050565b6000819050602082019050919050565b60008115159050919050565b612b2381612b0e565b82525050565b600060c083016000830151612b41600086018261290c565b506020830151612b54602086018261290c565b5060408301518482036040860152612b6c828261292c565b91505060608301518482036060860152612b86828261292c565b91505060808301518482036080860152612ba0828261292c565b91505060a0830151612bb560a0860182612b1a565b508091505092915050565b6000612bcc8383612b29565b905092915050565b6000602082019050919050565b6000612bec82612ae2565b612bf68185612aed565b935083602082028501612c0885612afe565b8060005b85811015612c445784840389528151612c258582612bc0565b9450612c3083612bd4565b925060208a01995050600181019050612c0c565b50829750879550505050505092915050565b60006020820190508181036000830152612c708184612be1565b905092915050565b600080600080600060a08688031215612c9457612c936123c9565b5b600086013567ffffffffffffffff811115612cb257612cb16123ce565b5b612cbe88828901612549565b955050602086013567ffffffffffffffff811115612cdf57612cde6123ce565b5b612ceb88828901612549565b945050604086013567ffffffffffffffff811115612d0c57612d0b6123ce565b5b612d1888828901612549565b935050606086013567ffffffffffffffff811115612d3957612d386123ce565b5b612d4588828901612549565b925050608086013567ffffffffffffffff811115612d6657612d656123ce565b5b612d7288828901612549565b9150509295509295909350565b612d88816128f3565b8114612d9357600080fd5b50565b600081359050612da581612d7f565b92915050565b600080600060608486031215612dc457612dc36123c9565b5b6000612dd28682870161241c565b9350506020612de386828701612d96565b925050604084013567ffffffffffffffff811115612e0457612e036123ce565b5b612e1086828701612549565b9150509250925092565b600081905092915050565b6000612e30826125d3565b612e3a8185612e1a565b9350612e4a8185602086016125ef565b80840191505092915050565b6000612e628284612e25565b915081905092915050565b7f4e487b7100000000000000000000000000000000000000000000000000000000600052603260045260246000fd5b7f4e487b7100000000000000000000000000000000000000000000000000000000600052602260045260246000fd5b60006002820490506001821680612ee357607f821691505b602082108103612ef657612ef5612e9c565b5b50919050565b60008190508160005260206000209050919050565b60008154612f1e81612ecb565b612f288186612e1a565b94506001821660008114612f435760018114612f5857612f8b565b60ff1983168652811515820286019350612f8b565b612f6185612efc565b60005b83811015612f8357815481890152600182019150602081019050612f64565b838801955050505b50505092915050565b6000612fa08284612f11565b915081905092915050565b7f4e487b7100000000000000000000000000000000000000000000000000000000600052601160045260246000fd5b6000612fe5826128f3565b91507fffffffffffffffffffffffffffffffffffffffffffffffffffffffffffffffff820361301757613016612fab565b5b600182019050919050565b60006020601f8301049050919050565b600082821b905092915050565b60006008830261306f7fffffffffffffffffffffffffffffffffffffffffffffffffffffffffffffffff82613032565b6130798683613032565b95508019841693508086168417925050509392505050565b6000819050919050565b60006130b66130b16130ac846128f3565b613091565b6128f3565b9050919050565b6000819050919050565b6130d08361309b565b6130e46130dc826130bd565b84845461303f565b825550505050565b600090565b6130f96130ec565b6131048184846130c7565b505050565b5b818110156131285761311d6000826130f1565b60018101905061310a565b5050565b601f82111561316d5761313e81612efc565b61314784613022565b81016020851015613156578190505b61316a61316285613022565b830182613109565b50505b505050565b600082821c905092915050565b600061319060001984600802613172565b1980831691505092915050565b60006131a9838361317f565b9150826002028217905092915050565b6131c2826125d3565b67ffffffffffffffff8111156131db576131da61244c565b5b6131e58254612ecb565b6131f082828561312c565b600060209050601f8311600181146132235760008415613211578287015190505b61321b858261319d565b865550613283565b601f19841661323186612efc565b60005b8281101561325957848901518255600182019150602085019450602081019050613234565b868310156132765784890151613272601f89168261317f565b8355505b6001600288020188555050505b505050505050565b7f436572746966696361746520616c726561647920657869737473000000000000600082015250565b60006132c1601a836125de565b91506132cc8261328b565b602082019050919050565b600060208201905081810360008301526132f0816132b4565b9050919050565b7f55736572206e6f7420666f756e642e0000000000000000000000000000000000600082015250565b600061332d600f836125de565b9150613338826132f7565b602082019050919050565b6000602082019050818103600083015261335c81613320565b9050919050565b7f46756c6c206e616d652069732072657175697265642e00000000000000000000600082015250565b60006133996016836125de565b91506133a482613363565b602082019050919050565b600060208201905081810360008301526133c88161338c565b9050919050565b7f456d61696c2069732072657175697265642e0000000000000000000000000000600082015250565b60006134056012836125de565b9150613410826133cf565b602082019050919050565b60006020820190508181036000830152613434816133f8565b9050919050565b7f50617373776f72642069732072657175697265642e0000000000000000000000600082015250565b60006134716015836125de565b915061347c8261343b565b602082019050919050565b600060208201905081810360008301526134a081613464565b9050919050565b7f557365726e616d652069732072657175697265642e0000000000000000000000600082015250565b60006134dd6015836125de565b91506134e8826134a7565b602082019050919050565b6000602082019050818103600083015261350c816134d0565b9050919050565b7f5573657220747970652069732072657175697265642e00000000000000000000600082015250565b60006135496016836125de565b915061355482613513565b602082019050919050565b600060208201905081810360008301526135788161353c565b9050919050565b7f5573657220616c726561647920726567697374657265642e0000000000000000600082015250565b60006135b56018836125de565b91506135c08261357f565b602082019050919050565b600060208201905081810360008301526135e4816135a8565b9050919050565b7f557365726e616d6520616c72656164792074616b656e2e000000000000000000600082015250565b60006136216017836125de565b915061362c826135eb565b602082019050919050565b6000602082019050818103600083015261365081613614565b9050919050565b7f5573657220646f6573206e6f742065786973742e000000000000000000000000600082015250565b600061368d6014836125de565b915061369882613657565b602082019050919050565b600060208201905081810360008301526136bc81613680565b9050919050565b7f4365727469666963617465206e6f7420666f756e642e00000000000000000000600082015250565b60006136f96016836125de565b9150613704826136c3565b602082019050919050565b60006020820190508181036000830152613728816136ec565b905091905056fea2646970667358221220d2026013ed640ef2cf80a8c7b79445b2da23d12a0a35e6b2465da99f8c75497564736f6c63430008130033",
  "immutableReferences": {},
  "source": "// SPDX-License-Identifier: MIT\npragma solidity 0.8.19;\n\ncontract Certi {\n    // Struct to represent a user\n    struct User {\n        string fullName;\n        string email;\n        string password; // Store hashed password\n        string username;\n        string usertype; // Add the user type field\n    }\n\n    // Struct to represent a certificate\n    struct Certificate {\n        address issuer;  // Address of the user who issued the certificate\n        address user;\n        string hash;     // Hash of the certificate file\n        string title;\n        string filePath; // Path of the stored certificate\n        bool exist;\n    }\n\n    mapping(address => Certificate[]) private userCertificates;\n    mapping(address => Certificate[]) private organizationCertificates;\n\n    // Function to add a certificate\n    function addCertificate(address _issuer, address _user, string memory _hash, string memory _title, string memory _filePath) public {\n        // Check if the certificate already exists for the issuer and user\n        Certificate[] storage issuerCertificates = organizationCertificates[_issuer];\n        for (uint i = 0; i < issuerCertificates.length; i++) {\n            require(\n                keccak256(abi.encodePacked(issuerCertificates[i].hash)) != keccak256(abi.encodePacked(_hash)),\n                \"Certificate already exists\"\n            );\n        }\n\n        // Create the new certificate\n        Certificate memory new_certificate = Certificate({\n            issuer: _issuer,\n            user: _user,\n            hash: _hash,\n            title: _title,\n            filePath: _filePath,\n            exist: true\n        });\n\n        // Add the new certificate to the mappings\n        userCertificates[_user].push(new_certificate);\n        organizationCertificates[_issuer].push(new_certificate);\n    }\n\n    // Struct to represent a verification certificate\n    struct VerificationCertificates {\n        uint id;  // Auto-generated ID\n        address issuedBy;\n        address user;\n        address organizationAddress;\n        string username;\n        string organizationName;\n        string filepath;\n        string status;\n    }\n\n    // Mappings to store verification certificates by user and organization\n    mapping(address => VerificationCertificates[]) private userVerificationCertificates;\n    mapping(address => VerificationCertificates[]) private organizationVerificationCertificates;\n\n    // Counter for auto-generating unique IDs\n    uint private certificateCounter;\n\n    // Function to add a new verification certificate\n    function addVerificationCertificate(\n        address issuedBy,\n        address user,\n        address organizationAddress,\n        string memory username,\n        string memory organizationName,\n        string memory filepath\n    ) public {\n        // Increment the counter to get a new unique ID\n        certificateCounter++;\n\n        // Create a new verification certificate with the auto-generated ID\n        VerificationCertificates memory newCertificate = VerificationCertificates({\n            id: certificateCounter,  // Assign the auto-generated ID\n            issuedBy: issuedBy,\n            user: user,\n            organizationAddress: organizationAddress,\n            username: username,\n            organizationName: organizationName,\n            filepath: filepath,\n            status: \"pending\"  // Set the initial status to \"pending\"\n        });\n\n        // Store the certificate in the user's and organization's mapping\n        userVerificationCertificates[user].push(newCertificate);\n        organizationVerificationCertificates[organizationAddress].push(newCertificate);\n    }\n\n    // Function to update the status of a verification certificate\n    function updateCertificateStatus(address organization, uint certificateId, string memory newStatus) public {\n        // Find the certificate in the organization's list\n        VerificationCertificates[] storage certificates = organizationVerificationCertificates[organization];\n        bool updated = false;\n        \n        for (uint i = 0; i < certificates.length; i++) {\n            if (certificates[i].id == certificateId) {\n                certificates[i].status = newStatus;\n                updated = true;\n                break;\n            }\n        }\n        \n        require(updated, \"Certificate not found.\");\n    }\n\n    // Function to fetch user verification certificates\n    function getUserVerificationCertificates(address user) public view returns (VerificationCertificates[] memory) {\n        return userVerificationCertificates[user];\n    }\n\n    // Function to fetch organization verification certificates\n    function getOrganizationVerificationCertificates(address organizationAddress) public view returns (VerificationCertificates[] memory) {\n        return organizationVerificationCertificates[organizationAddress];\n    }\n\n    // Mapping to store users by their Ethereum address\n    mapping(address => User) private users;\n\n    // Mapping to ensure unique usernames\n    mapping(string => bool) private usernames;\n\n    // Function to add a new user\n    function addUser(\n        string memory fullName, \n        string memory email, \n        string memory password, \n        string memory username, \n        string memory usertype // Add usertype parameter\n    ) public {\n        require(bytes(fullName).length > 0, \"Full name is required.\");\n        require(bytes(email).length > 0, \"Email is required.\");\n        require(bytes(password).length > 0, \"Password is required.\");\n        require(bytes(username).length > 0, \"Username is required.\");\n        require(bytes(usertype).length > 0, \"User type is required.\");\n\n        require(bytes(users[msg.sender].email).length == 0, \"User already registered.\");\n        require(!usernames[username], \"Username already taken.\");\n\n        users[msg.sender] = User(fullName, email, password, username, usertype); // Store usertype\n        usernames[username] = true;\n    }\n\n    // Function to fetch user details\n    function getUser(address userAddress)\n        public\n        view\n        returns (string memory fullName, string memory email, string memory username, string memory password, string memory usertype)\n    {\n        User memory user = users[userAddress];\n        require(bytes(user.email).length > 0, \"User not found.\");\n        return (user.fullName, user.email, user.username, user.password, user.usertype); // Return usertype\n    }\n\n    // Function to fetch certificates for a specific address\n    function getCertificates(address userAddress) public view returns (Certificate[] memory) {\n        return userCertificates[userAddress];\n    }\n\n    // Function to fetch all certificates for a specific organization\n    function getOrganizationCertificates(address _issuer) public view returns (Certificate[] memory) {\n        return organizationCertificates[_issuer];\n    }\n\n    // Function to fetch the username by address\n    function getUsername(address userAddress) public view returns (string memory) {\n        // Ensure the user exists\n        require(bytes(users[userAddress].email).length > 0, \"User does not exist.\");\n        \n        return users[userAddress].username;\n    }\n\n    // Function to check if a hash already exists in the user's certificates\n    function checkHashExists(address organizationAddress, string memory hash) public view returns (string memory) {\n        Certificate[] storage certificates = organizationCertificates[organizationAddress];\n        \n        for (uint i = 0; i < certificates.length; i++) {\n            if (keccak256(abi.encodePacked(certificates[i].hash)) == keccak256(abi.encodePacked(hash))) {\n                return \"Certificate hash exists\";\n            }\n        }\n        \n        return \"Certificate hash does not exist\";\n    }\n}\n",
  "sourcePath": "E:\\KITS-BLOCKCHAIN\\New-certi\\contracts\\certi.sol",
  "compiler": {
    "name": "solc",
    "version": "0.8.19+commit.7dd6d404.Emscripten.clang"
  },
  "schemaVersion": "3.4.16",
  "updatedAt": "2025-01-11T14:53:46.948Z",
  "networkType": "ethereum",
  "devdoc": {
    "kind": "dev",
    "methods": {},
    "version": 1
  },
  "userdoc": {
    "kind": "user",
    "methods": {},
    "version": 1
  }
}