{
  "contractName": "certi",
  "abi": [
    {
      "inputs": [
        {
          "internalType": "string",
          "name": "fullName",
          "type": "string"
        },
        {
          "internalType": "string",
          "name": "email",
          "type": "string"
        },
        {
          "internalType": "string",
          "name": "password",
          "type": "string"
        },
        {
          "internalType": "string",
          "name": "username",
          "type": "string"
        }
      ],
      "name": "addUser",
      "outputs": [],
      "stateMutability": "nonpayable",
      "type": "function"
    },
    {
      "inputs": [
        {
          "internalType": "address",
          "name": "userAddress",
          "type": "address"
        }
      ],
      "name": "getUser",
      "outputs": [
        {
          "internalType": "string",
          "name": "fullName",
          "type": "string"
        },
        {
          "internalType": "string",
          "name": "email",
          "type": "string"
        },
        {
          "internalType": "string",
          "name": "username",
          "type": "string"
        },
        {
          "internalType": "string",
          "name": "password",
          "type": "string"
        }
      ],
      "stateMutability": "view",
      "type": "function",
      "constant": true
    },
    {
      "inputs": [
        {
          "internalType": "string",
          "name": "hash",
          "type": "string"
        },
        {
          "internalType": "string",
          "name": "filePath",
          "type": "string"
        }
      ],
      "name": "addCertificate",
      "outputs": [],
      "stateMutability": "nonpayable",
      "type": "function"
    },
    {
      "inputs": [
        {
          "internalType": "string",
          "name": "hash",
          "type": "string"
        }
      ],
      "name": "getCertificate",
      "outputs": [
        {
          "internalType": "address",
          "name": "owner",
          "type": "address"
        },
        {
          "internalType": "string",
          "name": "filePath",
          "type": "string"
        }
      ],
      "stateMutability": "view",
      "type": "function",
      "constant": true
    },
    {
      "inputs": [
        {
          "internalType": "address",
          "name": "userAddress",
          "type": "address"
        }
      ],
      "name": "getCertificates",
      "outputs": [
        {
          "components": [
            {
              "internalType": "address",
              "name": "owner",
              "type": "address"
            },
            {
              "internalType": "string",
              "name": "hash",
              "type": "string"
            },
            {
              "internalType": "string",
              "name": "filePath",
              "type": "string"
            }
          ],
          "internalType": "struct certi.Certificate[]",
          "name": "",
          "type": "tuple[]"
        }
      ],
      "stateMutability": "view",
      "type": "function",
      "constant": true
    },
    {
      "inputs": [],
      "name": "getAllCertificates",
      "outputs": [
        {
          "components": [
            {
              "internalType": "address",
              "name": "owner",
              "type": "address"
            },
            {
              "internalType": "string",
              "name": "hash",
              "type": "string"
            },
            {
              "internalType": "string",
              "name": "filePath",
              "type": "string"
            }
          ],
          "internalType": "struct certi.Certificate[]",
          "name": "",
          "type": "tuple[]"
        }
      ],
      "stateMutability": "view",
      "type": "function",
      "constant": true
    },
    {
      "inputs": [
        {
          "internalType": "address",
          "name": "userAddress",
          "type": "address"
        }
      ],
      "name": "getCertificatesByOwner",
      "outputs": [
        {
          "components": [
            {
              "internalType": "address",
              "name": "owner",
              "type": "address"
            },
            {
              "internalType": "string",
              "name": "hash",
              "type": "string"
            },
            {
              "internalType": "string",
              "name": "filePath",
              "type": "string"
            }
          ],
          "internalType": "struct certi.Certificate[]",
          "name": "",
          "type": "tuple[]"
        }
      ],
      "stateMutability": "view",
      "type": "function",
      "constant": true
    },
    {
      "inputs": [
        {
          "internalType": "string",
          "name": "hash",
          "type": "string"
        }
      ],
      "name": "deleteCertificate",
      "outputs": [],
      "stateMutability": "nonpayable",
      "type": "function"
    }
  ],
  "bytecode": "0x608060405234801561001057600080fd5b50612fc7806100206000396000f3fe608060405234801561001057600080fd5b50600436106100885760003560e01c806381f6bf7d1161005b57806381f6bf7d1461012a578063e24f2ce714610146578063ed0f2e7514610162578063f1c49c621461019357610088565b806301cda3ac1461008d57806313fcfe80146100a95780631db73840146100c75780636f77926b146100f7575b600080fd5b6100a760048036038101906100a29190611e76565b6101c3565b005b6100b16104c5565b6040516100be9190612126565b60405180910390f35b6100e160048036038101906100dc9190612174565b6107bc565b6040516100ee9190612126565b60405180910390f35b610111600480360381019061010c9190612174565b610c8a565b60405161012194939291906121eb565b60405180910390f35b610144600480360381019061013f919061224c565b610f91565b005b610160600480360381019061015b9190612295565b61155a565b005b61017c6004803603810190610177919061224c565b611869565b60405161018a92919061231c565b60405180910390f35b6101ad60048036038101906101a89190612174565b611a70565b6040516101ba9190612126565b60405180910390f35b6000845111610207576040517f08c379a00000000000000000000000000000000000000000000000000000000081526004016101fe90612398565b60405180910390fd5b600083511161024b576040517f08c379a000000000000000000000000000000000000000000000000000000000815260040161024290612404565b60405180910390fd5b600082511161028f576040517f08c379a000000000000000000000000000000000000000000000000000000000815260040161028690612470565b60405180910390fd5b60008151116102d3576040517f08c379a00000000000000000000000000000000000000000000000000000000081526004016102ca906124dc565b60405180910390fd5b60008060003373ffffffffffffffffffffffffffffffffffffffff1673ffffffffffffffffffffffffffffffffffffffff16815260200190815260200160002060010180546103219061252b565b905014610363576040517f08c379a000000000000000000000000000000000000000000000000000000000815260040161035a906125a8565b60405180910390fd5b6001816040516103739190612604565b908152602001604051809103902060009054906101000a900460ff16156103cf576040517f08c379a00000000000000000000000000000000000000000000000000000000081526004016103c690612667565b60405180910390fd5b6040518060800160405280858152602001848152602001838152602001828152506000803373ffffffffffffffffffffffffffffffffffffffff1673ffffffffffffffffffffffffffffffffffffffff1681526020019081526020016000206000820151816000019081610443919061283d565b506020820151816001019081610459919061283d565b50604082015181600201908161046f919061283d565b506060820151816003019081610485919061283d565b509050506001808260405161049a9190612604565b908152602001604051809103902060006101000a81548160ff02191690831515021790555050505050565b6060600060048054905067ffffffffffffffff8111156104e8576104e7611d4b565b5b60405190808252806020026020018201604052801561052157816020015b61050e611c88565b8152602001906001900390816105065790505b50905060005b6004805490508110156107b45760006004828154811061054a5761054961290f565b5b90600052602060002001805461055f9061252b565b80601f016020809104026020016040519081016040528092919081815260200182805461058b9061252b565b80156105d85780601f106105ad576101008083540402835291602001916105d8565b820191906000526020600020905b8154815290600101906020018083116105bb57829003601f168201915b505050505090506002816040516105ef9190612604565b90815260200160405180910390206040518060600160405290816000820160009054906101000a900473ffffffffffffffffffffffffffffffffffffffff1673ffffffffffffffffffffffffffffffffffffffff1673ffffffffffffffffffffffffffffffffffffffff16815260200160018201805461066e9061252b565b80601f016020809104026020016040519081016040528092919081815260200182805461069a9061252b565b80156106e75780601f106106bc576101008083540402835291602001916106e7565b820191906000526020600020905b8154815290600101906020018083116106ca57829003601f168201915b505050505081526020016002820180546107009061252b565b80601f016020809104026020016040519081016040528092919081815260200182805461072c9061252b565b80156107795780601f1061074e57610100808354040283529160200191610779565b820191906000526020600020905b81548152906001019060200180831161075c57829003601f168201915b5050505050815250508383815181106107955761079461290f565b5b60200260200101819052505080806107ac9061296d565b915050610527565b508091505090565b60606000805b600480549050811015610911576000600482815481106107e5576107e461290f565b5b9060005260206000200180546107fa9061252b565b80601f01602080910402602001604051908101604052809291908181526020018280546108269061252b565b80156108735780601f1061084857610100808354040283529160200191610873565b820191906000526020600020905b81548152906001019060200180831161085657829003601f168201915b505050505090508473ffffffffffffffffffffffffffffffffffffffff166002826040516108a19190612604565b908152602001604051809103902060000160009054906101000a900473ffffffffffffffffffffffffffffffffffffffff1673ffffffffffffffffffffffffffffffffffffffff16036108fd5782806108f99061296d565b9350505b5080806109099061296d565b9150506107c2565b5060008167ffffffffffffffff81111561092e5761092d611d4b565b5b60405190808252806020026020018201604052801561096757816020015b610954611c88565b81526020019060019003908161094c5790505b5090506000805b600480549050811015610c7e576000600482815481106109915761099061290f565b5b9060005260206000200180546109a69061252b565b80601f01602080910402602001604051908101604052809291908181526020018280546109d29061252b565b8015610a1f5780601f106109f457610100808354040283529160200191610a1f565b820191906000526020600020905b815481529060010190602001808311610a0257829003601f168201915b505050505090508673ffffffffffffffffffffffffffffffffffffffff16600282604051610a4d9190612604565b908152602001604051809103902060000160009054906101000a900473ffffffffffffffffffffffffffffffffffffffff1673ffffffffffffffffffffffffffffffffffffffff1603610c6a57600281604051610aaa9190612604565b90815260200160405180910390206040518060600160405290816000820160009054906101000a900473ffffffffffffffffffffffffffffffffffffffff1673ffffffffffffffffffffffffffffffffffffffff1673ffffffffffffffffffffffffffffffffffffffff168152602001600182018054610b299061252b565b80601f0160208091040260200160405190810160405280929190818152602001828054610b559061252b565b8015610ba25780601f10610b7757610100808354040283529160200191610ba2565b820191906000526020600020905b815481529060010190602001808311610b8557829003601f168201915b50505050508152602001600282018054610bbb9061252b565b80601f0160208091040260200160405190810160405280929190818152602001828054610be79061252b565b8015610c345780601f10610c0957610100808354040283529160200191610c34565b820191906000526020600020905b815481529060010190602001808311610c1757829003601f168201915b505050505081525050848481518110610c5057610c4f61290f565b5b60200260200101819052508280610c669061296d565b9350505b508080610c769061296d565b91505061096e565b50819350505050919050565b60608060608060008060008773ffffffffffffffffffffffffffffffffffffffff1673ffffffffffffffffffffffffffffffffffffffff168152602001908152602001600020604051806080016040529081600082018054610ceb9061252b565b80601f0160208091040260200160405190810160405280929190818152602001828054610d179061252b565b8015610d645780601f10610d3957610100808354040283529160200191610d64565b820191906000526020600020905b815481529060010190602001808311610d4757829003601f168201915b50505050508152602001600182018054610d7d9061252b565b80601f0160208091040260200160405190810160405280929190818152602001828054610da99061252b565b8015610df65780601f10610dcb57610100808354040283529160200191610df6565b820191906000526020600020905b815481529060010190602001808311610dd957829003601f168201915b50505050508152602001600282018054610e0f9061252b565b80601f0160208091040260200160405190810160405280929190818152602001828054610e3b9061252b565b8015610e885780601f10610e5d57610100808354040283529160200191610e88565b820191906000526020600020905b815481529060010190602001808311610e6b57829003601f168201915b50505050508152602001600382018054610ea19061252b565b80601f0160208091040260200160405190810160405280929190818152602001828054610ecd9061252b565b8015610f1a5780601f10610eef57610100808354040283529160200191610f1a565b820191906000526020600020905b815481529060010190602001808311610efd57829003601f168201915b5050505050815250509050600081602001515111610f6d576040517f08c379a0000000000000000000000000000000000000000000000000000000008152600401610f6490612a01565b60405180910390fd5b80600001518160200151826060015183604001519450945094509450509193509193565b6000600282604051610fa39190612604565b90815260200160405180910390206040518060600160405290816000820160009054906101000a900473ffffffffffffffffffffffffffffffffffffffff1673ffffffffffffffffffffffffffffffffffffffff1673ffffffffffffffffffffffffffffffffffffffff1681526020016001820180546110229061252b565b80601f016020809104026020016040519081016040528092919081815260200182805461104e9061252b565b801561109b5780601f106110705761010080835404028352916020019161109b565b820191906000526020600020905b81548152906001019060200180831161107e57829003601f168201915b505050505081526020016002820180546110b49061252b565b80601f01602080910402602001604051908101604052809291908181526020018280546110e09061252b565b801561112d5780601f106111025761010080835404028352916020019161112d565b820191906000526020600020905b81548152906001019060200180831161111057829003601f168201915b5050505050815250509050600081602001515111611180576040517f08c379a000000000000000000000000000000000000000000000000000000000815260040161117790612a6d565b60405180910390fd5b3373ffffffffffffffffffffffffffffffffffffffff16816000015173ffffffffffffffffffffffffffffffffffffffff16146111f2576040517f08c379a00000000000000000000000000000000000000000000000000000000081526004016111e990612aff565b60405180910390fd5b6002826040516112029190612604565b9081526020016040518091039020600080820160006101000a81549073ffffffffffffffffffffffffffffffffffffffff02191690556001820160006112489190611cbf565b6002820160006112589190611cbf565b505060005b60048054905081101561134c578280519060200120600482815481106112865761128561290f565b5b9060005260206000200160405161129d9190612bc2565b60405180910390200361133957600460016004805490506112be9190612bd9565b815481106112cf576112ce61290f565b5b90600052602060002001600482815481106112ed576112ec61290f565b5b9060005260206000200190816113039190612c38565b50600480548061131657611315612d20565b5b6001900381819060005260206000200160006113329190611cbf565b905561134c565b80806113449061296d565b91505061125d565b506000600360003373ffffffffffffffffffffffffffffffffffffffff1673ffffffffffffffffffffffffffffffffffffffff168152602001908152602001600020905060005b81805490508110156115545783805190602001208282815481106113ba576113b961290f565b5b90600052602060002090600302016001016040516113d89190612bc2565b6040518091039020036115415781600183805490506113f79190612bd9565b815481106114085761140761290f565b5b90600052602060002090600302018282815481106114295761142861290f565b5b90600052602060002090600302016000820160009054906101000a900473ffffffffffffffffffffffffffffffffffffffff168160000160006101000a81548173ffffffffffffffffffffffffffffffffffffffff021916908373ffffffffffffffffffffffffffffffffffffffff160217905550600182018160010190816114b29190612d65565b50600282018160020190816114c79190612d65565b50905050818054806114dc576114db612d20565b5b6001900381819060005260206000209060030201600080820160006101000a81549073ffffffffffffffffffffffffffffffffffffffff02191690556001820160006115289190611cbf565b6002820160006115389190611cbf565b50509055611554565b808061154c9061296d565b915050611393565b50505050565b600082511161159e576040517f08c379a000000000000000000000000000000000000000000000000000000000815260040161159590612e99565b60405180910390fd5b60008151116115e2576040517f08c379a00000000000000000000000000000000000000000000000000000000081526004016115d990612f05565b60405180910390fd5b60006002836040516115f49190612604565b908152602001604051809103902060010180546116109061252b565b905014611652576040517f08c379a000000000000000000000000000000000000000000000000000000000815260040161164990612f71565b60405180910390fd5b60405180606001604052803373ffffffffffffffffffffffffffffffffffffffff168152602001838152602001828152506002836040516116939190612604565b908152602001604051809103902060008201518160000160006101000a81548173ffffffffffffffffffffffffffffffffffffffff021916908373ffffffffffffffffffffffffffffffffffffffff16021790555060208201518160010190816116fd919061283d565b506040820151816002019081611713919061283d565b50905050600360003373ffffffffffffffffffffffffffffffffffffffff1673ffffffffffffffffffffffffffffffffffffffff1681526020019081526020016000206002836040516117669190612604565b908152602001604051809103902090806001815401808255809150506001900390600052602060002090600302016000909190919091506000820160009054906101000a900473ffffffffffffffffffffffffffffffffffffffff168160000160006101000a81548173ffffffffffffffffffffffffffffffffffffffff021916908373ffffffffffffffffffffffffffffffffffffffff160217905550600182018160010190816118189190612d65565b506002820181600201908161182d9190612d65565b505050600482908060018154018082558091505060019003906000526020600020016000909190919091509081611864919061283d565b505050565b60006060600060028460405161187f9190612604565b90815260200160405180910390206040518060600160405290816000820160009054906101000a900473ffffffffffffffffffffffffffffffffffffffff1673ffffffffffffffffffffffffffffffffffffffff1673ffffffffffffffffffffffffffffffffffffffff1681526020016001820180546118fe9061252b565b80601f016020809104026020016040519081016040528092919081815260200182805461192a9061252b565b80156119775780601f1061194c57610100808354040283529160200191611977565b820191906000526020600020905b81548152906001019060200180831161195a57829003601f168201915b505050505081526020016002820180546119909061252b565b80601f01602080910402602001604051908101604052809291908181526020018280546119bc9061252b565b8015611a095780601f106119de57610100808354040283529160200191611a09565b820191906000526020600020905b8154815290600101906020018083116119ec57829003601f168201915b5050505050815250509050600081602001515111611a5c576040517f08c379a0000000000000000000000000000000000000000000000000000000008152600401611a5390612a6d565b60405180910390fd5b806000015181604001519250925050915091565b6060600360008373ffffffffffffffffffffffffffffffffffffffff1673ffffffffffffffffffffffffffffffffffffffff168152602001908152602001600020805480602002602001604051908101604052809291908181526020016000905b82821015611c7d57838290600052602060002090600302016040518060600160405290816000820160009054906101000a900473ffffffffffffffffffffffffffffffffffffffff1673ffffffffffffffffffffffffffffffffffffffff1673ffffffffffffffffffffffffffffffffffffffff168152602001600182018054611b5a9061252b565b80601f0160208091040260200160405190810160405280929190818152602001828054611b869061252b565b8015611bd35780601f10611ba857610100808354040283529160200191611bd3565b820191906000526020600020905b815481529060010190602001808311611bb657829003601f168201915b50505050508152602001600282018054611bec9061252b565b80601f0160208091040260200160405190810160405280929190818152602001828054611c189061252b565b8015611c655780601f10611c3a57610100808354040283529160200191611c65565b820191906000526020600020905b815481529060010190602001808311611c4857829003601f168201915b50505050508152505081526020019060010190611ad1565b505050509050919050565b6040518060600160405280600073ffffffffffffffffffffffffffffffffffffffff16815260200160608152602001606081525090565b508054611ccb9061252b565b6000825580601f10611cdd5750611cfc565b601f016020900490600052602060002090810190611cfb9190611cff565b5b50565b5b80821115611d18576000816000905550600101611d00565b5090565b6000604051905090565b600080fd5b600080fd5b600080fd5b600080fd5b6000601f19601f8301169050919050565b7f4e487b7100000000000000000000000000000000000000000000000000000000600052604160045260246000fd5b611d8382611d3a565b810181811067ffffffffffffffff82111715611da257611da1611d4b565b5b80604052505050565b6000611db5611d1c565b9050611dc18282611d7a565b919050565b600067ffffffffffffffff821115611de157611de0611d4b565b5b611dea82611d3a565b9050602081019050919050565b82818337600083830152505050565b6000611e19611e1484611dc6565b611dab565b905082815260208101848484011115611e3557611e34611d35565b5b611e40848285611df7565b509392505050565b600082601f830112611e5d57611e5c611d30565b5b8135611e6d848260208601611e06565b91505092915050565b60008060008060808587031215611e9057611e8f611d26565b5b600085013567ffffffffffffffff811115611eae57611ead611d2b565b5b611eba87828801611e48565b945050602085013567ffffffffffffffff811115611edb57611eda611d2b565b5b611ee787828801611e48565b935050604085013567ffffffffffffffff811115611f0857611f07611d2b565b5b611f1487828801611e48565b925050606085013567ffffffffffffffff811115611f3557611f34611d2b565b5b611f4187828801611e48565b91505092959194509250565b600081519050919050565b600082825260208201905092915050565b6000819050602082019050919050565b600073ffffffffffffffffffffffffffffffffffffffff82169050919050565b6000611fa482611f79565b9050919050565b611fb481611f99565b82525050565b600081519050919050565b600082825260208201905092915050565b60005b83811015611ff4578082015181840152602081019050611fd9565b60008484015250505050565b600061200b82611fba565b6120158185611fc5565b9350612025818560208601611fd6565b61202e81611d3a565b840191505092915050565b60006060830160008301516120516000860182611fab565b50602083015184820360208601526120698282612000565b915050604083015184820360408601526120838282612000565b9150508091505092915050565b600061209c8383612039565b905092915050565b6000602082019050919050565b60006120bc82611f4d565b6120c68185611f58565b9350836020820285016120d885611f69565b8060005b8581101561211457848403895281516120f58582612090565b9450612100836120a4565b925060208a019950506001810190506120dc565b50829750879550505050505092915050565b6000602082019050818103600083015261214081846120b1565b905092915050565b61215181611f99565b811461215c57600080fd5b50565b60008135905061216e81612148565b92915050565b60006020828403121561218a57612189611d26565b5b60006121988482850161215f565b91505092915050565b600082825260208201905092915050565b60006121bd82611fba565b6121c781856121a1565b93506121d7818560208601611fd6565b6121e081611d3a565b840191505092915050565b6000608082019050818103600083015261220581876121b2565b9050818103602083015261221981866121b2565b9050818103604083015261222d81856121b2565b9050818103606083015261224181846121b2565b905095945050505050565b60006020828403121561226257612261611d26565b5b600082013567ffffffffffffffff8111156122805761227f611d2b565b5b61228c84828501611e48565b91505092915050565b600080604083850312156122ac576122ab611d26565b5b600083013567ffffffffffffffff8111156122ca576122c9611d2b565b5b6122d685828601611e48565b925050602083013567ffffffffffffffff8111156122f7576122f6611d2b565b5b61230385828601611e48565b9150509250929050565b61231681611f99565b82525050565b6000604082019050612331600083018561230d565b818103602083015261234381846121b2565b90509392505050565b7f46756c6c206e616d652069732072657175697265642e00000000000000000000600082015250565b60006123826016836121a1565b915061238d8261234c565b602082019050919050565b600060208201905081810360008301526123b181612375565b9050919050565b7f456d61696c2069732072657175697265642e0000000000000000000000000000600082015250565b60006123ee6012836121a1565b91506123f9826123b8565b602082019050919050565b6000602082019050818103600083015261241d816123e1565b9050919050565b7f50617373776f72642069732072657175697265642e0000000000000000000000600082015250565b600061245a6015836121a1565b915061246582612424565b602082019050919050565b600060208201905081810360008301526124898161244d565b9050919050565b7f557365726e616d652069732072657175697265642e0000000000000000000000600082015250565b60006124c66015836121a1565b91506124d182612490565b602082019050919050565b600060208201905081810360008301526124f5816124b9565b9050919050565b7f4e487b7100000000000000000000000000000000000000000000000000000000600052602260045260246000fd5b6000600282049050600182168061254357607f821691505b602082108103612556576125556124fc565b5b50919050565b7f5573657220616c726561647920726567697374657265642e0000000000000000600082015250565b60006125926018836121a1565b915061259d8261255c565b602082019050919050565b600060208201905081810360008301526125c181612585565b9050919050565b600081905092915050565b60006125de82611fba565b6125e881856125c8565b93506125f8818560208601611fd6565b80840191505092915050565b600061261082846125d3565b915081905092915050565b7f557365726e616d6520616c72656164792074616b656e2e000000000000000000600082015250565b60006126516017836121a1565b915061265c8261261b565b602082019050919050565b6000602082019050818103600083015261268081612644565b9050919050565b60008190508160005260206000209050919050565b60006020601f8301049050919050565b600082821b905092915050565b6000600883026126e97fffffffffffffffffffffffffffffffffffffffffffffffffffffffffffffffff826126ac565b6126f386836126ac565b95508019841693508086168417925050509392505050565b6000819050919050565b6000819050919050565b600061273a6127356127308461270b565b612715565b61270b565b9050919050565b6000819050919050565b6127548361271f565b61276861276082612741565b8484546126b9565b825550505050565b600090565b61277d612770565b61278881848461274b565b505050565b5b818110156127ac576127a1600082612775565b60018101905061278e565b5050565b601f8211156127f1576127c281612687565b6127cb8461269c565b810160208510156127da578190505b6127ee6127e68561269c565b83018261278d565b50505b505050565b600082821c905092915050565b6000612814600019846008026127f6565b1980831691505092915050565b600061282d8383612803565b9150826002028217905092915050565b61284682611fba565b67ffffffffffffffff81111561285f5761285e611d4b565b5b612869825461252b565b6128748282856127b0565b600060209050601f8311600181146128a75760008415612895578287015190505b61289f8582612821565b865550612907565b601f1984166128b586612687565b60005b828110156128dd578489015182556001820191506020850194506020810190506128b8565b868310156128fa57848901516128f6601f891682612803565b8355505b6001600288020188555050505b505050505050565b7f4e487b7100000000000000000000000000000000000000000000000000000000600052603260045260246000fd5b7f4e487b7100000000000000000000000000000000000000000000000000000000600052601160045260246000fd5b60006129788261270b565b91507fffffffffffffffffffffffffffffffffffffffffffffffffffffffffffffffff82036129aa576129a961293e565b5b600182019050919050565b7f55736572206e6f7420666f756e642e0000000000000000000000000000000000600082015250565b60006129eb600f836121a1565b91506129f6826129b5565b602082019050919050565b60006020820190508181036000830152612a1a816129de565b9050919050565b7f4365727469666963617465206e6f7420666f756e642e00000000000000000000600082015250565b6000612a576016836121a1565b9150612a6282612a21565b602082019050919050565b60006020820190508181036000830152612a8681612a4a565b9050919050565b7f4f6e6c7920746865206f776e65722063616e2064656c6574652074686520636560008201527f7274696669636174652e00000000000000000000000000000000000000000000602082015250565b6000612ae9602a836121a1565b9150612af482612a8d565b604082019050919050565b60006020820190508181036000830152612b1881612adc565b9050919050565b600081905092915050565b60008190508160005260206000209050919050565b60008154612b4c8161252b565b612b568186612b1f565b94506001821660008114612b715760018114612b8657612bb9565b60ff1983168652811515820286019350612bb9565b612b8f85612b2a565b60005b83811015612bb157815481890152600182019150602081019050612b92565b838801955050505b50505092915050565b6000612bce8284612b3f565b915081905092915050565b6000612be48261270b565b9150612bef8361270b565b9250828203905081811115612c0757612c0661293e565b5b92915050565b600081549050612c1c8161252b565b9050919050565b60008190508160005260206000209050919050565b818103612c46575050612d1e565b612c4f82612c0d565b67ffffffffffffffff811115612c6857612c67611d4b565b5b612c72825461252b565b612c7d8282856127b0565b6000601f831160018114612cac5760008415612c9a578287015490505b612ca48582612821565b865550612d17565b601f198416612cba87612c23565b9650612cc586612687565b60005b82811015612ced57848901548255600182019150600185019450602081019050612cc8565b86831015612d0a5784890154612d06601f891682612803565b8355505b6001600288020188555050505b5050505050505b565b7f4e487b7100000000000000000000000000000000000000000000000000000000600052603160045260246000fd5b600081549050612d5e8161252b565b9050919050565b818103612d73575050612e4b565b612d7c82612d4f565b67ffffffffffffffff811115612d9557612d94611d4b565b5b612d9f825461252b565b612daa8282856127b0565b6000601f831160018114612dd95760008415612dc7578287015490505b612dd18582612821565b865550612e44565b601f198416612de787612687565b9650612df286612687565b60005b82811015612e1a57848901548255600182019150600185019450602081019050612df5565b86831015612e375784890154612e33601f891682612803565b8355505b6001600288020188555050505b5050505050505b565b7f436572746966696361746520686173682069732072657175697265642e000000600082015250565b6000612e83601d836121a1565b9150612e8e82612e4d565b602082019050919050565b60006020820190508181036000830152612eb281612e76565b9050919050565b7f46696c6520706174682069732072657175697265642e00000000000000000000600082015250565b6000612eef6016836121a1565b9150612efa82612eb9565b602082019050919050565b60006020820190508181036000830152612f1e81612ee2565b9050919050565b7f436572746966696361746520616c7265616479206578697374732e0000000000600082015250565b6000612f5b601b836121a1565b9150612f6682612f25565b602082019050919050565b60006020820190508181036000830152612f8a81612f4e565b905091905056fea2646970667358221220e789f8cc5600774079be4f7a861321eb1afc6b91de69fdf2dbca364a555b742464736f6c63430008130033",
  "immutableReferences": {},
  "source": "// SPDX-License-Identifier: MIT\npragma solidity 0.8.19;\n\ncontract certi {\n    // Struct to represent a user\n    struct User {\n        string fullName;\n        string email;\n        string password; // Store hashed password\n        string username;\n    }\n\n    // Struct to represent a certificate\n    struct Certificate {\n        address owner;\n        string hash; // Unique hash for the certificate\n        string filePath; // File path for the certificate\n    }\n\n    // Mapping to store users by their Ethereum address\n    mapping(address => User) private users;\n\n    // Mapping to ensure unique usernames\n    mapping(string => bool) private usernames;\n\n    // Mapping to store certificates by their hash\n    mapping(string => Certificate) private certificates;\n\n    // Mapping to store certificates associated with a user's address\n    mapping(address => Certificate[]) private user_certificates;\n\n    // Array to store all certificate hashes\n    string[] private allCertificateHashes;\n\n    // Function to add a new user\n    function addUser(\n        string memory fullName, \n        string memory email, \n        string memory password, \n        string memory username\n    ) public {\n        require(bytes(fullName).length > 0, \"Full name is required.\");\n        require(bytes(email).length > 0, \"Email is required.\");\n        require(bytes(password).length > 0, \"Password is required.\");\n        require(bytes(username).length > 0, \"Username is required.\");\n\n        require(bytes(users[msg.sender].email).length == 0, \"User already registered.\");\n        require(!usernames[username], \"Username already taken.\");\n\n        users[msg.sender] = User(fullName, email, password, username);\n        usernames[username] = true;\n    }\n\n    // Function to fetch user details\n    function getUser(address userAddress)\n        public\n        view\n        returns (string memory fullName, string memory email, string memory username, string memory password)\n    {\n        User memory user = users[userAddress];\n        require(bytes(user.email).length > 0, \"User not found.\");\n        return (user.fullName, user.email, user.username, user.password);\n    }\n\n    // Function to add a certificate\n    function addCertificate(string memory hash, string memory filePath) public {\n        require(bytes(hash).length > 0, \"Certificate hash is required.\");\n        require(bytes(filePath).length > 0, \"File path is required.\");\n        require(bytes(certificates[hash].hash).length == 0, \"Certificate already exists.\");\n\n        certificates[hash] = Certificate(msg.sender, hash, filePath);\n        user_certificates[msg.sender].push(certificates[hash]);\n        allCertificateHashes.push(hash);\n    }\n\n    // Function to get certificate details\n    function getCertificate(string memory hash)\n        public\n        view\n        returns (address owner, string memory filePath)\n    {\n        Certificate memory certificate = certificates[hash];\n        require(bytes(certificate.hash).length > 0, \"Certificate not found.\");\n        return (certificate.owner, certificate.filePath);\n    }\n\n    // Function to fetch certificates for a specific address\n    function getCertificates(address userAddress) public view returns (Certificate[] memory) {\n        return user_certificates[userAddress];\n    }\n\n    // Function to fetch all certificates in the system\n    function getAllCertificates() public view returns (Certificate[] memory) {\n        Certificate[] memory allCertificates = new Certificate[](allCertificateHashes.length);\n\n        for (uint256 i = 0; i < allCertificateHashes.length; i++) {\n            string memory certificateHash = allCertificateHashes[i];\n            allCertificates[i] = certificates[certificateHash];\n        }\n\n        return allCertificates;\n    }\n\n    // Function to fetch all certificates associated with a specific address\n    function getCertificatesByOwner(address userAddress) public view returns (Certificate[] memory) {\n        uint256 count = 0;\n\n        for (uint256 i = 0; i < allCertificateHashes.length; i++) {\n            string memory certificateHash = allCertificateHashes[i];\n            if (certificates[certificateHash].owner == userAddress) {\n                count++;\n            }\n        }\n\n        Certificate[] memory userCertificates = new Certificate[](count);\n        uint256 index = 0;\n        for (uint256 i = 0; i < allCertificateHashes.length; i++) {\n            string memory certificateHash = allCertificateHashes[i];\n            if (certificates[certificateHash].owner == userAddress) {\n                userCertificates[index] = certificates[certificateHash];\n                index++;\n            }\n        }\n\n        return userCertificates;\n    }\n\n    // Function to delete a certificate\n    function deleteCertificate(string memory hash) public {\n        Certificate memory cert = certificates[hash];\n        require(bytes(cert.hash).length > 0, \"Certificate not found.\");\n        require(cert.owner == msg.sender, \"Only the owner can delete the certificate.\");\n\n        // Remove from the certificates mapping\n        delete certificates[hash];\n\n        // Remove from allCertificateHashes\n        for (uint256 i = 0; i < allCertificateHashes.length; i++) {\n            if (keccak256(bytes(allCertificateHashes[i])) == keccak256(bytes(hash))) {\n                allCertificateHashes[i] = allCertificateHashes[allCertificateHashes.length - 1];\n                allCertificateHashes.pop();\n                break;\n            }\n        }\n\n        // Remove from user_certificates\n        Certificate[] storage userCerts = user_certificates[msg.sender];\n        for (uint256 i = 0; i < userCerts.length; i++) {\n            if (keccak256(bytes(userCerts[i].hash)) == keccak256(bytes(hash))) {\n                userCerts[i] = userCerts[userCerts.length - 1];\n                userCerts.pop();\n                break;\n            }\n        }\n    }\n}\n",
  "sourcePath": "E:\\KITS-BLOCKCHAIN\\New-certi\\contracts\\certi.sol",
  "compiler": {
    "name": "solc",
    "version": "0.8.19+commit.7dd6d404.Emscripten.clang"
  },
  "schemaVersion": "3.4.16",
  "updatedAt": "2024-12-31T10:17:24.398Z",
  "networkType": "ethereum",
  "devdoc": {
    "kind": "dev",
    "methods": {},
    "version": 1
  },
  "userdoc": {
    "kind": "user",
    "methods": {},
    "version": 1
  }
}