{
  "contractName": "Certi",
  "abi": [
    {
      "inputs": [
        {
          "internalType": "uint256",
          "name": "_certificateId",
          "type": "uint256"
        },
        {
          "internalType": "string",
          "name": "_newStatus",
          "type": "string"
        }
      ],
      "name": "updateCertificateStatus",
      "outputs": [],
      "stateMutability": "nonpayable",
      "type": "function"
    },
    {
      "inputs": [
        {
          "internalType": "address",
          "name": "_issuer",
          "type": "address"
        },
        {
          "internalType": "address",
          "name": "_user",
          "type": "address"
        },
        {
          "internalType": "string",
          "name": "_hash",
          "type": "string"
        },
        {
          "internalType": "string",
          "name": "_title",
          "type": "string"
        },
        {
          "internalType": "string",
          "name": "_filePath",
          "type": "string"
        }
      ],
      "name": "addCertificate",
      "outputs": [],
      "stateMutability": "nonpayable",
      "type": "function"
    },
    {
      "inputs": [
        {
          "internalType": "address",
          "name": "_issuedBy",
          "type": "address"
        },
        {
          "internalType": "address",
          "name": "_user",
          "type": "address"
        },
        {
          "internalType": "address",
          "name": "_organizationAddress",
          "type": "address"
        },
        {
          "internalType": "string",
          "name": "_username",
          "type": "string"
        },
        {
          "internalType": "string",
          "name": "_organizationName",
          "type": "string"
        },
        {
          "internalType": "string",
          "name": "_filepath",
          "type": "string"
        }
      ],
      "name": "addVerificationCertificate",
      "outputs": [],
      "stateMutability": "nonpayable",
      "type": "function"
    },
    {
      "inputs": [
        {
          "internalType": "uint256",
          "name": "_id",
          "type": "uint256"
        },
        {
          "internalType": "bool",
          "name": "_newStatus",
          "type": "bool"
        }
      ],
      "name": "changeRequestSentStatus",
      "outputs": [],
      "stateMutability": "nonpayable",
      "type": "function"
    },
    {
      "inputs": [],
      "name": "getAllRequestSentTrue",
      "outputs": [
        {
          "components": [
            {
              "internalType": "uint256",
              "name": "id",
              "type": "uint256"
            },
            {
              "internalType": "address",
              "name": "issuedBy",
              "type": "address"
            },
            {
              "internalType": "address",
              "name": "user",
              "type": "address"
            },
            {
              "internalType": "address",
              "name": "organizationAddress",
              "type": "address"
            },
            {
              "internalType": "string",
              "name": "username",
              "type": "string"
            },
            {
              "internalType": "string",
              "name": "organizationName",
              "type": "string"
            },
            {
              "internalType": "string",
              "name": "filepath",
              "type": "string"
            },
            {
              "internalType": "string",
              "name": "status",
              "type": "string"
            },
            {
              "internalType": "bool",
              "name": "request_sent",
              "type": "bool"
            }
          ],
          "internalType": "struct Certi.VerificationCertificates[]",
          "name": "",
          "type": "tuple[]"
        }
      ],
      "stateMutability": "view",
      "type": "function",
      "constant": true
    },
    {
      "inputs": [
        {
          "internalType": "address",
          "name": "_user",
          "type": "address"
        }
      ],
      "name": "getUserVerificationCertificates",
      "outputs": [
        {
          "components": [
            {
              "internalType": "uint256",
              "name": "id",
              "type": "uint256"
            },
            {
              "internalType": "address",
              "name": "issuedBy",
              "type": "address"
            },
            {
              "internalType": "address",
              "name": "user",
              "type": "address"
            },
            {
              "internalType": "address",
              "name": "organizationAddress",
              "type": "address"
            },
            {
              "internalType": "string",
              "name": "username",
              "type": "string"
            },
            {
              "internalType": "string",
              "name": "organizationName",
              "type": "string"
            },
            {
              "internalType": "string",
              "name": "filepath",
              "type": "string"
            },
            {
              "internalType": "string",
              "name": "status",
              "type": "string"
            },
            {
              "internalType": "bool",
              "name": "request_sent",
              "type": "bool"
            }
          ],
          "internalType": "struct Certi.VerificationCertificates[]",
          "name": "",
          "type": "tuple[]"
        }
      ],
      "stateMutability": "view",
      "type": "function",
      "constant": true
    },
    {
      "inputs": [
        {
          "internalType": "address",
          "name": "_organizationAddress",
          "type": "address"
        }
      ],
      "name": "getOrganizationVerificationCertificates",
      "outputs": [
        {
          "components": [
            {
              "internalType": "uint256",
              "name": "id",
              "type": "uint256"
            },
            {
              "internalType": "address",
              "name": "issuedBy",
              "type": "address"
            },
            {
              "internalType": "address",
              "name": "user",
              "type": "address"
            },
            {
              "internalType": "address",
              "name": "organizationAddress",
              "type": "address"
            },
            {
              "internalType": "string",
              "name": "username",
              "type": "string"
            },
            {
              "internalType": "string",
              "name": "organizationName",
              "type": "string"
            },
            {
              "internalType": "string",
              "name": "filepath",
              "type": "string"
            },
            {
              "internalType": "string",
              "name": "status",
              "type": "string"
            },
            {
              "internalType": "bool",
              "name": "request_sent",
              "type": "bool"
            }
          ],
          "internalType": "struct Certi.VerificationCertificates[]",
          "name": "",
          "type": "tuple[]"
        }
      ],
      "stateMutability": "view",
      "type": "function",
      "constant": true
    },
    {
      "inputs": [
        {
          "internalType": "uint256",
          "name": "_id",
          "type": "uint256"
        }
      ],
      "name": "getCertificateById",
      "outputs": [
        {
          "internalType": "uint256",
          "name": "",
          "type": "uint256"
        },
        {
          "internalType": "address",
          "name": "",
          "type": "address"
        },
        {
          "internalType": "address",
          "name": "",
          "type": "address"
        },
        {
          "internalType": "address",
          "name": "",
          "type": "address"
        },
        {
          "internalType": "string",
          "name": "",
          "type": "string"
        },
        {
          "internalType": "string",
          "name": "",
          "type": "string"
        },
        {
          "internalType": "string",
          "name": "",
          "type": "string"
        },
        {
          "internalType": "string",
          "name": "",
          "type": "string"
        }
      ],
      "stateMutability": "view",
      "type": "function",
      "constant": true
    },
    {
      "inputs": [
        {
          "internalType": "string",
          "name": "_fullName",
          "type": "string"
        },
        {
          "internalType": "string",
          "name": "_email",
          "type": "string"
        },
        {
          "internalType": "string",
          "name": "_password",
          "type": "string"
        },
        {
          "internalType": "string",
          "name": "_username",
          "type": "string"
        },
        {
          "internalType": "string",
          "name": "_usertype",
          "type": "string"
        }
      ],
      "name": "addUser",
      "outputs": [],
      "stateMutability": "nonpayable",
      "type": "function"
    },
    {
      "inputs": [
        {
          "internalType": "address",
          "name": "_userAddress",
          "type": "address"
        }
      ],
      "name": "getUser",
      "outputs": [
        {
          "internalType": "string",
          "name": "fullName",
          "type": "string"
        },
        {
          "internalType": "string",
          "name": "email",
          "type": "string"
        },
        {
          "internalType": "string",
          "name": "username",
          "type": "string"
        },
        {
          "internalType": "string",
          "name": "password",
          "type": "string"
        },
        {
          "internalType": "string",
          "name": "usertype",
          "type": "string"
        }
      ],
      "stateMutability": "view",
      "type": "function",
      "constant": true
    },
    {
      "inputs": [
        {
          "internalType": "address",
          "name": "_userAddress",
          "type": "address"
        }
      ],
      "name": "getCertificates",
      "outputs": [
        {
          "components": [
            {
              "internalType": "address",
              "name": "issuer",
              "type": "address"
            },
            {
              "internalType": "address",
              "name": "user",
              "type": "address"
            },
            {
              "internalType": "string",
              "name": "hash",
              "type": "string"
            },
            {
              "internalType": "string",
              "name": "title",
              "type": "string"
            },
            {
              "internalType": "string",
              "name": "filePath",
              "type": "string"
            },
            {
              "internalType": "bool",
              "name": "exist",
              "type": "bool"
            }
          ],
          "internalType": "struct Certi.Certificate[]",
          "name": "",
          "type": "tuple[]"
        }
      ],
      "stateMutability": "view",
      "type": "function",
      "constant": true
    },
    {
      "inputs": [
        {
          "internalType": "address",
          "name": "_issuer",
          "type": "address"
        }
      ],
      "name": "getOrganizationCertificates",
      "outputs": [
        {
          "components": [
            {
              "internalType": "address",
              "name": "issuer",
              "type": "address"
            },
            {
              "internalType": "address",
              "name": "user",
              "type": "address"
            },
            {
              "internalType": "string",
              "name": "hash",
              "type": "string"
            },
            {
              "internalType": "string",
              "name": "title",
              "type": "string"
            },
            {
              "internalType": "string",
              "name": "filePath",
              "type": "string"
            },
            {
              "internalType": "bool",
              "name": "exist",
              "type": "bool"
            }
          ],
          "internalType": "struct Certi.Certificate[]",
          "name": "",
          "type": "tuple[]"
        }
      ],
      "stateMutability": "view",
      "type": "function",
      "constant": true
    },
    {
      "inputs": [
        {
          "internalType": "address",
          "name": "_userAddress",
          "type": "address"
        }
      ],
      "name": "getUsername",
      "outputs": [
        {
          "internalType": "string",
          "name": "",
          "type": "string"
        }
      ],
      "stateMutability": "view",
      "type": "function",
      "constant": true
    },
    {
      "inputs": [
        {
          "internalType": "address",
          "name": "_organizationAddress",
          "type": "address"
        },
        {
          "internalType": "string",
          "name": "_hash",
          "type": "string"
        }
      ],
      "name": "checkHashExists",
      "outputs": [
        {
          "internalType": "string",
          "name": "",
          "type": "string"
        }
      ],
      "stateMutability": "view",
      "type": "function",
      "constant": true
    }
  ],
  "bytecode": "0x608060405234801561001057600080fd5b50614418806100206000396000f3fe608060405234801561001057600080fd5b50600436106100ea5760003560e01c80639d735caf1161008c578063b37a3d8211610066578063b37a3d821461028c578063ce43c032146102a8578063f1c49c62146102d8578063f32372b414610308576100ea565b80639d735caf146101f5578063a1fd5d721461022c578063ac0696ab1461025c576100ea565b806359f74bc0116100c857806359f74bc0146101595780636234f6e3146101755780636f77926b146101915780638d945b57146101c5576100ea565b80632ec35d21146100ef578063463405911461010b57806352cfb9b01461013b575b600080fd5b610109600480360381019061010491906132cb565b610324565b005b61012560048036038101906101209190613385565b61048c565b6040516101329190613460565b60405180910390f35b6101436105e9565b60405161015091906136a1565b60405180910390f35b610173600480360381019061016e91906136c3565b610ab2565b005b61018f600480360381019061018a91906137a4565b61108a565b005b6101ab60048036038101906101a69190613873565b6114bf565b6040516101bc9594939291906138a0565b60405180910390f35b6101df60048036038101906101da9190613873565b611864565b6040516101ec91906136a1565b60405180910390f35b61020f600480360381019061020a9190613916565b611c72565b604051610223989796959493929190613961565b60405180910390f35b61024660048036038101906102419190613873565b612054565b60405161025391906136a1565b60405180910390f35b61027660048036038101906102719190613873565b612462565b6040516102839190613b54565b60405180910390f35b6102a660048036038101906102a19190613b76565b61277d565b005b6102c260048036038101906102bd9190613873565b61298f565b6040516102cf9190613460565b60405180910390f35b6102f260048036038101906102ed9190613873565b612af4565b6040516102ff9190613b54565b60405180910390f35b610322600480360381019061031d9190613ca9565b612e0e565b005b60006004600084815260200190815260200160002090506000816000015403610382576040517f08c379a000000000000000000000000000000000000000000000000000000000815260040161037990613d35565b60405180910390fd5b818160070190816103939190613f61565b5060008160030160009054906101000a900473ffffffffffffffffffffffffffffffffffffffff1690506000600360008373ffffffffffffffffffffffffffffffffffffffff1673ffffffffffffffffffffffffffffffffffffffff168152602001908152602001600020905060005b8180549050811015610484578582828154811061042357610422614033565b5b90600052602060002090600902016000015403610471578482828154811061044e5761044d614033565b5b9060005260206000209060090201600701908161046b9190613f61565b50610484565b808061047c90614091565b915050610403565b505050505050565b60606000600160008573ffffffffffffffffffffffffffffffffffffffff1673ffffffffffffffffffffffffffffffffffffffff168152602001908152602001600020905060005b81805490508110156105a857836040516020016104f19190614115565b6040516020818303038152906040528051906020012082828154811061051a57610519614033565b5b906000526020600020906006020160020160405160200161053b91906141af565b6040516020818303038152906040528051906020012003610595576040518060400160405280601781526020017f4365727469666963617465206861736820657869737473000000000000000000815250925050506105e3565b80806105a090614091565b9150506104d4565b506040518060400160405280601f81526020017f4365727469666963617465206861736820646f6573206e6f74206578697374008152509150505b92915050565b6060600080600190505b6005548111610647576004600082815260200190815260200160002060080160009054906101000a900460ff161561063457818061063090614091565b9250505b808061063f90614091565b9150506105f3565b5060008167ffffffffffffffff811115610664576106636131a0565b5b60405190808252806020026020018201604052801561069d57816020015b61068a6130ab565b8152602001906001900390816106825790505b509050600080600190505b6005548111610aa8576004600082815260200190815260200160002060080160009054906101000a900460ff1615610a95576004600082815260200190815260200160002060405180610120016040529081600082015481526020016001820160009054906101000a900473ffffffffffffffffffffffffffffffffffffffff1673ffffffffffffffffffffffffffffffffffffffff1673ffffffffffffffffffffffffffffffffffffffff1681526020016002820160009054906101000a900473ffffffffffffffffffffffffffffffffffffffff1673ffffffffffffffffffffffffffffffffffffffff1673ffffffffffffffffffffffffffffffffffffffff1681526020016003820160009054906101000a900473ffffffffffffffffffffffffffffffffffffffff1673ffffffffffffffffffffffffffffffffffffffff1673ffffffffffffffffffffffffffffffffffffffff16815260200160048201805461081590613d84565b80601f016020809104026020016040519081016040528092919081815260200182805461084190613d84565b801561088e5780601f106108635761010080835404028352916020019161088e565b820191906000526020600020905b81548152906001019060200180831161087157829003601f168201915b505050505081526020016005820180546108a790613d84565b80601f01602080910402602001604051908101604052809291908181526020018280546108d390613d84565b80156109205780601f106108f557610100808354040283529160200191610920565b820191906000526020600020905b81548152906001019060200180831161090357829003601f168201915b5050505050815260200160068201805461093990613d84565b80601f016020809104026020016040519081016040528092919081815260200182805461096590613d84565b80156109b25780601f10610987576101008083540402835291602001916109b2565b820191906000526020600020905b81548152906001019060200180831161099557829003601f168201915b505050505081526020016007820180546109cb90613d84565b80601f01602080910402602001604051908101604052809291908181526020018280546109f790613d84565b8015610a445780601f10610a1957610100808354040283529160200191610a44565b820191906000526020600020905b815481529060010190602001808311610a2757829003601f168201915b505050505081526020016008820160009054906101000a900460ff161515151581525050838381518110610a7b57610a7a614033565b5b60200260200101819052508180610a9190614091565b9250505b8080610aa090614091565b9150506106a8565b5081935050505090565b60056000815480929190610ac590614091565b9190505550600060405180610120016040528060055481526020018873ffffffffffffffffffffffffffffffffffffffff1681526020018773ffffffffffffffffffffffffffffffffffffffff1681526020018673ffffffffffffffffffffffffffffffffffffffff1681526020018581526020018481526020018381526020016040518060400160405280600781526020017f70656e64696e67000000000000000000000000000000000000000000000000008152508152602001600015158152509050600260008773ffffffffffffffffffffffffffffffffffffffff1673ffffffffffffffffffffffffffffffffffffffff1681526020019081526020016000208190806001815401808255809150506001900390600052602060002090600902016000909190919091506000820151816000015560208201518160010160006101000a81548173ffffffffffffffffffffffffffffffffffffffff021916908373ffffffffffffffffffffffffffffffffffffffff16021790555060408201518160020160006101000a81548173ffffffffffffffffffffffffffffffffffffffff021916908373ffffffffffffffffffffffffffffffffffffffff16021790555060608201518160030160006101000a81548173ffffffffffffffffffffffffffffffffffffffff021916908373ffffffffffffffffffffffffffffffffffffffff1602179055506080820151816004019081610ce79190613f61565b5060a0820151816005019081610cfd9190613f61565b5060c0820151816006019081610d139190613f61565b5060e0820151816007019081610d299190613f61565b506101008201518160080160006101000a81548160ff0219169083151502179055505050600360008673ffffffffffffffffffffffffffffffffffffffff1673ffffffffffffffffffffffffffffffffffffffff1681526020019081526020016000208190806001815401808255809150506001900390600052602060002090600902016000909190919091506000820151816000015560208201518160010160006101000a81548173ffffffffffffffffffffffffffffffffffffffff021916908373ffffffffffffffffffffffffffffffffffffffff16021790555060408201518160020160006101000a81548173ffffffffffffffffffffffffffffffffffffffff021916908373ffffffffffffffffffffffffffffffffffffffff16021790555060608201518160030160006101000a81548173ffffffffffffffffffffffffffffffffffffffff021916908373ffffffffffffffffffffffffffffffffffffffff1602179055506080820151816004019081610eaa9190613f61565b5060a0820151816005019081610ec09190613f61565b5060c0820151816006019081610ed69190613f61565b5060e0820151816007019081610eec9190613f61565b506101008201518160080160006101000a81548160ff0219169083151502179055505050806004600060055481526020019081526020016000206000820151816000015560208201518160010160006101000a81548173ffffffffffffffffffffffffffffffffffffffff021916908373ffffffffffffffffffffffffffffffffffffffff16021790555060408201518160020160006101000a81548173ffffffffffffffffffffffffffffffffffffffff021916908373ffffffffffffffffffffffffffffffffffffffff16021790555060608201518160030160006101000a81548173ffffffffffffffffffffffffffffffffffffffff021916908373ffffffffffffffffffffffffffffffffffffffff160217905550608082015181600401908161101a9190613f61565b5060a08201518160050190816110309190613f61565b5060c08201518160060190816110469190613f61565b5060e082015181600701908161105c9190613f61565b506101008201518160080160006101000a81548160ff02191690831515021790555090505050505050505050565b6000600160008773ffffffffffffffffffffffffffffffffffffffff1673ffffffffffffffffffffffffffffffffffffffff168152602001908152602001600020905060005b81805490508110156111a057846040516020016110ed9190614115565b6040516020818303038152906040528051906020012082828154811061111657611115614033565b5b906000526020600020906006020160020160405160200161113791906141af565b604051602081830303815290604052805190602001200361118d576040517f08c379a000000000000000000000000000000000000000000000000000000000815260040161118490614212565b60405180910390fd5b808061119890614091565b9150506110d0565b5060006040518060c001604052808873ffffffffffffffffffffffffffffffffffffffff1681526020018773ffffffffffffffffffffffffffffffffffffffff1681526020018681526020018581526020018481526020016001151581525090506000808773ffffffffffffffffffffffffffffffffffffffff1673ffffffffffffffffffffffffffffffffffffffff16815260200190815260200160002081908060018154018082558091505060019003906000526020600020906006020160009091909190915060008201518160000160006101000a81548173ffffffffffffffffffffffffffffffffffffffff021916908373ffffffffffffffffffffffffffffffffffffffff16021790555060208201518160010160006101000a81548173ffffffffffffffffffffffffffffffffffffffff021916908373ffffffffffffffffffffffffffffffffffffffff160217905550604082015181600201908161130c9190613f61565b5060608201518160030190816113229190613f61565b5060808201518160040190816113389190613f61565b5060a08201518160050160006101000a81548160ff0219169083151502179055505050600160008873ffffffffffffffffffffffffffffffffffffffff1673ffffffffffffffffffffffffffffffffffffffff16815260200190815260200160002081908060018154018082558091505060019003906000526020600020906006020160009091909190915060008201518160000160006101000a81548173ffffffffffffffffffffffffffffffffffffffff021916908373ffffffffffffffffffffffffffffffffffffffff16021790555060208201518160010160006101000a81548173ffffffffffffffffffffffffffffffffffffffff021916908373ffffffffffffffffffffffffffffffffffffffff16021790555060408201518160020190816114679190613f61565b50606082015181600301908161147d9190613f61565b5060808201518160040190816114939190613f61565b5060a08201518160050160006101000a81548160ff021916908315150217905550505050505050505050565b60608060608060606000600660008873ffffffffffffffffffffffffffffffffffffffff1673ffffffffffffffffffffffffffffffffffffffff1681526020019081526020016000206040518060a001604052908160008201805461152390613d84565b80601f016020809104026020016040519081016040528092919081815260200182805461154f90613d84565b801561159c5780601f106115715761010080835404028352916020019161159c565b820191906000526020600020905b81548152906001019060200180831161157f57829003601f168201915b505050505081526020016001820180546115b590613d84565b80601f01602080910402602001604051908101604052809291908181526020018280546115e190613d84565b801561162e5780601f106116035761010080835404028352916020019161162e565b820191906000526020600020905b81548152906001019060200180831161161157829003601f168201915b5050505050815260200160028201805461164790613d84565b80601f016020809104026020016040519081016040528092919081815260200182805461167390613d84565b80156116c05780601f10611695576101008083540402835291602001916116c0565b820191906000526020600020905b8154815290600101906020018083116116a357829003601f168201915b505050505081526020016003820180546116d990613d84565b80601f016020809104026020016040519081016040528092919081815260200182805461170590613d84565b80156117525780601f1061172757610100808354040283529160200191611752565b820191906000526020600020905b81548152906001019060200180831161173557829003601f168201915b5050505050815260200160048201805461176b90613d84565b80601f016020809104026020016040519081016040528092919081815260200182805461179790613d84565b80156117e45780601f106117b9576101008083540402835291602001916117e4565b820191906000526020600020905b8154815290600101906020018083116117c757829003601f168201915b5050505050815250509050600081602001515111611837576040517f08c379a000000000000000000000000000000000000000000000000000000000815260040161182e9061427e565b60405180910390fd5b80600001518160200151826060015183604001518460800151955095509550955095505091939590929450565b6060600360008373ffffffffffffffffffffffffffffffffffffffff1673ffffffffffffffffffffffffffffffffffffffff168152602001908152602001600020805480602002602001604051908101604052809291908181526020016000905b82821015611c67578382906000526020600020906009020160405180610120016040529081600082015481526020016001820160009054906101000a900473ffffffffffffffffffffffffffffffffffffffff1673ffffffffffffffffffffffffffffffffffffffff1673ffffffffffffffffffffffffffffffffffffffff1681526020016002820160009054906101000a900473ffffffffffffffffffffffffffffffffffffffff1673ffffffffffffffffffffffffffffffffffffffff1673ffffffffffffffffffffffffffffffffffffffff1681526020016003820160009054906101000a900473ffffffffffffffffffffffffffffffffffffffff1673ffffffffffffffffffffffffffffffffffffffff1673ffffffffffffffffffffffffffffffffffffffff168152602001600482018054611a0590613d84565b80601f0160208091040260200160405190810160405280929190818152602001828054611a3190613d84565b8015611a7e5780601f10611a5357610100808354040283529160200191611a7e565b820191906000526020600020905b815481529060010190602001808311611a6157829003601f168201915b50505050508152602001600582018054611a9790613d84565b80601f0160208091040260200160405190810160405280929190818152602001828054611ac390613d84565b8015611b105780601f10611ae557610100808354040283529160200191611b10565b820191906000526020600020905b815481529060010190602001808311611af357829003601f168201915b50505050508152602001600682018054611b2990613d84565b80601f0160208091040260200160405190810160405280929190818152602001828054611b5590613d84565b8015611ba25780601f10611b7757610100808354040283529160200191611ba2565b820191906000526020600020905b815481529060010190602001808311611b8557829003601f168201915b50505050508152602001600782018054611bbb90613d84565b80601f0160208091040260200160405190810160405280929190818152602001828054611be790613d84565b8015611c345780601f10611c0957610100808354040283529160200191611c34565b820191906000526020600020905b815481529060010190602001808311611c1757829003601f168201915b505050505081526020016008820160009054906101000a900460ff161515151581525050815260200190600101906118c5565b505050509050919050565b6000806000806060806060806000600460008b815260200190815260200160002060405180610120016040529081600082015481526020016001820160009054906101000a900473ffffffffffffffffffffffffffffffffffffffff1673ffffffffffffffffffffffffffffffffffffffff1673ffffffffffffffffffffffffffffffffffffffff1681526020016002820160009054906101000a900473ffffffffffffffffffffffffffffffffffffffff1673ffffffffffffffffffffffffffffffffffffffff1673ffffffffffffffffffffffffffffffffffffffff1681526020016003820160009054906101000a900473ffffffffffffffffffffffffffffffffffffffff1673ffffffffffffffffffffffffffffffffffffffff1673ffffffffffffffffffffffffffffffffffffffff168152602001600482018054611dbb90613d84565b80601f0160208091040260200160405190810160405280929190818152602001828054611de790613d84565b8015611e345780601f10611e0957610100808354040283529160200191611e34565b820191906000526020600020905b815481529060010190602001808311611e1757829003601f168201915b50505050508152602001600582018054611e4d90613d84565b80601f0160208091040260200160405190810160405280929190818152602001828054611e7990613d84565b8015611ec65780601f10611e9b57610100808354040283529160200191611ec6565b820191906000526020600020905b815481529060010190602001808311611ea957829003601f168201915b50505050508152602001600682018054611edf90613d84565b80601f0160208091040260200160405190810160405280929190818152602001828054611f0b90613d84565b8015611f585780601f10611f2d57610100808354040283529160200191611f58565b820191906000526020600020905b815481529060010190602001808311611f3b57829003601f168201915b50505050508152602001600782018054611f7190613d84565b80601f0160208091040260200160405190810160405280929190818152602001828054611f9d90613d84565b8015611fea5780601f10611fbf57610100808354040283529160200191611fea565b820191906000526020600020905b815481529060010190602001808311611fcd57829003601f168201915b505050505081526020016008820160009054906101000a900460ff1615151515815250509050806000015181602001518260400151836060015184608001518560a001518660c001518760e001519850985098509850985098509850985050919395975091939597565b6060600260008373ffffffffffffffffffffffffffffffffffffffff1673ffffffffffffffffffffffffffffffffffffffff168152602001908152602001600020805480602002602001604051908101604052809291908181526020016000905b82821015612457578382906000526020600020906009020160405180610120016040529081600082015481526020016001820160009054906101000a900473ffffffffffffffffffffffffffffffffffffffff1673ffffffffffffffffffffffffffffffffffffffff1673ffffffffffffffffffffffffffffffffffffffff1681526020016002820160009054906101000a900473ffffffffffffffffffffffffffffffffffffffff1673ffffffffffffffffffffffffffffffffffffffff1673ffffffffffffffffffffffffffffffffffffffff1681526020016003820160009054906101000a900473ffffffffffffffffffffffffffffffffffffffff1673ffffffffffffffffffffffffffffffffffffffff1673ffffffffffffffffffffffffffffffffffffffff1681526020016004820180546121f590613d84565b80601f016020809104026020016040519081016040528092919081815260200182805461222190613d84565b801561226e5780601f106122435761010080835404028352916020019161226e565b820191906000526020600020905b81548152906001019060200180831161225157829003601f168201915b5050505050815260200160058201805461228790613d84565b80601f01602080910402602001604051908101604052809291908181526020018280546122b390613d84565b80156123005780601f106122d557610100808354040283529160200191612300565b820191906000526020600020905b8154815290600101906020018083116122e357829003601f168201915b5050505050815260200160068201805461231990613d84565b80601f016020809104026020016040519081016040528092919081815260200182805461234590613d84565b80156123925780601f1061236757610100808354040283529160200191612392565b820191906000526020600020905b81548152906001019060200180831161237557829003601f168201915b505050505081526020016007820180546123ab90613d84565b80601f01602080910402602001604051908101604052809291908181526020018280546123d790613d84565b80156124245780601f106123f957610100808354040283529160200191612424565b820191906000526020600020905b81548152906001019060200180831161240757829003601f168201915b505050505081526020016008820160009054906101000a900460ff161515151581525050815260200190600101906120b5565b505050509050919050565b6060600160008373ffffffffffffffffffffffffffffffffffffffff1673ffffffffffffffffffffffffffffffffffffffff168152602001908152602001600020805480602002602001604051908101604052809291908181526020016000905b8282101561277257838290600052602060002090600602016040518060c00160405290816000820160009054906101000a900473ffffffffffffffffffffffffffffffffffffffff1673ffffffffffffffffffffffffffffffffffffffff1673ffffffffffffffffffffffffffffffffffffffff1681526020016001820160009054906101000a900473ffffffffffffffffffffffffffffffffffffffff1673ffffffffffffffffffffffffffffffffffffffff1673ffffffffffffffffffffffffffffffffffffffff1681526020016002820180546125a290613d84565b80601f01602080910402602001604051908101604052809291908181526020018280546125ce90613d84565b801561261b5780601f106125f05761010080835404028352916020019161261b565b820191906000526020600020905b8154815290600101906020018083116125fe57829003601f168201915b5050505050815260200160038201805461263490613d84565b80601f016020809104026020016040519081016040528092919081815260200182805461266090613d84565b80156126ad5780601f10612682576101008083540402835291602001916126ad565b820191906000526020600020905b81548152906001019060200180831161269057829003601f168201915b505050505081526020016004820180546126c690613d84565b80601f01602080910402602001604051908101604052809291908181526020018280546126f290613d84565b801561273f5780601f106127145761010080835404028352916020019161273f565b820191906000526020600020905b81548152906001019060200180831161272257829003601f168201915b505050505081526020016005820160009054906101000a900460ff161515151581525050815260200190600101906124c3565b505050509050919050565b6000600660003373ffffffffffffffffffffffffffffffffffffffff1673ffffffffffffffffffffffffffffffffffffffff16815260200190815260200160002060010180546127cc90613d84565b90501461280e576040517f08c379a0000000000000000000000000000000000000000000000000000000008152600401612805906142ea565b60405180910390fd5b60078260405161281e9190614115565b908152602001604051809103902060009054906101000a900460ff161561287a576040517f08c379a000000000000000000000000000000000000000000000000000000000815260040161287190614356565b60405180910390fd5b6040518060a0016040528086815260200185815260200184815260200183815260200182815250600660003373ffffffffffffffffffffffffffffffffffffffff1673ffffffffffffffffffffffffffffffffffffffff16815260200190815260200160002060008201518160000190816128f59190613f61565b50602082015181600101908161290b9190613f61565b5060408201518160020190816129219190613f61565b5060608201518160030190816129379190613f61565b50608082015181600401908161294d9190613f61565b5090505060016007836040516129639190614115565b908152602001604051809103902060006101000a81548160ff0219169083151502179055505050505050565b60606000600660008473ffffffffffffffffffffffffffffffffffffffff1673ffffffffffffffffffffffffffffffffffffffff16815260200190815260200160002060010180546129e090613d84565b905011612a22576040517f08c379a0000000000000000000000000000000000000000000000000000000008152600401612a19906143c2565b60405180910390fd5b600660008373ffffffffffffffffffffffffffffffffffffffff1673ffffffffffffffffffffffffffffffffffffffff1681526020019081526020016000206003018054612a6f90613d84565b80601f0160208091040260200160405190810160405280929190818152602001828054612a9b90613d84565b8015612ae85780601f10612abd57610100808354040283529160200191612ae8565b820191906000526020600020905b815481529060010190602001808311612acb57829003601f168201915b50505050509050919050565b60606000808373ffffffffffffffffffffffffffffffffffffffff1673ffffffffffffffffffffffffffffffffffffffff168152602001908152602001600020805480602002602001604051908101604052809291908181526020016000905b82821015612e0357838290600052602060002090600602016040518060c00160405290816000820160009054906101000a900473ffffffffffffffffffffffffffffffffffffffff1673ffffffffffffffffffffffffffffffffffffffff1673ffffffffffffffffffffffffffffffffffffffff1681526020016001820160009054906101000a900473ffffffffffffffffffffffffffffffffffffffff1673ffffffffffffffffffffffffffffffffffffffff1673ffffffffffffffffffffffffffffffffffffffff168152602001600282018054612c3390613d84565b80601f0160208091040260200160405190810160405280929190818152602001828054612c5f90613d84565b8015612cac5780601f10612c8157610100808354040283529160200191612cac565b820191906000526020600020905b815481529060010190602001808311612c8f57829003601f168201915b50505050508152602001600382018054612cc590613d84565b80601f0160208091040260200160405190810160405280929190818152602001828054612cf190613d84565b8015612d3e5780601f10612d1357610100808354040283529160200191612d3e565b820191906000526020600020905b815481529060010190602001808311612d2157829003601f168201915b50505050508152602001600482018054612d5790613d84565b80601f0160208091040260200160405190810160405280929190818152602001828054612d8390613d84565b8015612dd05780601f10612da557610100808354040283529160200191612dd0565b820191906000526020600020905b815481529060010190602001808311612db357829003601f168201915b505050505081526020016005820160009054906101000a900460ff16151515158152505081526020019060010190612b54565b505050509050919050565b6000600460008481526020019081526020016000206000015403612e67576040517f08c379a0000000000000000000000000000000000000000000000000000000008152600401612e5e90613d35565b60405180910390fd5b806004600084815260200190815260200160002060080160006101000a81548160ff0219169083151502179055506000600260006004600086815260200190815260200160002060020160009054906101000a900473ffffffffffffffffffffffffffffffffffffffff1673ffffffffffffffffffffffffffffffffffffffff1673ffffffffffffffffffffffffffffffffffffffff168152602001908152602001600020905060005b8180549050811015612f9c5783828281548110612f3157612f30614033565b5b90600052602060002090600902016000015403612f895782828281548110612f5c57612f5b614033565b5b906000526020600020906009020160080160006101000a81548160ff021916908315150217905550612f9c565b8080612f9490614091565b915050612f11565b506000600360006004600087815260200190815260200160002060030160009054906101000a900473ffffffffffffffffffffffffffffffffffffffff1673ffffffffffffffffffffffffffffffffffffffff1673ffffffffffffffffffffffffffffffffffffffff168152602001908152602001600020905060005b81805490508110156130a4578482828154811061303957613038614033565b5b90600052602060002090600902016000015403613091578382828154811061306457613063614033565b5b906000526020600020906009020160080160006101000a81548160ff0219169083151502179055506130a4565b808061309c90614091565b915050613019565b5050505050565b60405180610120016040528060008152602001600073ffffffffffffffffffffffffffffffffffffffff168152602001600073ffffffffffffffffffffffffffffffffffffffff168152602001600073ffffffffffffffffffffffffffffffffffffffff168152602001606081526020016060815260200160608152602001606081526020016000151581525090565b6000604051905090565b600080fd5b600080fd5b6000819050919050565b6131628161314f565b811461316d57600080fd5b50565b60008135905061317f81613159565b92915050565b600080fd5b600080fd5b6000601f19601f8301169050919050565b7f4e487b7100000000000000000000000000000000000000000000000000000000600052604160045260246000fd5b6131d88261318f565b810181811067ffffffffffffffff821117156131f7576131f66131a0565b5b80604052505050565b600061320a61313b565b905061321682826131cf565b919050565b600067ffffffffffffffff821115613236576132356131a0565b5b61323f8261318f565b9050602081019050919050565b82818337600083830152505050565b600061326e6132698461321b565b613200565b90508281526020810184848401111561328a5761328961318a565b5b61329584828561324c565b509392505050565b600082601f8301126132b2576132b1613185565b5b81356132c284826020860161325b565b91505092915050565b600080604083850312156132e2576132e1613145565b5b60006132f085828601613170565b925050602083013567ffffffffffffffff8111156133115761331061314a565b5b61331d8582860161329d565b9150509250929050565b600073ffffffffffffffffffffffffffffffffffffffff82169050919050565b600061335282613327565b9050919050565b61336281613347565b811461336d57600080fd5b50565b60008135905061337f81613359565b92915050565b6000806040838503121561339c5761339b613145565b5b60006133aa85828601613370565b925050602083013567ffffffffffffffff8111156133cb576133ca61314a565b5b6133d78582860161329d565b9150509250929050565b600081519050919050565b600082825260208201905092915050565b60005b8381101561341b578082015181840152602081019050613400565b60008484015250505050565b6000613432826133e1565b61343c81856133ec565b935061344c8185602086016133fd565b6134558161318f565b840191505092915050565b6000602082019050818103600083015261347a8184613427565b905092915050565b600081519050919050565b600082825260208201905092915050565b6000819050602082019050919050565b6134b78161314f565b82525050565b6134c681613347565b82525050565b600082825260208201905092915050565b60006134e8826133e1565b6134f281856134cc565b93506135028185602086016133fd565b61350b8161318f565b840191505092915050565b60008115159050919050565b61352b81613516565b82525050565b60006101208301600083015161354a60008601826134ae565b50602083015161355d60208601826134bd565b50604083015161357060408601826134bd565b50606083015161358360608601826134bd565b506080830151848203608086015261359b82826134dd565b91505060a083015184820360a08601526135b582826134dd565b91505060c083015184820360c08601526135cf82826134dd565b91505060e083015184820360e08601526135e982826134dd565b915050610100830151613600610100860182613522565b508091505092915050565b60006136178383613531565b905092915050565b6000602082019050919050565b600061363782613482565b613641818561348d565b9350836020820285016136538561349e565b8060005b8581101561368f5784840389528151613670858261360b565b945061367b8361361f565b925060208a01995050600181019050613657565b50829750879550505050505092915050565b600060208201905081810360008301526136bb818461362c565b905092915050565b60008060008060008060c087890312156136e0576136df613145565b5b60006136ee89828a01613370565b96505060206136ff89828a01613370565b955050604061371089828a01613370565b945050606087013567ffffffffffffffff8111156137315761373061314a565b5b61373d89828a0161329d565b935050608087013567ffffffffffffffff81111561375e5761375d61314a565b5b61376a89828a0161329d565b92505060a087013567ffffffffffffffff81111561378b5761378a61314a565b5b61379789828a0161329d565b9150509295509295509295565b600080600080600060a086880312156137c0576137bf613145565b5b60006137ce88828901613370565b95505060206137df88828901613370565b945050604086013567ffffffffffffffff811115613800576137ff61314a565b5b61380c8882890161329d565b935050606086013567ffffffffffffffff81111561382d5761382c61314a565b5b6138398882890161329d565b925050608086013567ffffffffffffffff81111561385a5761385961314a565b5b6138668882890161329d565b9150509295509295909350565b60006020828403121561388957613888613145565b5b600061389784828501613370565b91505092915050565b600060a08201905081810360008301526138ba8188613427565b905081810360208301526138ce8187613427565b905081810360408301526138e28186613427565b905081810360608301526138f68185613427565b9050818103608083015261390a8184613427565b90509695505050505050565b60006020828403121561392c5761392b613145565b5b600061393a84828501613170565b91505092915050565b61394c8161314f565b82525050565b61395b81613347565b82525050565b600061010082019050613977600083018b613943565b613984602083018a613952565b6139916040830189613952565b61399e6060830188613952565b81810360808301526139b08187613427565b905081810360a08301526139c48186613427565b905081810360c08301526139d88185613427565b905081810360e08301526139ec8184613427565b90509998505050505050505050565b600081519050919050565b600082825260208201905092915050565b6000819050602082019050919050565b600060c083016000830151613a3f60008601826134bd565b506020830151613a5260208601826134bd565b5060408301518482036040860152613a6a82826134dd565b91505060608301518482036060860152613a8482826134dd565b91505060808301518482036080860152613a9e82826134dd565b91505060a0830151613ab360a0860182613522565b508091505092915050565b6000613aca8383613a27565b905092915050565b6000602082019050919050565b6000613aea826139fb565b613af48185613a06565b935083602082028501613b0685613a17565b8060005b85811015613b425784840389528151613b238582613abe565b9450613b2e83613ad2565b925060208a01995050600181019050613b0a565b50829750879550505050505092915050565b60006020820190508181036000830152613b6e8184613adf565b905092915050565b600080600080600060a08688031215613b9257613b91613145565b5b600086013567ffffffffffffffff811115613bb057613baf61314a565b5b613bbc8882890161329d565b955050602086013567ffffffffffffffff811115613bdd57613bdc61314a565b5b613be98882890161329d565b945050604086013567ffffffffffffffff811115613c0a57613c0961314a565b5b613c168882890161329d565b935050606086013567ffffffffffffffff811115613c3757613c3661314a565b5b613c438882890161329d565b925050608086013567ffffffffffffffff811115613c6457613c6361314a565b5b613c708882890161329d565b9150509295509295909350565b613c8681613516565b8114613c9157600080fd5b50565b600081359050613ca381613c7d565b92915050565b60008060408385031215613cc057613cbf613145565b5b6000613cce85828601613170565b9250506020613cdf85828601613c94565b9150509250929050565b7f4365727469666963617465206e6f7420666f756e642e00000000000000000000600082015250565b6000613d1f6016836133ec565b9150613d2a82613ce9565b602082019050919050565b60006020820190508181036000830152613d4e81613d12565b9050919050565b7f4e487b7100000000000000000000000000000000000000000000000000000000600052602260045260246000fd5b60006002820490506001821680613d9c57607f821691505b602082108103613daf57613dae613d55565b5b50919050565b60008190508160005260206000209050919050565b60006020601f8301049050919050565b600082821b905092915050565b600060088302613e177fffffffffffffffffffffffffffffffffffffffffffffffffffffffffffffffff82613dda565b613e218683613dda565b95508019841693508086168417925050509392505050565b6000819050919050565b6000613e5e613e59613e548461314f565b613e39565b61314f565b9050919050565b6000819050919050565b613e7883613e43565b613e8c613e8482613e65565b848454613de7565b825550505050565b600090565b613ea1613e94565b613eac818484613e6f565b505050565b5b81811015613ed057613ec5600082613e99565b600181019050613eb2565b5050565b601f821115613f1557613ee681613db5565b613eef84613dca565b81016020851015613efe578190505b613f12613f0a85613dca565b830182613eb1565b50505b505050565b600082821c905092915050565b6000613f3860001984600802613f1a565b1980831691505092915050565b6000613f518383613f27565b9150826002028217905092915050565b613f6a826133e1565b67ffffffffffffffff811115613f8357613f826131a0565b5b613f8d8254613d84565b613f98828285613ed4565b600060209050601f831160018114613fcb5760008415613fb9578287015190505b613fc38582613f45565b86555061402b565b601f198416613fd986613db5565b60005b8281101561400157848901518255600182019150602085019450602081019050613fdc565b8683101561401e578489015161401a601f891682613f27565b8355505b6001600288020188555050505b505050505050565b7f4e487b7100000000000000000000000000000000000000000000000000000000600052603260045260246000fd5b7f4e487b7100000000000000000000000000000000000000000000000000000000600052601160045260246000fd5b600061409c8261314f565b91507fffffffffffffffffffffffffffffffffffffffffffffffffffffffffffffffff82036140ce576140cd614062565b5b600182019050919050565b600081905092915050565b60006140ef826133e1565b6140f981856140d9565b93506141098185602086016133fd565b80840191505092915050565b600061412182846140e4565b915081905092915050565b6000815461413981613d84565b61414381866140d9565b9450600182166000811461415e5760018114614173576141a6565b60ff19831686528115158202860193506141a6565b61417c85613db5565b60005b8381101561419e5781548189015260018201915060208101905061417f565b838801955050505b50505092915050565b60006141bb828461412c565b915081905092915050565b7f436572746966696361746520616c726561647920657869737473000000000000600082015250565b60006141fc601a836133ec565b9150614207826141c6565b602082019050919050565b6000602082019050818103600083015261422b816141ef565b9050919050565b7f55736572206e6f7420666f756e642e0000000000000000000000000000000000600082015250565b6000614268600f836133ec565b915061427382614232565b602082019050919050565b600060208201905081810360008301526142978161425b565b9050919050565b7f5573657220616c726561647920726567697374657265642e0000000000000000600082015250565b60006142d46018836133ec565b91506142df8261429e565b602082019050919050565b60006020820190508181036000830152614303816142c7565b9050919050565b7f557365726e616d6520616c72656164792074616b656e2e000000000000000000600082015250565b60006143406017836133ec565b915061434b8261430a565b602082019050919050565b6000602082019050818103600083015261436f81614333565b9050919050565b7f5573657220646f6573206e6f742065786973742e000000000000000000000000600082015250565b60006143ac6014836133ec565b91506143b782614376565b602082019050919050565b600060208201905081810360008301526143db8161439f565b905091905056fea26469706673582212207d87e7a0e91c61110e5e1feb0b879e11869035876c108b3809443bda3867450264736f6c63430008130033",
  "immutableReferences": {},
  "source": "// SPDX-License-Identifier: MIT\npragma solidity 0.8.19;\n\ncontract Certi {\n    struct User {\n        string fullName;\n        string email;\n        string password; // Store hashed password\n        string username;\n        string usertype; // User type field\n    }\n\n    struct Certificate {\n        address issuer;\n        address user;\n        string hash;\n        string title;\n        string filePath;\n        bool exist;\n    }\n\n    struct VerificationCertificates {\n        uint id;\n        address issuedBy;\n        address user;\n        address organizationAddress;\n        string username;\n        string organizationName;\n        string filepath;\n        string status;\n        bool request_sent;\n    }\n\n    mapping(address => Certificate[]) private userCertificates;\n    mapping(address => Certificate[]) private organizationCertificates;\n\n    mapping(address => VerificationCertificates[])\n        private userVerificationCertificates;\n    mapping(address => VerificationCertificates[])\n        private organizationVerificationCertificates;\n    mapping(uint => VerificationCertificates) private certificates;\n    uint private certificateCounter;\n\n    function updateCertificateStatus(\n        uint _certificateId,\n        string memory _newStatus\n    ) public {\n        // Update the status in the certificates mapping\n        VerificationCertificates storage certificate = certificates[\n            _certificateId\n        ];\n        require(certificate.id != 0, \"Certificate not found.\");\n        certificate.status = _newStatus;\n\n        // Find and update the status in organizationVerificationCertificates\n        address orgAddress = certificate.organizationAddress;\n        VerificationCertificates[]\n            storage orgCerts = organizationVerificationCertificates[orgAddress];\n\n        for (uint i = 0; i < orgCerts.length; i++) {\n            if (orgCerts[i].id == _certificateId) {\n                orgCerts[i].status = _newStatus;\n                break;\n            }\n        }\n    }\n\n    mapping(address => User) private users;\n    mapping(string => bool) private usernames;\n\n    // Function to add a certificate\n    function addCertificate(\n        address _issuer,\n        address _user,\n        string memory _hash,\n        string memory _title,\n        string memory _filePath\n    ) public {\n        Certificate[] storage issuerCertificates = organizationCertificates[\n            _issuer\n        ];\n        for (uint i = 0; i < issuerCertificates.length; i++) {\n            require(\n                keccak256(abi.encodePacked(issuerCertificates[i].hash)) !=\n                    keccak256(abi.encodePacked(_hash)),\n                \"Certificate already exists\"\n            );\n        }\n\n        Certificate memory newCertificate = Certificate({\n            issuer: _issuer,\n            user: _user,\n            hash: _hash,\n            title: _title,\n            filePath: _filePath,\n            exist: true\n        });\n\n        userCertificates[_user].push(newCertificate);\n        organizationCertificates[_issuer].push(newCertificate);\n    }\n\n    // Function to add a new verification certificate\n    function addVerificationCertificate(\n        address _issuedBy,\n        address _user,\n        address _organizationAddress,\n        string memory _username,\n        string memory _organizationName,\n        string memory _filepath\n    ) public {\n        certificateCounter++;\n\n        VerificationCertificates\n            memory newCertificate = VerificationCertificates({\n                id: certificateCounter,\n                issuedBy: _issuedBy,\n                user: _user,\n                organizationAddress: _organizationAddress,\n                username: _username,\n                organizationName: _organizationName,\n                filepath: _filepath,\n                status: \"pending\",\n                request_sent: false\n            });\n\n        userVerificationCertificates[_user].push(newCertificate);\n        organizationVerificationCertificates[_organizationAddress].push(\n            newCertificate\n        );\n        certificates[certificateCounter] = newCertificate;\n    }\n\n    // Function to change the request_sent status of a certificate by ID\n    function changeRequestSentStatus(uint _id, bool _newStatus) public {\n        require(certificates[_id].id != 0, \"Certificate not found.\");\n\n        certificates[_id].request_sent = _newStatus;\n\n        VerificationCertificates[]\n            storage userCerts = userVerificationCertificates[\n                certificates[_id].user\n            ];\n        for (uint i = 0; i < userCerts.length; i++) {\n            if (userCerts[i].id == _id) {\n                userCerts[i].request_sent = _newStatus;\n                break;\n            }\n        }\n\n        VerificationCertificates[]\n            storage orgCerts = organizationVerificationCertificates[\n                certificates[_id].organizationAddress\n            ];\n        for (uint i = 0; i < orgCerts.length; i++) {\n            if (orgCerts[i].id == _id) {\n                orgCerts[i].request_sent = _newStatus;\n                break;\n            }\n        }\n    }\n\n    // Function to fetch all certificates where request_sent is true\n    function getAllRequestSentTrue()\n        public\n        view\n        returns (VerificationCertificates[] memory)\n    {\n        uint count = 0;\n        for (uint i = 1; i <= certificateCounter; i++) {\n            if (certificates[i].request_sent) {\n                count++;\n            }\n        }\n\n        VerificationCertificates[]\n            memory result = new VerificationCertificates[](count);\n        uint index = 0;\n        for (uint i = 1; i <= certificateCounter; i++) {\n            if (certificates[i].request_sent) {\n                result[index] = certificates[i];\n                index++;\n            }\n        }\n        return result;\n    }\n\n    // Function to fetch user verification certificates\n    function getUserVerificationCertificates(\n        address _user\n    ) public view returns (VerificationCertificates[] memory) {\n        return userVerificationCertificates[_user];\n    }\n\n    // Function to fetch organization verification certificates\n    function getOrganizationVerificationCertificates(\n        address _organizationAddress\n    ) public view returns (VerificationCertificates[] memory) {\n        return organizationVerificationCertificates[_organizationAddress];\n    }\n\n    // Function to fetch details by ID\n    function getCertificateById(\n        uint _id\n    )\n        public\n        view\n        returns (\n            uint,\n            address,\n            address,\n            address,\n            string memory,\n            string memory,\n            string memory,\n            string memory\n        )\n    {\n        VerificationCertificates memory certificate = certificates[_id];\n        return (\n            certificate.id,\n            certificate.issuedBy,\n            certificate.user,\n            certificate.organizationAddress,\n            certificate.username,\n            certificate.organizationName,\n            certificate.filepath,\n            certificate.status\n        );\n    }\n\n    // Function to add a new user\n    function addUser(\n        string memory _fullName,\n        string memory _email,\n        string memory _password,\n        string memory _username,\n        string memory _usertype\n    ) public {\n        require(\n            bytes(users[msg.sender].email).length == 0,\n            \"User already registered.\"\n        );\n        require(!usernames[_username], \"Username already taken.\");\n\n        users[msg.sender] = User(\n            _fullName,\n            _email,\n            _password,\n            _username,\n            _usertype\n        );\n        usernames[_username] = true;\n    }\n\n    // Function to fetch user details\n    function getUser(\n        address _userAddress\n    )\n        public\n        view\n        returns (\n            string memory fullName,\n            string memory email,\n            string memory username,\n            string memory password,\n            string memory usertype\n        )\n    {\n        User memory user = users[_userAddress];\n        require(bytes(user.email).length > 0, \"User not found.\");\n        return (\n            user.fullName,\n            user.email,\n            user.username,\n            user.password,\n            user.usertype\n        );\n    }\n\n    // Function to fetch certificates for a specific user\n    function getCertificates(\n        address _userAddress\n    ) public view returns (Certificate[] memory) {\n        return userCertificates[_userAddress];\n    }\n\n    // Function to fetch all certificates for a specific organization\n    function getOrganizationCertificates(\n        address _issuer\n    ) public view returns (Certificate[] memory) {\n        return organizationCertificates[_issuer];\n    }\n\n    // Function to fetch the username by address\n    function getUsername(\n        address _userAddress\n    ) public view returns (string memory) {\n        require(\n            bytes(users[_userAddress].email).length > 0,\n            \"User does not exist.\"\n        );\n        return users[_userAddress].username;\n    }\n\n    // Function to check if a hash already exists in the user's certificates\n    function checkHashExists(\n        address _organizationAddress,\n        string memory _hash\n    ) public view returns (string memory) {\n        Certificate[] storage certificates = organizationCertificates[\n            _organizationAddress\n        ];\n        for (uint i = 0; i < certificates.length; i++) {\n            if (\n                keccak256(abi.encodePacked(certificates[i].hash)) ==\n                keccak256(abi.encodePacked(_hash))\n            ) {\n                return \"Certificate hash exists\";\n            }\n        }\n        return \"Certificate hash does not exist\";\n    }\n}\n",
  "sourcePath": "E:\\KITS-BLOCKCHAIN\\New-certi\\contracts\\certi.sol",
  "compiler": {
    "name": "solc",
    "version": "0.8.19+commit.7dd6d404.Emscripten.clang"
  },
  "schemaVersion": "3.4.16",
  "updatedAt": "2025-01-15T11:29:16.183Z",
  "networkType": "ethereum",
  "devdoc": {
    "kind": "dev",
    "methods": {},
    "version": 1
  },
  "userdoc": {
    "kind": "user",
    "methods": {},
    "version": 1
  }
}