{
  "contractName": "Certi",
  "abi": [
    {
      "inputs": [
        {
          "internalType": "uint256",
          "name": "",
          "type": "uint256"
        }
      ],
      "name": "allCertificateHashes",
      "outputs": [
        {
          "internalType": "string",
          "name": "",
          "type": "string"
        }
      ],
      "stateMutability": "view",
      "type": "function",
      "constant": true
    },
    {
      "inputs": [
        {
          "internalType": "string",
          "name": "",
          "type": "string"
        }
      ],
      "name": "certificateDetails",
      "outputs": [
        {
          "internalType": "address",
          "name": "issuer",
          "type": "address"
        },
        {
          "internalType": "string",
          "name": "hash",
          "type": "string"
        },
        {
          "internalType": "string",
          "name": "filePath",
          "type": "string"
        }
      ],
      "stateMutability": "view",
      "type": "function",
      "constant": true
    },
    {
      "inputs": [
        {
          "internalType": "string",
          "name": "fullName",
          "type": "string"
        },
        {
          "internalType": "string",
          "name": "email",
          "type": "string"
        },
        {
          "internalType": "string",
          "name": "password",
          "type": "string"
        },
        {
          "internalType": "string",
          "name": "username",
          "type": "string"
        },
        {
          "internalType": "string",
          "name": "usertype",
          "type": "string"
        }
      ],
      "name": "addUser",
      "outputs": [],
      "stateMutability": "nonpayable",
      "type": "function"
    },
    {
      "inputs": [
        {
          "internalType": "address",
          "name": "userAddress",
          "type": "address"
        }
      ],
      "name": "getUser",
      "outputs": [
        {
          "internalType": "string",
          "name": "fullName",
          "type": "string"
        },
        {
          "internalType": "string",
          "name": "email",
          "type": "string"
        },
        {
          "internalType": "string",
          "name": "username",
          "type": "string"
        },
        {
          "internalType": "string",
          "name": "password",
          "type": "string"
        },
        {
          "internalType": "string",
          "name": "usertype",
          "type": "string"
        }
      ],
      "stateMutability": "view",
      "type": "function",
      "constant": true
    },
    {
      "inputs": [
        {
          "internalType": "string",
          "name": "certificateId",
          "type": "string"
        },
        {
          "internalType": "string",
          "name": "hash",
          "type": "string"
        },
        {
          "internalType": "string",
          "name": "filePath",
          "type": "string"
        },
        {
          "internalType": "address",
          "name": "userAddress",
          "type": "address"
        }
      ],
      "name": "addCertificate",
      "outputs": [],
      "stateMutability": "nonpayable",
      "type": "function"
    },
    {
      "inputs": [
        {
          "internalType": "address",
          "name": "userAddress",
          "type": "address"
        }
      ],
      "name": "getCertificates",
      "outputs": [
        {
          "components": [
            {
              "internalType": "address",
              "name": "issuer",
              "type": "address"
            },
            {
              "internalType": "string",
              "name": "hash",
              "type": "string"
            },
            {
              "internalType": "string",
              "name": "filePath",
              "type": "string"
            }
          ],
          "internalType": "struct Certi.Certificate[]",
          "name": "",
          "type": "tuple[]"
        }
      ],
      "stateMutability": "view",
      "type": "function",
      "constant": true
    },
    {
      "inputs": [],
      "name": "getAllCertificates",
      "outputs": [
        {
          "components": [
            {
              "internalType": "address",
              "name": "issuer",
              "type": "address"
            },
            {
              "internalType": "string",
              "name": "hash",
              "type": "string"
            },
            {
              "internalType": "string",
              "name": "filePath",
              "type": "string"
            }
          ],
          "internalType": "struct Certi.Certificate[]",
          "name": "",
          "type": "tuple[]"
        }
      ],
      "stateMutability": "view",
      "type": "function",
      "constant": true
    },
    {
      "inputs": [
        {
          "internalType": "address",
          "name": "userAddress",
          "type": "address"
        }
      ],
      "name": "getCertificatesByOwner",
      "outputs": [
        {
          "components": [
            {
              "internalType": "address",
              "name": "issuer",
              "type": "address"
            },
            {
              "internalType": "string",
              "name": "hash",
              "type": "string"
            },
            {
              "internalType": "string",
              "name": "filePath",
              "type": "string"
            }
          ],
          "internalType": "struct Certi.Certificate[]",
          "name": "",
          "type": "tuple[]"
        }
      ],
      "stateMutability": "view",
      "type": "function",
      "constant": true
    },
    {
      "inputs": [
        {
          "internalType": "string",
          "name": "hash",
          "type": "string"
        }
      ],
      "name": "deleteCertificate",
      "outputs": [],
      "stateMutability": "nonpayable",
      "type": "function"
    },
    {
      "inputs": [],
      "name": "getAllCertificateHashes",
      "outputs": [
        {
          "internalType": "string[]",
          "name": "",
          "type": "string[]"
        }
      ],
      "stateMutability": "view",
      "type": "function",
      "constant": true
    }
  ],
  "bytecode": "0x608060405234801561001057600080fd5b50613504806100206000396000f3fe608060405234801561001057600080fd5b506004361061009e5760003560e01c80636fe5033c116100665780636fe5033c1461017357806381f6bf7d146101a5578063b37a3d82146101c1578063f1c49c62146101dd578063ff7138871461020d5761009e565b80630cb07828146100a357806313fcfe80146100c1578063149ae6dd146100df5780631db738401461010f5780636f77926b1461013f575b600080fd5b6100ab610229565b6040516100b89190611fff565b60405180910390f35b6100c9610302565b6040516100d6919061217b565b60405180910390f35b6100f960048036038101906100f491906121e7565b6105f9565b604051610106919061225e565b60405180910390f35b610129600480360381019061012491906122ac565b6106a5565b604051610136919061217b565b60405180910390f35b610159600480360381019061015491906122ac565b6108bd565b60405161016a9594939291906122d9565b60405180910390f35b61018d60048036038101906101889190612484565b610c61565b60405161019c939291906124dc565b60405180910390f35b6101bf60048036038101906101ba9190612484565b610dd1565b005b6101db60048036038101906101d69190612521565b61139a565b005b6101f760048036038101906101f291906122ac565b6116fd565b604051610204919061217b565b60405180910390f35b61022760048036038101906102229190612628565b611915565b005b60606005805480602002602001604051908101604052809291908181526020016000905b828210156102f957838290600052602060002001805461026c90612712565b80601f016020809104026020016040519081016040528092919081815260200182805461029890612712565b80156102e55780601f106102ba576101008083540402835291602001916102e5565b820191906000526020600020905b8154815290600101906020018083116102c857829003601f168201915b50505050508152602001906001019061024d565b50505050905090565b6060600060058054905067ffffffffffffffff81111561032557610324612359565b5b60405190808252806020026020018201604052801561035e57816020015b61034b611e19565b8152602001906001900390816103435790505b50905060005b6005805490508110156105f15760006005828154811061038757610386612743565b5b90600052602060002001805461039c90612712565b80601f01602080910402602001604051908101604052809291908181526020018280546103c890612712565b80156104155780601f106103ea57610100808354040283529160200191610415565b820191906000526020600020905b8154815290600101906020018083116103f857829003601f168201915b5050505050905060028160405161042c91906127ae565b90815260200160405180910390206040518060600160405290816000820160009054906101000a900473ffffffffffffffffffffffffffffffffffffffff1673ffffffffffffffffffffffffffffffffffffffff1673ffffffffffffffffffffffffffffffffffffffff1681526020016001820180546104ab90612712565b80601f01602080910402602001604051908101604052809291908181526020018280546104d790612712565b80156105245780601f106104f957610100808354040283529160200191610524565b820191906000526020600020905b81548152906001019060200180831161050757829003601f168201915b5050505050815260200160028201805461053d90612712565b80601f016020809104026020016040519081016040528092919081815260200182805461056990612712565b80156105b65780601f1061058b576101008083540402835291602001916105b6565b820191906000526020600020905b81548152906001019060200180831161059957829003601f168201915b5050505050815250508383815181106105d2576105d1612743565b5b60200260200101819052505080806105e9906127f4565b915050610364565b508091505090565b6005818154811061060957600080fd5b90600052602060002001600091509050805461062490612712565b80601f016020809104026020016040519081016040528092919081815260200182805461065090612712565b801561069d5780601f106106725761010080835404028352916020019161069d565b820191906000526020600020905b81548152906001019060200180831161068057829003601f168201915b505050505081565b6060600360008373ffffffffffffffffffffffffffffffffffffffff1673ffffffffffffffffffffffffffffffffffffffff168152602001908152602001600020805480602002602001604051908101604052809291908181526020016000905b828210156108b257838290600052602060002090600302016040518060600160405290816000820160009054906101000a900473ffffffffffffffffffffffffffffffffffffffff1673ffffffffffffffffffffffffffffffffffffffff1673ffffffffffffffffffffffffffffffffffffffff16815260200160018201805461078f90612712565b80601f01602080910402602001604051908101604052809291908181526020018280546107bb90612712565b80156108085780601f106107dd57610100808354040283529160200191610808565b820191906000526020600020905b8154815290600101906020018083116107eb57829003601f168201915b5050505050815260200160028201805461082190612712565b80601f016020809104026020016040519081016040528092919081815260200182805461084d90612712565b801561089a5780601f1061086f5761010080835404028352916020019161089a565b820191906000526020600020905b81548152906001019060200180831161087d57829003601f168201915b50505050508152505081526020019060010190610706565b505050509050919050565b606080606080606060008060008873ffffffffffffffffffffffffffffffffffffffff1673ffffffffffffffffffffffffffffffffffffffff1681526020019081526020016000206040518060a001604052908160008201805461092090612712565b80601f016020809104026020016040519081016040528092919081815260200182805461094c90612712565b80156109995780601f1061096e57610100808354040283529160200191610999565b820191906000526020600020905b81548152906001019060200180831161097c57829003601f168201915b505050505081526020016001820180546109b290612712565b80601f01602080910402602001604051908101604052809291908181526020018280546109de90612712565b8015610a2b5780601f10610a0057610100808354040283529160200191610a2b565b820191906000526020600020905b815481529060010190602001808311610a0e57829003601f168201915b50505050508152602001600282018054610a4490612712565b80601f0160208091040260200160405190810160405280929190818152602001828054610a7090612712565b8015610abd5780601f10610a9257610100808354040283529160200191610abd565b820191906000526020600020905b815481529060010190602001808311610aa057829003601f168201915b50505050508152602001600382018054610ad690612712565b80601f0160208091040260200160405190810160405280929190818152602001828054610b0290612712565b8015610b4f5780601f10610b2457610100808354040283529160200191610b4f565b820191906000526020600020905b815481529060010190602001808311610b3257829003601f168201915b50505050508152602001600482018054610b6890612712565b80601f0160208091040260200160405190810160405280929190818152602001828054610b9490612712565b8015610be15780601f10610bb657610100808354040283529160200191610be1565b820191906000526020600020905b815481529060010190602001808311610bc457829003601f168201915b5050505050815250509050600081602001515111610c34576040517f08c379a0000000000000000000000000000000000000000000000000000000008152600401610c2b90612888565b60405180910390fd5b80600001518160200151826060015183604001518460800151955095509550955095505091939590929450565b6004818051602081018201805184825260208301602085012081835280955050505050506000915090508060000160009054906101000a900473ffffffffffffffffffffffffffffffffffffffff1690806001018054610cc090612712565b80601f0160208091040260200160405190810160405280929190818152602001828054610cec90612712565b8015610d395780601f10610d0e57610100808354040283529160200191610d39565b820191906000526020600020905b815481529060010190602001808311610d1c57829003601f168201915b505050505090806002018054610d4e90612712565b80601f0160208091040260200160405190810160405280929190818152602001828054610d7a90612712565b8015610dc75780601f10610d9c57610100808354040283529160200191610dc7565b820191906000526020600020905b815481529060010190602001808311610daa57829003601f168201915b5050505050905083565b6000600282604051610de391906127ae565b90815260200160405180910390206040518060600160405290816000820160009054906101000a900473ffffffffffffffffffffffffffffffffffffffff1673ffffffffffffffffffffffffffffffffffffffff1673ffffffffffffffffffffffffffffffffffffffff168152602001600182018054610e6290612712565b80601f0160208091040260200160405190810160405280929190818152602001828054610e8e90612712565b8015610edb5780601f10610eb057610100808354040283529160200191610edb565b820191906000526020600020905b815481529060010190602001808311610ebe57829003601f168201915b50505050508152602001600282018054610ef490612712565b80601f0160208091040260200160405190810160405280929190818152602001828054610f2090612712565b8015610f6d5780601f10610f4257610100808354040283529160200191610f6d565b820191906000526020600020905b815481529060010190602001808311610f5057829003601f168201915b5050505050815250509050600081602001515111610fc0576040517f08c379a0000000000000000000000000000000000000000000000000000000008152600401610fb7906128f4565b60405180910390fd5b3373ffffffffffffffffffffffffffffffffffffffff16816000015173ffffffffffffffffffffffffffffffffffffffff1614611032576040517f08c379a000000000000000000000000000000000000000000000000000000000815260040161102990612986565b60405180910390fd5b60028260405161104291906127ae565b9081526020016040518091039020600080820160006101000a81549073ffffffffffffffffffffffffffffffffffffffff02191690556001820160006110889190611e50565b6002820160006110989190611e50565b505060005b60058054905081101561118c578280519060200120600582815481106110c6576110c5612743565b5b906000526020600020016040516110dd9190612a49565b60405180910390200361117957600560016005805490506110fe9190612a60565b8154811061110f5761110e612743565b5b906000526020600020016005828154811061112d5761112c612743565b5b9060005260206000200190816111439190612c6b565b50600580548061115657611155612d53565b5b6001900381819060005260206000200160006111729190611e50565b905561118c565b8080611184906127f4565b91505061109d565b506000600360003373ffffffffffffffffffffffffffffffffffffffff1673ffffffffffffffffffffffffffffffffffffffff168152602001908152602001600020905060005b81805490508110156113945783805190602001208282815481106111fa576111f9612743565b5b90600052602060002090600302016001016040516112189190612a49565b6040518091039020036113815781600183805490506112379190612a60565b8154811061124857611247612743565b5b906000526020600020906003020182828154811061126957611268612743565b5b90600052602060002090600302016000820160009054906101000a900473ffffffffffffffffffffffffffffffffffffffff168160000160006101000a81548173ffffffffffffffffffffffffffffffffffffffff021916908373ffffffffffffffffffffffffffffffffffffffff160217905550600182018160010190816112f29190612d98565b50600282018160020190816113079190612d98565b509050508180548061131c5761131b612d53565b5b6001900381819060005260206000209060030201600080820160006101000a81549073ffffffffffffffffffffffffffffffffffffffff02191690556001820160006113689190611e50565b6002820160006113789190611e50565b50509055611394565b808061138c906127f4565b9150506111d3565b50505050565b60008551116113de576040517f08c379a00000000000000000000000000000000000000000000000000000000081526004016113d590612ecc565b60405180910390fd5b6000845111611422576040517f08c379a000000000000000000000000000000000000000000000000000000000815260040161141990612f38565b60405180910390fd5b6000835111611466576040517f08c379a000000000000000000000000000000000000000000000000000000000815260040161145d90612fa4565b60405180910390fd5b60008251116114aa576040517f08c379a00000000000000000000000000000000000000000000000000000000081526004016114a190613010565b60405180910390fd5b60008151116114ee576040517f08c379a00000000000000000000000000000000000000000000000000000000081526004016114e59061307c565b60405180910390fd5b60008060003373ffffffffffffffffffffffffffffffffffffffff1673ffffffffffffffffffffffffffffffffffffffff168152602001908152602001600020600101805461153c90612712565b90501461157e576040517f08c379a0000000000000000000000000000000000000000000000000000000008152600401611575906130e8565b60405180910390fd5b60018260405161158e91906127ae565b908152602001604051809103902060009054906101000a900460ff16156115ea576040517f08c379a00000000000000000000000000000000000000000000000000000000081526004016115e190613154565b60405180910390fd5b6040518060a00160405280868152602001858152602001848152602001838152602001828152506000803373ffffffffffffffffffffffffffffffffffffffff1673ffffffffffffffffffffffffffffffffffffffff16815260200190815260200160002060008201518160000190816116649190613174565b50602082015181600101908161167a9190613174565b5060408201518160020190816116909190613174565b5060608201518160030190816116a69190613174565b5060808201518160040190816116bc9190613174565b50905050600180836040516116d191906127ae565b908152602001604051809103902060006101000a81548160ff0219169083151502179055505050505050565b6060600360008373ffffffffffffffffffffffffffffffffffffffff1673ffffffffffffffffffffffffffffffffffffffff168152602001908152602001600020805480602002602001604051908101604052809291908181526020016000905b8282101561190a57838290600052602060002090600302016040518060600160405290816000820160009054906101000a900473ffffffffffffffffffffffffffffffffffffffff1673ffffffffffffffffffffffffffffffffffffffff1673ffffffffffffffffffffffffffffffffffffffff1681526020016001820180546117e790612712565b80601f016020809104026020016040519081016040528092919081815260200182805461181390612712565b80156118605780601f1061183557610100808354040283529160200191611860565b820191906000526020600020905b81548152906001019060200180831161184357829003601f168201915b5050505050815260200160028201805461187990612712565b80601f01602080910402602001604051908101604052809291908181526020018280546118a590612712565b80156118f25780601f106118c7576101008083540402835291602001916118f2565b820191906000526020600020905b8154815290600101906020018083116118d557829003601f168201915b5050505050815250508152602001906001019061175e565b505050509050919050565b6000845111611959576040517f08c379a000000000000000000000000000000000000000000000000000000000815260040161195090613292565b60405180910390fd5b600083511161199d576040517f08c379a0000000000000000000000000000000000000000000000000000000008152600401611994906132fe565b60405180910390fd5b60008251116119e1576040517f08c379a00000000000000000000000000000000000000000000000000000000081526004016119d89061336a565b60405180910390fd5b600073ffffffffffffffffffffffffffffffffffffffff168173ffffffffffffffffffffffffffffffffffffffff1603611a50576040517f08c379a0000000000000000000000000000000000000000000000000000000008152600401611a47906133d6565b60405180910390fd5b6000600284604051611a6291906127ae565b90815260200160405180910390206001018054611a7e90612712565b905014611ac0576040517f08c379a0000000000000000000000000000000000000000000000000000000008152600401611ab790613442565b60405180910390fd5b6000600485604051611ad291906127ae565b90815260200160405180910390206001018054611aee90612712565b905014611b30576040517f08c379a0000000000000000000000000000000000000000000000000000000008152600401611b27906134ae565b60405180910390fd5b60405180606001604052808273ffffffffffffffffffffffffffffffffffffffff16815260200184815260200183815250600284604051611b7191906127ae565b908152602001604051809103902060008201518160000160006101000a81548173ffffffffffffffffffffffffffffffffffffffff021916908373ffffffffffffffffffffffffffffffffffffffff1602179055506020820151816001019081611bdb9190613174565b506040820151816002019081611bf19190613174565b50905050600283604051611c0591906127ae565b9081526020016040518091039020600485604051611c2391906127ae565b90815260200160405180910390206000820160009054906101000a900473ffffffffffffffffffffffffffffffffffffffff168160000160006101000a81548173ffffffffffffffffffffffffffffffffffffffff021916908373ffffffffffffffffffffffffffffffffffffffff16021790555060018201816001019081611cac9190612d98565b5060028201816002019081611cc19190612d98565b50905050600360008273ffffffffffffffffffffffffffffffffffffffff1673ffffffffffffffffffffffffffffffffffffffff168152602001908152602001600020600284604051611d1491906127ae565b908152602001604051809103902090806001815401808255809150506001900390600052602060002090600302016000909190919091506000820160009054906101000a900473ffffffffffffffffffffffffffffffffffffffff168160000160006101000a81548173ffffffffffffffffffffffffffffffffffffffff021916908373ffffffffffffffffffffffffffffffffffffffff16021790555060018201816001019081611dc69190612d98565b5060028201816002019081611ddb9190612d98565b505050600583908060018154018082558091505060019003906000526020600020016000909190919091509081611e129190613174565b5050505050565b6040518060600160405280600073ffffffffffffffffffffffffffffffffffffffff16815260200160608152602001606081525090565b508054611e5c90612712565b6000825580601f10611e6e5750611e8d565b601f016020900490600052602060002090810190611e8c9190611e90565b5b50565b5b80821115611ea9576000816000905550600101611e91565b5090565b600081519050919050565b600082825260208201905092915050565b6000819050602082019050919050565b600081519050919050565b600082825260208201905092915050565b60005b83811015611f13578082015181840152602081019050611ef8565b60008484015250505050565b6000601f19601f8301169050919050565b6000611f3b82611ed9565b611f458185611ee4565b9350611f55818560208601611ef5565b611f5e81611f1f565b840191505092915050565b6000611f758383611f30565b905092915050565b6000602082019050919050565b6000611f9582611ead565b611f9f8185611eb8565b935083602082028501611fb185611ec9565b8060005b85811015611fed5784840389528151611fce8582611f69565b9450611fd983611f7d565b925060208a01995050600181019050611fb5565b50829750879550505050505092915050565b600060208201905081810360008301526120198184611f8a565b905092915050565b600081519050919050565b600082825260208201905092915050565b6000819050602082019050919050565b600073ffffffffffffffffffffffffffffffffffffffff82169050919050565b60006120788261204d565b9050919050565b6120888161206d565b82525050565b60006060830160008301516120a6600086018261207f565b50602083015184820360208601526120be8282611f30565b915050604083015184820360408601526120d88282611f30565b9150508091505092915050565b60006120f1838361208e565b905092915050565b6000602082019050919050565b600061211182612021565b61211b818561202c565b93508360208202850161212d8561203d565b8060005b85811015612169578484038952815161214a85826120e5565b9450612155836120f9565b925060208a01995050600181019050612131565b50829750879550505050505092915050565b600060208201905081810360008301526121958184612106565b905092915050565b6000604051905090565b600080fd5b600080fd5b6000819050919050565b6121c4816121b1565b81146121cf57600080fd5b50565b6000813590506121e1816121bb565b92915050565b6000602082840312156121fd576121fc6121a7565b5b600061220b848285016121d2565b91505092915050565b600082825260208201905092915050565b600061223082611ed9565b61223a8185612214565b935061224a818560208601611ef5565b61225381611f1f565b840191505092915050565b600060208201905081810360008301526122788184612225565b905092915050565b6122898161206d565b811461229457600080fd5b50565b6000813590506122a681612280565b92915050565b6000602082840312156122c2576122c16121a7565b5b60006122d084828501612297565b91505092915050565b600060a08201905081810360008301526122f38188612225565b905081810360208301526123078187612225565b9050818103604083015261231b8186612225565b9050818103606083015261232f8185612225565b905081810360808301526123438184612225565b90509695505050505050565b600080fd5b600080fd5b7f4e487b7100000000000000000000000000000000000000000000000000000000600052604160045260246000fd5b61239182611f1f565b810181811067ffffffffffffffff821117156123b0576123af612359565b5b80604052505050565b60006123c361219d565b90506123cf8282612388565b919050565b600067ffffffffffffffff8211156123ef576123ee612359565b5b6123f882611f1f565b9050602081019050919050565b82818337600083830152505050565b6000612427612422846123d4565b6123b9565b90508281526020810184848401111561244357612442612354565b5b61244e848285612405565b509392505050565b600082601f83011261246b5761246a61234f565b5b813561247b848260208601612414565b91505092915050565b60006020828403121561249a576124996121a7565b5b600082013567ffffffffffffffff8111156124b8576124b76121ac565b5b6124c484828501612456565b91505092915050565b6124d68161206d565b82525050565b60006060820190506124f160008301866124cd565b81810360208301526125038185612225565b905081810360408301526125178184612225565b9050949350505050565b600080600080600060a0868803121561253d5761253c6121a7565b5b600086013567ffffffffffffffff81111561255b5761255a6121ac565b5b61256788828901612456565b955050602086013567ffffffffffffffff811115612588576125876121ac565b5b61259488828901612456565b945050604086013567ffffffffffffffff8111156125b5576125b46121ac565b5b6125c188828901612456565b935050606086013567ffffffffffffffff8111156125e2576125e16121ac565b5b6125ee88828901612456565b925050608086013567ffffffffffffffff81111561260f5761260e6121ac565b5b61261b88828901612456565b9150509295509295909350565b60008060008060808587031215612642576126416121a7565b5b600085013567ffffffffffffffff8111156126605761265f6121ac565b5b61266c87828801612456565b945050602085013567ffffffffffffffff81111561268d5761268c6121ac565b5b61269987828801612456565b935050604085013567ffffffffffffffff8111156126ba576126b96121ac565b5b6126c687828801612456565b92505060606126d787828801612297565b91505092959194509250565b7f4e487b7100000000000000000000000000000000000000000000000000000000600052602260045260246000fd5b6000600282049050600182168061272a57607f821691505b60208210810361273d5761273c6126e3565b5b50919050565b7f4e487b7100000000000000000000000000000000000000000000000000000000600052603260045260246000fd5b600081905092915050565b600061278882611ed9565b6127928185612772565b93506127a2818560208601611ef5565b80840191505092915050565b60006127ba828461277d565b915081905092915050565b7f4e487b7100000000000000000000000000000000000000000000000000000000600052601160045260246000fd5b60006127ff826121b1565b91507fffffffffffffffffffffffffffffffffffffffffffffffffffffffffffffffff8203612831576128306127c5565b5b600182019050919050565b7f55736572206e6f7420666f756e642e0000000000000000000000000000000000600082015250565b6000612872600f83612214565b915061287d8261283c565b602082019050919050565b600060208201905081810360008301526128a181612865565b9050919050565b7f4365727469666963617465206e6f7420666f756e642e00000000000000000000600082015250565b60006128de601683612214565b91506128e9826128a8565b602082019050919050565b6000602082019050818103600083015261290d816128d1565b9050919050565b7f4f6e6c7920746865206973737565722063616e2064656c65746520746865206360008201527f657274696669636174652e000000000000000000000000000000000000000000602082015250565b6000612970602b83612214565b915061297b82612914565b604082019050919050565b6000602082019050818103600083015261299f81612963565b9050919050565b600081905092915050565b60008190508160005260206000209050919050565b600081546129d381612712565b6129dd81866129a6565b945060018216600081146129f85760018114612a0d57612a40565b60ff1983168652811515820286019350612a40565b612a16856129b1565b60005b83811015612a3857815481890152600182019150602081019050612a19565b838801955050505b50505092915050565b6000612a5582846129c6565b915081905092915050565b6000612a6b826121b1565b9150612a76836121b1565b9250828203905081811115612a8e57612a8d6127c5565b5b92915050565b600081549050612aa381612712565b9050919050565b60008190508160005260206000209050919050565b60008190508160005260206000209050919050565b60006020601f8301049050919050565b600082821b905092915050565b600060088302612b217fffffffffffffffffffffffffffffffffffffffffffffffffffffffffffffffff82612ae4565b612b2b8683612ae4565b95508019841693508086168417925050509392505050565b6000819050919050565b6000612b68612b63612b5e846121b1565b612b43565b6121b1565b9050919050565b6000819050919050565b612b8283612b4d565b612b96612b8e82612b6f565b848454612af1565b825550505050565b600090565b612bab612b9e565b612bb6818484612b79565b505050565b5b81811015612bda57612bcf600082612ba3565b600181019050612bbc565b5050565b601f821115612c1f57612bf081612aaa565b612bf984612ad4565b81016020851015612c08578190505b612c1c612c1485612ad4565b830182612bbb565b50505b505050565b600082821c905092915050565b6000612c4260001984600802612c24565b1980831691505092915050565b6000612c5b8383612c31565b9150826002028217905092915050565b818103612c79575050612d51565b612c8282612a94565b67ffffffffffffffff811115612c9b57612c9a612359565b5b612ca58254612712565b612cb0828285612bde565b6000601f831160018114612cdf5760008415612ccd578287015490505b612cd78582612c4f565b865550612d4a565b601f198416612ced87612abf565b9650612cf886612aaa565b60005b82811015612d2057848901548255600182019150600185019450602081019050612cfb565b86831015612d3d5784890154612d39601f891682612c31565b8355505b6001600288020188555050505b5050505050505b565b7f4e487b7100000000000000000000000000000000000000000000000000000000600052603160045260246000fd5b600081549050612d9181612712565b9050919050565b818103612da6575050612e7e565b612daf82612d82565b67ffffffffffffffff811115612dc857612dc7612359565b5b612dd28254612712565b612ddd828285612bde565b6000601f831160018114612e0c5760008415612dfa578287015490505b612e048582612c4f565b865550612e77565b601f198416612e1a87612aaa565b9650612e2586612aaa565b60005b82811015612e4d57848901548255600182019150600185019450602081019050612e28565b86831015612e6a5784890154612e66601f891682612c31565b8355505b6001600288020188555050505b5050505050505b565b7f46756c6c206e616d652069732072657175697265642e00000000000000000000600082015250565b6000612eb6601683612214565b9150612ec182612e80565b602082019050919050565b60006020820190508181036000830152612ee581612ea9565b9050919050565b7f456d61696c2069732072657175697265642e0000000000000000000000000000600082015250565b6000612f22601283612214565b9150612f2d82612eec565b602082019050919050565b60006020820190508181036000830152612f5181612f15565b9050919050565b7f50617373776f72642069732072657175697265642e0000000000000000000000600082015250565b6000612f8e601583612214565b9150612f9982612f58565b602082019050919050565b60006020820190508181036000830152612fbd81612f81565b9050919050565b7f557365726e616d652069732072657175697265642e0000000000000000000000600082015250565b6000612ffa601583612214565b915061300582612fc4565b602082019050919050565b6000602082019050818103600083015261302981612fed565b9050919050565b7f5573657220747970652069732072657175697265642e00000000000000000000600082015250565b6000613066601683612214565b915061307182613030565b602082019050919050565b6000602082019050818103600083015261309581613059565b9050919050565b7f5573657220616c726561647920726567697374657265642e0000000000000000600082015250565b60006130d2601883612214565b91506130dd8261309c565b602082019050919050565b60006020820190508181036000830152613101816130c5565b9050919050565b7f557365726e616d6520616c72656164792074616b656e2e000000000000000000600082015250565b600061313e601783612214565b915061314982613108565b602082019050919050565b6000602082019050818103600083015261316d81613131565b9050919050565b61317d82611ed9565b67ffffffffffffffff81111561319657613195612359565b5b6131a08254612712565b6131ab828285612bde565b600060209050601f8311600181146131de57600084156131cc578287015190505b6131d68582612c4f565b86555061323e565b601f1984166131ec86612aaa565b60005b82811015613214578489015182556001820191506020850194506020810190506131ef565b86831015613231578489015161322d601f891682612c31565b8355505b6001600288020188555050505b505050505050565b7f43657274696669636174652049442069732072657175697265642e0000000000600082015250565b600061327c601b83612214565b915061328782613246565b602082019050919050565b600060208201905081810360008301526132ab8161326f565b9050919050565b7f436572746966696361746520686173682069732072657175697265642e000000600082015250565b60006132e8601d83612214565b91506132f3826132b2565b602082019050919050565b60006020820190508181036000830152613317816132db565b9050919050565b7f46696c6520706174682069732072657175697265642e00000000000000000000600082015250565b6000613354601683612214565b915061335f8261331e565b602082019050919050565b6000602082019050818103600083015261338381613347565b9050919050565b7f5573657220616464726573732069732072657175697265642e00000000000000600082015250565b60006133c0601983612214565b91506133cb8261338a565b602082019050919050565b600060208201905081810360008301526133ef816133b3565b9050919050565b7f436572746966696361746520616c7265616479206578697374732e0000000000600082015250565b600061342c601b83612214565b9150613437826133f6565b602082019050919050565b6000602082019050818103600083015261345b8161341f565b9050919050565b7f436572746966696361746520494420616c7265616479206578697374732e0000600082015250565b6000613498601e83612214565b91506134a382613462565b602082019050919050565b600060208201905081810360008301526134c78161348b565b905091905056fea264697066735822122072d2783239e0d223a5d9f4752ee01e32963ac4c1522b9c64458a5077bc9c849064736f6c63430008130033",
  "immutableReferences": {},
  "source": "// SPDX-License-Identifier: MIT\npragma solidity 0.8.19;\n\ncontract Certi {\n    // Struct to represent a user\n    struct User {\n        string fullName;\n        string email;\n        string password; // Store hashed password\n        string username;\n        string usertype; // Add the user type field\n    }\n\n    // Struct to represent a certificate\n    struct Certificate {\n        address issuer;  // Address of the user who issued the certificate\n        string hash;     // Hash of the certificate file\n        string filePath; // Path of the stored certificate\n    }\n\n    // Mapping to store users by their Ethereum address\n    mapping(address => User) private users;\n\n    // Mapping to ensure unique usernames\n    mapping(string => bool) private usernames;\n\n    // Mapping to store certificates by their hash\n    mapping(string => Certificate) private certificates;\n\n    // Mapping to store certificates associated with a user's address\n    mapping(address => Certificate[]) private user_certificates;\n\n    // Mapping from certificateId to Certificate struct for easy lookup by ID\n    mapping(string => Certificate) public certificateDetails;\n\n    // Array to store all certificate hashes for global access\n    string[] public allCertificateHashes;\n\n    // Function to add a new user\n    function addUser(\n        string memory fullName, \n        string memory email, \n        string memory password, \n        string memory username, \n        string memory usertype // Add usertype parameter\n    ) public {\n        require(bytes(fullName).length > 0, \"Full name is required.\");\n        require(bytes(email).length > 0, \"Email is required.\");\n        require(bytes(password).length > 0, \"Password is required.\");\n        require(bytes(username).length > 0, \"Username is required.\");\n        require(bytes(usertype).length > 0, \"User type is required.\");\n\n        require(bytes(users[msg.sender].email).length == 0, \"User already registered.\");\n        require(!usernames[username], \"Username already taken.\");\n\n        users[msg.sender] = User(fullName, email, password, username, usertype); // Store usertype\n        usernames[username] = true;\n    }\n\n    // Function to fetch user details\n    function getUser(address userAddress)\n        public\n        view\n        returns (string memory fullName, string memory email, string memory username, string memory password, string memory usertype)\n    {\n        User memory user = users[userAddress];\n        require(bytes(user.email).length > 0, \"User not found.\");\n        return (user.fullName, user.email, user.username, user.password, user.usertype); // Return usertype\n    }\n\n    // Function to add a certificate\n    function addCertificate(\n        string memory certificateId,\n        string memory hash,\n        string memory filePath,\n        address userAddress\n    ) public {\n        require(bytes(certificateId).length > 0, \"Certificate ID is required.\");\n        require(bytes(hash).length > 0, \"Certificate hash is required.\");\n        require(bytes(filePath).length > 0, \"File path is required.\");\n        require(userAddress != address(0), \"User address is required.\");\n        require(bytes(certificates[hash].hash).length == 0, \"Certificate already exists.\");\n        require(bytes(certificateDetails[certificateId].hash).length == 0, \"Certificate ID already exists.\");\n\n        // Create a new Certificate struct and add it to the mappings\n        certificates[hash] = Certificate(userAddress, hash, filePath);\n        certificateDetails[certificateId] = certificates[hash];\n\n        // Map the certificate to the user and store the hash in allCertificateHashes\n        user_certificates[userAddress].push(certificates[hash]);\n        allCertificateHashes.push(hash);\n    }\n\n    // Function to fetch certificates for a specific address\n    function getCertificates(address userAddress) public view returns (Certificate[] memory) {\n        return user_certificates[userAddress];\n    }\n\n    // Function to fetch all certificates in the system\n    function getAllCertificates() public view returns (Certificate[] memory) {\n        Certificate[] memory allCertificates = new Certificate[](allCertificateHashes.length);\n\n        for (uint256 i = 0; i < allCertificateHashes.length; i++) {\n            string memory certificateHash = allCertificateHashes[i];\n            allCertificates[i] = certificates[certificateHash];\n        }\n\n        return allCertificates;\n    }\n\n    // Function to fetch all certificates associated with a specific address\n    function getCertificatesByOwner(address userAddress) public view returns (Certificate[] memory) {\n        return user_certificates[userAddress];\n    }\n\n    // Function to delete a certificate\n    function deleteCertificate(string memory hash) public {\n        Certificate memory cert = certificates[hash];\n        require(bytes(cert.hash).length > 0, \"Certificate not found.\");\n        require(cert.issuer == msg.sender, \"Only the issuer can delete the certificate.\");\n\n        // Remove from the certificates mapping\n        delete certificates[hash];\n\n        // Remove from allCertificateHashes\n        for (uint256 i = 0; i < allCertificateHashes.length; i++) {\n            if (keccak256(bytes(allCertificateHashes[i])) == keccak256(bytes(hash))) {\n                allCertificateHashes[i] = allCertificateHashes[allCertificateHashes.length - 1];\n                allCertificateHashes.pop();\n                break;\n            }\n        }\n\n        // Remove from user_certificates\n        Certificate[] storage userCerts = user_certificates[msg.sender];\n        for (uint256 i = 0; i < userCerts.length; i++) {\n            if (keccak256(bytes(userCerts[i].hash)) == keccak256(bytes(hash))) {\n                userCerts[i] = userCerts[userCerts.length - 1];\n                userCerts.pop();\n                break;\n            }\n        }\n    }\n\n    // Function to retrieve all stored certificate hashes across all users\n    function getAllCertificateHashes() public view returns (string[] memory) {\n        return allCertificateHashes;\n    }\n}\n",
  "sourcePath": "E:\\KITS-BLOCKCHAIN\\New-certi\\contracts\\certi.sol",
  "compiler": {
    "name": "solc",
    "version": "0.8.19+commit.7dd6d404.Emscripten.clang"
  },
  "schemaVersion": "3.4.16",
  "updatedAt": "2025-01-03T09:53:20.321Z",
  "networkType": "ethereum",
  "devdoc": {
    "kind": "dev",
    "methods": {},
    "version": 1
  },
  "userdoc": {
    "kind": "user",
    "methods": {},
    "version": 1
  }
}