{
  "contractName": "Certi",
  "abi": [
    {
      "inputs": [
        {
          "internalType": "address",
          "name": "_issuer",
          "type": "address"
        },
        {
          "internalType": "address",
          "name": "_user",
          "type": "address"
        },
        {
          "internalType": "string",
          "name": "_hash",
          "type": "string"
        },
        {
          "internalType": "string",
          "name": "_title",
          "type": "string"
        },
        {
          "internalType": "string",
          "name": "_filePath",
          "type": "string"
        }
      ],
      "name": "addCertificate",
      "outputs": [],
      "stateMutability": "nonpayable",
      "type": "function"
    },
    {
      "inputs": [
        {
          "internalType": "address",
          "name": "issuedBy",
          "type": "address"
        },
        {
          "internalType": "address",
          "name": "user",
          "type": "address"
        },
        {
          "internalType": "address",
          "name": "organizationAddress",
          "type": "address"
        },
        {
          "internalType": "string",
          "name": "username",
          "type": "string"
        },
        {
          "internalType": "string",
          "name": "organizationName",
          "type": "string"
        },
        {
          "internalType": "string",
          "name": "filepath",
          "type": "string"
        }
      ],
      "name": "addVerificationCertificate",
      "outputs": [],
      "stateMutability": "nonpayable",
      "type": "function"
    },
    {
      "inputs": [
        {
          "internalType": "address",
          "name": "user",
          "type": "address"
        }
      ],
      "name": "getUserVerificationCertificates",
      "outputs": [
        {
          "components": [
            {
              "internalType": "uint256",
              "name": "id",
              "type": "uint256"
            },
            {
              "internalType": "address",
              "name": "issuedBy",
              "type": "address"
            },
            {
              "internalType": "address",
              "name": "user",
              "type": "address"
            },
            {
              "internalType": "address",
              "name": "organizationAddress",
              "type": "address"
            },
            {
              "internalType": "string",
              "name": "username",
              "type": "string"
            },
            {
              "internalType": "string",
              "name": "organizationName",
              "type": "string"
            },
            {
              "internalType": "string",
              "name": "filepath",
              "type": "string"
            },
            {
              "internalType": "string",
              "name": "status",
              "type": "string"
            }
          ],
          "internalType": "struct Certi.VerificationCertificates[]",
          "name": "",
          "type": "tuple[]"
        }
      ],
      "stateMutability": "view",
      "type": "function",
      "constant": true
    },
    {
      "inputs": [
        {
          "internalType": "address",
          "name": "organizationAddress",
          "type": "address"
        }
      ],
      "name": "getOrganizationVerificationCertificates",
      "outputs": [
        {
          "components": [
            {
              "internalType": "uint256",
              "name": "id",
              "type": "uint256"
            },
            {
              "internalType": "address",
              "name": "issuedBy",
              "type": "address"
            },
            {
              "internalType": "address",
              "name": "user",
              "type": "address"
            },
            {
              "internalType": "address",
              "name": "organizationAddress",
              "type": "address"
            },
            {
              "internalType": "string",
              "name": "username",
              "type": "string"
            },
            {
              "internalType": "string",
              "name": "organizationName",
              "type": "string"
            },
            {
              "internalType": "string",
              "name": "filepath",
              "type": "string"
            },
            {
              "internalType": "string",
              "name": "status",
              "type": "string"
            }
          ],
          "internalType": "struct Certi.VerificationCertificates[]",
          "name": "",
          "type": "tuple[]"
        }
      ],
      "stateMutability": "view",
      "type": "function",
      "constant": true
    },
    {
      "inputs": [
        {
          "internalType": "string",
          "name": "fullName",
          "type": "string"
        },
        {
          "internalType": "string",
          "name": "email",
          "type": "string"
        },
        {
          "internalType": "string",
          "name": "password",
          "type": "string"
        },
        {
          "internalType": "string",
          "name": "username",
          "type": "string"
        },
        {
          "internalType": "string",
          "name": "usertype",
          "type": "string"
        }
      ],
      "name": "addUser",
      "outputs": [],
      "stateMutability": "nonpayable",
      "type": "function"
    },
    {
      "inputs": [
        {
          "internalType": "address",
          "name": "userAddress",
          "type": "address"
        }
      ],
      "name": "getUser",
      "outputs": [
        {
          "internalType": "string",
          "name": "fullName",
          "type": "string"
        },
        {
          "internalType": "string",
          "name": "email",
          "type": "string"
        },
        {
          "internalType": "string",
          "name": "username",
          "type": "string"
        },
        {
          "internalType": "string",
          "name": "password",
          "type": "string"
        },
        {
          "internalType": "string",
          "name": "usertype",
          "type": "string"
        }
      ],
      "stateMutability": "view",
      "type": "function",
      "constant": true
    },
    {
      "inputs": [
        {
          "internalType": "address",
          "name": "userAddress",
          "type": "address"
        }
      ],
      "name": "getCertificates",
      "outputs": [
        {
          "components": [
            {
              "internalType": "address",
              "name": "issuer",
              "type": "address"
            },
            {
              "internalType": "address",
              "name": "user",
              "type": "address"
            },
            {
              "internalType": "string",
              "name": "hash",
              "type": "string"
            },
            {
              "internalType": "string",
              "name": "title",
              "type": "string"
            },
            {
              "internalType": "string",
              "name": "filePath",
              "type": "string"
            },
            {
              "internalType": "bool",
              "name": "exist",
              "type": "bool"
            }
          ],
          "internalType": "struct Certi.Certificate[]",
          "name": "",
          "type": "tuple[]"
        }
      ],
      "stateMutability": "view",
      "type": "function",
      "constant": true
    },
    {
      "inputs": [
        {
          "internalType": "address",
          "name": "_issuer",
          "type": "address"
        }
      ],
      "name": "getOrganizationCertificates",
      "outputs": [
        {
          "components": [
            {
              "internalType": "address",
              "name": "issuer",
              "type": "address"
            },
            {
              "internalType": "address",
              "name": "user",
              "type": "address"
            },
            {
              "internalType": "string",
              "name": "hash",
              "type": "string"
            },
            {
              "internalType": "string",
              "name": "title",
              "type": "string"
            },
            {
              "internalType": "string",
              "name": "filePath",
              "type": "string"
            },
            {
              "internalType": "bool",
              "name": "exist",
              "type": "bool"
            }
          ],
          "internalType": "struct Certi.Certificate[]",
          "name": "",
          "type": "tuple[]"
        }
      ],
      "stateMutability": "view",
      "type": "function",
      "constant": true
    },
    {
      "inputs": [
        {
          "internalType": "address",
          "name": "_issuer",
          "type": "address"
        }
      ],
      "name": "getUserCertificates",
      "outputs": [
        {
          "components": [
            {
              "internalType": "address",
              "name": "issuer",
              "type": "address"
            },
            {
              "internalType": "address",
              "name": "user",
              "type": "address"
            },
            {
              "internalType": "string",
              "name": "hash",
              "type": "string"
            },
            {
              "internalType": "string",
              "name": "title",
              "type": "string"
            },
            {
              "internalType": "string",
              "name": "filePath",
              "type": "string"
            },
            {
              "internalType": "bool",
              "name": "exist",
              "type": "bool"
            }
          ],
          "internalType": "struct Certi.Certificate[]",
          "name": "",
          "type": "tuple[]"
        }
      ],
      "stateMutability": "view",
      "type": "function",
      "constant": true
    },
    {
      "inputs": [
        {
          "internalType": "address",
          "name": "userAddress",
          "type": "address"
        }
      ],
      "name": "getUsername",
      "outputs": [
        {
          "internalType": "string",
          "name": "",
          "type": "string"
        }
      ],
      "stateMutability": "view",
      "type": "function",
      "constant": true
    },
    {
      "inputs": [
        {
          "internalType": "address",
          "name": "organizationAddress",
          "type": "address"
        },
        {
          "internalType": "string",
          "name": "hash",
          "type": "string"
        }
      ],
      "name": "checkHashExists",
      "outputs": [
        {
          "internalType": "string",
          "name": "",
          "type": "string"
        }
      ],
      "stateMutability": "view",
      "type": "function",
      "constant": true
    }
  ],
  "bytecode": "0x608060405234801561001057600080fd5b50613878806100206000396000f3fe608060405234801561001057600080fd5b50600436106100a95760003560e01c80638d945b57116100715780638d945b571461017a578063a1fd5d72146101aa578063ac0696ab146101da578063b37a3d821461020a578063ce43c03214610226578063f1c49c6214610256576100a9565b80630385bd18146100ae57806346340591146100de57806359f74bc01461010e5780636234f6e31461012a5780636f77926b14610146575b600080fd5b6100c860048036038101906100c3919061264b565b610286565b6040516100d5919061288b565b60405180910390f35b6100f860048036038101906100f391906129e2565b6105a0565b6040516101059190612a88565b60405180910390f35b61012860048036038101906101239190612aaa565b6106fd565b005b610144600480360381019061013f9190612b8b565b610b19565b005b610160600480360381019061015b919061264b565b610f4e565b604051610171959493929190612c5a565b60405180910390f35b610194600480360381019061018f919061264b565b6112f3565b6040516101a19190612e70565b60405180910390f35b6101c460048036038101906101bf919061264b565b6116e6565b6040516101d19190612e70565b60405180910390f35b6101f460048036038101906101ef919061264b565b611ad9565b604051610201919061288b565b60405180910390f35b610224600480360381019061021f9190612e92565b611df4565b005b610240600480360381019061023b919061264b565b61215a565b60405161024d9190612a88565b60405180910390f35b610270600480360381019061026b919061264b565b6122bf565b60405161027d919061288b565b60405180910390f35b60606000808373ffffffffffffffffffffffffffffffffffffffff1673ffffffffffffffffffffffffffffffffffffffff168152602001908152602001600020805480602002602001604051908101604052809291908181526020016000905b8282101561059557838290600052602060002090600602016040518060c00160405290816000820160009054906101000a900473ffffffffffffffffffffffffffffffffffffffff1673ffffffffffffffffffffffffffffffffffffffff1673ffffffffffffffffffffffffffffffffffffffff1681526020016001820160009054906101000a900473ffffffffffffffffffffffffffffffffffffffff1673ffffffffffffffffffffffffffffffffffffffff1673ffffffffffffffffffffffffffffffffffffffff1681526020016002820180546103c590612fc8565b80601f01602080910402602001604051908101604052809291908181526020018280546103f190612fc8565b801561043e5780601f106104135761010080835404028352916020019161043e565b820191906000526020600020905b81548152906001019060200180831161042157829003601f168201915b5050505050815260200160038201805461045790612fc8565b80601f016020809104026020016040519081016040528092919081815260200182805461048390612fc8565b80156104d05780601f106104a5576101008083540402835291602001916104d0565b820191906000526020600020905b8154815290600101906020018083116104b357829003601f168201915b505050505081526020016004820180546104e990612fc8565b80601f016020809104026020016040519081016040528092919081815260200182805461051590612fc8565b80156105625780601f1061053757610100808354040283529160200191610562565b820191906000526020600020905b81548152906001019060200180831161054557829003601f168201915b505050505081526020016005820160009054906101000a900460ff161515151581525050815260200190600101906102e6565b505050509050919050565b60606000600160008573ffffffffffffffffffffffffffffffffffffffff1673ffffffffffffffffffffffffffffffffffffffff168152602001908152602001600020905060005b81805490508110156106bc57836040516020016106059190613035565b6040516020818303038152906040528051906020012082828154811061062e5761062d61304c565b5b906000526020600020906006020160020160405160200161064f9190613113565b60405160208183030381529060405280519060200120036106a9576040518060400160405280601781526020017f4365727469666963617465206861736820657869737473000000000000000000815250925050506106f7565b80806106b490613159565b9150506105e8565b506040518060400160405280601f81526020017f4365727469666963617465206861736820646f6573206e6f74206578697374008152509150505b92915050565b6004600081548092919061071090613159565b9190505550600060405180610100016040528060045481526020018873ffffffffffffffffffffffffffffffffffffffff1681526020018773ffffffffffffffffffffffffffffffffffffffff1681526020018673ffffffffffffffffffffffffffffffffffffffff1681526020018581526020018481526020018381526020016040518060400160405280600781526020017f70656e64696e67000000000000000000000000000000000000000000000000008152508152509050600260008773ffffffffffffffffffffffffffffffffffffffff1673ffffffffffffffffffffffffffffffffffffffff1681526020019081526020016000208190806001815401808255809150506001900390600052602060002090600802016000909190919091506000820151816000015560208201518160010160006101000a81548173ffffffffffffffffffffffffffffffffffffffff021916908373ffffffffffffffffffffffffffffffffffffffff16021790555060408201518160020160006101000a81548173ffffffffffffffffffffffffffffffffffffffff021916908373ffffffffffffffffffffffffffffffffffffffff16021790555060608201518160030160006101000a81548173ffffffffffffffffffffffffffffffffffffffff021916908373ffffffffffffffffffffffffffffffffffffffff16021790555060808201518160040190816109299190613338565b5060a082015181600501908161093f9190613338565b5060c08201518160060190816109559190613338565b5060e082015181600701908161096b9190613338565b505050600360008673ffffffffffffffffffffffffffffffffffffffff1673ffffffffffffffffffffffffffffffffffffffff1681526020019081526020016000208190806001815401808255809150506001900390600052602060002090600802016000909190919091506000820151816000015560208201518160010160006101000a81548173ffffffffffffffffffffffffffffffffffffffff021916908373ffffffffffffffffffffffffffffffffffffffff16021790555060408201518160020160006101000a81548173ffffffffffffffffffffffffffffffffffffffff021916908373ffffffffffffffffffffffffffffffffffffffff16021790555060608201518160030160006101000a81548173ffffffffffffffffffffffffffffffffffffffff021916908373ffffffffffffffffffffffffffffffffffffffff1602179055506080820151816004019081610acb9190613338565b5060a0820151816005019081610ae19190613338565b5060c0820151816006019081610af79190613338565b5060e0820151816007019081610b0d9190613338565b50505050505050505050565b6000600160008773ffffffffffffffffffffffffffffffffffffffff1673ffffffffffffffffffffffffffffffffffffffff168152602001908152602001600020905060005b8180549050811015610c2f5784604051602001610b7c9190613035565b60405160208183030381529060405280519060200120828281548110610ba557610ba461304c565b5b9060005260206000209060060201600201604051602001610bc69190613113565b6040516020818303038152906040528051906020012003610c1c576040517f08c379a0000000000000000000000000000000000000000000000000000000008152600401610c1390613456565b60405180910390fd5b8080610c2790613159565b915050610b5f565b5060006040518060c001604052808873ffffffffffffffffffffffffffffffffffffffff1681526020018773ffffffffffffffffffffffffffffffffffffffff1681526020018681526020018581526020018481526020016001151581525090506000808773ffffffffffffffffffffffffffffffffffffffff1673ffffffffffffffffffffffffffffffffffffffff16815260200190815260200160002081908060018154018082558091505060019003906000526020600020906006020160009091909190915060008201518160000160006101000a81548173ffffffffffffffffffffffffffffffffffffffff021916908373ffffffffffffffffffffffffffffffffffffffff16021790555060208201518160010160006101000a81548173ffffffffffffffffffffffffffffffffffffffff021916908373ffffffffffffffffffffffffffffffffffffffff1602179055506040820151816002019081610d9b9190613338565b506060820151816003019081610db19190613338565b506080820151816004019081610dc79190613338565b5060a08201518160050160006101000a81548160ff0219169083151502179055505050600160008873ffffffffffffffffffffffffffffffffffffffff1673ffffffffffffffffffffffffffffffffffffffff16815260200190815260200160002081908060018154018082558091505060019003906000526020600020906006020160009091909190915060008201518160000160006101000a81548173ffffffffffffffffffffffffffffffffffffffff021916908373ffffffffffffffffffffffffffffffffffffffff16021790555060208201518160010160006101000a81548173ffffffffffffffffffffffffffffffffffffffff021916908373ffffffffffffffffffffffffffffffffffffffff1602179055506040820151816002019081610ef69190613338565b506060820151816003019081610f0c9190613338565b506080820151816004019081610f229190613338565b5060a08201518160050160006101000a81548160ff021916908315150217905550505050505050505050565b60608060608060606000600560008873ffffffffffffffffffffffffffffffffffffffff1673ffffffffffffffffffffffffffffffffffffffff1681526020019081526020016000206040518060a0016040529081600082018054610fb290612fc8565b80601f0160208091040260200160405190810160405280929190818152602001828054610fde90612fc8565b801561102b5780601f106110005761010080835404028352916020019161102b565b820191906000526020600020905b81548152906001019060200180831161100e57829003601f168201915b5050505050815260200160018201805461104490612fc8565b80601f016020809104026020016040519081016040528092919081815260200182805461107090612fc8565b80156110bd5780601f10611092576101008083540402835291602001916110bd565b820191906000526020600020905b8154815290600101906020018083116110a057829003601f168201915b505050505081526020016002820180546110d690612fc8565b80601f016020809104026020016040519081016040528092919081815260200182805461110290612fc8565b801561114f5780601f106111245761010080835404028352916020019161114f565b820191906000526020600020905b81548152906001019060200180831161113257829003601f168201915b5050505050815260200160038201805461116890612fc8565b80601f016020809104026020016040519081016040528092919081815260200182805461119490612fc8565b80156111e15780601f106111b6576101008083540402835291602001916111e1565b820191906000526020600020905b8154815290600101906020018083116111c457829003601f168201915b505050505081526020016004820180546111fa90612fc8565b80601f016020809104026020016040519081016040528092919081815260200182805461122690612fc8565b80156112735780601f1061124857610100808354040283529160200191611273565b820191906000526020600020905b81548152906001019060200180831161125657829003601f168201915b50505050508152505090506000816020015151116112c6576040517f08c379a00000000000000000000000000000000000000000000000000000000081526004016112bd906134c2565b60405180910390fd5b80600001518160200151826060015183604001518460800151955095509550955095505091939590929450565b6060600360008373ffffffffffffffffffffffffffffffffffffffff1673ffffffffffffffffffffffffffffffffffffffff168152602001908152602001600020805480602002602001604051908101604052809291908181526020016000905b828210156116db578382906000526020600020906008020160405180610100016040529081600082015481526020016001820160009054906101000a900473ffffffffffffffffffffffffffffffffffffffff1673ffffffffffffffffffffffffffffffffffffffff1673ffffffffffffffffffffffffffffffffffffffff1681526020016002820160009054906101000a900473ffffffffffffffffffffffffffffffffffffffff1673ffffffffffffffffffffffffffffffffffffffff1673ffffffffffffffffffffffffffffffffffffffff1681526020016003820160009054906101000a900473ffffffffffffffffffffffffffffffffffffffff1673ffffffffffffffffffffffffffffffffffffffff1673ffffffffffffffffffffffffffffffffffffffff16815260200160048201805461149490612fc8565b80601f01602080910402602001604051908101604052809291908181526020018280546114c090612fc8565b801561150d5780601f106114e25761010080835404028352916020019161150d565b820191906000526020600020905b8154815290600101906020018083116114f057829003601f168201915b5050505050815260200160058201805461152690612fc8565b80601f016020809104026020016040519081016040528092919081815260200182805461155290612fc8565b801561159f5780601f106115745761010080835404028352916020019161159f565b820191906000526020600020905b81548152906001019060200180831161158257829003601f168201915b505050505081526020016006820180546115b890612fc8565b80601f01602080910402602001604051908101604052809291908181526020018280546115e490612fc8565b80156116315780601f1061160657610100808354040283529160200191611631565b820191906000526020600020905b81548152906001019060200180831161161457829003601f168201915b5050505050815260200160078201805461164a90612fc8565b80601f016020809104026020016040519081016040528092919081815260200182805461167690612fc8565b80156116c35780601f10611698576101008083540402835291602001916116c3565b820191906000526020600020905b8154815290600101906020018083116116a657829003601f168201915b50505050508152505081526020019060010190611354565b505050509050919050565b6060600260008373ffffffffffffffffffffffffffffffffffffffff1673ffffffffffffffffffffffffffffffffffffffff168152602001908152602001600020805480602002602001604051908101604052809291908181526020016000905b82821015611ace578382906000526020600020906008020160405180610100016040529081600082015481526020016001820160009054906101000a900473ffffffffffffffffffffffffffffffffffffffff1673ffffffffffffffffffffffffffffffffffffffff1673ffffffffffffffffffffffffffffffffffffffff1681526020016002820160009054906101000a900473ffffffffffffffffffffffffffffffffffffffff1673ffffffffffffffffffffffffffffffffffffffff1673ffffffffffffffffffffffffffffffffffffffff1681526020016003820160009054906101000a900473ffffffffffffffffffffffffffffffffffffffff1673ffffffffffffffffffffffffffffffffffffffff1673ffffffffffffffffffffffffffffffffffffffff16815260200160048201805461188790612fc8565b80601f01602080910402602001604051908101604052809291908181526020018280546118b390612fc8565b80156119005780601f106118d557610100808354040283529160200191611900565b820191906000526020600020905b8154815290600101906020018083116118e357829003601f168201915b5050505050815260200160058201805461191990612fc8565b80601f016020809104026020016040519081016040528092919081815260200182805461194590612fc8565b80156119925780601f1061196757610100808354040283529160200191611992565b820191906000526020600020905b81548152906001019060200180831161197557829003601f168201915b505050505081526020016006820180546119ab90612fc8565b80601f01602080910402602001604051908101604052809291908181526020018280546119d790612fc8565b8015611a245780601f106119f957610100808354040283529160200191611a24565b820191906000526020600020905b815481529060010190602001808311611a0757829003601f168201915b50505050508152602001600782018054611a3d90612fc8565b80601f0160208091040260200160405190810160405280929190818152602001828054611a6990612fc8565b8015611ab65780601f10611a8b57610100808354040283529160200191611ab6565b820191906000526020600020905b815481529060010190602001808311611a9957829003601f168201915b50505050508152505081526020019060010190611747565b505050509050919050565b6060600160008373ffffffffffffffffffffffffffffffffffffffff1673ffffffffffffffffffffffffffffffffffffffff168152602001908152602001600020805480602002602001604051908101604052809291908181526020016000905b82821015611de957838290600052602060002090600602016040518060c00160405290816000820160009054906101000a900473ffffffffffffffffffffffffffffffffffffffff1673ffffffffffffffffffffffffffffffffffffffff1673ffffffffffffffffffffffffffffffffffffffff1681526020016001820160009054906101000a900473ffffffffffffffffffffffffffffffffffffffff1673ffffffffffffffffffffffffffffffffffffffff1673ffffffffffffffffffffffffffffffffffffffff168152602001600282018054611c1990612fc8565b80601f0160208091040260200160405190810160405280929190818152602001828054611c4590612fc8565b8015611c925780601f10611c6757610100808354040283529160200191611c92565b820191906000526020600020905b815481529060010190602001808311611c7557829003601f168201915b50505050508152602001600382018054611cab90612fc8565b80601f0160208091040260200160405190810160405280929190818152602001828054611cd790612fc8565b8015611d245780601f10611cf957610100808354040283529160200191611d24565b820191906000526020600020905b815481529060010190602001808311611d0757829003601f168201915b50505050508152602001600482018054611d3d90612fc8565b80601f0160208091040260200160405190810160405280929190818152602001828054611d6990612fc8565b8015611db65780601f10611d8b57610100808354040283529160200191611db6565b820191906000526020600020905b815481529060010190602001808311611d9957829003601f168201915b505050505081526020016005820160009054906101000a900460ff16151515158152505081526020019060010190611b3a565b505050509050919050565b6000855111611e38576040517f08c379a0000000000000000000000000000000000000000000000000000000008152600401611e2f9061352e565b60405180910390fd5b6000845111611e7c576040517f08c379a0000000000000000000000000000000000000000000000000000000008152600401611e739061359a565b60405180910390fd5b6000835111611ec0576040517f08c379a0000000000000000000000000000000000000000000000000000000008152600401611eb790613606565b60405180910390fd5b6000825111611f04576040517f08c379a0000000000000000000000000000000000000000000000000000000008152600401611efb90613672565b60405180910390fd5b6000815111611f48576040517f08c379a0000000000000000000000000000000000000000000000000000000008152600401611f3f906136de565b60405180910390fd5b6000600560003373ffffffffffffffffffffffffffffffffffffffff1673ffffffffffffffffffffffffffffffffffffffff1681526020019081526020016000206001018054611f9790612fc8565b905014611fd9576040517f08c379a0000000000000000000000000000000000000000000000000000000008152600401611fd09061374a565b60405180910390fd5b600682604051611fe99190613035565b908152602001604051809103902060009054906101000a900460ff1615612045576040517f08c379a000000000000000000000000000000000000000000000000000000000815260040161203c906137b6565b60405180910390fd5b6040518060a0016040528086815260200185815260200184815260200183815260200182815250600560003373ffffffffffffffffffffffffffffffffffffffff1673ffffffffffffffffffffffffffffffffffffffff16815260200190815260200160002060008201518160000190816120c09190613338565b5060208201518160010190816120d69190613338565b5060408201518160020190816120ec9190613338565b5060608201518160030190816121029190613338565b5060808201518160040190816121189190613338565b50905050600160068360405161212e9190613035565b908152602001604051809103902060006101000a81548160ff0219169083151502179055505050505050565b60606000600560008473ffffffffffffffffffffffffffffffffffffffff1673ffffffffffffffffffffffffffffffffffffffff16815260200190815260200160002060010180546121ab90612fc8565b9050116121ed576040517f08c379a00000000000000000000000000000000000000000000000000000000081526004016121e490613822565b60405180910390fd5b600560008373ffffffffffffffffffffffffffffffffffffffff1673ffffffffffffffffffffffffffffffffffffffff168152602001908152602001600020600301805461223a90612fc8565b80601f016020809104026020016040519081016040528092919081815260200182805461226690612fc8565b80156122b35780601f10612288576101008083540402835291602001916122b3565b820191906000526020600020905b81548152906001019060200180831161229657829003601f168201915b50505050509050919050565b60606000808373ffffffffffffffffffffffffffffffffffffffff1673ffffffffffffffffffffffffffffffffffffffff168152602001908152602001600020805480602002602001604051908101604052809291908181526020016000905b828210156125ce57838290600052602060002090600602016040518060c00160405290816000820160009054906101000a900473ffffffffffffffffffffffffffffffffffffffff1673ffffffffffffffffffffffffffffffffffffffff1673ffffffffffffffffffffffffffffffffffffffff1681526020016001820160009054906101000a900473ffffffffffffffffffffffffffffffffffffffff1673ffffffffffffffffffffffffffffffffffffffff1673ffffffffffffffffffffffffffffffffffffffff1681526020016002820180546123fe90612fc8565b80601f016020809104026020016040519081016040528092919081815260200182805461242a90612fc8565b80156124775780601f1061244c57610100808354040283529160200191612477565b820191906000526020600020905b81548152906001019060200180831161245a57829003601f168201915b5050505050815260200160038201805461249090612fc8565b80601f01602080910402602001604051908101604052809291908181526020018280546124bc90612fc8565b80156125095780601f106124de57610100808354040283529160200191612509565b820191906000526020600020905b8154815290600101906020018083116124ec57829003601f168201915b5050505050815260200160048201805461252290612fc8565b80601f016020809104026020016040519081016040528092919081815260200182805461254e90612fc8565b801561259b5780601f106125705761010080835404028352916020019161259b565b820191906000526020600020905b81548152906001019060200180831161257e57829003601f168201915b505050505081526020016005820160009054906101000a900460ff1615151515815250508152602001906001019061231f565b505050509050919050565b6000604051905090565b600080fd5b600080fd5b600073ffffffffffffffffffffffffffffffffffffffff82169050919050565b6000612618826125ed565b9050919050565b6126288161260d565b811461263357600080fd5b50565b6000813590506126458161261f565b92915050565b600060208284031215612661576126606125e3565b5b600061266f84828501612636565b91505092915050565b600081519050919050565b600082825260208201905092915050565b6000819050602082019050919050565b6126ad8161260d565b82525050565b600081519050919050565b600082825260208201905092915050565b60005b838110156126ed5780820151818401526020810190506126d2565b60008484015250505050565b6000601f19601f8301169050919050565b6000612715826126b3565b61271f81856126be565b935061272f8185602086016126cf565b612738816126f9565b840191505092915050565b60008115159050919050565b61275881612743565b82525050565b600060c08301600083015161277660008601826126a4565b50602083015161278960208601826126a4565b50604083015184820360408601526127a1828261270a565b915050606083015184820360608601526127bb828261270a565b915050608083015184820360808601526127d5828261270a565b91505060a08301516127ea60a086018261274f565b508091505092915050565b6000612801838361275e565b905092915050565b6000602082019050919050565b600061282182612678565b61282b8185612683565b93508360208202850161283d85612694565b8060005b85811015612879578484038952815161285a85826127f5565b945061286583612809565b925060208a01995050600181019050612841565b50829750879550505050505092915050565b600060208201905081810360008301526128a58184612816565b905092915050565b600080fd5b600080fd5b7f4e487b7100000000000000000000000000000000000000000000000000000000600052604160045260246000fd5b6128ef826126f9565b810181811067ffffffffffffffff8211171561290e5761290d6128b7565b5b80604052505050565b60006129216125d9565b905061292d82826128e6565b919050565b600067ffffffffffffffff82111561294d5761294c6128b7565b5b612956826126f9565b9050602081019050919050565b82818337600083830152505050565b600061298561298084612932565b612917565b9050828152602081018484840111156129a1576129a06128b2565b5b6129ac848285612963565b509392505050565b600082601f8301126129c9576129c86128ad565b5b81356129d9848260208601612972565b91505092915050565b600080604083850312156129f9576129f86125e3565b5b6000612a0785828601612636565b925050602083013567ffffffffffffffff811115612a2857612a276125e8565b5b612a34858286016129b4565b9150509250929050565b600082825260208201905092915050565b6000612a5a826126b3565b612a648185612a3e565b9350612a748185602086016126cf565b612a7d816126f9565b840191505092915050565b60006020820190508181036000830152612aa28184612a4f565b905092915050565b60008060008060008060c08789031215612ac757612ac66125e3565b5b6000612ad589828a01612636565b9650506020612ae689828a01612636565b9550506040612af789828a01612636565b945050606087013567ffffffffffffffff811115612b1857612b176125e8565b5b612b2489828a016129b4565b935050608087013567ffffffffffffffff811115612b4557612b446125e8565b5b612b5189828a016129b4565b92505060a087013567ffffffffffffffff811115612b7257612b716125e8565b5b612b7e89828a016129b4565b9150509295509295509295565b600080600080600060a08688031215612ba757612ba66125e3565b5b6000612bb588828901612636565b9550506020612bc688828901612636565b945050604086013567ffffffffffffffff811115612be757612be66125e8565b5b612bf3888289016129b4565b935050606086013567ffffffffffffffff811115612c1457612c136125e8565b5b612c20888289016129b4565b925050608086013567ffffffffffffffff811115612c4157612c406125e8565b5b612c4d888289016129b4565b9150509295509295909350565b600060a0820190508181036000830152612c748188612a4f565b90508181036020830152612c888187612a4f565b90508181036040830152612c9c8186612a4f565b90508181036060830152612cb08185612a4f565b90508181036080830152612cc48184612a4f565b90509695505050505050565b600081519050919050565b600082825260208201905092915050565b6000819050602082019050919050565b6000819050919050565b612d0f81612cfc565b82525050565b600061010083016000830151612d2e6000860182612d06565b506020830151612d4160208601826126a4565b506040830151612d5460408601826126a4565b506060830151612d6760608601826126a4565b5060808301518482036080860152612d7f828261270a565b91505060a083015184820360a0860152612d99828261270a565b91505060c083015184820360c0860152612db3828261270a565b91505060e083015184820360e0860152612dcd828261270a565b9150508091505092915050565b6000612de68383612d15565b905092915050565b6000602082019050919050565b6000612e0682612cd0565b612e108185612cdb565b935083602082028501612e2285612cec565b8060005b85811015612e5e5784840389528151612e3f8582612dda565b9450612e4a83612dee565b925060208a01995050600181019050612e26565b50829750879550505050505092915050565b60006020820190508181036000830152612e8a8184612dfb565b905092915050565b600080600080600060a08688031215612eae57612ead6125e3565b5b600086013567ffffffffffffffff811115612ecc57612ecb6125e8565b5b612ed8888289016129b4565b955050602086013567ffffffffffffffff811115612ef957612ef86125e8565b5b612f05888289016129b4565b945050604086013567ffffffffffffffff811115612f2657612f256125e8565b5b612f32888289016129b4565b935050606086013567ffffffffffffffff811115612f5357612f526125e8565b5b612f5f888289016129b4565b925050608086013567ffffffffffffffff811115612f8057612f7f6125e8565b5b612f8c888289016129b4565b9150509295509295909350565b7f4e487b7100000000000000000000000000000000000000000000000000000000600052602260045260246000fd5b60006002820490506001821680612fe057607f821691505b602082108103612ff357612ff2612f99565b5b50919050565b600081905092915050565b600061300f826126b3565b6130198185612ff9565b93506130298185602086016126cf565b80840191505092915050565b60006130418284613004565b915081905092915050565b7f4e487b7100000000000000000000000000000000000000000000000000000000600052603260045260246000fd5b60008190508160005260206000209050919050565b6000815461309d81612fc8565b6130a78186612ff9565b945060018216600081146130c257600181146130d75761310a565b60ff198316865281151582028601935061310a565b6130e08561307b565b60005b83811015613102578154818901526001820191506020810190506130e3565b838801955050505b50505092915050565b600061311f8284613090565b915081905092915050565b7f4e487b7100000000000000000000000000000000000000000000000000000000600052601160045260246000fd5b600061316482612cfc565b91507fffffffffffffffffffffffffffffffffffffffffffffffffffffffffffffffff82036131965761319561312a565b5b600182019050919050565b60006020601f8301049050919050565b600082821b905092915050565b6000600883026131ee7fffffffffffffffffffffffffffffffffffffffffffffffffffffffffffffffff826131b1565b6131f886836131b1565b95508019841693508086168417925050509392505050565b6000819050919050565b600061323561323061322b84612cfc565b613210565b612cfc565b9050919050565b6000819050919050565b61324f8361321a565b61326361325b8261323c565b8484546131be565b825550505050565b600090565b61327861326b565b613283818484613246565b505050565b5b818110156132a75761329c600082613270565b600181019050613289565b5050565b601f8211156132ec576132bd8161307b565b6132c6846131a1565b810160208510156132d5578190505b6132e96132e1856131a1565b830182613288565b50505b505050565b600082821c905092915050565b600061330f600019846008026132f1565b1980831691505092915050565b600061332883836132fe565b9150826002028217905092915050565b613341826126b3565b67ffffffffffffffff81111561335a576133596128b7565b5b6133648254612fc8565b61336f8282856132ab565b600060209050601f8311600181146133a25760008415613390578287015190505b61339a858261331c565b865550613402565b601f1984166133b08661307b565b60005b828110156133d8578489015182556001820191506020850194506020810190506133b3565b868310156133f557848901516133f1601f8916826132fe565b8355505b6001600288020188555050505b505050505050565b7f436572746966696361746520616c726561647920657869737473000000000000600082015250565b6000613440601a83612a3e565b915061344b8261340a565b602082019050919050565b6000602082019050818103600083015261346f81613433565b9050919050565b7f55736572206e6f7420666f756e642e0000000000000000000000000000000000600082015250565b60006134ac600f83612a3e565b91506134b782613476565b602082019050919050565b600060208201905081810360008301526134db8161349f565b9050919050565b7f46756c6c206e616d652069732072657175697265642e00000000000000000000600082015250565b6000613518601683612a3e565b9150613523826134e2565b602082019050919050565b600060208201905081810360008301526135478161350b565b9050919050565b7f456d61696c2069732072657175697265642e0000000000000000000000000000600082015250565b6000613584601283612a3e565b915061358f8261354e565b602082019050919050565b600060208201905081810360008301526135b381613577565b9050919050565b7f50617373776f72642069732072657175697265642e0000000000000000000000600082015250565b60006135f0601583612a3e565b91506135fb826135ba565b602082019050919050565b6000602082019050818103600083015261361f816135e3565b9050919050565b7f557365726e616d652069732072657175697265642e0000000000000000000000600082015250565b600061365c601583612a3e565b915061366782613626565b602082019050919050565b6000602082019050818103600083015261368b8161364f565b9050919050565b7f5573657220747970652069732072657175697265642e00000000000000000000600082015250565b60006136c8601683612a3e565b91506136d382613692565b602082019050919050565b600060208201905081810360008301526136f7816136bb565b9050919050565b7f5573657220616c726561647920726567697374657265642e0000000000000000600082015250565b6000613734601883612a3e565b915061373f826136fe565b602082019050919050565b6000602082019050818103600083015261376381613727565b9050919050565b7f557365726e616d6520616c72656164792074616b656e2e000000000000000000600082015250565b60006137a0601783612a3e565b91506137ab8261376a565b602082019050919050565b600060208201905081810360008301526137cf81613793565b9050919050565b7f5573657220646f6573206e6f742065786973742e000000000000000000000000600082015250565b600061380c601483612a3e565b9150613817826137d6565b602082019050919050565b6000602082019050818103600083015261383b816137ff565b905091905056fea2646970667358221220839b77cfdcb79bdc22d2575db64cc249123409d06a3eaaf2634db948ad94d08164736f6c63430008130033",
  "immutableReferences": {},
  "source": "// SPDX-License-Identifier: MIT\npragma solidity 0.8.19;\n\ncontract Certi {\n    // Struct to represent a user\n    struct User {\n        string fullName;\n        string email;\n        string password; // Store hashed password\n        string username;\n        string usertype; // Add the user type field\n    }\n\n    // Struct to represent a certificate\n    struct Certificate {\n        address issuer;  // Address of the user who issued the certificate\n        address user;\n        string hash;     // Hash of the certificate file\n        string title;\n        string filePath; // Path of the stored certificate\n        bool exist;\n    }\n\n        mapping(address => Certificate[]) private userCertificates;\n    mapping(address => Certificate[]) private organizationCertificates;\n\n    // Function to add a certificate\n    function addCertificate(address _issuer, address _user, string memory _hash, string memory _title, string memory _filePath) public {\n        // Check if the certificate already exists for the issuer and user\n        Certificate[] storage issuerCertificates = organizationCertificates[_issuer];\n        for (uint i = 0; i < issuerCertificates.length; i++) {\n            require(\n                keccak256(abi.encodePacked(issuerCertificates[i].hash)) != keccak256(abi.encodePacked(_hash)),\n                \"Certificate already exists\"\n            );\n        }\n\n        // Create the new certificate\n        Certificate memory new_certificate = Certificate({\n            issuer: _issuer,\n            user: _user,\n            hash: _hash,\n            title: _title,\n            filePath: _filePath,\n            exist: true\n        });\n\n        // Add the new certificate to the mappings\n        userCertificates[_user].push(new_certificate);\n        organizationCertificates[_issuer].push(new_certificate);\n    }\n// Struct to represent a verification certificate\n    struct VerificationCertificates {\n        uint id;  // Auto-generated ID\n        address issuedBy;\n        address user;\n        address organizationAddress;\n        string username;\n        string organizationName;\n        string filepath;\n        string status;\n    }\n\n    // Mappings to store verification certificates by user and organization\n    mapping(address => VerificationCertificates[]) private userVerificationCertificates;\n    mapping(address => VerificationCertificates[]) private organizationVerificationCertificates;\n\n    // Counter for auto-generating unique IDs\n    uint private certificateCounter;\n\n    // Function to add a new verification certificate\n    function addVerificationCertificate(\n        address issuedBy,\n        address user,\n        address organizationAddress,\n        string memory username,\n        string memory organizationName,\n        string memory filepath\n    ) public {\n        // Increment the counter to get a new unique ID\n        certificateCounter++;\n\n        // Create a new verification certificate with the auto-generated ID\n        VerificationCertificates memory newCertificate = VerificationCertificates({\n            id: certificateCounter,  // Assign the auto-generated ID\n            issuedBy: issuedBy,\n            user: user,\n            organizationAddress: organizationAddress,\n            username: username,\n            organizationName: organizationName,\n            filepath: filepath,\n            status: \"pending\"  // Set the initial status to \"pending\"\n        });\n\n        // Store the certificate in the user's and organization's mapping\n        userVerificationCertificates[user].push(newCertificate);\n        organizationVerificationCertificates[organizationAddress].push(newCertificate);\n    }\n\n\n    // Optional: You may add getter functions to retrieve the certificates if needed\n    function getUserVerificationCertificates(address user) public view returns (VerificationCertificates[] memory) {\n        return userVerificationCertificates[user];\n    }\n\n    function getOrganizationVerificationCertificates(address organizationAddress) public view returns (VerificationCertificates[] memory) {\n        return organizationVerificationCertificates[organizationAddress];\n    }\n\n\n \n    // Mapping to store users by their Ethereum address\n    mapping(address => User) private users;\n\n    // Mapping to ensure unique usernames\n    mapping(string => bool) private usernames;\n\n    // Function to add a new user\n    function addUser(\n        string memory fullName, \n        string memory email, \n        string memory password, \n        string memory username, \n        string memory usertype // Add usertype parameter\n    ) public {\n        require(bytes(fullName).length > 0, \"Full name is required.\");\n        require(bytes(email).length > 0, \"Email is required.\");\n        require(bytes(password).length > 0, \"Password is required.\");\n        require(bytes(username).length > 0, \"Username is required.\");\n        require(bytes(usertype).length > 0, \"User type is required.\");\n\n        require(bytes(users[msg.sender].email).length == 0, \"User already registered.\");\n        require(!usernames[username], \"Username already taken.\");\n\n        users[msg.sender] = User(fullName, email, password, username, usertype); // Store usertype\n        usernames[username] = true;\n    }\n\n    // Function to fetch user details\n    function getUser(address userAddress)\n        public\n        view\n        returns (string memory fullName, string memory email, string memory username, string memory password, string memory usertype)\n    {\n        User memory user = users[userAddress];\n        require(bytes(user.email).length > 0, \"User not found.\");\n        return (user.fullName, user.email, user.username, user.password, user.usertype); // Return usertype\n    }\n\n    // Function to fetch certificates for a specific address\n    function getCertificates(address userAddress) public view returns (Certificate[] memory) {\n        return userCertificates[userAddress];\n    }\n\n        // Function to fetch all certificates for a specific organization\n    function getOrganizationCertificates(address _issuer) public view returns (Certificate[] memory) {\n        return organizationCertificates[_issuer];\n    }\n\n        function getUserCertificates(address _issuer) public view returns (Certificate[] memory) {\n        return userCertificates[_issuer];\n    }\n\n    // Function to fetch the username by address\nfunction getUsername(address userAddress) public view returns (string memory) {\n    // Ensure the user exists\n    require(bytes(users[userAddress].email).length > 0, \"User does not exist.\");\n    \n    return users[userAddress].username;\n}\n\n// Function to check if a hash already exists in the user's certificates\nfunction checkHashExists(address organizationAddress, string memory hash) public view returns (string memory) {\n    Certificate[] storage certificates = organizationCertificates[organizationAddress];\n    \n    for (uint i = 0; i < certificates.length; i++) {\n        if (keccak256(abi.encodePacked(certificates[i].hash)) == keccak256(abi.encodePacked(hash))) {\n            return \"Certificate hash exists\";\n        }\n    }\n    \n    return \"Certificate hash does not exist\";\n}\n}\n",
  "sourcePath": "E:\\KITS-BLOCKCHAIN\\New-certi\\contracts\\certi.sol",
  "compiler": {
    "name": "solc",
    "version": "0.8.19+commit.7dd6d404.Emscripten.clang"
  },
  "schemaVersion": "3.4.16",
  "updatedAt": "2025-01-11T14:03:15.352Z",
  "networkType": "ethereum",
  "devdoc": {
    "kind": "dev",
    "methods": {},
    "version": 1
  },
  "userdoc": {
    "kind": "user",
    "methods": {},
    "version": 1
  }
}