{
  "contractName": "Certi",
  "abi": [
    {
      "inputs": [
        {
          "internalType": "uint256",
          "name": "_id",
          "type": "uint256"
        },
        {
          "internalType": "address",
          "name": "_issuerAddress",
          "type": "address"
        },
        {
          "internalType": "address",
          "name": "_organizationAddress",
          "type": "address"
        }
      ],
      "name": "addOrganizationRequest",
      "outputs": [],
      "stateMutability": "nonpayable",
      "type": "function"
    },
    {
      "inputs": [
        {
          "internalType": "address",
          "name": "_issuerAddress",
          "type": "address"
        }
      ],
      "name": "getRequestsByIssuer",
      "outputs": [
        {
          "components": [
            {
              "internalType": "uint256",
              "name": "id",
              "type": "uint256"
            },
            {
              "internalType": "address",
              "name": "issuer",
              "type": "address"
            },
            {
              "internalType": "address",
              "name": "organization",
              "type": "address"
            }
          ],
          "internalType": "struct Certi.OrganizationRequests[]",
          "name": "",
          "type": "tuple[]"
        }
      ],
      "stateMutability": "view",
      "type": "function",
      "constant": true
    },
    {
      "inputs": [
        {
          "internalType": "address",
          "name": "_organizationAddress",
          "type": "address"
        }
      ],
      "name": "getRequestsByOrganization",
      "outputs": [
        {
          "components": [
            {
              "internalType": "uint256",
              "name": "id",
              "type": "uint256"
            },
            {
              "internalType": "address",
              "name": "issuer",
              "type": "address"
            },
            {
              "internalType": "address",
              "name": "organization",
              "type": "address"
            }
          ],
          "internalType": "struct Certi.OrganizationRequests[]",
          "name": "",
          "type": "tuple[]"
        }
      ],
      "stateMutability": "view",
      "type": "function",
      "constant": true
    },
    {
      "inputs": [
        {
          "internalType": "address",
          "name": "_issuer",
          "type": "address"
        },
        {
          "internalType": "address",
          "name": "_user",
          "type": "address"
        },
        {
          "internalType": "string",
          "name": "_hash",
          "type": "string"
        },
        {
          "internalType": "string",
          "name": "_title",
          "type": "string"
        },
        {
          "internalType": "string",
          "name": "_filePath",
          "type": "string"
        }
      ],
      "name": "addCertificate",
      "outputs": [],
      "stateMutability": "nonpayable",
      "type": "function"
    },
    {
      "inputs": [
        {
          "internalType": "uint256",
          "name": "_id",
          "type": "uint256"
        }
      ],
      "name": "getCertificateById",
      "outputs": [
        {
          "internalType": "uint256",
          "name": "",
          "type": "uint256"
        },
        {
          "internalType": "address",
          "name": "",
          "type": "address"
        },
        {
          "internalType": "address",
          "name": "",
          "type": "address"
        },
        {
          "internalType": "address",
          "name": "",
          "type": "address"
        },
        {
          "internalType": "string",
          "name": "",
          "type": "string"
        },
        {
          "internalType": "string",
          "name": "",
          "type": "string"
        },
        {
          "internalType": "string",
          "name": "",
          "type": "string"
        },
        {
          "internalType": "string",
          "name": "",
          "type": "string"
        }
      ],
      "stateMutability": "view",
      "type": "function",
      "constant": true
    },
    {
      "inputs": [
        {
          "internalType": "address",
          "name": "_issuedBy",
          "type": "address"
        },
        {
          "internalType": "address",
          "name": "_user",
          "type": "address"
        },
        {
          "internalType": "address",
          "name": "_organizationAddress",
          "type": "address"
        },
        {
          "internalType": "string",
          "name": "_username",
          "type": "string"
        },
        {
          "internalType": "string",
          "name": "_organizationName",
          "type": "string"
        },
        {
          "internalType": "string",
          "name": "_filepath",
          "type": "string"
        }
      ],
      "name": "addVerificationCertificate",
      "outputs": [],
      "stateMutability": "nonpayable",
      "type": "function"
    },
    {
      "inputs": [
        {
          "internalType": "uint256",
          "name": "_certificateId",
          "type": "uint256"
        },
        {
          "internalType": "string",
          "name": "_newStatus",
          "type": "string"
        }
      ],
      "name": "updateCertificateStatus",
      "outputs": [],
      "stateMutability": "nonpayable",
      "type": "function"
    },
    {
      "inputs": [
        {
          "internalType": "address",
          "name": "_user",
          "type": "address"
        }
      ],
      "name": "getUserVerificationCertificates",
      "outputs": [
        {
          "components": [
            {
              "internalType": "uint256",
              "name": "id",
              "type": "uint256"
            },
            {
              "internalType": "address",
              "name": "issuedBy",
              "type": "address"
            },
            {
              "internalType": "address",
              "name": "user",
              "type": "address"
            },
            {
              "internalType": "address",
              "name": "organizationAddress",
              "type": "address"
            },
            {
              "internalType": "string",
              "name": "username",
              "type": "string"
            },
            {
              "internalType": "string",
              "name": "organizationName",
              "type": "string"
            },
            {
              "internalType": "string",
              "name": "filepath",
              "type": "string"
            },
            {
              "internalType": "string",
              "name": "status",
              "type": "string"
            }
          ],
          "internalType": "struct Certi.VerificationCertificates[]",
          "name": "",
          "type": "tuple[]"
        }
      ],
      "stateMutability": "view",
      "type": "function",
      "constant": true
    },
    {
      "inputs": [
        {
          "internalType": "address",
          "name": "_organizationAddress",
          "type": "address"
        }
      ],
      "name": "getOrganizationVerificationCertificates",
      "outputs": [
        {
          "components": [
            {
              "internalType": "uint256",
              "name": "id",
              "type": "uint256"
            },
            {
              "internalType": "address",
              "name": "issuedBy",
              "type": "address"
            },
            {
              "internalType": "address",
              "name": "user",
              "type": "address"
            },
            {
              "internalType": "address",
              "name": "organizationAddress",
              "type": "address"
            },
            {
              "internalType": "string",
              "name": "username",
              "type": "string"
            },
            {
              "internalType": "string",
              "name": "organizationName",
              "type": "string"
            },
            {
              "internalType": "string",
              "name": "filepath",
              "type": "string"
            },
            {
              "internalType": "string",
              "name": "status",
              "type": "string"
            }
          ],
          "internalType": "struct Certi.VerificationCertificates[]",
          "name": "",
          "type": "tuple[]"
        }
      ],
      "stateMutability": "view",
      "type": "function",
      "constant": true
    },
    {
      "inputs": [
        {
          "internalType": "string",
          "name": "_fullName",
          "type": "string"
        },
        {
          "internalType": "string",
          "name": "_email",
          "type": "string"
        },
        {
          "internalType": "string",
          "name": "_password",
          "type": "string"
        },
        {
          "internalType": "string",
          "name": "_username",
          "type": "string"
        },
        {
          "internalType": "string",
          "name": "_usertype",
          "type": "string"
        }
      ],
      "name": "addUser",
      "outputs": [],
      "stateMutability": "nonpayable",
      "type": "function"
    },
    {
      "inputs": [
        {
          "internalType": "address",
          "name": "_userAddress",
          "type": "address"
        }
      ],
      "name": "getUser",
      "outputs": [
        {
          "internalType": "string",
          "name": "fullName",
          "type": "string"
        },
        {
          "internalType": "string",
          "name": "email",
          "type": "string"
        },
        {
          "internalType": "string",
          "name": "username",
          "type": "string"
        },
        {
          "internalType": "string",
          "name": "password",
          "type": "string"
        },
        {
          "internalType": "string",
          "name": "usertype",
          "type": "string"
        }
      ],
      "stateMutability": "view",
      "type": "function",
      "constant": true
    },
    {
      "inputs": [
        {
          "internalType": "address",
          "name": "_userAddress",
          "type": "address"
        }
      ],
      "name": "getCertificates",
      "outputs": [
        {
          "components": [
            {
              "internalType": "address",
              "name": "issuer",
              "type": "address"
            },
            {
              "internalType": "address",
              "name": "user",
              "type": "address"
            },
            {
              "internalType": "string",
              "name": "hash",
              "type": "string"
            },
            {
              "internalType": "string",
              "name": "title",
              "type": "string"
            },
            {
              "internalType": "string",
              "name": "filePath",
              "type": "string"
            },
            {
              "internalType": "bool",
              "name": "exist",
              "type": "bool"
            }
          ],
          "internalType": "struct Certi.Certificate[]",
          "name": "",
          "type": "tuple[]"
        }
      ],
      "stateMutability": "view",
      "type": "function",
      "constant": true
    },
    {
      "inputs": [
        {
          "internalType": "address",
          "name": "_issuer",
          "type": "address"
        }
      ],
      "name": "getOrganizationCertificates",
      "outputs": [
        {
          "components": [
            {
              "internalType": "address",
              "name": "issuer",
              "type": "address"
            },
            {
              "internalType": "address",
              "name": "user",
              "type": "address"
            },
            {
              "internalType": "string",
              "name": "hash",
              "type": "string"
            },
            {
              "internalType": "string",
              "name": "title",
              "type": "string"
            },
            {
              "internalType": "string",
              "name": "filePath",
              "type": "string"
            },
            {
              "internalType": "bool",
              "name": "exist",
              "type": "bool"
            }
          ],
          "internalType": "struct Certi.Certificate[]",
          "name": "",
          "type": "tuple[]"
        }
      ],
      "stateMutability": "view",
      "type": "function",
      "constant": true
    },
    {
      "inputs": [
        {
          "internalType": "address",
          "name": "_userAddress",
          "type": "address"
        }
      ],
      "name": "getUsername",
      "outputs": [
        {
          "internalType": "string",
          "name": "",
          "type": "string"
        }
      ],
      "stateMutability": "view",
      "type": "function",
      "constant": true
    },
    {
      "inputs": [
        {
          "internalType": "address",
          "name": "_organizationAddress",
          "type": "address"
        },
        {
          "internalType": "string",
          "name": "_hash",
          "type": "string"
        }
      ],
      "name": "checkHashExists",
      "outputs": [
        {
          "internalType": "string",
          "name": "",
          "type": "string"
        }
      ],
      "stateMutability": "view",
      "type": "function",
      "constant": true
    }
  ],
  "bytecode": "0x608060405234801561001057600080fd5b506140a3806100206000396000f3fe608060405234801561001057600080fd5b50600436106100f55760003560e01c80638cf0993a11610097578063ac0696ab11610066578063ac0696ab146102c5578063b37a3d82146102f5578063ce43c03214610311578063f1c49c6214610341576100f5565b80638cf0993a146101fe5780638d945b571461022e5780639d735caf1461025e578063a1fd5d7214610295576100f5565b806359f74bc0116100d357806359f74bc0146101765780636234f6e3146101925780636f77926b146101ae5780638825262d146101e2576100f5565b80632ec35d21146100fa57806340a8f4fd146101165780634634059114610146575b600080fd5b610114600480360381019061010f9190612e71565b610371565b005b610130600480360381019061012b9190612f2b565b6103e6565b60405161013d9190613067565b60405180910390f35b610160600480360381019061015b9190613089565b61053a565b60405161016d9190613164565b60405180910390f35b610190600480360381019061018b9190613186565b610697565b005b6101ac60048036038101906101a79190613267565b610c03565b005b6101c860048036038101906101c39190612f2b565b611039565b6040516101d9959493929190613336565b60405180910390f35b6101fc60048036038101906101f791906133ac565b6113de565b005b61021860048036038101906102139190612f2b565b611634565b6040516102259190613067565b60405180910390f35b61024860048036038101906102439190612f2b565b611787565b60405161025591906135d0565b60405180910390f35b610278600480360381019061027391906135f2565b611b7a565b60405161028c98979695949392919061363d565b60405180910390f35b6102af60048036038101906102aa9190612f2b565b611f41565b6040516102bc91906135d0565b60405180910390f35b6102df60048036038101906102da9190612f2b565b612334565b6040516102ec919061384b565b60405180910390f35b61030f600480360381019061030a919061386d565b61264f565b005b61032b60048036038101906103269190612f2b565b612861565b6040516103389190613164565b60405180910390f35b61035b60048036038101906103569190612f2b565b6129c6565b604051610368919061384b565b60405180910390f35b600060066000848152602001908152602001600020905060008160000154036103cf576040517f08c379a00000000000000000000000000000000000000000000000000000000081526004016103c6906139c0565b60405180910390fd5b818160070190816103e09190613bec565b50505050565b6060600160008373ffffffffffffffffffffffffffffffffffffffff1673ffffffffffffffffffffffffffffffffffffffff168152602001908152602001600020805480602002602001604051908101604052809291908181526020016000905b8282101561052f5783829060005260206000209060030201604051806060016040529081600082015481526020016001820160009054906101000a900473ffffffffffffffffffffffffffffffffffffffff1673ffffffffffffffffffffffffffffffffffffffff1673ffffffffffffffffffffffffffffffffffffffff1681526020016002820160009054906101000a900473ffffffffffffffffffffffffffffffffffffffff1673ffffffffffffffffffffffffffffffffffffffff1673ffffffffffffffffffffffffffffffffffffffff168152505081526020019060010190610447565b505050509050919050565b60606000600360008573ffffffffffffffffffffffffffffffffffffffff1673ffffffffffffffffffffffffffffffffffffffff168152602001908152602001600020905060005b8180549050811015610656578360405160200161059f9190613cfa565b604051602081830303815290604052805190602001208282815481106105c8576105c7613d11565b5b90600052602060002090600602016002016040516020016105e99190613dc3565b6040516020818303038152906040528051906020012003610643576040518060400160405280601781526020017f436572746966696361746520686173682065786973747300000000000000000081525092505050610691565b808061064e90613e09565b915050610582565b506040518060400160405280601f81526020017f4365727469666963617465206861736820646f6573206e6f74206578697374008152509150505b92915050565b600760008154809291906106aa90613e09565b9190505550600060405180610100016040528060075481526020018873ffffffffffffffffffffffffffffffffffffffff1681526020018773ffffffffffffffffffffffffffffffffffffffff1681526020018673ffffffffffffffffffffffffffffffffffffffff1681526020018581526020018481526020018381526020016040518060400160405280600781526020017f70656e64696e67000000000000000000000000000000000000000000000000008152508152509050600460008773ffffffffffffffffffffffffffffffffffffffff1673ffffffffffffffffffffffffffffffffffffffff1681526020019081526020016000208190806001815401808255809150506001900390600052602060002090600802016000909190919091506000820151816000015560208201518160010160006101000a81548173ffffffffffffffffffffffffffffffffffffffff021916908373ffffffffffffffffffffffffffffffffffffffff16021790555060408201518160020160006101000a81548173ffffffffffffffffffffffffffffffffffffffff021916908373ffffffffffffffffffffffffffffffffffffffff16021790555060608201518160030160006101000a81548173ffffffffffffffffffffffffffffffffffffffff021916908373ffffffffffffffffffffffffffffffffffffffff16021790555060808201518160040190816108c39190613bec565b5060a08201518160050190816108d99190613bec565b5060c08201518160060190816108ef9190613bec565b5060e08201518160070190816109059190613bec565b505050600560008673ffffffffffffffffffffffffffffffffffffffff1673ffffffffffffffffffffffffffffffffffffffff1681526020019081526020016000208190806001815401808255809150506001900390600052602060002090600802016000909190919091506000820151816000015560208201518160010160006101000a81548173ffffffffffffffffffffffffffffffffffffffff021916908373ffffffffffffffffffffffffffffffffffffffff16021790555060408201518160020160006101000a81548173ffffffffffffffffffffffffffffffffffffffff021916908373ffffffffffffffffffffffffffffffffffffffff16021790555060608201518160030160006101000a81548173ffffffffffffffffffffffffffffffffffffffff021916908373ffffffffffffffffffffffffffffffffffffffff1602179055506080820151816004019081610a659190613bec565b5060a0820151816005019081610a7b9190613bec565b5060c0820151816006019081610a919190613bec565b5060e0820151816007019081610aa79190613bec565b505050806006600060075481526020019081526020016000206000820151816000015560208201518160010160006101000a81548173ffffffffffffffffffffffffffffffffffffffff021916908373ffffffffffffffffffffffffffffffffffffffff16021790555060408201518160020160006101000a81548173ffffffffffffffffffffffffffffffffffffffff021916908373ffffffffffffffffffffffffffffffffffffffff16021790555060608201518160030160006101000a81548173ffffffffffffffffffffffffffffffffffffffff021916908373ffffffffffffffffffffffffffffffffffffffff1602179055506080820151816004019081610bb49190613bec565b5060a0820151816005019081610bca9190613bec565b5060c0820151816006019081610be09190613bec565b5060e0820151816007019081610bf69190613bec565b5090505050505050505050565b6000600360008773ffffffffffffffffffffffffffffffffffffffff1673ffffffffffffffffffffffffffffffffffffffff168152602001908152602001600020905060005b8180549050811015610d195784604051602001610c669190613cfa565b60405160208183030381529060405280519060200120828281548110610c8f57610c8e613d11565b5b9060005260206000209060060201600201604051602001610cb09190613dc3565b6040516020818303038152906040528051906020012003610d06576040517f08c379a0000000000000000000000000000000000000000000000000000000008152600401610cfd90613e9d565b60405180910390fd5b8080610d1190613e09565b915050610c49565b5060006040518060c001604052808873ffffffffffffffffffffffffffffffffffffffff1681526020018773ffffffffffffffffffffffffffffffffffffffff168152602001868152602001858152602001848152602001600115158152509050600260008773ffffffffffffffffffffffffffffffffffffffff1673ffffffffffffffffffffffffffffffffffffffff16815260200190815260200160002081908060018154018082558091505060019003906000526020600020906006020160009091909190915060008201518160000160006101000a81548173ffffffffffffffffffffffffffffffffffffffff021916908373ffffffffffffffffffffffffffffffffffffffff16021790555060208201518160010160006101000a81548173ffffffffffffffffffffffffffffffffffffffff021916908373ffffffffffffffffffffffffffffffffffffffff1602179055506040820151816002019081610e869190613bec565b506060820151816003019081610e9c9190613bec565b506080820151816004019081610eb29190613bec565b5060a08201518160050160006101000a81548160ff0219169083151502179055505050600360008873ffffffffffffffffffffffffffffffffffffffff1673ffffffffffffffffffffffffffffffffffffffff16815260200190815260200160002081908060018154018082558091505060019003906000526020600020906006020160009091909190915060008201518160000160006101000a81548173ffffffffffffffffffffffffffffffffffffffff021916908373ffffffffffffffffffffffffffffffffffffffff16021790555060208201518160010160006101000a81548173ffffffffffffffffffffffffffffffffffffffff021916908373ffffffffffffffffffffffffffffffffffffffff1602179055506040820151816002019081610fe19190613bec565b506060820151816003019081610ff79190613bec565b50608082015181600401908161100d9190613bec565b5060a08201518160050160006101000a81548160ff021916908315150217905550505050505050505050565b60608060608060606000600860008873ffffffffffffffffffffffffffffffffffffffff1673ffffffffffffffffffffffffffffffffffffffff1681526020019081526020016000206040518060a001604052908160008201805461109d90613a0f565b80601f01602080910402602001604051908101604052809291908181526020018280546110c990613a0f565b80156111165780601f106110eb57610100808354040283529160200191611116565b820191906000526020600020905b8154815290600101906020018083116110f957829003601f168201915b5050505050815260200160018201805461112f90613a0f565b80601f016020809104026020016040519081016040528092919081815260200182805461115b90613a0f565b80156111a85780601f1061117d576101008083540402835291602001916111a8565b820191906000526020600020905b81548152906001019060200180831161118b57829003601f168201915b505050505081526020016002820180546111c190613a0f565b80601f01602080910402602001604051908101604052809291908181526020018280546111ed90613a0f565b801561123a5780601f1061120f5761010080835404028352916020019161123a565b820191906000526020600020905b81548152906001019060200180831161121d57829003601f168201915b5050505050815260200160038201805461125390613a0f565b80601f016020809104026020016040519081016040528092919081815260200182805461127f90613a0f565b80156112cc5780601f106112a1576101008083540402835291602001916112cc565b820191906000526020600020905b8154815290600101906020018083116112af57829003601f168201915b505050505081526020016004820180546112e590613a0f565b80601f016020809104026020016040519081016040528092919081815260200182805461131190613a0f565b801561135e5780601f106113335761010080835404028352916020019161135e565b820191906000526020600020905b81548152906001019060200180831161134157829003601f168201915b50505050508152505090506000816020015151116113b1576040517f08c379a00000000000000000000000000000000000000000000000000000000081526004016113a890613f09565b60405180910390fd5b80600001518160200151826060015183604001518460800151955095509550955095505091939590929450565b600060405180606001604052808581526020018473ffffffffffffffffffffffffffffffffffffffff1681526020018373ffffffffffffffffffffffffffffffffffffffff1681525090506000808473ffffffffffffffffffffffffffffffffffffffff1673ffffffffffffffffffffffffffffffffffffffff1681526020019081526020016000208190806001815401808255809150506001900390600052602060002090600302016000909190919091506000820151816000015560208201518160010160006101000a81548173ffffffffffffffffffffffffffffffffffffffff021916908373ffffffffffffffffffffffffffffffffffffffff16021790555060408201518160020160006101000a81548173ffffffffffffffffffffffffffffffffffffffff021916908373ffffffffffffffffffffffffffffffffffffffff1602179055505050600160008373ffffffffffffffffffffffffffffffffffffffff1673ffffffffffffffffffffffffffffffffffffffff1681526020019081526020016000208190806001815401808255809150506001900390600052602060002090600302016000909190919091506000820151816000015560208201518160010160006101000a81548173ffffffffffffffffffffffffffffffffffffffff021916908373ffffffffffffffffffffffffffffffffffffffff16021790555060408201518160020160006101000a81548173ffffffffffffffffffffffffffffffffffffffff021916908373ffffffffffffffffffffffffffffffffffffffff160217905550505050505050565b60606000808373ffffffffffffffffffffffffffffffffffffffff1673ffffffffffffffffffffffffffffffffffffffff168152602001908152602001600020805480602002602001604051908101604052809291908181526020016000905b8282101561177c5783829060005260206000209060030201604051806060016040529081600082015481526020016001820160009054906101000a900473ffffffffffffffffffffffffffffffffffffffff1673ffffffffffffffffffffffffffffffffffffffff1673ffffffffffffffffffffffffffffffffffffffff1681526020016002820160009054906101000a900473ffffffffffffffffffffffffffffffffffffffff1673ffffffffffffffffffffffffffffffffffffffff1673ffffffffffffffffffffffffffffffffffffffff168152505081526020019060010190611694565b505050509050919050565b6060600560008373ffffffffffffffffffffffffffffffffffffffff1673ffffffffffffffffffffffffffffffffffffffff168152602001908152602001600020805480602002602001604051908101604052809291908181526020016000905b82821015611b6f578382906000526020600020906008020160405180610100016040529081600082015481526020016001820160009054906101000a900473ffffffffffffffffffffffffffffffffffffffff1673ffffffffffffffffffffffffffffffffffffffff1673ffffffffffffffffffffffffffffffffffffffff1681526020016002820160009054906101000a900473ffffffffffffffffffffffffffffffffffffffff1673ffffffffffffffffffffffffffffffffffffffff1673ffffffffffffffffffffffffffffffffffffffff1681526020016003820160009054906101000a900473ffffffffffffffffffffffffffffffffffffffff1673ffffffffffffffffffffffffffffffffffffffff1673ffffffffffffffffffffffffffffffffffffffff16815260200160048201805461192890613a0f565b80601f016020809104026020016040519081016040528092919081815260200182805461195490613a0f565b80156119a15780601f10611976576101008083540402835291602001916119a1565b820191906000526020600020905b81548152906001019060200180831161198457829003601f168201915b505050505081526020016005820180546119ba90613a0f565b80601f01602080910402602001604051908101604052809291908181526020018280546119e690613a0f565b8015611a335780601f10611a0857610100808354040283529160200191611a33565b820191906000526020600020905b815481529060010190602001808311611a1657829003601f168201915b50505050508152602001600682018054611a4c90613a0f565b80601f0160208091040260200160405190810160405280929190818152602001828054611a7890613a0f565b8015611ac55780601f10611a9a57610100808354040283529160200191611ac5565b820191906000526020600020905b815481529060010190602001808311611aa857829003601f168201915b50505050508152602001600782018054611ade90613a0f565b80601f0160208091040260200160405190810160405280929190818152602001828054611b0a90613a0f565b8015611b575780601f10611b2c57610100808354040283529160200191611b57565b820191906000526020600020905b815481529060010190602001808311611b3a57829003601f168201915b505050505081525050815260200190600101906117e8565b505050509050919050565b6000806000806060806060806000600660008b815260200190815260200160002060405180610100016040529081600082015481526020016001820160009054906101000a900473ffffffffffffffffffffffffffffffffffffffff1673ffffffffffffffffffffffffffffffffffffffff1673ffffffffffffffffffffffffffffffffffffffff1681526020016002820160009054906101000a900473ffffffffffffffffffffffffffffffffffffffff1673ffffffffffffffffffffffffffffffffffffffff1673ffffffffffffffffffffffffffffffffffffffff1681526020016003820160009054906101000a900473ffffffffffffffffffffffffffffffffffffffff1673ffffffffffffffffffffffffffffffffffffffff1673ffffffffffffffffffffffffffffffffffffffff168152602001600482018054611cc390613a0f565b80601f0160208091040260200160405190810160405280929190818152602001828054611cef90613a0f565b8015611d3c5780601f10611d1157610100808354040283529160200191611d3c565b820191906000526020600020905b815481529060010190602001808311611d1f57829003601f168201915b50505050508152602001600582018054611d5590613a0f565b80601f0160208091040260200160405190810160405280929190818152602001828054611d8190613a0f565b8015611dce5780601f10611da357610100808354040283529160200191611dce565b820191906000526020600020905b815481529060010190602001808311611db157829003601f168201915b50505050508152602001600682018054611de790613a0f565b80601f0160208091040260200160405190810160405280929190818152602001828054611e1390613a0f565b8015611e605780601f10611e3557610100808354040283529160200191611e60565b820191906000526020600020905b815481529060010190602001808311611e4357829003601f168201915b50505050508152602001600782018054611e7990613a0f565b80601f0160208091040260200160405190810160405280929190818152602001828054611ea590613a0f565b8015611ef25780601f10611ec757610100808354040283529160200191611ef2565b820191906000526020600020905b815481529060010190602001808311611ed557829003601f168201915b5050505050815250509050806000015181602001518260400151836060015184608001518560a001518660c001518760e001519850985098509850985098509850985050919395975091939597565b6060600460008373ffffffffffffffffffffffffffffffffffffffff1673ffffffffffffffffffffffffffffffffffffffff168152602001908152602001600020805480602002602001604051908101604052809291908181526020016000905b82821015612329578382906000526020600020906008020160405180610100016040529081600082015481526020016001820160009054906101000a900473ffffffffffffffffffffffffffffffffffffffff1673ffffffffffffffffffffffffffffffffffffffff1673ffffffffffffffffffffffffffffffffffffffff1681526020016002820160009054906101000a900473ffffffffffffffffffffffffffffffffffffffff1673ffffffffffffffffffffffffffffffffffffffff1673ffffffffffffffffffffffffffffffffffffffff1681526020016003820160009054906101000a900473ffffffffffffffffffffffffffffffffffffffff1673ffffffffffffffffffffffffffffffffffffffff1673ffffffffffffffffffffffffffffffffffffffff1681526020016004820180546120e290613a0f565b80601f016020809104026020016040519081016040528092919081815260200182805461210e90613a0f565b801561215b5780601f106121305761010080835404028352916020019161215b565b820191906000526020600020905b81548152906001019060200180831161213e57829003601f168201915b5050505050815260200160058201805461217490613a0f565b80601f01602080910402602001604051908101604052809291908181526020018280546121a090613a0f565b80156121ed5780601f106121c2576101008083540402835291602001916121ed565b820191906000526020600020905b8154815290600101906020018083116121d057829003601f168201915b5050505050815260200160068201805461220690613a0f565b80601f016020809104026020016040519081016040528092919081815260200182805461223290613a0f565b801561227f5780601f106122545761010080835404028352916020019161227f565b820191906000526020600020905b81548152906001019060200180831161226257829003601f168201915b5050505050815260200160078201805461229890613a0f565b80601f01602080910402602001604051908101604052809291908181526020018280546122c490613a0f565b80156123115780601f106122e657610100808354040283529160200191612311565b820191906000526020600020905b8154815290600101906020018083116122f457829003601f168201915b50505050508152505081526020019060010190611fa2565b505050509050919050565b6060600360008373ffffffffffffffffffffffffffffffffffffffff1673ffffffffffffffffffffffffffffffffffffffff168152602001908152602001600020805480602002602001604051908101604052809291908181526020016000905b8282101561264457838290600052602060002090600602016040518060c00160405290816000820160009054906101000a900473ffffffffffffffffffffffffffffffffffffffff1673ffffffffffffffffffffffffffffffffffffffff1673ffffffffffffffffffffffffffffffffffffffff1681526020016001820160009054906101000a900473ffffffffffffffffffffffffffffffffffffffff1673ffffffffffffffffffffffffffffffffffffffff1673ffffffffffffffffffffffffffffffffffffffff16815260200160028201805461247490613a0f565b80601f01602080910402602001604051908101604052809291908181526020018280546124a090613a0f565b80156124ed5780601f106124c2576101008083540402835291602001916124ed565b820191906000526020600020905b8154815290600101906020018083116124d057829003601f168201915b5050505050815260200160038201805461250690613a0f565b80601f016020809104026020016040519081016040528092919081815260200182805461253290613a0f565b801561257f5780601f106125545761010080835404028352916020019161257f565b820191906000526020600020905b81548152906001019060200180831161256257829003601f168201915b5050505050815260200160048201805461259890613a0f565b80601f01602080910402602001604051908101604052809291908181526020018280546125c490613a0f565b80156126115780601f106125e657610100808354040283529160200191612611565b820191906000526020600020905b8154815290600101906020018083116125f457829003601f168201915b505050505081526020016005820160009054906101000a900460ff16151515158152505081526020019060010190612395565b505050509050919050565b6000600860003373ffffffffffffffffffffffffffffffffffffffff1673ffffffffffffffffffffffffffffffffffffffff168152602001908152602001600020600101805461269e90613a0f565b9050146126e0576040517f08c379a00000000000000000000000000000000000000000000000000000000081526004016126d790613f75565b60405180910390fd5b6009826040516126f09190613cfa565b908152602001604051809103902060009054906101000a900460ff161561274c576040517f08c379a000000000000000000000000000000000000000000000000000000000815260040161274390613fe1565b60405180910390fd5b6040518060a0016040528086815260200185815260200184815260200183815260200182815250600860003373ffffffffffffffffffffffffffffffffffffffff1673ffffffffffffffffffffffffffffffffffffffff16815260200190815260200160002060008201518160000190816127c79190613bec565b5060208201518160010190816127dd9190613bec565b5060408201518160020190816127f39190613bec565b5060608201518160030190816128099190613bec565b50608082015181600401908161281f9190613bec565b5090505060016009836040516128359190613cfa565b908152602001604051809103902060006101000a81548160ff0219169083151502179055505050505050565b60606000600860008473ffffffffffffffffffffffffffffffffffffffff1673ffffffffffffffffffffffffffffffffffffffff16815260200190815260200160002060010180546128b290613a0f565b9050116128f4576040517f08c379a00000000000000000000000000000000000000000000000000000000081526004016128eb9061404d565b60405180910390fd5b600860008373ffffffffffffffffffffffffffffffffffffffff1673ffffffffffffffffffffffffffffffffffffffff168152602001908152602001600020600301805461294190613a0f565b80601f016020809104026020016040519081016040528092919081815260200182805461296d90613a0f565b80156129ba5780601f1061298f576101008083540402835291602001916129ba565b820191906000526020600020905b81548152906001019060200180831161299d57829003601f168201915b50505050509050919050565b6060600260008373ffffffffffffffffffffffffffffffffffffffff1673ffffffffffffffffffffffffffffffffffffffff168152602001908152602001600020805480602002602001604051908101604052809291908181526020016000905b82821015612cd657838290600052602060002090600602016040518060c00160405290816000820160009054906101000a900473ffffffffffffffffffffffffffffffffffffffff1673ffffffffffffffffffffffffffffffffffffffff1673ffffffffffffffffffffffffffffffffffffffff1681526020016001820160009054906101000a900473ffffffffffffffffffffffffffffffffffffffff1673ffffffffffffffffffffffffffffffffffffffff1673ffffffffffffffffffffffffffffffffffffffff168152602001600282018054612b0690613a0f565b80601f0160208091040260200160405190810160405280929190818152602001828054612b3290613a0f565b8015612b7f5780601f10612b5457610100808354040283529160200191612b7f565b820191906000526020600020905b815481529060010190602001808311612b6257829003601f168201915b50505050508152602001600382018054612b9890613a0f565b80601f0160208091040260200160405190810160405280929190818152602001828054612bc490613a0f565b8015612c115780601f10612be657610100808354040283529160200191612c11565b820191906000526020600020905b815481529060010190602001808311612bf457829003601f168201915b50505050508152602001600482018054612c2a90613a0f565b80601f0160208091040260200160405190810160405280929190818152602001828054612c5690613a0f565b8015612ca35780601f10612c7857610100808354040283529160200191612ca3565b820191906000526020600020905b815481529060010190602001808311612c8657829003601f168201915b505050505081526020016005820160009054906101000a900460ff16151515158152505081526020019060010190612a27565b505050509050919050565b6000604051905090565b600080fd5b600080fd5b6000819050919050565b612d0881612cf5565b8114612d1357600080fd5b50565b600081359050612d2581612cff565b92915050565b600080fd5b600080fd5b6000601f19601f8301169050919050565b7f4e487b7100000000000000000000000000000000000000000000000000000000600052604160045260246000fd5b612d7e82612d35565b810181811067ffffffffffffffff82111715612d9d57612d9c612d46565b5b80604052505050565b6000612db0612ce1565b9050612dbc8282612d75565b919050565b600067ffffffffffffffff821115612ddc57612ddb612d46565b5b612de582612d35565b9050602081019050919050565b82818337600083830152505050565b6000612e14612e0f84612dc1565b612da6565b905082815260208101848484011115612e3057612e2f612d30565b5b612e3b848285612df2565b509392505050565b600082601f830112612e5857612e57612d2b565b5b8135612e68848260208601612e01565b91505092915050565b60008060408385031215612e8857612e87612ceb565b5b6000612e9685828601612d16565b925050602083013567ffffffffffffffff811115612eb757612eb6612cf0565b5b612ec385828601612e43565b9150509250929050565b600073ffffffffffffffffffffffffffffffffffffffff82169050919050565b6000612ef882612ecd565b9050919050565b612f0881612eed565b8114612f1357600080fd5b50565b600081359050612f2581612eff565b92915050565b600060208284031215612f4157612f40612ceb565b5b6000612f4f84828501612f16565b91505092915050565b600081519050919050565b600082825260208201905092915050565b6000819050602082019050919050565b612f8d81612cf5565b82525050565b612f9c81612eed565b82525050565b606082016000820151612fb86000850182612f84565b506020820151612fcb6020850182612f93565b506040820151612fde6040850182612f93565b50505050565b6000612ff08383612fa2565b60608301905092915050565b6000602082019050919050565b600061301482612f58565b61301e8185612f63565b935061302983612f74565b8060005b8381101561305a5781516130418882612fe4565b975061304c83612ffc565b92505060018101905061302d565b5085935050505092915050565b600060208201905081810360008301526130818184613009565b905092915050565b600080604083850312156130a05761309f612ceb565b5b60006130ae85828601612f16565b925050602083013567ffffffffffffffff8111156130cf576130ce612cf0565b5b6130db85828601612e43565b9150509250929050565b600081519050919050565b600082825260208201905092915050565b60005b8381101561311f578082015181840152602081019050613104565b60008484015250505050565b6000613136826130e5565b61314081856130f0565b9350613150818560208601613101565b61315981612d35565b840191505092915050565b6000602082019050818103600083015261317e818461312b565b905092915050565b60008060008060008060c087890312156131a3576131a2612ceb565b5b60006131b189828a01612f16565b96505060206131c289828a01612f16565b95505060406131d389828a01612f16565b945050606087013567ffffffffffffffff8111156131f4576131f3612cf0565b5b61320089828a01612e43565b935050608087013567ffffffffffffffff81111561322157613220612cf0565b5b61322d89828a01612e43565b92505060a087013567ffffffffffffffff81111561324e5761324d612cf0565b5b61325a89828a01612e43565b9150509295509295509295565b600080600080600060a0868803121561328357613282612ceb565b5b600061329188828901612f16565b95505060206132a288828901612f16565b945050604086013567ffffffffffffffff8111156132c3576132c2612cf0565b5b6132cf88828901612e43565b935050606086013567ffffffffffffffff8111156132f0576132ef612cf0565b5b6132fc88828901612e43565b925050608086013567ffffffffffffffff81111561331d5761331c612cf0565b5b61332988828901612e43565b9150509295509295909350565b600060a0820190508181036000830152613350818861312b565b90508181036020830152613364818761312b565b90508181036040830152613378818661312b565b9050818103606083015261338c818561312b565b905081810360808301526133a0818461312b565b90509695505050505050565b6000806000606084860312156133c5576133c4612ceb565b5b60006133d386828701612d16565b93505060206133e486828701612f16565b92505060406133f586828701612f16565b9150509250925092565b600081519050919050565b600082825260208201905092915050565b6000819050602082019050919050565b600082825260208201905092915050565b6000613447826130e5565b613451818561342b565b9350613461818560208601613101565b61346a81612d35565b840191505092915050565b60006101008301600083015161348e6000860182612f84565b5060208301516134a16020860182612f93565b5060408301516134b46040860182612f93565b5060608301516134c76060860182612f93565b50608083015184820360808601526134df828261343c565b91505060a083015184820360a08601526134f9828261343c565b91505060c083015184820360c0860152613513828261343c565b91505060e083015184820360e086015261352d828261343c565b9150508091505092915050565b60006135468383613475565b905092915050565b6000602082019050919050565b6000613566826133ff565b613570818561340a565b9350836020820285016135828561341b565b8060005b858110156135be578484038952815161359f858261353a565b94506135aa8361354e565b925060208a01995050600181019050613586565b50829750879550505050505092915050565b600060208201905081810360008301526135ea818461355b565b905092915050565b60006020828403121561360857613607612ceb565b5b600061361684828501612d16565b91505092915050565b61362881612cf5565b82525050565b61363781612eed565b82525050565b600061010082019050613653600083018b61361f565b613660602083018a61362e565b61366d604083018961362e565b61367a606083018861362e565b818103608083015261368c818761312b565b905081810360a08301526136a0818661312b565b905081810360c08301526136b4818561312b565b905081810360e08301526136c8818461312b565b90509998505050505050505050565b600081519050919050565b600082825260208201905092915050565b6000819050602082019050919050565b60008115159050919050565b61371881613703565b82525050565b600060c0830160008301516137366000860182612f93565b5060208301516137496020860182612f93565b5060408301518482036040860152613761828261343c565b9150506060830151848203606086015261377b828261343c565b91505060808301518482036080860152613795828261343c565b91505060a08301516137aa60a086018261370f565b508091505092915050565b60006137c1838361371e565b905092915050565b6000602082019050919050565b60006137e1826136d7565b6137eb81856136e2565b9350836020820285016137fd856136f3565b8060005b85811015613839578484038952815161381a85826137b5565b9450613825836137c9565b925060208a01995050600181019050613801565b50829750879550505050505092915050565b6000602082019050818103600083015261386581846137d6565b905092915050565b600080600080600060a0868803121561388957613888612ceb565b5b600086013567ffffffffffffffff8111156138a7576138a6612cf0565b5b6138b388828901612e43565b955050602086013567ffffffffffffffff8111156138d4576138d3612cf0565b5b6138e088828901612e43565b945050604086013567ffffffffffffffff81111561390157613900612cf0565b5b61390d88828901612e43565b935050606086013567ffffffffffffffff81111561392e5761392d612cf0565b5b61393a88828901612e43565b925050608086013567ffffffffffffffff81111561395b5761395a612cf0565b5b61396788828901612e43565b9150509295509295909350565b7f4365727469666963617465206e6f7420666f756e642e00000000000000000000600082015250565b60006139aa6016836130f0565b91506139b582613974565b602082019050919050565b600060208201905081810360008301526139d98161399d565b9050919050565b7f4e487b7100000000000000000000000000000000000000000000000000000000600052602260045260246000fd5b60006002820490506001821680613a2757607f821691505b602082108103613a3a57613a396139e0565b5b50919050565b60008190508160005260206000209050919050565b60006020601f8301049050919050565b600082821b905092915050565b600060088302613aa27fffffffffffffffffffffffffffffffffffffffffffffffffffffffffffffffff82613a65565b613aac8683613a65565b95508019841693508086168417925050509392505050565b6000819050919050565b6000613ae9613ae4613adf84612cf5565b613ac4565b612cf5565b9050919050565b6000819050919050565b613b0383613ace565b613b17613b0f82613af0565b848454613a72565b825550505050565b600090565b613b2c613b1f565b613b37818484613afa565b505050565b5b81811015613b5b57613b50600082613b24565b600181019050613b3d565b5050565b601f821115613ba057613b7181613a40565b613b7a84613a55565b81016020851015613b89578190505b613b9d613b9585613a55565b830182613b3c565b50505b505050565b600082821c905092915050565b6000613bc360001984600802613ba5565b1980831691505092915050565b6000613bdc8383613bb2565b9150826002028217905092915050565b613bf5826130e5565b67ffffffffffffffff811115613c0e57613c0d612d46565b5b613c188254613a0f565b613c23828285613b5f565b600060209050601f831160018114613c565760008415613c44578287015190505b613c4e8582613bd0565b865550613cb6565b601f198416613c6486613a40565b60005b82811015613c8c57848901518255600182019150602085019450602081019050613c67565b86831015613ca95784890151613ca5601f891682613bb2565b8355505b6001600288020188555050505b505050505050565b600081905092915050565b6000613cd4826130e5565b613cde8185613cbe565b9350613cee818560208601613101565b80840191505092915050565b6000613d068284613cc9565b915081905092915050565b7f4e487b7100000000000000000000000000000000000000000000000000000000600052603260045260246000fd5b60008154613d4d81613a0f565b613d578186613cbe565b94506001821660008114613d725760018114613d8757613dba565b60ff1983168652811515820286019350613dba565b613d9085613a40565b60005b83811015613db257815481890152600182019150602081019050613d93565b838801955050505b50505092915050565b6000613dcf8284613d40565b915081905092915050565b7f4e487b7100000000000000000000000000000000000000000000000000000000600052601160045260246000fd5b6000613e1482612cf5565b91507fffffffffffffffffffffffffffffffffffffffffffffffffffffffffffffffff8203613e4657613e45613dda565b5b600182019050919050565b7f436572746966696361746520616c726561647920657869737473000000000000600082015250565b6000613e87601a836130f0565b9150613e9282613e51565b602082019050919050565b60006020820190508181036000830152613eb681613e7a565b9050919050565b7f55736572206e6f7420666f756e642e0000000000000000000000000000000000600082015250565b6000613ef3600f836130f0565b9150613efe82613ebd565b602082019050919050565b60006020820190508181036000830152613f2281613ee6565b9050919050565b7f5573657220616c726561647920726567697374657265642e0000000000000000600082015250565b6000613f5f6018836130f0565b9150613f6a82613f29565b602082019050919050565b60006020820190508181036000830152613f8e81613f52565b9050919050565b7f557365726e616d6520616c72656164792074616b656e2e000000000000000000600082015250565b6000613fcb6017836130f0565b9150613fd682613f95565b602082019050919050565b60006020820190508181036000830152613ffa81613fbe565b9050919050565b7f5573657220646f6573206e6f742065786973742e000000000000000000000000600082015250565b60006140376014836130f0565b915061404282614001565b602082019050919050565b600060208201905081810360008301526140668161402a565b905091905056fea2646970667358221220aea6746140d01be052cd9a432086106077aa6cd7126b330c79506de46044e9ce64736f6c63430008130033",
  "immutableReferences": {},
  "source": "// SPDX-License-Identifier: MIT\npragma solidity 0.8.19;\n\ncontract Certi {\n    // Struct to represent a user\n    struct OrganizationRequests {\n        uint id;\n        address issuer;\n        address organization;\n    }\n\n    mapping(address => OrganizationRequests[]) private issuerMapping;\n    mapping(address => OrganizationRequests[]) private organizationMapping;\n\n    // Function to add an organization request\n    function addOrganizationRequest(\n        uint _id,\n        address _issuerAddress,\n        address _organizationAddress\n    ) public {\n        OrganizationRequests memory newRequest = OrganizationRequests({\n            id: _id,\n            issuer: _issuerAddress,\n            organization: _organizationAddress\n        });\n\n        issuerMapping[_issuerAddress].push(newRequest);\n        organizationMapping[_organizationAddress].push(newRequest);\n    }\n\n    // Function to retrieve requests for an issuer\n    function getRequestsByIssuer(address _issuerAddress) public view returns (OrganizationRequests[] memory) {\n        return issuerMapping[_issuerAddress];\n    }\n\n    // Function to retrieve requests for an organization\n    function getRequestsByOrganization(address _organizationAddress) public view returns (OrganizationRequests[] memory) {\n        return organizationMapping[_organizationAddress];\n    }\n\n    struct User {\n        string fullName;\n        string email;\n        string password; // Store hashed password\n        string username;\n        string usertype; // User type field\n    }\n\n    // Struct to represent a certificate\n    struct Certificate {\n        address issuer;\n        address user;\n        string hash;\n        string title;\n        string filePath;\n        bool exist;\n    }\n\n    mapping(address => Certificate[]) private userCertificates;\n    mapping(address => Certificate[]) private organizationCertificates;\n\n    // Function to add a certificate\n    function addCertificate(\n        address _issuer,\n        address _user,\n        string memory _hash,\n        string memory _title,\n        string memory _filePath\n    ) public {\n        // Check if the certificate already exists for the issuer and user\n        Certificate[] storage issuerCertificates = organizationCertificates[_issuer];\n        for (uint i = 0; i < issuerCertificates.length; i++) {\n            require(\n                keccak256(abi.encodePacked(issuerCertificates[i].hash)) != keccak256(abi.encodePacked(_hash)),\n                \"Certificate already exists\"\n            );\n        }\n\n        // Create the new certificate\n        Certificate memory newCertificate = Certificate({\n            issuer: _issuer,\n            user: _user,\n            hash: _hash,\n            title: _title,\n            filePath: _filePath,\n            exist: true\n        });\n\n        // Add the new certificate to the mappings\n        userCertificates[_user].push(newCertificate);\n        organizationCertificates[_issuer].push(newCertificate);\n    }\n\n    // Struct to represent a verification certificate\n    struct VerificationCertificates {\n        uint id;\n        address issuedBy;\n        address user;\n        address organizationAddress;\n        string username;\n        string organizationName;\n        string filepath;\n        string status;\n    }\n\n    // Mappings to store verification certificates\n    mapping(address => VerificationCertificates[]) private userVerificationCertificates;\n    mapping(address => VerificationCertificates[]) private organizationVerificationCertificates;\n    mapping(uint => VerificationCertificates) private certificates;\n    uint private certificateCounter;\n\n    // Function to fetch details by ID\n    function getCertificateById(uint _id) public view returns (\n        uint,\n        address,\n        address,\n        address,\n        string memory,\n        string memory,\n        string memory,\n        string memory\n    ) {\n        VerificationCertificates memory certificate = certificates[_id];\n        return (\n            certificate.id,\n            certificate.issuedBy,\n            certificate.user,\n            certificate.organizationAddress,\n            certificate.username,\n            certificate.organizationName,\n            certificate.filepath,\n            certificate.status\n        );\n    }\n\n    // Function to add a new verification certificate\n    function addVerificationCertificate(\n        address _issuedBy,\n        address _user,\n        address _organizationAddress,\n        string memory _username,\n        string memory _organizationName,\n        string memory _filepath\n    ) public {\n        certificateCounter++;\n\n        VerificationCertificates memory newCertificate = VerificationCertificates({\n            id: certificateCounter,\n            issuedBy: _issuedBy,\n            user: _user,\n            organizationAddress: _organizationAddress,\n            username: _username,\n            organizationName: _organizationName,\n            filepath: _filepath,\n            status: \"pending\"\n        });\n\n        userVerificationCertificates[_user].push(newCertificate);\n        organizationVerificationCertificates[_organizationAddress].push(newCertificate);\n        certificates[certificateCounter] = newCertificate;\n    }\n\n    // Function to update the status of a verification certificate\n    function updateCertificateStatus(uint _certificateId, string memory _newStatus) public {\n        VerificationCertificates storage certificate = certificates[_certificateId];\n        require(certificate.id != 0, \"Certificate not found.\");\n        certificate.status = _newStatus;\n    }\n\n    // Function to fetch user verification certificates\n    function getUserVerificationCertificates(address _user) public view returns (VerificationCertificates[] memory) {\n        return userVerificationCertificates[_user];\n    }\n\n    // Function to fetch organization verification certificates\n    function getOrganizationVerificationCertificates(address _organizationAddress) public view returns (VerificationCertificates[] memory) {\n        return organizationVerificationCertificates[_organizationAddress];\n    }\n\n    // Mapping to store users by their Ethereum address\n    mapping(address => User) private users;\n    mapping(string => bool) private usernames;\n\n    // Function to add a new user\n    function addUser(\n        string memory _fullName, \n        string memory _email, \n        string memory _password, \n        string memory _username, \n        string memory _usertype\n    ) public {\n        require(bytes(users[msg.sender].email).length == 0, \"User already registered.\");\n        require(!usernames[_username], \"Username already taken.\");\n\n        users[msg.sender] = User(_fullName, _email, _password, _username, _usertype);\n        usernames[_username] = true;\n    }\n\n    // Function to fetch user details\n    function getUser(address _userAddress) public view returns (\n        string memory fullName,\n        string memory email,\n        string memory username,\n        string memory password,\n        string memory usertype\n    ) {\n        User memory user = users[_userAddress];\n        require(bytes(user.email).length > 0, \"User not found.\");\n        return (user.fullName, user.email, user.username, user.password, user.usertype);\n    }\n\n    // Function to fetch certificates for a specific user\n    function getCertificates(address _userAddress) public view returns (Certificate[] memory) {\n        return userCertificates[_userAddress];\n    }\n\n    // Function to fetch all certificates for a specific organization\n    function getOrganizationCertificates(address _issuer) public view returns (Certificate[] memory) {\n        return organizationCertificates[_issuer];\n    }\n\n    // Function to fetch the username by address\n    function getUsername(address _userAddress) public view returns (string memory) {\n        require(bytes(users[_userAddress].email).length > 0, \"User does not exist.\");\n        return users[_userAddress].username;\n    }\n\n    // Function to check if a hash already exists in the user's certificates\n    function checkHashExists(address _organizationAddress, string memory _hash) public view returns (string memory) {\n        Certificate[] storage certificates = organizationCertificates[_organizationAddress];\n        \n        for (uint i = 0; i < certificates.length; i++) {\n            if (keccak256(abi.encodePacked(certificates[i].hash)) == keccak256(abi.encodePacked(_hash))) {\n                return \"Certificate hash exists\";\n            }\n        }\n        \n        return \"Certificate hash does not exist\";\n    }\n}\n",
  "sourcePath": "E:\\KITS-BLOCKCHAIN\\New-certi\\contracts\\certi.sol",
  "compiler": {
    "name": "solc",
    "version": "0.8.19+commit.7dd6d404.Emscripten.clang"
  },
  "schemaVersion": "3.4.16",
  "updatedAt": "2025-01-15T06:27:19.481Z",
  "networkType": "ethereum",
  "devdoc": {
    "kind": "dev",
    "methods": {},
    "version": 1
  },
  "userdoc": {
    "kind": "user",
    "methods": {},
    "version": 1
  }
}