{
  "contractName": "certi",
  "abi": [
    {
      "inputs": [
        {
          "internalType": "string",
          "name": "fullName",
          "type": "string"
        },
        {
          "internalType": "string",
          "name": "email",
          "type": "string"
        },
        {
          "internalType": "string",
          "name": "password",
          "type": "string"
        },
        {
          "internalType": "string",
          "name": "username",
          "type": "string"
        }
      ],
      "name": "addUser",
      "outputs": [],
      "stateMutability": "nonpayable",
      "type": "function"
    },
    {
      "inputs": [
        {
          "internalType": "address",
          "name": "userAddress",
          "type": "address"
        }
      ],
      "name": "getUser",
      "outputs": [
        {
          "internalType": "string",
          "name": "fullName",
          "type": "string"
        },
        {
          "internalType": "string",
          "name": "email",
          "type": "string"
        },
        {
          "internalType": "string",
          "name": "username",
          "type": "string"
        },
        {
          "internalType": "string",
          "name": "password",
          "type": "string"
        }
      ],
      "stateMutability": "view",
      "type": "function",
      "constant": true
    },
    {
      "inputs": [
        {
          "internalType": "string",
          "name": "hash",
          "type": "string"
        },
        {
          "internalType": "string",
          "name": "filePath",
          "type": "string"
        }
      ],
      "name": "addCertificate",
      "outputs": [],
      "stateMutability": "nonpayable",
      "type": "function"
    },
    {
      "inputs": [
        {
          "internalType": "string",
          "name": "hash",
          "type": "string"
        }
      ],
      "name": "getCertificate",
      "outputs": [
        {
          "internalType": "address",
          "name": "owner",
          "type": "address"
        },
        {
          "internalType": "string",
          "name": "filePath",
          "type": "string"
        }
      ],
      "stateMutability": "view",
      "type": "function",
      "constant": true
    }
  ],
  "bytecode": "0x608060405234801561001057600080fd5b5061176f806100206000396000f3fe608060405234801561001057600080fd5b506004361061004c5760003560e01c806301cda3ac146100515780636f77926b1461006d578063e24f2ce7146100a0578063ed0f2e75146100bc575b600080fd5b61006b60048036038101906100669190610c18565b6100ed565b005b61008760048036038101906100829190610d4d565b6103ef565b6040516100979493929190610df9565b60405180910390f35b6100ba60048036038101906100b59190610e5a565b6106f6565b005b6100d660048036038101906100d19190610ed2565b6108b7565b6040516100e4929190610f2a565b60405180910390f35b6000845111610131576040517f08c379a000000000000000000000000000000000000000000000000000000000815260040161012890610fa6565b60405180910390fd5b6000835111610175576040517f08c379a000000000000000000000000000000000000000000000000000000000815260040161016c90611012565b60405180910390fd5b60008251116101b9576040517f08c379a00000000000000000000000000000000000000000000000000000000081526004016101b09061107e565b60405180910390fd5b60008151116101fd576040517f08c379a00000000000000000000000000000000000000000000000000000000081526004016101f4906110ea565b60405180910390fd5b60008060003373ffffffffffffffffffffffffffffffffffffffff1673ffffffffffffffffffffffffffffffffffffffff168152602001908152602001600020600101805461024b90611139565b90501461028d576040517f08c379a0000000000000000000000000000000000000000000000000000000008152600401610284906111b6565b60405180910390fd5b60018160405161029d9190611212565b908152602001604051809103902060009054906101000a900460ff16156102f9576040517f08c379a00000000000000000000000000000000000000000000000000000000081526004016102f090611275565b60405180910390fd5b6040518060800160405280858152602001848152602001838152602001828152506000803373ffffffffffffffffffffffffffffffffffffffff1673ffffffffffffffffffffffffffffffffffffffff168152602001908152602001600020600082015181600001908161036d919061144b565b506020820151816001019081610383919061144b565b506040820151816002019081610399919061144b565b5060608201518160030190816103af919061144b565b50905050600180826040516103c49190611212565b908152602001604051809103902060006101000a81548160ff02191690831515021790555050505050565b60608060608060008060008773ffffffffffffffffffffffffffffffffffffffff1673ffffffffffffffffffffffffffffffffffffffff16815260200190815260200160002060405180608001604052908160008201805461045090611139565b80601f016020809104026020016040519081016040528092919081815260200182805461047c90611139565b80156104c95780601f1061049e576101008083540402835291602001916104c9565b820191906000526020600020905b8154815290600101906020018083116104ac57829003601f168201915b505050505081526020016001820180546104e290611139565b80601f016020809104026020016040519081016040528092919081815260200182805461050e90611139565b801561055b5780601f106105305761010080835404028352916020019161055b565b820191906000526020600020905b81548152906001019060200180831161053e57829003601f168201915b5050505050815260200160028201805461057490611139565b80601f01602080910402602001604051908101604052809291908181526020018280546105a090611139565b80156105ed5780601f106105c2576101008083540402835291602001916105ed565b820191906000526020600020905b8154815290600101906020018083116105d057829003601f168201915b5050505050815260200160038201805461060690611139565b80601f016020809104026020016040519081016040528092919081815260200182805461063290611139565b801561067f5780601f106106545761010080835404028352916020019161067f565b820191906000526020600020905b81548152906001019060200180831161066257829003601f168201915b50505050508152505090506000816020015151116106d2576040517f08c379a00000000000000000000000000000000000000000000000000000000081526004016106c990611569565b60405180910390fd5b80600001518160200151826060015183604001519450945094509450509193509193565b600082511161073a576040517f08c379a0000000000000000000000000000000000000000000000000000000008152600401610731906115d5565b60405180910390fd5b600081511161077e576040517f08c379a000000000000000000000000000000000000000000000000000000000815260040161077590611641565b60405180910390fd5b60006002836040516107909190611212565b908152602001604051809103902060010180546107ac90611139565b9050146107ee576040517f08c379a00000000000000000000000000000000000000000000000000000000081526004016107e5906116ad565b60405180910390fd5b60405180606001604052803373ffffffffffffffffffffffffffffffffffffffff1681526020018381526020018281525060028360405161082f9190611212565b908152602001604051809103902060008201518160000160006101000a81548173ffffffffffffffffffffffffffffffffffffffff021916908373ffffffffffffffffffffffffffffffffffffffff1602179055506020820151816001019081610899919061144b565b5060408201518160020190816108af919061144b565b509050505050565b6000606060006002846040516108cd9190611212565b90815260200160405180910390206040518060600160405290816000820160009054906101000a900473ffffffffffffffffffffffffffffffffffffffff1673ffffffffffffffffffffffffffffffffffffffff1673ffffffffffffffffffffffffffffffffffffffff16815260200160018201805461094c90611139565b80601f016020809104026020016040519081016040528092919081815260200182805461097890611139565b80156109c55780601f1061099a576101008083540402835291602001916109c5565b820191906000526020600020905b8154815290600101906020018083116109a857829003601f168201915b505050505081526020016002820180546109de90611139565b80601f0160208091040260200160405190810160405280929190818152602001828054610a0a90611139565b8015610a575780601f10610a2c57610100808354040283529160200191610a57565b820191906000526020600020905b815481529060010190602001808311610a3a57829003601f168201915b5050505050815250509050600081602001515111610aaa576040517f08c379a0000000000000000000000000000000000000000000000000000000008152600401610aa190611719565b60405180910390fd5b806000015181604001519250925050915091565b6000604051905090565b600080fd5b600080fd5b600080fd5b600080fd5b6000601f19601f8301169050919050565b7f4e487b7100000000000000000000000000000000000000000000000000000000600052604160045260246000fd5b610b2582610adc565b810181811067ffffffffffffffff82111715610b4457610b43610aed565b5b80604052505050565b6000610b57610abe565b9050610b638282610b1c565b919050565b600067ffffffffffffffff821115610b8357610b82610aed565b5b610b8c82610adc565b9050602081019050919050565b82818337600083830152505050565b6000610bbb610bb684610b68565b610b4d565b905082815260208101848484011115610bd757610bd6610ad7565b5b610be2848285610b99565b509392505050565b600082601f830112610bff57610bfe610ad2565b5b8135610c0f848260208601610ba8565b91505092915050565b60008060008060808587031215610c3257610c31610ac8565b5b600085013567ffffffffffffffff811115610c5057610c4f610acd565b5b610c5c87828801610bea565b945050602085013567ffffffffffffffff811115610c7d57610c7c610acd565b5b610c8987828801610bea565b935050604085013567ffffffffffffffff811115610caa57610ca9610acd565b5b610cb687828801610bea565b925050606085013567ffffffffffffffff811115610cd757610cd6610acd565b5b610ce387828801610bea565b91505092959194509250565b600073ffffffffffffffffffffffffffffffffffffffff82169050919050565b6000610d1a82610cef565b9050919050565b610d2a81610d0f565b8114610d3557600080fd5b50565b600081359050610d4781610d21565b92915050565b600060208284031215610d6357610d62610ac8565b5b6000610d7184828501610d38565b91505092915050565b600081519050919050565b600082825260208201905092915050565b60005b83811015610db4578082015181840152602081019050610d99565b60008484015250505050565b6000610dcb82610d7a565b610dd58185610d85565b9350610de5818560208601610d96565b610dee81610adc565b840191505092915050565b60006080820190508181036000830152610e138187610dc0565b90508181036020830152610e278186610dc0565b90508181036040830152610e3b8185610dc0565b90508181036060830152610e4f8184610dc0565b905095945050505050565b60008060408385031215610e7157610e70610ac8565b5b600083013567ffffffffffffffff811115610e8f57610e8e610acd565b5b610e9b85828601610bea565b925050602083013567ffffffffffffffff811115610ebc57610ebb610acd565b5b610ec885828601610bea565b9150509250929050565b600060208284031215610ee857610ee7610ac8565b5b600082013567ffffffffffffffff811115610f0657610f05610acd565b5b610f1284828501610bea565b91505092915050565b610f2481610d0f565b82525050565b6000604082019050610f3f6000830185610f1b565b8181036020830152610f518184610dc0565b90509392505050565b7f46756c6c206e616d652069732072657175697265642e00000000000000000000600082015250565b6000610f90601683610d85565b9150610f9b82610f5a565b602082019050919050565b60006020820190508181036000830152610fbf81610f83565b9050919050565b7f456d61696c2069732072657175697265642e0000000000000000000000000000600082015250565b6000610ffc601283610d85565b915061100782610fc6565b602082019050919050565b6000602082019050818103600083015261102b81610fef565b9050919050565b7f50617373776f72642069732072657175697265642e0000000000000000000000600082015250565b6000611068601583610d85565b915061107382611032565b602082019050919050565b600060208201905081810360008301526110978161105b565b9050919050565b7f557365726e616d652069732072657175697265642e0000000000000000000000600082015250565b60006110d4601583610d85565b91506110df8261109e565b602082019050919050565b60006020820190508181036000830152611103816110c7565b9050919050565b7f4e487b7100000000000000000000000000000000000000000000000000000000600052602260045260246000fd5b6000600282049050600182168061115157607f821691505b6020821081036111645761116361110a565b5b50919050565b7f5573657220616c726561647920726567697374657265642e0000000000000000600082015250565b60006111a0601883610d85565b91506111ab8261116a565b602082019050919050565b600060208201905081810360008301526111cf81611193565b9050919050565b600081905092915050565b60006111ec82610d7a565b6111f681856111d6565b9350611206818560208601610d96565b80840191505092915050565b600061121e82846111e1565b915081905092915050565b7f557365726e616d6520616c72656164792074616b656e2e000000000000000000600082015250565b600061125f601783610d85565b915061126a82611229565b602082019050919050565b6000602082019050818103600083015261128e81611252565b9050919050565b60008190508160005260206000209050919050565b60006020601f8301049050919050565b600082821b905092915050565b6000600883026112f77fffffffffffffffffffffffffffffffffffffffffffffffffffffffffffffffff826112ba565b61130186836112ba565b95508019841693508086168417925050509392505050565b6000819050919050565b6000819050919050565b600061134861134361133e84611319565b611323565b611319565b9050919050565b6000819050919050565b6113628361132d565b61137661136e8261134f565b8484546112c7565b825550505050565b600090565b61138b61137e565b611396818484611359565b505050565b5b818110156113ba576113af600082611383565b60018101905061139c565b5050565b601f8211156113ff576113d081611295565b6113d9846112aa565b810160208510156113e8578190505b6113fc6113f4856112aa565b83018261139b565b50505b505050565b600082821c905092915050565b600061142260001984600802611404565b1980831691505092915050565b600061143b8383611411565b9150826002028217905092915050565b61145482610d7a565b67ffffffffffffffff81111561146d5761146c610aed565b5b6114778254611139565b6114828282856113be565b600060209050601f8311600181146114b557600084156114a3578287015190505b6114ad858261142f565b865550611515565b601f1984166114c386611295565b60005b828110156114eb578489015182556001820191506020850194506020810190506114c6565b868310156115085784890151611504601f891682611411565b8355505b6001600288020188555050505b505050505050565b7f55736572206e6f7420666f756e642e0000000000000000000000000000000000600082015250565b6000611553600f83610d85565b915061155e8261151d565b602082019050919050565b6000602082019050818103600083015261158281611546565b9050919050565b7f436572746966696361746520686173682069732072657175697265642e000000600082015250565b60006115bf601d83610d85565b91506115ca82611589565b602082019050919050565b600060208201905081810360008301526115ee816115b2565b9050919050565b7f46696c6520706174682069732072657175697265642e00000000000000000000600082015250565b600061162b601683610d85565b9150611636826115f5565b602082019050919050565b6000602082019050818103600083015261165a8161161e565b9050919050565b7f436572746966696361746520616c7265616479206578697374732e0000000000600082015250565b6000611697601b83610d85565b91506116a282611661565b602082019050919050565b600060208201905081810360008301526116c68161168a565b9050919050565b7f4365727469666963617465206e6f7420666f756e642e00000000000000000000600082015250565b6000611703601683610d85565b915061170e826116cd565b602082019050919050565b60006020820190508181036000830152611732816116f6565b905091905056fea264697066735822122082a96c9ef078887f92e74eeb478ad079ec4709c01b5a12b0b67eb7093179388b64736f6c63430008130033",
  "immutableReferences": {},
  "source": "// SPDX-License-Identifier: MIT\npragma solidity 0.8.19;\n\ncontract certi {\n    // Struct to represent a user\n    struct User {\n        string fullName;\n        string email;\n        string password; // Store hashed password\n        string username;\n    }\n\n        // Struct to represent a certificate\n    struct Certificate {\n        address owner;\n        string hash; // Unique hash for the certificate\n        string filePath; // File path for the certificate\n    }\n\n    // Mapping to store users by their Ethereum address\n    mapping(address => User) private users;\n\n    // Mapping to ensure unique usernames\n    mapping(string => bool) private usernames;\n\n    // Mapping to store certificates by their hash\n    mapping(string => Certificate) private certificates;\n\n    // Function to add a new user\n    function addUser(\n        string memory fullName, \n        string memory email, \n        string memory password, \n        string memory username\n    ) public {\n        // Ensure the fullName, email, password, and username are not empty\n        require(bytes(fullName).length > 0, \"Full name is required.\");\n        require(bytes(email).length > 0, \"Email is required.\");\n        require(bytes(password).length > 0, \"Password is required.\");\n        require(bytes(username).length > 0, \"Username is required.\");\n\n        // Ensure the user is not already registered\n        require(bytes(users[msg.sender].email).length == 0, \"User already registered.\");\n\n        // Ensure the username is unique\n        require(!usernames[username], \"Username already taken.\");\n\n        // Add the user to the mapping\n        users[msg.sender] = User(fullName, email, password, username);\n\n        // Mark the username as used\n        usernames[username] = true;\n\n    }\n\n    // Function to fetch user details\n    function getUser(address userAddress)\n        public\n        view\n        returns (string memory fullName, string memory email, string memory username, string memory password)\n    {\n        User memory user = users[userAddress];\n        require(bytes(user.email).length > 0, \"User not found.\");\n        return (user.fullName, user.email, user.username, user.password);\n    }\n        // Function to add a certificate\n    function addCertificate(string memory hash, string memory filePath) public {\n        // Ensure the hash and filePath are not empty\n        require(bytes(hash).length > 0, \"Certificate hash is required.\");\n        require(bytes(filePath).length > 0, \"File path is required.\");\n\n        // Ensure the certificate hash is unique\n        require(bytes(certificates[hash].hash).length == 0, \"Certificate already exists.\");\n\n        // Add the certificate to the mapping\n        certificates[hash] = Certificate(msg.sender, hash, filePath);\n    }\n\n    // Function to get certificate details\n    function getCertificate(string memory hash)\n        public\n        view\n        returns (address owner, string memory filePath)\n    {\n        Certificate memory certificate = certificates[hash];\n        require(bytes(certificate.hash).length > 0, \"Certificate not found.\");\n        return (certificate.owner, certificate.filePath);\n    }\n}\n",
  "sourcePath": "E:\\KITS-BLOCKCHAIN\\New-certi\\contracts\\certi.sol",
  "compiler": {
    "name": "solc",
    "version": "0.8.19+commit.7dd6d404.Emscripten.clang"
  },
  "schemaVersion": "3.4.16",
  "updatedAt": "2024-12-31T03:59:40.485Z",
  "networkType": "ethereum",
  "devdoc": {
    "kind": "dev",
    "methods": {},
    "version": 1
  },
  "userdoc": {
    "kind": "user",
    "methods": {},
    "version": 1
  }
}