{
  "contractName": "certi",
  "abi": [
    {
      "anonymous": false,
      "inputs": [
        {
          "indexed": true,
          "internalType": "address",
          "name": "userAddress",
          "type": "address"
        },
        {
          "indexed": false,
          "internalType": "string",
          "name": "fullName",
          "type": "string"
        },
        {
          "indexed": false,
          "internalType": "string",
          "name": "email",
          "type": "string"
        },
        {
          "indexed": false,
          "internalType": "string",
          "name": "username",
          "type": "string"
        }
      ],
      "name": "UserAdded",
      "type": "event"
    },
    {
      "inputs": [
        {
          "internalType": "string",
          "name": "fullName",
          "type": "string"
        },
        {
          "internalType": "string",
          "name": "email",
          "type": "string"
        },
        {
          "internalType": "string",
          "name": "password",
          "type": "string"
        },
        {
          "internalType": "string",
          "name": "username",
          "type": "string"
        }
      ],
      "name": "addUser",
      "outputs": [],
      "stateMutability": "nonpayable",
      "type": "function"
    },
    {
      "inputs": [
        {
          "internalType": "address",
          "name": "userAddress",
          "type": "address"
        }
      ],
      "name": "getUser",
      "outputs": [
        {
          "internalType": "string",
          "name": "fullName",
          "type": "string"
        },
        {
          "internalType": "string",
          "name": "email",
          "type": "string"
        },
        {
          "internalType": "string",
          "name": "username",
          "type": "string"
        },
        {
          "internalType": "string",
          "name": "password",
          "type": "string"
        }
      ],
      "stateMutability": "view",
      "type": "function",
      "constant": true
    }
  ],
  "bytecode": "0x608060405234801561001057600080fd5b50611132806100206000396000f3fe608060405234801561001057600080fd5b50600436106100365760003560e01c806301cda3ac1461003b5780636f77926b14610057575b600080fd5b6100556004803603810190610050919061083f565b61008a565b005b610071600480360381019061006c9190610974565b6103de565b6040516100819493929190610a20565b60405180910390f35b60008451116100ce576040517f08c379a00000000000000000000000000000000000000000000000000000000081526004016100c590610acd565b60405180910390fd5b6000835111610112576040517f08c379a000000000000000000000000000000000000000000000000000000000815260040161010990610b39565b60405180910390fd5b6000825111610156576040517f08c379a000000000000000000000000000000000000000000000000000000000815260040161014d90610ba5565b60405180910390fd5b600081511161019a576040517f08c379a000000000000000000000000000000000000000000000000000000000815260040161019190610c11565b60405180910390fd5b60008060003373ffffffffffffffffffffffffffffffffffffffff1673ffffffffffffffffffffffffffffffffffffffff16815260200190815260200160002060010180546101e890610c60565b90501461022a576040517f08c379a000000000000000000000000000000000000000000000000000000000815260040161022190610cdd565b60405180910390fd5b60018160405161023a9190610d39565b908152602001604051809103902060009054906101000a900460ff1615610296576040517f08c379a000000000000000000000000000000000000000000000000000000000815260040161028d90610d9c565b60405180910390fd5b6040518060800160405280858152602001848152602001838152602001828152506000803373ffffffffffffffffffffffffffffffffffffffff1673ffffffffffffffffffffffffffffffffffffffff168152602001908152602001600020600082015181600001908161030a9190610f72565b5060208201518160010190816103209190610f72565b5060408201518160020190816103369190610f72565b50606082015181600301908161034c9190610f72565b50905050600180826040516103619190610d39565b908152602001604051809103902060006101000a81548160ff0219169083151502179055503373ffffffffffffffffffffffffffffffffffffffff167f7c1f1acc946af35ee1335c400b20f647ccb811619308e1c626cbd88fb38a42918585846040516103d093929190611044565b60405180910390a250505050565b60608060608060008060008773ffffffffffffffffffffffffffffffffffffffff1673ffffffffffffffffffffffffffffffffffffffff16815260200190815260200160002060405180608001604052908160008201805461043f90610c60565b80601f016020809104026020016040519081016040528092919081815260200182805461046b90610c60565b80156104b85780601f1061048d576101008083540402835291602001916104b8565b820191906000526020600020905b81548152906001019060200180831161049b57829003601f168201915b505050505081526020016001820180546104d190610c60565b80601f01602080910402602001604051908101604052809291908181526020018280546104fd90610c60565b801561054a5780601f1061051f5761010080835404028352916020019161054a565b820191906000526020600020905b81548152906001019060200180831161052d57829003601f168201915b5050505050815260200160028201805461056390610c60565b80601f016020809104026020016040519081016040528092919081815260200182805461058f90610c60565b80156105dc5780601f106105b1576101008083540402835291602001916105dc565b820191906000526020600020905b8154815290600101906020018083116105bf57829003601f168201915b505050505081526020016003820180546105f590610c60565b80601f016020809104026020016040519081016040528092919081815260200182805461062190610c60565b801561066e5780601f106106435761010080835404028352916020019161066e565b820191906000526020600020905b81548152906001019060200180831161065157829003601f168201915b50505050508152505090506000816020015151116106c1576040517f08c379a00000000000000000000000000000000000000000000000000000000081526004016106b8906110dc565b60405180910390fd5b80600001518160200151826060015183604001519450945094509450509193509193565b6000604051905090565b600080fd5b600080fd5b600080fd5b600080fd5b6000601f19601f8301169050919050565b7f4e487b7100000000000000000000000000000000000000000000000000000000600052604160045260246000fd5b61074c82610703565b810181811067ffffffffffffffff8211171561076b5761076a610714565b5b80604052505050565b600061077e6106e5565b905061078a8282610743565b919050565b600067ffffffffffffffff8211156107aa576107a9610714565b5b6107b382610703565b9050602081019050919050565b82818337600083830152505050565b60006107e26107dd8461078f565b610774565b9050828152602081018484840111156107fe576107fd6106fe565b5b6108098482856107c0565b509392505050565b600082601f830112610826576108256106f9565b5b81356108368482602086016107cf565b91505092915050565b60008060008060808587031215610859576108586106ef565b5b600085013567ffffffffffffffff811115610877576108766106f4565b5b61088387828801610811565b945050602085013567ffffffffffffffff8111156108a4576108a36106f4565b5b6108b087828801610811565b935050604085013567ffffffffffffffff8111156108d1576108d06106f4565b5b6108dd87828801610811565b925050606085013567ffffffffffffffff8111156108fe576108fd6106f4565b5b61090a87828801610811565b91505092959194509250565b600073ffffffffffffffffffffffffffffffffffffffff82169050919050565b600061094182610916565b9050919050565b61095181610936565b811461095c57600080fd5b50565b60008135905061096e81610948565b92915050565b60006020828403121561098a576109896106ef565b5b60006109988482850161095f565b91505092915050565b600081519050919050565b600082825260208201905092915050565b60005b838110156109db5780820151818401526020810190506109c0565b60008484015250505050565b60006109f2826109a1565b6109fc81856109ac565b9350610a0c8185602086016109bd565b610a1581610703565b840191505092915050565b60006080820190508181036000830152610a3a81876109e7565b90508181036020830152610a4e81866109e7565b90508181036040830152610a6281856109e7565b90508181036060830152610a7681846109e7565b905095945050505050565b7f46756c6c206e616d652069732072657175697265642e00000000000000000000600082015250565b6000610ab76016836109ac565b9150610ac282610a81565b602082019050919050565b60006020820190508181036000830152610ae681610aaa565b9050919050565b7f456d61696c2069732072657175697265642e0000000000000000000000000000600082015250565b6000610b236012836109ac565b9150610b2e82610aed565b602082019050919050565b60006020820190508181036000830152610b5281610b16565b9050919050565b7f50617373776f72642069732072657175697265642e0000000000000000000000600082015250565b6000610b8f6015836109ac565b9150610b9a82610b59565b602082019050919050565b60006020820190508181036000830152610bbe81610b82565b9050919050565b7f557365726e616d652069732072657175697265642e0000000000000000000000600082015250565b6000610bfb6015836109ac565b9150610c0682610bc5565b602082019050919050565b60006020820190508181036000830152610c2a81610bee565b9050919050565b7f4e487b7100000000000000000000000000000000000000000000000000000000600052602260045260246000fd5b60006002820490506001821680610c7857607f821691505b602082108103610c8b57610c8a610c31565b5b50919050565b7f5573657220616c726561647920726567697374657265642e0000000000000000600082015250565b6000610cc76018836109ac565b9150610cd282610c91565b602082019050919050565b60006020820190508181036000830152610cf681610cba565b9050919050565b600081905092915050565b6000610d13826109a1565b610d1d8185610cfd565b9350610d2d8185602086016109bd565b80840191505092915050565b6000610d458284610d08565b915081905092915050565b7f557365726e616d6520616c72656164792074616b656e2e000000000000000000600082015250565b6000610d866017836109ac565b9150610d9182610d50565b602082019050919050565b60006020820190508181036000830152610db581610d79565b9050919050565b60008190508160005260206000209050919050565b60006020601f8301049050919050565b600082821b905092915050565b600060088302610e1e7fffffffffffffffffffffffffffffffffffffffffffffffffffffffffffffffff82610de1565b610e288683610de1565b95508019841693508086168417925050509392505050565b6000819050919050565b6000819050919050565b6000610e6f610e6a610e6584610e40565b610e4a565b610e40565b9050919050565b6000819050919050565b610e8983610e54565b610e9d610e9582610e76565b848454610dee565b825550505050565b600090565b610eb2610ea5565b610ebd818484610e80565b505050565b5b81811015610ee157610ed6600082610eaa565b600181019050610ec3565b5050565b601f821115610f2657610ef781610dbc565b610f0084610dd1565b81016020851015610f0f578190505b610f23610f1b85610dd1565b830182610ec2565b50505b505050565b600082821c905092915050565b6000610f4960001984600802610f2b565b1980831691505092915050565b6000610f628383610f38565b9150826002028217905092915050565b610f7b826109a1565b67ffffffffffffffff811115610f9457610f93610714565b5b610f9e8254610c60565b610fa9828285610ee5565b600060209050601f831160018114610fdc5760008415610fca578287015190505b610fd48582610f56565b86555061103c565b601f198416610fea86610dbc565b60005b8281101561101257848901518255600182019150602085019450602081019050610fed565b8683101561102f578489015161102b601f891682610f38565b8355505b6001600288020188555050505b505050505050565b6000606082019050818103600083015261105e81866109e7565b9050818103602083015261107281856109e7565b9050818103604083015261108681846109e7565b9050949350505050565b7f55736572206e6f7420666f756e642e0000000000000000000000000000000000600082015250565b60006110c6600f836109ac565b91506110d182611090565b602082019050919050565b600060208201905081810360008301526110f5816110b9565b905091905056fea2646970667358221220d9c698d795f42e011fc332b440bcb246235437af0deef4dc51871177b8b4a66064736f6c63430008130033",
  "immutableReferences": {},
  "source": "// SPDX-License-Identifier: MIT\npragma solidity 0.8.19;\n\ncontract certi {\n    // Struct to represent a user\n    struct User {\n        string fullName;\n        string email;\n        string password; // Store hashed password\n        string username;\n    }\n\n    // Mapping to store users by their Ethereum address\n    mapping(address => User) private users;\n\n    // Mapping to ensure unique usernames\n    mapping(string => bool) private usernames;\n\n    // Event to log the addition of a new user\n    event UserAdded(address indexed userAddress, string fullName, string email, string username);\n\n    // Function to add a new user\n    function addUser(\n        string memory fullName, \n        string memory email, \n        string memory password, \n        string memory username\n    ) public {\n        // Ensure the fullName, email, password, and username are not empty\n        require(bytes(fullName).length > 0, \"Full name is required.\");\n        require(bytes(email).length > 0, \"Email is required.\");\n        require(bytes(password).length > 0, \"Password is required.\");\n        require(bytes(username).length > 0, \"Username is required.\");\n\n        // Ensure the user is not already registered\n        require(bytes(users[msg.sender].email).length == 0, \"User already registered.\");\n\n        // Ensure the username is unique\n        require(!usernames[username], \"Username already taken.\");\n\n        // Add the user to the mapping\n        users[msg.sender] = User(fullName, email, password, username);\n\n        // Mark the username as used\n        usernames[username] = true;\n\n        // Emit an event to log the addition of the new user\n        emit UserAdded(msg.sender, fullName, email, username);\n    }\n\n    // Function to fetch user details\n    function getUser(address userAddress)\n        public\n        view\n        returns (string memory fullName, string memory email, string memory username, string memory password)\n    {\n        User memory user = users[userAddress];\n        require(bytes(user.email).length > 0, \"User not found.\");\n        return (user.fullName, user.email, user.username, user.password);\n    }\n}\n",
  "sourcePath": "E:\\KITS-BLOCKCHAIN\\New-certi\\contracts\\certi.sol",
  "compiler": {
    "name": "solc",
    "version": "0.8.19+commit.7dd6d404.Emscripten.clang"
  },
  "schemaVersion": "3.4.16",
  "updatedAt": "2024-12-30T11:22:20.819Z",
  "networkType": "ethereum",
  "devdoc": {
    "kind": "dev",
    "methods": {},
    "version": 1
  },
  "userdoc": {
    "kind": "user",
    "methods": {},
    "version": 1
  }
}