{
  "contractName": "Certi",
  "abi": [
    {
      "inputs": [
        {
          "internalType": "uint256",
          "name": "",
          "type": "uint256"
        }
      ],
      "name": "allCertificateHashes",
      "outputs": [
        {
          "internalType": "string",
          "name": "",
          "type": "string"
        }
      ],
      "stateMutability": "view",
      "type": "function",
      "constant": true
    },
    {
      "inputs": [
        {
          "internalType": "string",
          "name": "",
          "type": "string"
        }
      ],
      "name": "certificateDetails",
      "outputs": [
        {
          "internalType": "address",
          "name": "issuer",
          "type": "address"
        },
        {
          "internalType": "string",
          "name": "hash",
          "type": "string"
        },
        {
          "internalType": "string",
          "name": "filePath",
          "type": "string"
        }
      ],
      "stateMutability": "view",
      "type": "function",
      "constant": true
    },
    {
      "inputs": [
        {
          "internalType": "string",
          "name": "fullName",
          "type": "string"
        },
        {
          "internalType": "string",
          "name": "email",
          "type": "string"
        },
        {
          "internalType": "string",
          "name": "password",
          "type": "string"
        },
        {
          "internalType": "string",
          "name": "username",
          "type": "string"
        }
      ],
      "name": "addUser",
      "outputs": [],
      "stateMutability": "nonpayable",
      "type": "function"
    },
    {
      "inputs": [
        {
          "internalType": "address",
          "name": "userAddress",
          "type": "address"
        }
      ],
      "name": "getUser",
      "outputs": [
        {
          "internalType": "string",
          "name": "fullName",
          "type": "string"
        },
        {
          "internalType": "string",
          "name": "email",
          "type": "string"
        },
        {
          "internalType": "string",
          "name": "username",
          "type": "string"
        },
        {
          "internalType": "string",
          "name": "password",
          "type": "string"
        }
      ],
      "stateMutability": "view",
      "type": "function",
      "constant": true
    },
    {
      "inputs": [
        {
          "internalType": "string",
          "name": "certificateId",
          "type": "string"
        },
        {
          "internalType": "string",
          "name": "hash",
          "type": "string"
        },
        {
          "internalType": "string",
          "name": "filePath",
          "type": "string"
        },
        {
          "internalType": "address",
          "name": "userAddress",
          "type": "address"
        }
      ],
      "name": "addCertificate",
      "outputs": [],
      "stateMutability": "nonpayable",
      "type": "function"
    },
    {
      "inputs": [
        {
          "internalType": "address",
          "name": "userAddress",
          "type": "address"
        }
      ],
      "name": "getCertificates",
      "outputs": [
        {
          "components": [
            {
              "internalType": "address",
              "name": "issuer",
              "type": "address"
            },
            {
              "internalType": "string",
              "name": "hash",
              "type": "string"
            },
            {
              "internalType": "string",
              "name": "filePath",
              "type": "string"
            }
          ],
          "internalType": "struct Certi.Certificate[]",
          "name": "",
          "type": "tuple[]"
        }
      ],
      "stateMutability": "view",
      "type": "function",
      "constant": true
    },
    {
      "inputs": [],
      "name": "getAllCertificates",
      "outputs": [
        {
          "components": [
            {
              "internalType": "address",
              "name": "issuer",
              "type": "address"
            },
            {
              "internalType": "string",
              "name": "hash",
              "type": "string"
            },
            {
              "internalType": "string",
              "name": "filePath",
              "type": "string"
            }
          ],
          "internalType": "struct Certi.Certificate[]",
          "name": "",
          "type": "tuple[]"
        }
      ],
      "stateMutability": "view",
      "type": "function",
      "constant": true
    },
    {
      "inputs": [
        {
          "internalType": "address",
          "name": "userAddress",
          "type": "address"
        }
      ],
      "name": "getCertificatesByOwner",
      "outputs": [
        {
          "components": [
            {
              "internalType": "address",
              "name": "issuer",
              "type": "address"
            },
            {
              "internalType": "string",
              "name": "hash",
              "type": "string"
            },
            {
              "internalType": "string",
              "name": "filePath",
              "type": "string"
            }
          ],
          "internalType": "struct Certi.Certificate[]",
          "name": "",
          "type": "tuple[]"
        }
      ],
      "stateMutability": "view",
      "type": "function",
      "constant": true
    },
    {
      "inputs": [
        {
          "internalType": "string",
          "name": "hash",
          "type": "string"
        }
      ],
      "name": "deleteCertificate",
      "outputs": [],
      "stateMutability": "nonpayable",
      "type": "function"
    },
    {
      "inputs": [],
      "name": "getAllCertificateHashes",
      "outputs": [
        {
          "internalType": "string[]",
          "name": "",
          "type": "string[]"
        }
      ],
      "stateMutability": "view",
      "type": "function",
      "constant": true
    }
  ],
  "bytecode": "0x608060405234801561001057600080fd5b50613354806100206000396000f3fe608060405234801561001057600080fd5b506004361061009e5760003560e01c80636f77926b116100665780636f77926b1461015b5780636fe5033c1461018e57806381f6bf7d146101c0578063f1c49c62146101dc578063ff7138871461020c5761009e565b806301cda3ac146100a35780630cb07828146100bf57806313fcfe80146100dd578063149ae6dd146100fb5780631db738401461012b575b600080fd5b6100bd60048036038101906100b89190611f08565b610228565b005b6100c761052a565b6040516100d49190612120565b60405180910390f35b6100e5610603565b6040516100f2919061229c565b60405180910390f35b610115600480360381019061011091906122f4565b6108fa565b604051610122919061236b565b60405180910390f35b610145600480360381019061014091906123b9565b6109a6565b604051610152919061229c565b60405180910390f35b610175600480360381019061017091906123b9565b610bbe565b60405161018594939291906123e6565b60405180910390f35b6101a860048036038101906101a39190612447565b610ec5565b6040516101b79392919061249f565b60405180910390f35b6101da60048036038101906101d59190612447565b611035565b005b6101f660048036038101906101f191906123b9565b6115fe565b604051610203919061229c565b60405180910390f35b610226600480360381019061022191906124e4565b611816565b005b600084511161026c576040517f08c379a0000000000000000000000000000000000000000000000000000000008152600401610263906125eb565b60405180910390fd5b60008351116102b0576040517f08c379a00000000000000000000000000000000000000000000000000000000081526004016102a790612657565b60405180910390fd5b60008251116102f4576040517f08c379a00000000000000000000000000000000000000000000000000000000081526004016102eb906126c3565b60405180910390fd5b6000815111610338576040517f08c379a000000000000000000000000000000000000000000000000000000000815260040161032f9061272f565b60405180910390fd5b60008060003373ffffffffffffffffffffffffffffffffffffffff1673ffffffffffffffffffffffffffffffffffffffff16815260200190815260200160002060010180546103869061277e565b9050146103c8576040517f08c379a00000000000000000000000000000000000000000000000000000000081526004016103bf906127fb565b60405180910390fd5b6001816040516103d89190612857565b908152602001604051809103902060009054906101000a900460ff1615610434576040517f08c379a000000000000000000000000000000000000000000000000000000000815260040161042b906128ba565b60405180910390fd5b6040518060800160405280858152602001848152602001838152602001828152506000803373ffffffffffffffffffffffffffffffffffffffff1673ffffffffffffffffffffffffffffffffffffffff16815260200190815260200160002060008201518160000190816104a89190612a86565b5060208201518160010190816104be9190612a86565b5060408201518160020190816104d49190612a86565b5060608201518160030190816104ea9190612a86565b50905050600180826040516104ff9190612857565b908152602001604051809103902060006101000a81548160ff02191690831515021790555050505050565b60606005805480602002602001604051908101604052809291908181526020016000905b828210156105fa57838290600052602060002001805461056d9061277e565b80601f01602080910402602001604051908101604052809291908181526020018280546105999061277e565b80156105e65780601f106105bb576101008083540402835291602001916105e6565b820191906000526020600020905b8154815290600101906020018083116105c957829003601f168201915b50505050508152602001906001019061054e565b50505050905090565b6060600060058054905067ffffffffffffffff81111561062657610625611ddd565b5b60405190808252806020026020018201604052801561065f57816020015b61064c611d1a565b8152602001906001900390816106445790505b50905060005b6005805490508110156108f25760006005828154811061068857610687612b58565b5b90600052602060002001805461069d9061277e565b80601f01602080910402602001604051908101604052809291908181526020018280546106c99061277e565b80156107165780601f106106eb57610100808354040283529160200191610716565b820191906000526020600020905b8154815290600101906020018083116106f957829003601f168201915b5050505050905060028160405161072d9190612857565b90815260200160405180910390206040518060600160405290816000820160009054906101000a900473ffffffffffffffffffffffffffffffffffffffff1673ffffffffffffffffffffffffffffffffffffffff1673ffffffffffffffffffffffffffffffffffffffff1681526020016001820180546107ac9061277e565b80601f01602080910402602001604051908101604052809291908181526020018280546107d89061277e565b80156108255780601f106107fa57610100808354040283529160200191610825565b820191906000526020600020905b81548152906001019060200180831161080857829003601f168201915b5050505050815260200160028201805461083e9061277e565b80601f016020809104026020016040519081016040528092919081815260200182805461086a9061277e565b80156108b75780601f1061088c576101008083540402835291602001916108b7565b820191906000526020600020905b81548152906001019060200180831161089a57829003601f168201915b5050505050815250508383815181106108d3576108d2612b58565b5b60200260200101819052505080806108ea90612bb6565b915050610665565b508091505090565b6005818154811061090a57600080fd5b9060005260206000200160009150905080546109259061277e565b80601f01602080910402602001604051908101604052809291908181526020018280546109519061277e565b801561099e5780601f106109735761010080835404028352916020019161099e565b820191906000526020600020905b81548152906001019060200180831161098157829003601f168201915b505050505081565b6060600360008373ffffffffffffffffffffffffffffffffffffffff1673ffffffffffffffffffffffffffffffffffffffff168152602001908152602001600020805480602002602001604051908101604052809291908181526020016000905b82821015610bb357838290600052602060002090600302016040518060600160405290816000820160009054906101000a900473ffffffffffffffffffffffffffffffffffffffff1673ffffffffffffffffffffffffffffffffffffffff1673ffffffffffffffffffffffffffffffffffffffff168152602001600182018054610a909061277e565b80601f0160208091040260200160405190810160405280929190818152602001828054610abc9061277e565b8015610b095780601f10610ade57610100808354040283529160200191610b09565b820191906000526020600020905b815481529060010190602001808311610aec57829003601f168201915b50505050508152602001600282018054610b229061277e565b80601f0160208091040260200160405190810160405280929190818152602001828054610b4e9061277e565b8015610b9b5780601f10610b7057610100808354040283529160200191610b9b565b820191906000526020600020905b815481529060010190602001808311610b7e57829003601f168201915b50505050508152505081526020019060010190610a07565b505050509050919050565b60608060608060008060008773ffffffffffffffffffffffffffffffffffffffff1673ffffffffffffffffffffffffffffffffffffffff168152602001908152602001600020604051806080016040529081600082018054610c1f9061277e565b80601f0160208091040260200160405190810160405280929190818152602001828054610c4b9061277e565b8015610c985780601f10610c6d57610100808354040283529160200191610c98565b820191906000526020600020905b815481529060010190602001808311610c7b57829003601f168201915b50505050508152602001600182018054610cb19061277e565b80601f0160208091040260200160405190810160405280929190818152602001828054610cdd9061277e565b8015610d2a5780601f10610cff57610100808354040283529160200191610d2a565b820191906000526020600020905b815481529060010190602001808311610d0d57829003601f168201915b50505050508152602001600282018054610d439061277e565b80601f0160208091040260200160405190810160405280929190818152602001828054610d6f9061277e565b8015610dbc5780601f10610d9157610100808354040283529160200191610dbc565b820191906000526020600020905b815481529060010190602001808311610d9f57829003601f168201915b50505050508152602001600382018054610dd59061277e565b80601f0160208091040260200160405190810160405280929190818152602001828054610e019061277e565b8015610e4e5780601f10610e2357610100808354040283529160200191610e4e565b820191906000526020600020905b815481529060010190602001808311610e3157829003601f168201915b5050505050815250509050600081602001515111610ea1576040517f08c379a0000000000000000000000000000000000000000000000000000000008152600401610e9890612c4a565b60405180910390fd5b80600001518160200151826060015183604001519450945094509450509193509193565b6004818051602081018201805184825260208301602085012081835280955050505050506000915090508060000160009054906101000a900473ffffffffffffffffffffffffffffffffffffffff1690806001018054610f249061277e565b80601f0160208091040260200160405190810160405280929190818152602001828054610f509061277e565b8015610f9d5780601f10610f7257610100808354040283529160200191610f9d565b820191906000526020600020905b815481529060010190602001808311610f8057829003601f168201915b505050505090806002018054610fb29061277e565b80601f0160208091040260200160405190810160405280929190818152602001828054610fde9061277e565b801561102b5780601f106110005761010080835404028352916020019161102b565b820191906000526020600020905b81548152906001019060200180831161100e57829003601f168201915b5050505050905083565b60006002826040516110479190612857565b90815260200160405180910390206040518060600160405290816000820160009054906101000a900473ffffffffffffffffffffffffffffffffffffffff1673ffffffffffffffffffffffffffffffffffffffff1673ffffffffffffffffffffffffffffffffffffffff1681526020016001820180546110c69061277e565b80601f01602080910402602001604051908101604052809291908181526020018280546110f29061277e565b801561113f5780601f106111145761010080835404028352916020019161113f565b820191906000526020600020905b81548152906001019060200180831161112257829003601f168201915b505050505081526020016002820180546111589061277e565b80601f01602080910402602001604051908101604052809291908181526020018280546111849061277e565b80156111d15780601f106111a6576101008083540402835291602001916111d1565b820191906000526020600020905b8154815290600101906020018083116111b457829003601f168201915b5050505050815250509050600081602001515111611224576040517f08c379a000000000000000000000000000000000000000000000000000000000815260040161121b90612cb6565b60405180910390fd5b3373ffffffffffffffffffffffffffffffffffffffff16816000015173ffffffffffffffffffffffffffffffffffffffff1614611296576040517f08c379a000000000000000000000000000000000000000000000000000000000815260040161128d90612d48565b60405180910390fd5b6002826040516112a69190612857565b9081526020016040518091039020600080820160006101000a81549073ffffffffffffffffffffffffffffffffffffffff02191690556001820160006112ec9190611d51565b6002820160006112fc9190611d51565b505060005b6005805490508110156113f05782805190602001206005828154811061132a57611329612b58565b5b906000526020600020016040516113419190612e0b565b6040518091039020036113dd57600560016005805490506113629190612e22565b8154811061137357611372612b58565b5b906000526020600020016005828154811061139157611390612b58565b5b9060005260206000200190816113a79190612e81565b5060058054806113ba576113b9612f69565b5b6001900381819060005260206000200160006113d69190611d51565b90556113f0565b80806113e890612bb6565b915050611301565b506000600360003373ffffffffffffffffffffffffffffffffffffffff1673ffffffffffffffffffffffffffffffffffffffff168152602001908152602001600020905060005b81805490508110156115f857838051906020012082828154811061145e5761145d612b58565b5b906000526020600020906003020160010160405161147c9190612e0b565b6040518091039020036115e557816001838054905061149b9190612e22565b815481106114ac576114ab612b58565b5b90600052602060002090600302018282815481106114cd576114cc612b58565b5b90600052602060002090600302016000820160009054906101000a900473ffffffffffffffffffffffffffffffffffffffff168160000160006101000a81548173ffffffffffffffffffffffffffffffffffffffff021916908373ffffffffffffffffffffffffffffffffffffffff160217905550600182018160010190816115569190612fae565b506002820181600201908161156b9190612fae565b50905050818054806115805761157f612f69565b5b6001900381819060005260206000209060030201600080820160006101000a81549073ffffffffffffffffffffffffffffffffffffffff02191690556001820160006115cc9190611d51565b6002820160006115dc9190611d51565b505090556115f8565b80806115f090612bb6565b915050611437565b50505050565b6060600360008373ffffffffffffffffffffffffffffffffffffffff1673ffffffffffffffffffffffffffffffffffffffff168152602001908152602001600020805480602002602001604051908101604052809291908181526020016000905b8282101561180b57838290600052602060002090600302016040518060600160405290816000820160009054906101000a900473ffffffffffffffffffffffffffffffffffffffff1673ffffffffffffffffffffffffffffffffffffffff1673ffffffffffffffffffffffffffffffffffffffff1681526020016001820180546116e89061277e565b80601f01602080910402602001604051908101604052809291908181526020018280546117149061277e565b80156117615780601f1061173657610100808354040283529160200191611761565b820191906000526020600020905b81548152906001019060200180831161174457829003601f168201915b5050505050815260200160028201805461177a9061277e565b80601f01602080910402602001604051908101604052809291908181526020018280546117a69061277e565b80156117f35780601f106117c8576101008083540402835291602001916117f3565b820191906000526020600020905b8154815290600101906020018083116117d657829003601f168201915b5050505050815250508152602001906001019061165f565b505050509050919050565b600084511161185a576040517f08c379a0000000000000000000000000000000000000000000000000000000008152600401611851906130e2565b60405180910390fd5b600083511161189e576040517f08c379a00000000000000000000000000000000000000000000000000000000081526004016118959061314e565b60405180910390fd5b60008251116118e2576040517f08c379a00000000000000000000000000000000000000000000000000000000081526004016118d9906131ba565b60405180910390fd5b600073ffffffffffffffffffffffffffffffffffffffff168173ffffffffffffffffffffffffffffffffffffffff1603611951576040517f08c379a000000000000000000000000000000000000000000000000000000000815260040161194890613226565b60405180910390fd5b60006002846040516119639190612857565b9081526020016040518091039020600101805461197f9061277e565b9050146119c1576040517f08c379a00000000000000000000000000000000000000000000000000000000081526004016119b890613292565b60405180910390fd5b60006004856040516119d39190612857565b908152602001604051809103902060010180546119ef9061277e565b905014611a31576040517f08c379a0000000000000000000000000000000000000000000000000000000008152600401611a28906132fe565b60405180910390fd5b60405180606001604052808273ffffffffffffffffffffffffffffffffffffffff16815260200184815260200183815250600284604051611a729190612857565b908152602001604051809103902060008201518160000160006101000a81548173ffffffffffffffffffffffffffffffffffffffff021916908373ffffffffffffffffffffffffffffffffffffffff1602179055506020820151816001019081611adc9190612a86565b506040820151816002019081611af29190612a86565b50905050600283604051611b069190612857565b9081526020016040518091039020600485604051611b249190612857565b90815260200160405180910390206000820160009054906101000a900473ffffffffffffffffffffffffffffffffffffffff168160000160006101000a81548173ffffffffffffffffffffffffffffffffffffffff021916908373ffffffffffffffffffffffffffffffffffffffff16021790555060018201816001019081611bad9190612fae565b5060028201816002019081611bc29190612fae565b50905050600360008273ffffffffffffffffffffffffffffffffffffffff1673ffffffffffffffffffffffffffffffffffffffff168152602001908152602001600020600284604051611c159190612857565b908152602001604051809103902090806001815401808255809150506001900390600052602060002090600302016000909190919091506000820160009054906101000a900473ffffffffffffffffffffffffffffffffffffffff168160000160006101000a81548173ffffffffffffffffffffffffffffffffffffffff021916908373ffffffffffffffffffffffffffffffffffffffff16021790555060018201816001019081611cc79190612fae565b5060028201816002019081611cdc9190612fae565b505050600583908060018154018082558091505060019003906000526020600020016000909190919091509081611d139190612a86565b5050505050565b6040518060600160405280600073ffffffffffffffffffffffffffffffffffffffff16815260200160608152602001606081525090565b508054611d5d9061277e565b6000825580601f10611d6f5750611d8e565b601f016020900490600052602060002090810190611d8d9190611d91565b5b50565b5b80821115611daa576000816000905550600101611d92565b5090565b6000604051905090565b600080fd5b600080fd5b600080fd5b600080fd5b6000601f19601f8301169050919050565b7f4e487b7100000000000000000000000000000000000000000000000000000000600052604160045260246000fd5b611e1582611dcc565b810181811067ffffffffffffffff82111715611e3457611e33611ddd565b5b80604052505050565b6000611e47611dae565b9050611e538282611e0c565b919050565b600067ffffffffffffffff821115611e7357611e72611ddd565b5b611e7c82611dcc565b9050602081019050919050565b82818337600083830152505050565b6000611eab611ea684611e58565b611e3d565b905082815260208101848484011115611ec757611ec6611dc7565b5b611ed2848285611e89565b509392505050565b600082601f830112611eef57611eee611dc2565b5b8135611eff848260208601611e98565b91505092915050565b60008060008060808587031215611f2257611f21611db8565b5b600085013567ffffffffffffffff811115611f4057611f3f611dbd565b5b611f4c87828801611eda565b945050602085013567ffffffffffffffff811115611f6d57611f6c611dbd565b5b611f7987828801611eda565b935050604085013567ffffffffffffffff811115611f9a57611f99611dbd565b5b611fa687828801611eda565b925050606085013567ffffffffffffffff811115611fc757611fc6611dbd565b5b611fd387828801611eda565b91505092959194509250565b600081519050919050565b600082825260208201905092915050565b6000819050602082019050919050565b600081519050919050565b600082825260208201905092915050565b60005b8381101561204557808201518184015260208101905061202a565b60008484015250505050565b600061205c8261200b565b6120668185612016565b9350612076818560208601612027565b61207f81611dcc565b840191505092915050565b60006120968383612051565b905092915050565b6000602082019050919050565b60006120b682611fdf565b6120c08185611fea565b9350836020820285016120d285611ffb565b8060005b8581101561210e57848403895281516120ef858261208a565b94506120fa8361209e565b925060208a019950506001810190506120d6565b50829750879550505050505092915050565b6000602082019050818103600083015261213a81846120ab565b905092915050565b600081519050919050565b600082825260208201905092915050565b6000819050602082019050919050565b600073ffffffffffffffffffffffffffffffffffffffff82169050919050565b60006121998261216e565b9050919050565b6121a98161218e565b82525050565b60006060830160008301516121c760008601826121a0565b50602083015184820360208601526121df8282612051565b915050604083015184820360408601526121f98282612051565b9150508091505092915050565b600061221283836121af565b905092915050565b6000602082019050919050565b600061223282612142565b61223c818561214d565b93508360208202850161224e8561215e565b8060005b8581101561228a578484038952815161226b8582612206565b94506122768361221a565b925060208a01995050600181019050612252565b50829750879550505050505092915050565b600060208201905081810360008301526122b68184612227565b905092915050565b6000819050919050565b6122d1816122be565b81146122dc57600080fd5b50565b6000813590506122ee816122c8565b92915050565b60006020828403121561230a57612309611db8565b5b6000612318848285016122df565b91505092915050565b600082825260208201905092915050565b600061233d8261200b565b6123478185612321565b9350612357818560208601612027565b61236081611dcc565b840191505092915050565b600060208201905081810360008301526123858184612332565b905092915050565b6123968161218e565b81146123a157600080fd5b50565b6000813590506123b38161238d565b92915050565b6000602082840312156123cf576123ce611db8565b5b60006123dd848285016123a4565b91505092915050565b600060808201905081810360008301526124008187612332565b905081810360208301526124148186612332565b905081810360408301526124288185612332565b9050818103606083015261243c8184612332565b905095945050505050565b60006020828403121561245d5761245c611db8565b5b600082013567ffffffffffffffff81111561247b5761247a611dbd565b5b61248784828501611eda565b91505092915050565b6124998161218e565b82525050565b60006060820190506124b46000830186612490565b81810360208301526124c68185612332565b905081810360408301526124da8184612332565b9050949350505050565b600080600080608085870312156124fe576124fd611db8565b5b600085013567ffffffffffffffff81111561251c5761251b611dbd565b5b61252887828801611eda565b945050602085013567ffffffffffffffff81111561254957612548611dbd565b5b61255587828801611eda565b935050604085013567ffffffffffffffff81111561257657612575611dbd565b5b61258287828801611eda565b9250506060612593878288016123a4565b91505092959194509250565b7f46756c6c206e616d652069732072657175697265642e00000000000000000000600082015250565b60006125d5601683612321565b91506125e08261259f565b602082019050919050565b60006020820190508181036000830152612604816125c8565b9050919050565b7f456d61696c2069732072657175697265642e0000000000000000000000000000600082015250565b6000612641601283612321565b915061264c8261260b565b602082019050919050565b6000602082019050818103600083015261267081612634565b9050919050565b7f50617373776f72642069732072657175697265642e0000000000000000000000600082015250565b60006126ad601583612321565b91506126b882612677565b602082019050919050565b600060208201905081810360008301526126dc816126a0565b9050919050565b7f557365726e616d652069732072657175697265642e0000000000000000000000600082015250565b6000612719601583612321565b9150612724826126e3565b602082019050919050565b600060208201905081810360008301526127488161270c565b9050919050565b7f4e487b7100000000000000000000000000000000000000000000000000000000600052602260045260246000fd5b6000600282049050600182168061279657607f821691505b6020821081036127a9576127a861274f565b5b50919050565b7f5573657220616c726561647920726567697374657265642e0000000000000000600082015250565b60006127e5601883612321565b91506127f0826127af565b602082019050919050565b60006020820190508181036000830152612814816127d8565b9050919050565b600081905092915050565b60006128318261200b565b61283b818561281b565b935061284b818560208601612027565b80840191505092915050565b60006128638284612826565b915081905092915050565b7f557365726e616d6520616c72656164792074616b656e2e000000000000000000600082015250565b60006128a4601783612321565b91506128af8261286e565b602082019050919050565b600060208201905081810360008301526128d381612897565b9050919050565b60008190508160005260206000209050919050565b60006020601f8301049050919050565b600082821b905092915050565b60006008830261293c7fffffffffffffffffffffffffffffffffffffffffffffffffffffffffffffffff826128ff565b61294686836128ff565b95508019841693508086168417925050509392505050565b6000819050919050565b600061298361297e612979846122be565b61295e565b6122be565b9050919050565b6000819050919050565b61299d83612968565b6129b16129a98261298a565b84845461290c565b825550505050565b600090565b6129c66129b9565b6129d1818484612994565b505050565b5b818110156129f5576129ea6000826129be565b6001810190506129d7565b5050565b601f821115612a3a57612a0b816128da565b612a14846128ef565b81016020851015612a23578190505b612a37612a2f856128ef565b8301826129d6565b50505b505050565b600082821c905092915050565b6000612a5d60001984600802612a3f565b1980831691505092915050565b6000612a768383612a4c565b9150826002028217905092915050565b612a8f8261200b565b67ffffffffffffffff811115612aa857612aa7611ddd565b5b612ab2825461277e565b612abd8282856129f9565b600060209050601f831160018114612af05760008415612ade578287015190505b612ae88582612a6a565b865550612b50565b601f198416612afe866128da565b60005b82811015612b2657848901518255600182019150602085019450602081019050612b01565b86831015612b435784890151612b3f601f891682612a4c565b8355505b6001600288020188555050505b505050505050565b7f4e487b7100000000000000000000000000000000000000000000000000000000600052603260045260246000fd5b7f4e487b7100000000000000000000000000000000000000000000000000000000600052601160045260246000fd5b6000612bc1826122be565b91507fffffffffffffffffffffffffffffffffffffffffffffffffffffffffffffffff8203612bf357612bf2612b87565b5b600182019050919050565b7f55736572206e6f7420666f756e642e0000000000000000000000000000000000600082015250565b6000612c34600f83612321565b9150612c3f82612bfe565b602082019050919050565b60006020820190508181036000830152612c6381612c27565b9050919050565b7f4365727469666963617465206e6f7420666f756e642e00000000000000000000600082015250565b6000612ca0601683612321565b9150612cab82612c6a565b602082019050919050565b60006020820190508181036000830152612ccf81612c93565b9050919050565b7f4f6e6c7920746865206973737565722063616e2064656c65746520746865206360008201527f657274696669636174652e000000000000000000000000000000000000000000602082015250565b6000612d32602b83612321565b9150612d3d82612cd6565b604082019050919050565b60006020820190508181036000830152612d6181612d25565b9050919050565b600081905092915050565b60008190508160005260206000209050919050565b60008154612d958161277e565b612d9f8186612d68565b94506001821660008114612dba5760018114612dcf57612e02565b60ff1983168652811515820286019350612e02565b612dd885612d73565b60005b83811015612dfa57815481890152600182019150602081019050612ddb565b838801955050505b50505092915050565b6000612e178284612d88565b915081905092915050565b6000612e2d826122be565b9150612e38836122be565b9250828203905081811115612e5057612e4f612b87565b5b92915050565b600081549050612e658161277e565b9050919050565b60008190508160005260206000209050919050565b818103612e8f575050612f67565b612e9882612e56565b67ffffffffffffffff811115612eb157612eb0611ddd565b5b612ebb825461277e565b612ec68282856129f9565b6000601f831160018114612ef55760008415612ee3578287015490505b612eed8582612a6a565b865550612f60565b601f198416612f0387612e6c565b9650612f0e866128da565b60005b82811015612f3657848901548255600182019150600185019450602081019050612f11565b86831015612f535784890154612f4f601f891682612a4c565b8355505b6001600288020188555050505b5050505050505b565b7f4e487b7100000000000000000000000000000000000000000000000000000000600052603160045260246000fd5b600081549050612fa78161277e565b9050919050565b818103612fbc575050613094565b612fc582612f98565b67ffffffffffffffff811115612fde57612fdd611ddd565b5b612fe8825461277e565b612ff38282856129f9565b6000601f8311600181146130225760008415613010578287015490505b61301a8582612a6a565b86555061308d565b601f198416613030876128da565b965061303b866128da565b60005b828110156130635784890154825560018201915060018501945060208101905061303e565b86831015613080578489015461307c601f891682612a4c565b8355505b6001600288020188555050505b5050505050505b565b7f43657274696669636174652049442069732072657175697265642e0000000000600082015250565b60006130cc601b83612321565b91506130d782613096565b602082019050919050565b600060208201905081810360008301526130fb816130bf565b9050919050565b7f436572746966696361746520686173682069732072657175697265642e000000600082015250565b6000613138601d83612321565b915061314382613102565b602082019050919050565b600060208201905081810360008301526131678161312b565b9050919050565b7f46696c6520706174682069732072657175697265642e00000000000000000000600082015250565b60006131a4601683612321565b91506131af8261316e565b602082019050919050565b600060208201905081810360008301526131d381613197565b9050919050565b7f5573657220616464726573732069732072657175697265642e00000000000000600082015250565b6000613210601983612321565b915061321b826131da565b602082019050919050565b6000602082019050818103600083015261323f81613203565b9050919050565b7f436572746966696361746520616c7265616479206578697374732e0000000000600082015250565b600061327c601b83612321565b915061328782613246565b602082019050919050565b600060208201905081810360008301526132ab8161326f565b9050919050565b7f436572746966696361746520494420616c7265616479206578697374732e0000600082015250565b60006132e8601e83612321565b91506132f3826132b2565b602082019050919050565b60006020820190508181036000830152613317816132db565b905091905056fea2646970667358221220fcbe178768674c2bbcc4f64bda20e4c31d0597b5fb4860bd20050992216cda7c64736f6c63430008130033",
  "immutableReferences": {},
  "source": "// SPDX-License-Identifier: MIT\npragma solidity 0.8.19;\n\ncontract Certi {\n    // Struct to represent a user\n    struct User {\n        string fullName;\n        string email;\n        string password; // Store hashed password\n        string username;\n    }\n\n    // Struct to represent a certificate\n    struct Certificate {\n        address issuer;  // Address of the user who issued the certificate\n        string hash;     // Hash of the certificate file\n        string filePath; // Path of the stored certificate\n    }\n\n    // Mapping to store users by their Ethereum address\n    mapping(address => User) private users;\n\n    // Mapping to ensure unique usernames\n    mapping(string => bool) private usernames;\n\n    // Mapping to store certificates by their hash\n    mapping(string => Certificate) private certificates;\n\n    // Mapping to store certificates associated with a user's address\n    mapping(address => Certificate[]) private user_certificates;\n\n    // Mapping from certificateId to Certificate struct for easy lookup by ID\n    mapping(string => Certificate) public certificateDetails;\n\n    // Array to store all certificate hashes for global access\n    string[] public allCertificateHashes;\n\n    // Function to add a new user\n    function addUser(\n        string memory fullName, \n        string memory email, \n        string memory password, \n        string memory username\n    ) public {\n        require(bytes(fullName).length > 0, \"Full name is required.\");\n        require(bytes(email).length > 0, \"Email is required.\");\n        require(bytes(password).length > 0, \"Password is required.\");\n        require(bytes(username).length > 0, \"Username is required.\");\n\n        require(bytes(users[msg.sender].email).length == 0, \"User already registered.\");\n        require(!usernames[username], \"Username already taken.\");\n\n        users[msg.sender] = User(fullName, email, password, username);\n        usernames[username] = true;\n    }\n\n    // Function to fetch user details\n    function getUser(address userAddress)\n        public\n        view\n        returns (string memory fullName, string memory email, string memory username, string memory password)\n    {\n        User memory user = users[userAddress];\n        require(bytes(user.email).length > 0, \"User not found.\");\n        return (user.fullName, user.email, user.username, user.password);\n    }\n\n    // Function to add a certificate\n    function addCertificate(\n        string memory certificateId,\n        string memory hash,\n        string memory filePath,\n        address userAddress\n    ) public {\n        require(bytes(certificateId).length > 0, \"Certificate ID is required.\");\n        require(bytes(hash).length > 0, \"Certificate hash is required.\");\n        require(bytes(filePath).length > 0, \"File path is required.\");\n        require(userAddress != address(0), \"User address is required.\");\n        require(bytes(certificates[hash].hash).length == 0, \"Certificate already exists.\");\n        require(bytes(certificateDetails[certificateId].hash).length == 0, \"Certificate ID already exists.\");\n\n        // Create a new Certificate struct and add it to the mappings\n        certificates[hash] = Certificate(userAddress, hash, filePath);\n        certificateDetails[certificateId] = certificates[hash];\n\n        // Map the certificate to the user and store the hash in allCertificateHashes\n        user_certificates[userAddress].push(certificates[hash]);\n        allCertificateHashes.push(hash);\n    }\n\n    // Function to fetch certificates for a specific address\n    function getCertificates(address userAddress) public view returns (Certificate[] memory) {\n        return user_certificates[userAddress];\n    }\n\n    // Function to fetch all certificates in the system\n    function getAllCertificates() public view returns (Certificate[] memory) {\n        Certificate[] memory allCertificates = new Certificate[](allCertificateHashes.length);\n\n        for (uint256 i = 0; i < allCertificateHashes.length; i++) {\n            string memory certificateHash = allCertificateHashes[i];\n            allCertificates[i] = certificates[certificateHash];\n        }\n\n        return allCertificates;\n    }\n\n    // Function to fetch all certificates associated with a specific address\n    function getCertificatesByOwner(address userAddress) public view returns (Certificate[] memory) {\n        return user_certificates[userAddress];\n    }\n\n    // Function to delete a certificate\n    function deleteCertificate(string memory hash) public {\n        Certificate memory cert = certificates[hash];\n        require(bytes(cert.hash).length > 0, \"Certificate not found.\");\n        require(cert.issuer == msg.sender, \"Only the issuer can delete the certificate.\");\n\n        // Remove from the certificates mapping\n        delete certificates[hash];\n\n        // Remove from allCertificateHashes\n        for (uint256 i = 0; i < allCertificateHashes.length; i++) {\n            if (keccak256(bytes(allCertificateHashes[i])) == keccak256(bytes(hash))) {\n                allCertificateHashes[i] = allCertificateHashes[allCertificateHashes.length - 1];\n                allCertificateHashes.pop();\n                break;\n            }\n        }\n\n        // Remove from user_certificates\n        Certificate[] storage userCerts = user_certificates[msg.sender];\n        for (uint256 i = 0; i < userCerts.length; i++) {\n            if (keccak256(bytes(userCerts[i].hash)) == keccak256(bytes(hash))) {\n                userCerts[i] = userCerts[userCerts.length - 1];\n                userCerts.pop();\n                break;\n            }\n        }\n    }\n\n    // Function to retrieve all stored certificate hashes across all users\n    function getAllCertificateHashes() public view returns (string[] memory) {\n        return allCertificateHashes;\n    }\n}\n",
  "sourcePath": "E:\\KITS-BLOCKCHAIN\\New-certi\\contracts\\certi.sol",
  "compiler": {
    "name": "solc",
    "version": "0.8.19+commit.7dd6d404.Emscripten.clang"
  },
  "schemaVersion": "3.4.16",
  "updatedAt": "2025-01-02T02:33:51.763Z",
  "networkType": "ethereum",
  "devdoc": {
    "kind": "dev",
    "methods": {},
    "version": 1
  },
  "userdoc": {
    "kind": "user",
    "methods": {},
    "version": 1
  }
}