{
  "contractName": "Certi",
  "abi": [
    {
      "inputs": [
        {
          "internalType": "uint256",
          "name": "_certificateId",
          "type": "uint256"
        },
        {
          "internalType": "string",
          "name": "_newStatus",
          "type": "string"
        }
      ],
      "name": "updateCertificateStatus",
      "outputs": [],
      "stateMutability": "nonpayable",
      "type": "function"
    },
    {
      "inputs": [
        {
          "internalType": "address",
          "name": "_issuer",
          "type": "address"
        },
        {
          "internalType": "address",
          "name": "_user",
          "type": "address"
        },
        {
          "internalType": "string",
          "name": "_hash",
          "type": "string"
        },
        {
          "internalType": "string",
          "name": "_title",
          "type": "string"
        },
        {
          "internalType": "string",
          "name": "_filePath",
          "type": "string"
        }
      ],
      "name": "addCertificate",
      "outputs": [],
      "stateMutability": "nonpayable",
      "type": "function"
    },
    {
      "inputs": [
        {
          "internalType": "address",
          "name": "_issuedBy",
          "type": "address"
        },
        {
          "internalType": "address",
          "name": "_user",
          "type": "address"
        },
        {
          "internalType": "address",
          "name": "_organizationAddress",
          "type": "address"
        },
        {
          "internalType": "string",
          "name": "_username",
          "type": "string"
        },
        {
          "internalType": "string",
          "name": "_organizationName",
          "type": "string"
        },
        {
          "internalType": "string",
          "name": "_filepath",
          "type": "string"
        }
      ],
      "name": "addVerificationCertificate",
      "outputs": [],
      "stateMutability": "nonpayable",
      "type": "function"
    },
    {
      "inputs": [
        {
          "internalType": "uint256",
          "name": "_id",
          "type": "uint256"
        },
        {
          "internalType": "bool",
          "name": "_newStatus",
          "type": "bool"
        }
      ],
      "name": "changeRequestSentStatus",
      "outputs": [],
      "stateMutability": "nonpayable",
      "type": "function"
    },
    {
      "inputs": [],
      "name": "getAllRequestSentTrue",
      "outputs": [
        {
          "components": [
            {
              "internalType": "uint256",
              "name": "id",
              "type": "uint256"
            },
            {
              "internalType": "address",
              "name": "issuedBy",
              "type": "address"
            },
            {
              "internalType": "address",
              "name": "user",
              "type": "address"
            },
            {
              "internalType": "address",
              "name": "organizationAddress",
              "type": "address"
            },
            {
              "internalType": "string",
              "name": "username",
              "type": "string"
            },
            {
              "internalType": "string",
              "name": "organizationName",
              "type": "string"
            },
            {
              "internalType": "string",
              "name": "filepath",
              "type": "string"
            },
            {
              "internalType": "string",
              "name": "status",
              "type": "string"
            },
            {
              "internalType": "bool",
              "name": "request_sent",
              "type": "bool"
            }
          ],
          "internalType": "struct Certi.VerificationCertificates[]",
          "name": "",
          "type": "tuple[]"
        }
      ],
      "stateMutability": "view",
      "type": "function",
      "constant": true
    },
    {
      "inputs": [
        {
          "internalType": "address",
          "name": "_user",
          "type": "address"
        }
      ],
      "name": "getUserVerificationCertificates",
      "outputs": [
        {
          "components": [
            {
              "internalType": "uint256",
              "name": "id",
              "type": "uint256"
            },
            {
              "internalType": "address",
              "name": "issuedBy",
              "type": "address"
            },
            {
              "internalType": "address",
              "name": "user",
              "type": "address"
            },
            {
              "internalType": "address",
              "name": "organizationAddress",
              "type": "address"
            },
            {
              "internalType": "string",
              "name": "username",
              "type": "string"
            },
            {
              "internalType": "string",
              "name": "organizationName",
              "type": "string"
            },
            {
              "internalType": "string",
              "name": "filepath",
              "type": "string"
            },
            {
              "internalType": "string",
              "name": "status",
              "type": "string"
            },
            {
              "internalType": "bool",
              "name": "request_sent",
              "type": "bool"
            }
          ],
          "internalType": "struct Certi.VerificationCertificates[]",
          "name": "",
          "type": "tuple[]"
        }
      ],
      "stateMutability": "view",
      "type": "function",
      "constant": true
    },
    {
      "inputs": [
        {
          "internalType": "address",
          "name": "_organizationAddress",
          "type": "address"
        }
      ],
      "name": "getOrganizationVerificationCertificates",
      "outputs": [
        {
          "components": [
            {
              "internalType": "uint256",
              "name": "id",
              "type": "uint256"
            },
            {
              "internalType": "address",
              "name": "issuedBy",
              "type": "address"
            },
            {
              "internalType": "address",
              "name": "user",
              "type": "address"
            },
            {
              "internalType": "address",
              "name": "organizationAddress",
              "type": "address"
            },
            {
              "internalType": "string",
              "name": "username",
              "type": "string"
            },
            {
              "internalType": "string",
              "name": "organizationName",
              "type": "string"
            },
            {
              "internalType": "string",
              "name": "filepath",
              "type": "string"
            },
            {
              "internalType": "string",
              "name": "status",
              "type": "string"
            },
            {
              "internalType": "bool",
              "name": "request_sent",
              "type": "bool"
            }
          ],
          "internalType": "struct Certi.VerificationCertificates[]",
          "name": "",
          "type": "tuple[]"
        }
      ],
      "stateMutability": "view",
      "type": "function",
      "constant": true
    },
    {
      "inputs": [
        {
          "internalType": "uint256",
          "name": "_id",
          "type": "uint256"
        }
      ],
      "name": "getCertificateById",
      "outputs": [
        {
          "internalType": "uint256",
          "name": "",
          "type": "uint256"
        },
        {
          "internalType": "address",
          "name": "",
          "type": "address"
        },
        {
          "internalType": "address",
          "name": "",
          "type": "address"
        },
        {
          "internalType": "address",
          "name": "",
          "type": "address"
        },
        {
          "internalType": "string",
          "name": "",
          "type": "string"
        },
        {
          "internalType": "string",
          "name": "",
          "type": "string"
        },
        {
          "internalType": "string",
          "name": "",
          "type": "string"
        },
        {
          "internalType": "string",
          "name": "",
          "type": "string"
        }
      ],
      "stateMutability": "view",
      "type": "function",
      "constant": true
    },
    {
      "inputs": [
        {
          "internalType": "string",
          "name": "_fullName",
          "type": "string"
        },
        {
          "internalType": "string",
          "name": "_email",
          "type": "string"
        },
        {
          "internalType": "string",
          "name": "_password",
          "type": "string"
        },
        {
          "internalType": "string",
          "name": "_username",
          "type": "string"
        },
        {
          "internalType": "string",
          "name": "_usertype",
          "type": "string"
        }
      ],
      "name": "addUser",
      "outputs": [],
      "stateMutability": "nonpayable",
      "type": "function"
    },
    {
      "inputs": [
        {
          "internalType": "address",
          "name": "_userAddress",
          "type": "address"
        }
      ],
      "name": "getUser",
      "outputs": [
        {
          "internalType": "string",
          "name": "fullName",
          "type": "string"
        },
        {
          "internalType": "string",
          "name": "email",
          "type": "string"
        },
        {
          "internalType": "string",
          "name": "username",
          "type": "string"
        },
        {
          "internalType": "string",
          "name": "password",
          "type": "string"
        },
        {
          "internalType": "string",
          "name": "usertype",
          "type": "string"
        }
      ],
      "stateMutability": "view",
      "type": "function",
      "constant": true
    },
    {
      "inputs": [
        {
          "internalType": "address",
          "name": "_userAddress",
          "type": "address"
        }
      ],
      "name": "getCertificates",
      "outputs": [
        {
          "components": [
            {
              "internalType": "address",
              "name": "issuer",
              "type": "address"
            },
            {
              "internalType": "address",
              "name": "user",
              "type": "address"
            },
            {
              "internalType": "string",
              "name": "hash",
              "type": "string"
            },
            {
              "internalType": "string",
              "name": "title",
              "type": "string"
            },
            {
              "internalType": "string",
              "name": "filePath",
              "type": "string"
            },
            {
              "internalType": "bool",
              "name": "exist",
              "type": "bool"
            }
          ],
          "internalType": "struct Certi.Certificate[]",
          "name": "",
          "type": "tuple[]"
        }
      ],
      "stateMutability": "view",
      "type": "function",
      "constant": true
    },
    {
      "inputs": [
        {
          "internalType": "address",
          "name": "_issuer",
          "type": "address"
        }
      ],
      "name": "getOrganizationCertificates",
      "outputs": [
        {
          "components": [
            {
              "internalType": "address",
              "name": "issuer",
              "type": "address"
            },
            {
              "internalType": "address",
              "name": "user",
              "type": "address"
            },
            {
              "internalType": "string",
              "name": "hash",
              "type": "string"
            },
            {
              "internalType": "string",
              "name": "title",
              "type": "string"
            },
            {
              "internalType": "string",
              "name": "filePath",
              "type": "string"
            },
            {
              "internalType": "bool",
              "name": "exist",
              "type": "bool"
            }
          ],
          "internalType": "struct Certi.Certificate[]",
          "name": "",
          "type": "tuple[]"
        }
      ],
      "stateMutability": "view",
      "type": "function",
      "constant": true
    },
    {
      "inputs": [
        {
          "internalType": "address",
          "name": "_userAddress",
          "type": "address"
        }
      ],
      "name": "getUsername",
      "outputs": [
        {
          "internalType": "string",
          "name": "",
          "type": "string"
        }
      ],
      "stateMutability": "view",
      "type": "function",
      "constant": true
    },
    {
      "inputs": [
        {
          "internalType": "address",
          "name": "_organizationAddress",
          "type": "address"
        },
        {
          "internalType": "string",
          "name": "_hash",
          "type": "string"
        }
      ],
      "name": "checkHashExists",
      "outputs": [
        {
          "internalType": "string",
          "name": "",
          "type": "string"
        }
      ],
      "stateMutability": "view",
      "type": "function",
      "constant": true
    },
    {
      "inputs": [
        {
          "internalType": "address",
          "name": "_user",
          "type": "address"
        }
      ],
      "name": "getUserCertificates",
      "outputs": [
        {
          "components": [
            {
              "internalType": "address",
              "name": "issuer",
              "type": "address"
            },
            {
              "internalType": "address",
              "name": "user",
              "type": "address"
            },
            {
              "internalType": "string",
              "name": "hash",
              "type": "string"
            },
            {
              "internalType": "string",
              "name": "title",
              "type": "string"
            },
            {
              "internalType": "string",
              "name": "filePath",
              "type": "string"
            },
            {
              "internalType": "bool",
              "name": "exist",
              "type": "bool"
            }
          ],
          "internalType": "struct Certi.Certificate[]",
          "name": "",
          "type": "tuple[]"
        }
      ],
      "stateMutability": "view",
      "type": "function",
      "constant": true
    },
    {
      "inputs": [
        {
          "internalType": "address",
          "name": "_user",
          "type": "address"
        },
        {
          "internalType": "string",
          "name": "_feedback",
          "type": "string"
        },
        {
          "internalType": "string",
          "name": "_satisfaction",
          "type": "string"
        },
        {
          "internalType": "string",
          "name": "_email",
          "type": "string"
        }
      ],
      "name": "addFeedback",
      "outputs": [],
      "stateMutability": "nonpayable",
      "type": "function"
    },
    {
      "inputs": [
        {
          "internalType": "address",
          "name": "_user",
          "type": "address"
        }
      ],
      "name": "getAllFeedbacks",
      "outputs": [
        {
          "components": [
            {
              "internalType": "address",
              "name": "_user",
              "type": "address"
            },
            {
              "internalType": "string",
              "name": "_feedback",
              "type": "string"
            },
            {
              "internalType": "string",
              "name": "_satisfaction",
              "type": "string"
            },
            {
              "internalType": "string",
              "name": "_email",
              "type": "string"
            }
          ],
          "internalType": "struct Certi.Feedback[]",
          "name": "",
          "type": "tuple[]"
        }
      ],
      "stateMutability": "view",
      "type": "function",
      "constant": true
    }
  ],
  "bytecode": "0x608060405234801561001057600080fd5b50614dbf806100206000396000f3fe608060405234801561001057600080fd5b506004361061010b5760003560e01c80638d945b57116100a2578063b37a3d8211610071578063b37a3d82146102f9578063ce43c03214610315578063dd26530314610345578063f1c49c6214610375578063f32372b4146103a55761010b565b80638d945b57146102325780639d735caf14610262578063a1fd5d7214610299578063ac0696ab146102c95761010b565b806352cfb9b0116100de57806352cfb9b0146101a857806359f74bc0146101c65780636234f6e3146101e25780636f77926b146101fe5761010b565b80630385bd18146101105780632ec35d211461014057806333bd05791461015c5780634634059114610178575b600080fd5b61012a60048036038101906101259190613944565b6103c1565b6040516101379190613b84565b60405180910390f35b61015a60048036038101906101559190613d11565b6106db565b005b61017660048036038101906101719190613d6d565b610843565b005b610192600480360381019061018d9190613e28565b610979565b60405161019f9190613ece565b60405180910390f35b6101b0610ad6565b6040516101bd919061409b565b60405180910390f35b6101e060048036038101906101db91906140bd565b610f9f565b005b6101fc60048036038101906101f7919061419e565b611577565b005b61021860048036038101906102139190613944565b6119ac565b60405161022995949392919061426d565b60405180910390f35b61024c60048036038101906102479190613944565b611d51565b604051610259919061409b565b60405180910390f35b61027c600480360381019061027791906142e3565b61215f565b60405161029098979695949392919061432e565b60405180910390f35b6102b360048036038101906102ae9190613944565b612541565b6040516102c0919061409b565b60405180910390f35b6102e360048036038101906102de9190613944565b61294f565b6040516102f09190613b84565b60405180910390f35b610313600480360381019061030e91906143c8565b612c6a565b005b61032f600480360381019061032a9190613944565b612e7c565b60405161033c9190613ece565b60405180910390f35b61035f600480360381019061035a9190613944565b612fe1565b60405161036c9190614602565b60405180910390f35b61038f600480360381019061038a9190613944565b61328b565b60405161039c9190613b84565b60405180910390f35b6103bf60048036038101906103ba9190614650565b6135a5565b005b60606000808373ffffffffffffffffffffffffffffffffffffffff1673ffffffffffffffffffffffffffffffffffffffff168152602001908152602001600020805480602002602001604051908101604052809291908181526020016000905b828210156106d057838290600052602060002090600602016040518060c00160405290816000820160009054906101000a900473ffffffffffffffffffffffffffffffffffffffff1673ffffffffffffffffffffffffffffffffffffffff1673ffffffffffffffffffffffffffffffffffffffff1681526020016001820160009054906101000a900473ffffffffffffffffffffffffffffffffffffffff1673ffffffffffffffffffffffffffffffffffffffff1673ffffffffffffffffffffffffffffffffffffffff168152602001600282018054610500906146bf565b80601f016020809104026020016040519081016040528092919081815260200182805461052c906146bf565b80156105795780601f1061054e57610100808354040283529160200191610579565b820191906000526020600020905b81548152906001019060200180831161055c57829003601f168201915b50505050508152602001600382018054610592906146bf565b80601f01602080910402602001604051908101604052809291908181526020018280546105be906146bf565b801561060b5780601f106105e05761010080835404028352916020019161060b565b820191906000526020600020905b8154815290600101906020018083116105ee57829003601f168201915b50505050508152602001600482018054610624906146bf565b80601f0160208091040260200160405190810160405280929190818152602001828054610650906146bf565b801561069d5780601f106106725761010080835404028352916020019161069d565b820191906000526020600020905b81548152906001019060200180831161068057829003601f168201915b505050505081526020016005820160009054906101000a900460ff16151515158152505081526020019060010190610421565b505050509050919050565b60006004600084815260200190815260200160002090506000816000015403610739576040517f08c379a00000000000000000000000000000000000000000000000000000000081526004016107309061473c565b60405180910390fd5b8181600701908161074a9190614908565b5060008160030160009054906101000a900473ffffffffffffffffffffffffffffffffffffffff1690506000600360008373ffffffffffffffffffffffffffffffffffffffff1673ffffffffffffffffffffffffffffffffffffffff168152602001908152602001600020905060005b818054905081101561083b57858282815481106107da576107d96149da565b5b906000526020600020906009020160000154036108285784828281548110610805576108046149da565b5b906000526020600020906009020160070190816108229190614908565b5061083b565b808061083390614a38565b9150506107ba565b505050505050565b600060405180608001604052808673ffffffffffffffffffffffffffffffffffffffff168152602001858152602001848152602001838152509050600860008673ffffffffffffffffffffffffffffffffffffffff1673ffffffffffffffffffffffffffffffffffffffff16815260200190815260200160002081908060018154018082558091505060019003906000526020600020906004020160009091909190915060008201518160000160006101000a81548173ffffffffffffffffffffffffffffffffffffffff021916908373ffffffffffffffffffffffffffffffffffffffff16021790555060208201518160010190816109439190614908565b5060408201518160020190816109599190614908565b50606082015181600301908161096f9190614908565b5050505050505050565b60606000600160008573ffffffffffffffffffffffffffffffffffffffff1673ffffffffffffffffffffffffffffffffffffffff168152602001908152602001600020905060005b8180549050811015610a9557836040516020016109de9190614abc565b60405160208183030381529060405280519060200120828281548110610a0757610a066149da565b5b9060005260206000209060060201600201604051602001610a289190614b56565b6040516020818303038152906040528051906020012003610a82576040518060400160405280601781526020017f436572746966696361746520686173682065786973747300000000000000000081525092505050610ad0565b8080610a8d90614a38565b9150506109c1565b506040518060400160405280601f81526020017f4365727469666963617465206861736820646f6573206e6f74206578697374008152509150505b92915050565b6060600080600190505b6005548111610b34576004600082815260200190815260200160002060080160009054906101000a900460ff1615610b21578180610b1d90614a38565b9250505b8080610b2c90614a38565b915050610ae0565b5060008167ffffffffffffffff811115610b5157610b50613be6565b5b604051908082528060200260200182016040528015610b8a57816020015b610b77613842565b815260200190600190039081610b6f5790505b509050600080600190505b6005548111610f95576004600082815260200190815260200160002060080160009054906101000a900460ff1615610f82576004600082815260200190815260200160002060405180610120016040529081600082015481526020016001820160009054906101000a900473ffffffffffffffffffffffffffffffffffffffff1673ffffffffffffffffffffffffffffffffffffffff1673ffffffffffffffffffffffffffffffffffffffff1681526020016002820160009054906101000a900473ffffffffffffffffffffffffffffffffffffffff1673ffffffffffffffffffffffffffffffffffffffff1673ffffffffffffffffffffffffffffffffffffffff1681526020016003820160009054906101000a900473ffffffffffffffffffffffffffffffffffffffff1673ffffffffffffffffffffffffffffffffffffffff1673ffffffffffffffffffffffffffffffffffffffff168152602001600482018054610d02906146bf565b80601f0160208091040260200160405190810160405280929190818152602001828054610d2e906146bf565b8015610d7b5780601f10610d5057610100808354040283529160200191610d7b565b820191906000526020600020905b815481529060010190602001808311610d5e57829003601f168201915b50505050508152602001600582018054610d94906146bf565b80601f0160208091040260200160405190810160405280929190818152602001828054610dc0906146bf565b8015610e0d5780601f10610de257610100808354040283529160200191610e0d565b820191906000526020600020905b815481529060010190602001808311610df057829003601f168201915b50505050508152602001600682018054610e26906146bf565b80601f0160208091040260200160405190810160405280929190818152602001828054610e52906146bf565b8015610e9f5780601f10610e7457610100808354040283529160200191610e9f565b820191906000526020600020905b815481529060010190602001808311610e8257829003601f168201915b50505050508152602001600782018054610eb8906146bf565b80601f0160208091040260200160405190810160405280929190818152602001828054610ee4906146bf565b8015610f315780601f10610f0657610100808354040283529160200191610f31565b820191906000526020600020905b815481529060010190602001808311610f1457829003601f168201915b505050505081526020016008820160009054906101000a900460ff161515151581525050838381518110610f6857610f676149da565b5b60200260200101819052508180610f7e90614a38565b9250505b8080610f8d90614a38565b915050610b95565b5081935050505090565b60056000815480929190610fb290614a38565b9190505550600060405180610120016040528060055481526020018873ffffffffffffffffffffffffffffffffffffffff1681526020018773ffffffffffffffffffffffffffffffffffffffff1681526020018673ffffffffffffffffffffffffffffffffffffffff1681526020018581526020018481526020018381526020016040518060400160405280600781526020017f70656e64696e67000000000000000000000000000000000000000000000000008152508152602001600015158152509050600260008773ffffffffffffffffffffffffffffffffffffffff1673ffffffffffffffffffffffffffffffffffffffff1681526020019081526020016000208190806001815401808255809150506001900390600052602060002090600902016000909190919091506000820151816000015560208201518160010160006101000a81548173ffffffffffffffffffffffffffffffffffffffff021916908373ffffffffffffffffffffffffffffffffffffffff16021790555060408201518160020160006101000a81548173ffffffffffffffffffffffffffffffffffffffff021916908373ffffffffffffffffffffffffffffffffffffffff16021790555060608201518160030160006101000a81548173ffffffffffffffffffffffffffffffffffffffff021916908373ffffffffffffffffffffffffffffffffffffffff16021790555060808201518160040190816111d49190614908565b5060a08201518160050190816111ea9190614908565b5060c08201518160060190816112009190614908565b5060e08201518160070190816112169190614908565b506101008201518160080160006101000a81548160ff0219169083151502179055505050600360008673ffffffffffffffffffffffffffffffffffffffff1673ffffffffffffffffffffffffffffffffffffffff1681526020019081526020016000208190806001815401808255809150506001900390600052602060002090600902016000909190919091506000820151816000015560208201518160010160006101000a81548173ffffffffffffffffffffffffffffffffffffffff021916908373ffffffffffffffffffffffffffffffffffffffff16021790555060408201518160020160006101000a81548173ffffffffffffffffffffffffffffffffffffffff021916908373ffffffffffffffffffffffffffffffffffffffff16021790555060608201518160030160006101000a81548173ffffffffffffffffffffffffffffffffffffffff021916908373ffffffffffffffffffffffffffffffffffffffff16021790555060808201518160040190816113979190614908565b5060a08201518160050190816113ad9190614908565b5060c08201518160060190816113c39190614908565b5060e08201518160070190816113d99190614908565b506101008201518160080160006101000a81548160ff0219169083151502179055505050806004600060055481526020019081526020016000206000820151816000015560208201518160010160006101000a81548173ffffffffffffffffffffffffffffffffffffffff021916908373ffffffffffffffffffffffffffffffffffffffff16021790555060408201518160020160006101000a81548173ffffffffffffffffffffffffffffffffffffffff021916908373ffffffffffffffffffffffffffffffffffffffff16021790555060608201518160030160006101000a81548173ffffffffffffffffffffffffffffffffffffffff021916908373ffffffffffffffffffffffffffffffffffffffff16021790555060808201518160040190816115079190614908565b5060a082015181600501908161151d9190614908565b5060c08201518160060190816115339190614908565b5060e08201518160070190816115499190614908565b506101008201518160080160006101000a81548160ff02191690831515021790555090505050505050505050565b6000600160008773ffffffffffffffffffffffffffffffffffffffff1673ffffffffffffffffffffffffffffffffffffffff168152602001908152602001600020905060005b818054905081101561168d57846040516020016115da9190614abc565b60405160208183030381529060405280519060200120828281548110611603576116026149da565b5b90600052602060002090600602016002016040516020016116249190614b56565b604051602081830303815290604052805190602001200361167a576040517f08c379a000000000000000000000000000000000000000000000000000000000815260040161167190614bb9565b60405180910390fd5b808061168590614a38565b9150506115bd565b5060006040518060c001604052808873ffffffffffffffffffffffffffffffffffffffff1681526020018773ffffffffffffffffffffffffffffffffffffffff1681526020018681526020018581526020018481526020016001151581525090506000808773ffffffffffffffffffffffffffffffffffffffff1673ffffffffffffffffffffffffffffffffffffffff16815260200190815260200160002081908060018154018082558091505060019003906000526020600020906006020160009091909190915060008201518160000160006101000a81548173ffffffffffffffffffffffffffffffffffffffff021916908373ffffffffffffffffffffffffffffffffffffffff16021790555060208201518160010160006101000a81548173ffffffffffffffffffffffffffffffffffffffff021916908373ffffffffffffffffffffffffffffffffffffffff16021790555060408201518160020190816117f99190614908565b50606082015181600301908161180f9190614908565b5060808201518160040190816118259190614908565b5060a08201518160050160006101000a81548160ff0219169083151502179055505050600160008873ffffffffffffffffffffffffffffffffffffffff1673ffffffffffffffffffffffffffffffffffffffff16815260200190815260200160002081908060018154018082558091505060019003906000526020600020906006020160009091909190915060008201518160000160006101000a81548173ffffffffffffffffffffffffffffffffffffffff021916908373ffffffffffffffffffffffffffffffffffffffff16021790555060208201518160010160006101000a81548173ffffffffffffffffffffffffffffffffffffffff021916908373ffffffffffffffffffffffffffffffffffffffff16021790555060408201518160020190816119549190614908565b50606082015181600301908161196a9190614908565b5060808201518160040190816119809190614908565b5060a08201518160050160006101000a81548160ff021916908315150217905550505050505050505050565b60608060608060606000600660008873ffffffffffffffffffffffffffffffffffffffff1673ffffffffffffffffffffffffffffffffffffffff1681526020019081526020016000206040518060a0016040529081600082018054611a10906146bf565b80601f0160208091040260200160405190810160405280929190818152602001828054611a3c906146bf565b8015611a895780601f10611a5e57610100808354040283529160200191611a89565b820191906000526020600020905b815481529060010190602001808311611a6c57829003601f168201915b50505050508152602001600182018054611aa2906146bf565b80601f0160208091040260200160405190810160405280929190818152602001828054611ace906146bf565b8015611b1b5780601f10611af057610100808354040283529160200191611b1b565b820191906000526020600020905b815481529060010190602001808311611afe57829003601f168201915b50505050508152602001600282018054611b34906146bf565b80601f0160208091040260200160405190810160405280929190818152602001828054611b60906146bf565b8015611bad5780601f10611b8257610100808354040283529160200191611bad565b820191906000526020600020905b815481529060010190602001808311611b9057829003601f168201915b50505050508152602001600382018054611bc6906146bf565b80601f0160208091040260200160405190810160405280929190818152602001828054611bf2906146bf565b8015611c3f5780601f10611c1457610100808354040283529160200191611c3f565b820191906000526020600020905b815481529060010190602001808311611c2257829003601f168201915b50505050508152602001600482018054611c58906146bf565b80601f0160208091040260200160405190810160405280929190818152602001828054611c84906146bf565b8015611cd15780601f10611ca657610100808354040283529160200191611cd1565b820191906000526020600020905b815481529060010190602001808311611cb457829003601f168201915b5050505050815250509050600081602001515111611d24576040517f08c379a0000000000000000000000000000000000000000000000000000000008152600401611d1b90614c25565b60405180910390fd5b80600001518160200151826060015183604001518460800151955095509550955095505091939590929450565b6060600360008373ffffffffffffffffffffffffffffffffffffffff1673ffffffffffffffffffffffffffffffffffffffff168152602001908152602001600020805480602002602001604051908101604052809291908181526020016000905b82821015612154578382906000526020600020906009020160405180610120016040529081600082015481526020016001820160009054906101000a900473ffffffffffffffffffffffffffffffffffffffff1673ffffffffffffffffffffffffffffffffffffffff1673ffffffffffffffffffffffffffffffffffffffff1681526020016002820160009054906101000a900473ffffffffffffffffffffffffffffffffffffffff1673ffffffffffffffffffffffffffffffffffffffff1673ffffffffffffffffffffffffffffffffffffffff1681526020016003820160009054906101000a900473ffffffffffffffffffffffffffffffffffffffff1673ffffffffffffffffffffffffffffffffffffffff1673ffffffffffffffffffffffffffffffffffffffff168152602001600482018054611ef2906146bf565b80601f0160208091040260200160405190810160405280929190818152602001828054611f1e906146bf565b8015611f6b5780601f10611f4057610100808354040283529160200191611f6b565b820191906000526020600020905b815481529060010190602001808311611f4e57829003601f168201915b50505050508152602001600582018054611f84906146bf565b80601f0160208091040260200160405190810160405280929190818152602001828054611fb0906146bf565b8015611ffd5780601f10611fd257610100808354040283529160200191611ffd565b820191906000526020600020905b815481529060010190602001808311611fe057829003601f168201915b50505050508152602001600682018054612016906146bf565b80601f0160208091040260200160405190810160405280929190818152602001828054612042906146bf565b801561208f5780601f106120645761010080835404028352916020019161208f565b820191906000526020600020905b81548152906001019060200180831161207257829003601f168201915b505050505081526020016007820180546120a8906146bf565b80601f01602080910402602001604051908101604052809291908181526020018280546120d4906146bf565b80156121215780601f106120f657610100808354040283529160200191612121565b820191906000526020600020905b81548152906001019060200180831161210457829003601f168201915b505050505081526020016008820160009054906101000a900460ff16151515158152505081526020019060010190611db2565b505050509050919050565b6000806000806060806060806000600460008b815260200190815260200160002060405180610120016040529081600082015481526020016001820160009054906101000a900473ffffffffffffffffffffffffffffffffffffffff1673ffffffffffffffffffffffffffffffffffffffff1673ffffffffffffffffffffffffffffffffffffffff1681526020016002820160009054906101000a900473ffffffffffffffffffffffffffffffffffffffff1673ffffffffffffffffffffffffffffffffffffffff1673ffffffffffffffffffffffffffffffffffffffff1681526020016003820160009054906101000a900473ffffffffffffffffffffffffffffffffffffffff1673ffffffffffffffffffffffffffffffffffffffff1673ffffffffffffffffffffffffffffffffffffffff1681526020016004820180546122a8906146bf565b80601f01602080910402602001604051908101604052809291908181526020018280546122d4906146bf565b80156123215780601f106122f657610100808354040283529160200191612321565b820191906000526020600020905b81548152906001019060200180831161230457829003601f168201915b5050505050815260200160058201805461233a906146bf565b80601f0160208091040260200160405190810160405280929190818152602001828054612366906146bf565b80156123b35780601f10612388576101008083540402835291602001916123b3565b820191906000526020600020905b81548152906001019060200180831161239657829003601f168201915b505050505081526020016006820180546123cc906146bf565b80601f01602080910402602001604051908101604052809291908181526020018280546123f8906146bf565b80156124455780601f1061241a57610100808354040283529160200191612445565b820191906000526020600020905b81548152906001019060200180831161242857829003601f168201915b5050505050815260200160078201805461245e906146bf565b80601f016020809104026020016040519081016040528092919081815260200182805461248a906146bf565b80156124d75780601f106124ac576101008083540402835291602001916124d7565b820191906000526020600020905b8154815290600101906020018083116124ba57829003601f168201915b505050505081526020016008820160009054906101000a900460ff1615151515815250509050806000015181602001518260400151836060015184608001518560a001518660c001518760e001519850985098509850985098509850985050919395975091939597565b6060600260008373ffffffffffffffffffffffffffffffffffffffff1673ffffffffffffffffffffffffffffffffffffffff168152602001908152602001600020805480602002602001604051908101604052809291908181526020016000905b82821015612944578382906000526020600020906009020160405180610120016040529081600082015481526020016001820160009054906101000a900473ffffffffffffffffffffffffffffffffffffffff1673ffffffffffffffffffffffffffffffffffffffff1673ffffffffffffffffffffffffffffffffffffffff1681526020016002820160009054906101000a900473ffffffffffffffffffffffffffffffffffffffff1673ffffffffffffffffffffffffffffffffffffffff1673ffffffffffffffffffffffffffffffffffffffff1681526020016003820160009054906101000a900473ffffffffffffffffffffffffffffffffffffffff1673ffffffffffffffffffffffffffffffffffffffff1673ffffffffffffffffffffffffffffffffffffffff1681526020016004820180546126e2906146bf565b80601f016020809104026020016040519081016040528092919081815260200182805461270e906146bf565b801561275b5780601f106127305761010080835404028352916020019161275b565b820191906000526020600020905b81548152906001019060200180831161273e57829003601f168201915b50505050508152602001600582018054612774906146bf565b80601f01602080910402602001604051908101604052809291908181526020018280546127a0906146bf565b80156127ed5780601f106127c2576101008083540402835291602001916127ed565b820191906000526020600020905b8154815290600101906020018083116127d057829003601f168201915b50505050508152602001600682018054612806906146bf565b80601f0160208091040260200160405190810160405280929190818152602001828054612832906146bf565b801561287f5780601f106128545761010080835404028352916020019161287f565b820191906000526020600020905b81548152906001019060200180831161286257829003601f168201915b50505050508152602001600782018054612898906146bf565b80601f01602080910402602001604051908101604052809291908181526020018280546128c4906146bf565b80156129115780601f106128e657610100808354040283529160200191612911565b820191906000526020600020905b8154815290600101906020018083116128f457829003601f168201915b505050505081526020016008820160009054906101000a900460ff161515151581525050815260200190600101906125a2565b505050509050919050565b6060600160008373ffffffffffffffffffffffffffffffffffffffff1673ffffffffffffffffffffffffffffffffffffffff168152602001908152602001600020805480602002602001604051908101604052809291908181526020016000905b82821015612c5f57838290600052602060002090600602016040518060c00160405290816000820160009054906101000a900473ffffffffffffffffffffffffffffffffffffffff1673ffffffffffffffffffffffffffffffffffffffff1673ffffffffffffffffffffffffffffffffffffffff1681526020016001820160009054906101000a900473ffffffffffffffffffffffffffffffffffffffff1673ffffffffffffffffffffffffffffffffffffffff1673ffffffffffffffffffffffffffffffffffffffff168152602001600282018054612a8f906146bf565b80601f0160208091040260200160405190810160405280929190818152602001828054612abb906146bf565b8015612b085780601f10612add57610100808354040283529160200191612b08565b820191906000526020600020905b815481529060010190602001808311612aeb57829003601f168201915b50505050508152602001600382018054612b21906146bf565b80601f0160208091040260200160405190810160405280929190818152602001828054612b4d906146bf565b8015612b9a5780601f10612b6f57610100808354040283529160200191612b9a565b820191906000526020600020905b815481529060010190602001808311612b7d57829003601f168201915b50505050508152602001600482018054612bb3906146bf565b80601f0160208091040260200160405190810160405280929190818152602001828054612bdf906146bf565b8015612c2c5780601f10612c0157610100808354040283529160200191612c2c565b820191906000526020600020905b815481529060010190602001808311612c0f57829003601f168201915b505050505081526020016005820160009054906101000a900460ff161515151581525050815260200190600101906129b0565b505050509050919050565b6000600660003373ffffffffffffffffffffffffffffffffffffffff1673ffffffffffffffffffffffffffffffffffffffff1681526020019081526020016000206001018054612cb9906146bf565b905014612cfb576040517f08c379a0000000000000000000000000000000000000000000000000000000008152600401612cf290614c91565b60405180910390fd5b600782604051612d0b9190614abc565b908152602001604051809103902060009054906101000a900460ff1615612d67576040517f08c379a0000000000000000000000000000000000000000000000000000000008152600401612d5e90614cfd565b60405180910390fd5b6040518060a0016040528086815260200185815260200184815260200183815260200182815250600660003373ffffffffffffffffffffffffffffffffffffffff1673ffffffffffffffffffffffffffffffffffffffff1681526020019081526020016000206000820151816000019081612de29190614908565b506020820151816001019081612df89190614908565b506040820151816002019081612e0e9190614908565b506060820151816003019081612e249190614908565b506080820151816004019081612e3a9190614908565b509050506001600783604051612e509190614abc565b908152602001604051809103902060006101000a81548160ff0219169083151502179055505050505050565b60606000600660008473ffffffffffffffffffffffffffffffffffffffff1673ffffffffffffffffffffffffffffffffffffffff1681526020019081526020016000206001018054612ecd906146bf565b905011612f0f576040517f08c379a0000000000000000000000000000000000000000000000000000000008152600401612f0690614d69565b60405180910390fd5b600660008373ffffffffffffffffffffffffffffffffffffffff1673ffffffffffffffffffffffffffffffffffffffff1681526020019081526020016000206003018054612f5c906146bf565b80601f0160208091040260200160405190810160405280929190818152602001828054612f88906146bf565b8015612fd55780601f10612faa57610100808354040283529160200191612fd5565b820191906000526020600020905b815481529060010190602001808311612fb857829003601f168201915b50505050509050919050565b6060600860008373ffffffffffffffffffffffffffffffffffffffff1673ffffffffffffffffffffffffffffffffffffffff168152602001908152602001600020805480602002602001604051908101604052809291908181526020016000905b8282101561328057838290600052602060002090600402016040518060800160405290816000820160009054906101000a900473ffffffffffffffffffffffffffffffffffffffff1673ffffffffffffffffffffffffffffffffffffffff1673ffffffffffffffffffffffffffffffffffffffff1681526020016001820180546130cb906146bf565b80601f01602080910402602001604051908101604052809291908181526020018280546130f7906146bf565b80156131445780601f1061311957610100808354040283529160200191613144565b820191906000526020600020905b81548152906001019060200180831161312757829003601f168201915b5050505050815260200160028201805461315d906146bf565b80601f0160208091040260200160405190810160405280929190818152602001828054613189906146bf565b80156131d65780601f106131ab576101008083540402835291602001916131d6565b820191906000526020600020905b8154815290600101906020018083116131b957829003601f168201915b505050505081526020016003820180546131ef906146bf565b80601f016020809104026020016040519081016040528092919081815260200182805461321b906146bf565b80156132685780601f1061323d57610100808354040283529160200191613268565b820191906000526020600020905b81548152906001019060200180831161324b57829003601f168201915b50505050508152505081526020019060010190613042565b505050509050919050565b60606000808373ffffffffffffffffffffffffffffffffffffffff1673ffffffffffffffffffffffffffffffffffffffff168152602001908152602001600020805480602002602001604051908101604052809291908181526020016000905b8282101561359a57838290600052602060002090600602016040518060c00160405290816000820160009054906101000a900473ffffffffffffffffffffffffffffffffffffffff1673ffffffffffffffffffffffffffffffffffffffff1673ffffffffffffffffffffffffffffffffffffffff1681526020016001820160009054906101000a900473ffffffffffffffffffffffffffffffffffffffff1673ffffffffffffffffffffffffffffffffffffffff1673ffffffffffffffffffffffffffffffffffffffff1681526020016002820180546133ca906146bf565b80601f01602080910402602001604051908101604052809291908181526020018280546133f6906146bf565b80156134435780601f1061341857610100808354040283529160200191613443565b820191906000526020600020905b81548152906001019060200180831161342657829003601f168201915b5050505050815260200160038201805461345c906146bf565b80601f0160208091040260200160405190810160405280929190818152602001828054613488906146bf565b80156134d55780601f106134aa576101008083540402835291602001916134d5565b820191906000526020600020905b8154815290600101906020018083116134b857829003601f168201915b505050505081526020016004820180546134ee906146bf565b80601f016020809104026020016040519081016040528092919081815260200182805461351a906146bf565b80156135675780601f1061353c57610100808354040283529160200191613567565b820191906000526020600020905b81548152906001019060200180831161354a57829003601f168201915b505050505081526020016005820160009054906101000a900460ff161515151581525050815260200190600101906132eb565b505050509050919050565b60006004600084815260200190815260200160002060000154036135fe576040517f08c379a00000000000000000000000000000000000000000000000000000000081526004016135f59061473c565b60405180910390fd5b806004600084815260200190815260200160002060080160006101000a81548160ff0219169083151502179055506000600260006004600086815260200190815260200160002060020160009054906101000a900473ffffffffffffffffffffffffffffffffffffffff1673ffffffffffffffffffffffffffffffffffffffff1673ffffffffffffffffffffffffffffffffffffffff168152602001908152602001600020905060005b818054905081101561373357838282815481106136c8576136c76149da565b5b9060005260206000209060090201600001540361372057828282815481106136f3576136f26149da565b5b906000526020600020906009020160080160006101000a81548160ff021916908315150217905550613733565b808061372b90614a38565b9150506136a8565b506000600360006004600087815260200190815260200160002060030160009054906101000a900473ffffffffffffffffffffffffffffffffffffffff1673ffffffffffffffffffffffffffffffffffffffff1673ffffffffffffffffffffffffffffffffffffffff168152602001908152602001600020905060005b818054905081101561383b57848282815481106137d0576137cf6149da565b5b9060005260206000209060090201600001540361382857838282815481106137fb576137fa6149da565b5b906000526020600020906009020160080160006101000a81548160ff02191690831515021790555061383b565b808061383390614a38565b9150506137b0565b5050505050565b60405180610120016040528060008152602001600073ffffffffffffffffffffffffffffffffffffffff168152602001600073ffffffffffffffffffffffffffffffffffffffff168152602001600073ffffffffffffffffffffffffffffffffffffffff168152602001606081526020016060815260200160608152602001606081526020016000151581525090565b6000604051905090565b600080fd5b600080fd5b600073ffffffffffffffffffffffffffffffffffffffff82169050919050565b6000613911826138e6565b9050919050565b61392181613906565b811461392c57600080fd5b50565b60008135905061393e81613918565b92915050565b60006020828403121561395a576139596138dc565b5b60006139688482850161392f565b91505092915050565b600081519050919050565b600082825260208201905092915050565b6000819050602082019050919050565b6139a681613906565b82525050565b600081519050919050565b600082825260208201905092915050565b60005b838110156139e65780820151818401526020810190506139cb565b60008484015250505050565b6000601f19601f8301169050919050565b6000613a0e826139ac565b613a1881856139b7565b9350613a288185602086016139c8565b613a31816139f2565b840191505092915050565b60008115159050919050565b613a5181613a3c565b82525050565b600060c083016000830151613a6f600086018261399d565b506020830151613a82602086018261399d565b5060408301518482036040860152613a9a8282613a03565b91505060608301518482036060860152613ab48282613a03565b91505060808301518482036080860152613ace8282613a03565b91505060a0830151613ae360a0860182613a48565b508091505092915050565b6000613afa8383613a57565b905092915050565b6000602082019050919050565b6000613b1a82613971565b613b24818561397c565b935083602082028501613b368561398d565b8060005b85811015613b725784840389528151613b538582613aee565b9450613b5e83613b02565b925060208a01995050600181019050613b3a565b50829750879550505050505092915050565b60006020820190508181036000830152613b9e8184613b0f565b905092915050565b6000819050919050565b613bb981613ba6565b8114613bc457600080fd5b50565b600081359050613bd681613bb0565b92915050565b600080fd5b600080fd5b7f4e487b7100000000000000000000000000000000000000000000000000000000600052604160045260246000fd5b613c1e826139f2565b810181811067ffffffffffffffff82111715613c3d57613c3c613be6565b5b80604052505050565b6000613c506138d2565b9050613c5c8282613c15565b919050565b600067ffffffffffffffff821115613c7c57613c7b613be6565b5b613c85826139f2565b9050602081019050919050565b82818337600083830152505050565b6000613cb4613caf84613c61565b613c46565b905082815260208101848484011115613cd057613ccf613be1565b5b613cdb848285613c92565b509392505050565b600082601f830112613cf857613cf7613bdc565b5b8135613d08848260208601613ca1565b91505092915050565b60008060408385031215613d2857613d276138dc565b5b6000613d3685828601613bc7565b925050602083013567ffffffffffffffff811115613d5757613d566138e1565b5b613d6385828601613ce3565b9150509250929050565b60008060008060808587031215613d8757613d866138dc565b5b6000613d958782880161392f565b945050602085013567ffffffffffffffff811115613db657613db56138e1565b5b613dc287828801613ce3565b935050604085013567ffffffffffffffff811115613de357613de26138e1565b5b613def87828801613ce3565b925050606085013567ffffffffffffffff811115613e1057613e0f6138e1565b5b613e1c87828801613ce3565b91505092959194509250565b60008060408385031215613e3f57613e3e6138dc565b5b6000613e4d8582860161392f565b925050602083013567ffffffffffffffff811115613e6e57613e6d6138e1565b5b613e7a85828601613ce3565b9150509250929050565b600082825260208201905092915050565b6000613ea0826139ac565b613eaa8185613e84565b9350613eba8185602086016139c8565b613ec3816139f2565b840191505092915050565b60006020820190508181036000830152613ee88184613e95565b905092915050565b600081519050919050565b600082825260208201905092915050565b6000819050602082019050919050565b613f2581613ba6565b82525050565b600061012083016000830151613f446000860182613f1c565b506020830151613f57602086018261399d565b506040830151613f6a604086018261399d565b506060830151613f7d606086018261399d565b5060808301518482036080860152613f958282613a03565b91505060a083015184820360a0860152613faf8282613a03565b91505060c083015184820360c0860152613fc98282613a03565b91505060e083015184820360e0860152613fe38282613a03565b915050610100830151613ffa610100860182613a48565b508091505092915050565b60006140118383613f2b565b905092915050565b6000602082019050919050565b600061403182613ef0565b61403b8185613efb565b93508360208202850161404d85613f0c565b8060005b85811015614089578484038952815161406a8582614005565b945061407583614019565b925060208a01995050600181019050614051565b50829750879550505050505092915050565b600060208201905081810360008301526140b58184614026565b905092915050565b60008060008060008060c087890312156140da576140d96138dc565b5b60006140e889828a0161392f565b96505060206140f989828a0161392f565b955050604061410a89828a0161392f565b945050606087013567ffffffffffffffff81111561412b5761412a6138e1565b5b61413789828a01613ce3565b935050608087013567ffffffffffffffff811115614158576141576138e1565b5b61416489828a01613ce3565b92505060a087013567ffffffffffffffff811115614185576141846138e1565b5b61419189828a01613ce3565b9150509295509295509295565b600080600080600060a086880312156141ba576141b96138dc565b5b60006141c88882890161392f565b95505060206141d98882890161392f565b945050604086013567ffffffffffffffff8111156141fa576141f96138e1565b5b61420688828901613ce3565b935050606086013567ffffffffffffffff811115614227576142266138e1565b5b61423388828901613ce3565b925050608086013567ffffffffffffffff811115614254576142536138e1565b5b61426088828901613ce3565b9150509295509295909350565b600060a08201905081810360008301526142878188613e95565b9050818103602083015261429b8187613e95565b905081810360408301526142af8186613e95565b905081810360608301526142c38185613e95565b905081810360808301526142d78184613e95565b90509695505050505050565b6000602082840312156142f9576142f86138dc565b5b600061430784828501613bc7565b91505092915050565b61431981613ba6565b82525050565b61432881613906565b82525050565b600061010082019050614344600083018b614310565b614351602083018a61431f565b61435e604083018961431f565b61436b606083018861431f565b818103608083015261437d8187613e95565b905081810360a08301526143918186613e95565b905081810360c08301526143a58185613e95565b905081810360e08301526143b98184613e95565b90509998505050505050505050565b600080600080600060a086880312156143e4576143e36138dc565b5b600086013567ffffffffffffffff811115614402576144016138e1565b5b61440e88828901613ce3565b955050602086013567ffffffffffffffff81111561442f5761442e6138e1565b5b61443b88828901613ce3565b945050604086013567ffffffffffffffff81111561445c5761445b6138e1565b5b61446888828901613ce3565b935050606086013567ffffffffffffffff811115614489576144886138e1565b5b61449588828901613ce3565b925050608086013567ffffffffffffffff8111156144b6576144b56138e1565b5b6144c288828901613ce3565b9150509295509295909350565b600081519050919050565b600082825260208201905092915050565b6000819050602082019050919050565b6000608083016000830151614513600086018261399d565b506020830151848203602086015261452b8282613a03565b915050604083015184820360408601526145458282613a03565b9150506060830151848203606086015261455f8282613a03565b9150508091505092915050565b600061457883836144fb565b905092915050565b6000602082019050919050565b6000614598826144cf565b6145a281856144da565b9350836020820285016145b4856144eb565b8060005b858110156145f057848403895281516145d1858261456c565b94506145dc83614580565b925060208a019950506001810190506145b8565b50829750879550505050505092915050565b6000602082019050818103600083015261461c818461458d565b905092915050565b61462d81613a3c565b811461463857600080fd5b50565b60008135905061464a81614624565b92915050565b60008060408385031215614667576146666138dc565b5b600061467585828601613bc7565b92505060206146868582860161463b565b9150509250929050565b7f4e487b7100000000000000000000000000000000000000000000000000000000600052602260045260246000fd5b600060028204905060018216806146d757607f821691505b6020821081036146ea576146e9614690565b5b50919050565b7f4365727469666963617465206e6f7420666f756e642e00000000000000000000600082015250565b6000614726601683613e84565b9150614731826146f0565b602082019050919050565b6000602082019050818103600083015261475581614719565b9050919050565b60008190508160005260206000209050919050565b60006020601f8301049050919050565b600082821b905092915050565b6000600883026147be7fffffffffffffffffffffffffffffffffffffffffffffffffffffffffffffffff82614781565b6147c88683614781565b95508019841693508086168417925050509392505050565b6000819050919050565b60006148056148006147fb84613ba6565b6147e0565b613ba6565b9050919050565b6000819050919050565b61481f836147ea565b61483361482b8261480c565b84845461478e565b825550505050565b600090565b61484861483b565b614853818484614816565b505050565b5b818110156148775761486c600082614840565b600181019050614859565b5050565b601f8211156148bc5761488d8161475c565b61489684614771565b810160208510156148a5578190505b6148b96148b185614771565b830182614858565b50505b505050565b600082821c905092915050565b60006148df600019846008026148c1565b1980831691505092915050565b60006148f883836148ce565b9150826002028217905092915050565b614911826139ac565b67ffffffffffffffff81111561492a57614929613be6565b5b61493482546146bf565b61493f82828561487b565b600060209050601f8311600181146149725760008415614960578287015190505b61496a85826148ec565b8655506149d2565b601f1984166149808661475c565b60005b828110156149a857848901518255600182019150602085019450602081019050614983565b868310156149c557848901516149c1601f8916826148ce565b8355505b6001600288020188555050505b505050505050565b7f4e487b7100000000000000000000000000000000000000000000000000000000600052603260045260246000fd5b7f4e487b7100000000000000000000000000000000000000000000000000000000600052601160045260246000fd5b6000614a4382613ba6565b91507fffffffffffffffffffffffffffffffffffffffffffffffffffffffffffffffff8203614a7557614a74614a09565b5b600182019050919050565b600081905092915050565b6000614a96826139ac565b614aa08185614a80565b9350614ab08185602086016139c8565b80840191505092915050565b6000614ac88284614a8b565b915081905092915050565b60008154614ae0816146bf565b614aea8186614a80565b94506001821660008114614b055760018114614b1a57614b4d565b60ff1983168652811515820286019350614b4d565b614b238561475c565b60005b83811015614b4557815481890152600182019150602081019050614b26565b838801955050505b50505092915050565b6000614b628284614ad3565b915081905092915050565b7f436572746966696361746520616c726561647920657869737473000000000000600082015250565b6000614ba3601a83613e84565b9150614bae82614b6d565b602082019050919050565b60006020820190508181036000830152614bd281614b96565b9050919050565b7f55736572206e6f7420666f756e642e0000000000000000000000000000000000600082015250565b6000614c0f600f83613e84565b9150614c1a82614bd9565b602082019050919050565b60006020820190508181036000830152614c3e81614c02565b9050919050565b7f5573657220616c726561647920726567697374657265642e0000000000000000600082015250565b6000614c7b601883613e84565b9150614c8682614c45565b602082019050919050565b60006020820190508181036000830152614caa81614c6e565b9050919050565b7f557365726e616d6520616c72656164792074616b656e2e000000000000000000600082015250565b6000614ce7601783613e84565b9150614cf282614cb1565b602082019050919050565b60006020820190508181036000830152614d1681614cda565b9050919050565b7f5573657220646f6573206e6f742065786973742e000000000000000000000000600082015250565b6000614d53601483613e84565b9150614d5e82614d1d565b602082019050919050565b60006020820190508181036000830152614d8281614d46565b905091905056fea264697066735822122037be91743df054ab84a053d48b41a79b06acea0e435975c1270be66ab0e0be2764736f6c63430008130033",
  "immutableReferences": {},
  "source": "// SPDX-License-Identifier: MIT\npragma solidity 0.8.19;\n\ncontract Certi {\n    struct User {\n        string fullName;\n        string email;\n        string password; // Store hashed password\n        string username;\n        string usertype; // User type field\n    }\n\n    struct Certificate {\n        address issuer;\n        address user;\n        string hash;\n        string title;\n        string filePath;\n        bool exist;\n    }\n\n    struct VerificationCertificates {\n        uint id;\n        address issuedBy;\n        address user;\n        address organizationAddress;\n        string username;\n        string organizationName;\n        string filepath;\n        string status;\n        bool request_sent;\n    }\n\n    mapping(address => Certificate[]) private userCertificates;\n    mapping(address => Certificate[]) private organizationCertificates;\n\n    mapping(address => VerificationCertificates[])\n        private userVerificationCertificates;\n    mapping(address => VerificationCertificates[])\n        private organizationVerificationCertificates;\n    mapping(uint => VerificationCertificates) private certificates;\n    uint private certificateCounter;\n\n    function updateCertificateStatus(\n        uint _certificateId,\n        string memory _newStatus\n    ) public {\n        // Update the status in the certificates mapping\n        VerificationCertificates storage certificate = certificates[\n            _certificateId\n        ];\n        require(certificate.id != 0, \"Certificate not found.\");\n        certificate.status = _newStatus;\n\n        // Find and update the status in organizationVerificationCertificates\n        address orgAddress = certificate.organizationAddress;\n        VerificationCertificates[]\n            storage orgCerts = organizationVerificationCertificates[orgAddress];\n\n        for (uint i = 0; i < orgCerts.length; i++) {\n            if (orgCerts[i].id == _certificateId) {\n                orgCerts[i].status = _newStatus;\n                break;\n            }\n        }\n    }\n\n    mapping(address => User) private users;\n    mapping(string => bool) private usernames;\n\n    // Function to add a certificate\n    function addCertificate(\n        address _issuer,\n        address _user,\n        string memory _hash,\n        string memory _title,\n        string memory _filePath\n    ) public {\n        Certificate[] storage issuerCertificates = organizationCertificates[\n            _issuer\n        ];\n        for (uint i = 0; i < issuerCertificates.length; i++) {\n            require(\n                keccak256(abi.encodePacked(issuerCertificates[i].hash)) !=\n                    keccak256(abi.encodePacked(_hash)),\n                \"Certificate already exists\"\n            );\n        }\n\n        Certificate memory newCertificate = Certificate({\n            issuer: _issuer,\n            user: _user,\n            hash: _hash,\n            title: _title,\n            filePath: _filePath,\n            exist: true\n        });\n\n        userCertificates[_user].push(newCertificate);\n        organizationCertificates[_issuer].push(newCertificate);\n    }\n\n    // Function to add a new verification certificate\n    function addVerificationCertificate(\n        address _issuedBy,\n        address _user,\n        address _organizationAddress,\n        string memory _username,\n        string memory _organizationName,\n        string memory _filepath\n    ) public {\n        certificateCounter++;\n\n        VerificationCertificates\n            memory newCertificate = VerificationCertificates({\n                id: certificateCounter,\n                issuedBy: _issuedBy,\n                user: _user,\n                organizationAddress: _organizationAddress,\n                username: _username,\n                organizationName: _organizationName,\n                filepath: _filepath,\n                status: \"pending\",\n                request_sent: false\n            });\n\n        userVerificationCertificates[_user].push(newCertificate);\n        organizationVerificationCertificates[_organizationAddress].push(\n            newCertificate\n        );\n        certificates[certificateCounter] = newCertificate;\n    }\n\n    // Function to change the request_sent status of a certificate by ID\n    function changeRequestSentStatus(uint _id, bool _newStatus) public {\n        require(certificates[_id].id != 0, \"Certificate not found.\");\n\n        certificates[_id].request_sent = _newStatus;\n\n        VerificationCertificates[]\n            storage userCerts = userVerificationCertificates[\n                certificates[_id].user\n            ];\n        for (uint i = 0; i < userCerts.length; i++) {\n            if (userCerts[i].id == _id) {\n                userCerts[i].request_sent = _newStatus;\n                break;\n            }\n        }\n\n        VerificationCertificates[]\n            storage orgCerts = organizationVerificationCertificates[\n                certificates[_id].organizationAddress\n            ];\n        for (uint i = 0; i < orgCerts.length; i++) {\n            if (orgCerts[i].id == _id) {\n                orgCerts[i].request_sent = _newStatus;\n                break;\n            }\n        }\n    }\n\n    // Function to fetch all certificates where request_sent is true\n    function getAllRequestSentTrue()\n        public\n        view\n        returns (VerificationCertificates[] memory)\n    {\n        uint count = 0;\n        for (uint i = 1; i <= certificateCounter; i++) {\n            if (certificates[i].request_sent) {\n                count++;\n            }\n        }\n\n        VerificationCertificates[]\n            memory result = new VerificationCertificates[](count);\n        uint index = 0;\n        for (uint i = 1; i <= certificateCounter; i++) {\n            if (certificates[i].request_sent) {\n                result[index] = certificates[i];\n                index++;\n            }\n        }\n        return result;\n    }\n\n    // Function to fetch user verification certificates\n    function getUserVerificationCertificates(\n        address _user\n    ) public view returns (VerificationCertificates[] memory) {\n        return userVerificationCertificates[_user];\n    }\n\n    // Function to fetch organization verification certificates\n    function getOrganizationVerificationCertificates(\n        address _organizationAddress\n    ) public view returns (VerificationCertificates[] memory) {\n        return organizationVerificationCertificates[_organizationAddress];\n    }\n\n    // Function to fetch details by ID\n    function getCertificateById(\n        uint _id\n    )\n        public\n        view\n        returns (\n            uint,\n            address,\n            address,\n            address,\n            string memory,\n            string memory,\n            string memory,\n            string memory\n        )\n    {\n        VerificationCertificates memory certificate = certificates[_id];\n        return (\n            certificate.id,\n            certificate.issuedBy,\n            certificate.user,\n            certificate.organizationAddress,\n            certificate.username,\n            certificate.organizationName,\n            certificate.filepath,\n            certificate.status\n        );\n    }\n\n    // Function to add a new user\n    function addUser(\n        string memory _fullName,\n        string memory _email,\n        string memory _password,\n        string memory _username,\n        string memory _usertype\n    ) public {\n        require(\n            bytes(users[msg.sender].email).length == 0,\n            \"User already registered.\"\n        );\n        require(!usernames[_username], \"Username already taken.\");\n\n        users[msg.sender] = User(\n            _fullName,\n            _email,\n            _password,\n            _username,\n            _usertype\n        );\n        usernames[_username] = true;\n    }\n\n    // Function to fetch user details\n    function getUser(\n        address _userAddress\n    )\n        public\n        view\n        returns (\n            string memory fullName,\n            string memory email,\n            string memory username,\n            string memory password,\n            string memory usertype\n        )\n    {\n        User memory user = users[_userAddress];\n        require(bytes(user.email).length > 0, \"User not found.\");\n        return (\n            user.fullName,\n            user.email,\n            user.username,\n            user.password,\n            user.usertype\n        );\n    }\n\n    // Function to fetch certificates for a specific user\n    function getCertificates(\n        address _userAddress\n    ) public view returns (Certificate[] memory) {\n        return userCertificates[_userAddress];\n    }\n\n    // Function to fetch all certificates for a specific organization\n    function getOrganizationCertificates(\n        address _issuer\n    ) public view returns (Certificate[] memory) {\n        return organizationCertificates[_issuer];\n    }\n\n    // Function to fetch the username by address\n    function getUsername(\n        address _userAddress\n    ) public view returns (string memory) {\n        require(\n            bytes(users[_userAddress].email).length > 0,\n            \"User does not exist.\"\n        );\n        return users[_userAddress].username;\n    }\n\n    // Function to check if a hash already exists in the user's certificates\n    function checkHashExists(\n        address _organizationAddress,\n        string memory _hash\n    ) public view returns (string memory) {\n        Certificate[] storage certificates = organizationCertificates[\n            _organizationAddress\n        ];\n        for (uint i = 0; i < certificates.length; i++) {\n            if (\n                keccak256(abi.encodePacked(certificates[i].hash)) ==\n                keccak256(abi.encodePacked(_hash))\n            ) {\n                return \"Certificate hash exists\";\n            }\n        }\n        return \"Certificate hash does not exist\";\n    }\n\n    // Function to get all certificates of a user\nfunction getUserCertificates(address _user) public view returns (Certificate[] memory) {\n    return userCertificates[_user];\n}\n\nstruct Feedback{\n    address _user;\n    string _feedback;\n    string _satisfaction;\n    string _email;\n}\n\n// Mapping to store feedbacks from users\nmapping(address => Feedback[]) private userFeedbacks;\n\n// Function to add feedback\nfunction addFeedback(\n    address _user,\n    string memory _feedback,\n    string memory _satisfaction,\n    string memory _email\n) public {\n    Feedback memory newFeedback = Feedback({\n        _user: _user,\n        _feedback: _feedback,\n        _satisfaction: _satisfaction,\n        _email: _email\n    });\n\n    userFeedbacks[_user].push(newFeedback);\n}\n\n// Function to get all feedbacks of a user\nfunction getAllFeedbacks(address _user) public view returns (Feedback[] memory) {\n    return userFeedbacks[_user];\n}\n\n\n}\n",
  "sourcePath": "E:\\KITS-BLOCKCHAIN\\New-certi\\contracts\\certi.sol",
  "compiler": {
    "name": "solc",
    "version": "0.8.19+commit.7dd6d404.Emscripten.clang"
  },
  "schemaVersion": "3.4.16",
  "updatedAt": "2025-01-22T09:30:52.688Z",
  "networkType": "ethereum",
  "devdoc": {
    "kind": "dev",
    "methods": {},
    "version": 1
  },
  "userdoc": {
    "kind": "user",
    "methods": {},
    "version": 1
  }
}