{
  "contractName": "Certi",
  "abi": [
    {
      "inputs": [
        {
          "internalType": "address",
          "name": "_issuer",
          "type": "address"
        },
        {
          "internalType": "address",
          "name": "_user",
          "type": "address"
        },
        {
          "internalType": "string",
          "name": "_hash",
          "type": "string"
        },
        {
          "internalType": "string",
          "name": "_title",
          "type": "string"
        },
        {
          "internalType": "string",
          "name": "_filePath",
          "type": "string"
        }
      ],
      "name": "addCertificate",
      "outputs": [],
      "stateMutability": "nonpayable",
      "type": "function"
    },
    {
      "inputs": [
        {
          "internalType": "string",
          "name": "fullName",
          "type": "string"
        },
        {
          "internalType": "string",
          "name": "email",
          "type": "string"
        },
        {
          "internalType": "string",
          "name": "password",
          "type": "string"
        },
        {
          "internalType": "string",
          "name": "username",
          "type": "string"
        },
        {
          "internalType": "string",
          "name": "usertype",
          "type": "string"
        }
      ],
      "name": "addUser",
      "outputs": [],
      "stateMutability": "nonpayable",
      "type": "function"
    },
    {
      "inputs": [
        {
          "internalType": "address",
          "name": "userAddress",
          "type": "address"
        }
      ],
      "name": "getUser",
      "outputs": [
        {
          "internalType": "string",
          "name": "fullName",
          "type": "string"
        },
        {
          "internalType": "string",
          "name": "email",
          "type": "string"
        },
        {
          "internalType": "string",
          "name": "username",
          "type": "string"
        },
        {
          "internalType": "string",
          "name": "password",
          "type": "string"
        },
        {
          "internalType": "string",
          "name": "usertype",
          "type": "string"
        }
      ],
      "stateMutability": "view",
      "type": "function",
      "constant": true
    },
    {
      "inputs": [
        {
          "internalType": "address",
          "name": "userAddress",
          "type": "address"
        }
      ],
      "name": "getCertificates",
      "outputs": [
        {
          "components": [
            {
              "internalType": "address",
              "name": "issuer",
              "type": "address"
            },
            {
              "internalType": "address",
              "name": "user",
              "type": "address"
            },
            {
              "internalType": "string",
              "name": "hash",
              "type": "string"
            },
            {
              "internalType": "string",
              "name": "title",
              "type": "string"
            },
            {
              "internalType": "string",
              "name": "filePath",
              "type": "string"
            },
            {
              "internalType": "bool",
              "name": "exist",
              "type": "bool"
            }
          ],
          "internalType": "struct Certi.Certificate[]",
          "name": "",
          "type": "tuple[]"
        }
      ],
      "stateMutability": "view",
      "type": "function",
      "constant": true
    }
  ],
  "bytecode": "0x608060405234801561001057600080fd5b50611e63806100206000396000f3fe608060405234801561001057600080fd5b506004361061004c5760003560e01c80636234f6e3146100515780636f77926b1461006d578063b37a3d82146100a1578063f1c49c62146100bd575b600080fd5b61006b600480360381019061006691906110ff565b6100ed565b005b610087600480360381019061008291906111ce565b610522565b60405161009895949392919061127a565b60405180910390f35b6100bb60048036038101906100b691906112f0565b6108c7565b005b6100d760048036038101906100d291906111ce565b610c2d565b6040516100e491906115c4565b60405180910390f35b6000600160008773ffffffffffffffffffffffffffffffffffffffff1673ffffffffffffffffffffffffffffffffffffffff168152602001908152602001600020905060005b818054905081101561020357846040516020016101509190611622565b6040516020818303038152906040528051906020012082828154811061017957610178611639565b5b906000526020600020906006020160020160405160200161019a9190611760565b60405160208183030381529060405280519060200120036101f0576040517f08c379a00000000000000000000000000000000000000000000000000000000081526004016101e7906117c3565b60405180910390fd5b80806101fb9061181c565b915050610133565b5060006040518060c001604052808873ffffffffffffffffffffffffffffffffffffffff1681526020018773ffffffffffffffffffffffffffffffffffffffff1681526020018681526020018581526020018481526020016001151581525090506000808773ffffffffffffffffffffffffffffffffffffffff1673ffffffffffffffffffffffffffffffffffffffff16815260200190815260200160002081908060018154018082558091505060019003906000526020600020906006020160009091909190915060008201518160000160006101000a81548173ffffffffffffffffffffffffffffffffffffffff021916908373ffffffffffffffffffffffffffffffffffffffff16021790555060208201518160010160006101000a81548173ffffffffffffffffffffffffffffffffffffffff021916908373ffffffffffffffffffffffffffffffffffffffff160217905550604082015181600201908161036f91906119fb565b50606082015181600301908161038591906119fb565b50608082015181600401908161039b91906119fb565b5060a08201518160050160006101000a81548160ff0219169083151502179055505050600160008873ffffffffffffffffffffffffffffffffffffffff1673ffffffffffffffffffffffffffffffffffffffff16815260200190815260200160002081908060018154018082558091505060019003906000526020600020906006020160009091909190915060008201518160000160006101000a81548173ffffffffffffffffffffffffffffffffffffffff021916908373ffffffffffffffffffffffffffffffffffffffff16021790555060208201518160010160006101000a81548173ffffffffffffffffffffffffffffffffffffffff021916908373ffffffffffffffffffffffffffffffffffffffff16021790555060408201518160020190816104ca91906119fb565b5060608201518160030190816104e091906119fb565b5060808201518160040190816104f691906119fb565b5060a08201518160050160006101000a81548160ff021916908315150217905550505050505050505050565b60608060608060606000600260008873ffffffffffffffffffffffffffffffffffffffff1673ffffffffffffffffffffffffffffffffffffffff1681526020019081526020016000206040518060a001604052908160008201805461058690611697565b80601f01602080910402602001604051908101604052809291908181526020018280546105b290611697565b80156105ff5780601f106105d4576101008083540402835291602001916105ff565b820191906000526020600020905b8154815290600101906020018083116105e257829003601f168201915b5050505050815260200160018201805461061890611697565b80601f016020809104026020016040519081016040528092919081815260200182805461064490611697565b80156106915780601f1061066657610100808354040283529160200191610691565b820191906000526020600020905b81548152906001019060200180831161067457829003601f168201915b505050505081526020016002820180546106aa90611697565b80601f01602080910402602001604051908101604052809291908181526020018280546106d690611697565b80156107235780601f106106f857610100808354040283529160200191610723565b820191906000526020600020905b81548152906001019060200180831161070657829003601f168201915b5050505050815260200160038201805461073c90611697565b80601f016020809104026020016040519081016040528092919081815260200182805461076890611697565b80156107b55780601f1061078a576101008083540402835291602001916107b5565b820191906000526020600020905b81548152906001019060200180831161079857829003601f168201915b505050505081526020016004820180546107ce90611697565b80601f01602080910402602001604051908101604052809291908181526020018280546107fa90611697565b80156108475780601f1061081c57610100808354040283529160200191610847565b820191906000526020600020905b81548152906001019060200180831161082a57829003601f168201915b505050505081525050905060008160200151511161089a576040517f08c379a000000000000000000000000000000000000000000000000000000000815260040161089190611b19565b60405180910390fd5b80600001518160200151826060015183604001518460800151955095509550955095505091939590929450565b600085511161090b576040517f08c379a000000000000000000000000000000000000000000000000000000000815260040161090290611b85565b60405180910390fd5b600084511161094f576040517f08c379a000000000000000000000000000000000000000000000000000000000815260040161094690611bf1565b60405180910390fd5b6000835111610993576040517f08c379a000000000000000000000000000000000000000000000000000000000815260040161098a90611c5d565b60405180910390fd5b60008251116109d7576040517f08c379a00000000000000000000000000000000000000000000000000000000081526004016109ce90611cc9565b60405180910390fd5b6000815111610a1b576040517f08c379a0000000000000000000000000000000000000000000000000000000008152600401610a1290611d35565b60405180910390fd5b6000600260003373ffffffffffffffffffffffffffffffffffffffff1673ffffffffffffffffffffffffffffffffffffffff1681526020019081526020016000206001018054610a6a90611697565b905014610aac576040517f08c379a0000000000000000000000000000000000000000000000000000000008152600401610aa390611da1565b60405180910390fd5b600382604051610abc9190611622565b908152602001604051809103902060009054906101000a900460ff1615610b18576040517f08c379a0000000000000000000000000000000000000000000000000000000008152600401610b0f90611e0d565b60405180910390fd5b6040518060a0016040528086815260200185815260200184815260200183815260200182815250600260003373ffffffffffffffffffffffffffffffffffffffff1673ffffffffffffffffffffffffffffffffffffffff1681526020019081526020016000206000820151816000019081610b9391906119fb565b506020820151816001019081610ba991906119fb565b506040820151816002019081610bbf91906119fb565b506060820151816003019081610bd591906119fb565b506080820151816004019081610beb91906119fb565b509050506001600383604051610c019190611622565b908152602001604051809103902060006101000a81548160ff0219169083151502179055505050505050565b60606000808373ffffffffffffffffffffffffffffffffffffffff1673ffffffffffffffffffffffffffffffffffffffff168152602001908152602001600020805480602002602001604051908101604052809291908181526020016000905b82821015610f3c57838290600052602060002090600602016040518060c00160405290816000820160009054906101000a900473ffffffffffffffffffffffffffffffffffffffff1673ffffffffffffffffffffffffffffffffffffffff1673ffffffffffffffffffffffffffffffffffffffff1681526020016001820160009054906101000a900473ffffffffffffffffffffffffffffffffffffffff1673ffffffffffffffffffffffffffffffffffffffff1673ffffffffffffffffffffffffffffffffffffffff168152602001600282018054610d6c90611697565b80601f0160208091040260200160405190810160405280929190818152602001828054610d9890611697565b8015610de55780601f10610dba57610100808354040283529160200191610de5565b820191906000526020600020905b815481529060010190602001808311610dc857829003601f168201915b50505050508152602001600382018054610dfe90611697565b80601f0160208091040260200160405190810160405280929190818152602001828054610e2a90611697565b8015610e775780601f10610e4c57610100808354040283529160200191610e77565b820191906000526020600020905b815481529060010190602001808311610e5a57829003601f168201915b50505050508152602001600482018054610e9090611697565b80601f0160208091040260200160405190810160405280929190818152602001828054610ebc90611697565b8015610f095780601f10610ede57610100808354040283529160200191610f09565b820191906000526020600020905b815481529060010190602001808311610eec57829003601f168201915b505050505081526020016005820160009054906101000a900460ff16151515158152505081526020019060010190610c8d565b505050509050919050565b6000604051905090565b600080fd5b600080fd5b600073ffffffffffffffffffffffffffffffffffffffff82169050919050565b6000610f8682610f5b565b9050919050565b610f9681610f7b565b8114610fa157600080fd5b50565b600081359050610fb381610f8d565b92915050565b600080fd5b600080fd5b6000601f19601f8301169050919050565b7f4e487b7100000000000000000000000000000000000000000000000000000000600052604160045260246000fd5b61100c82610fc3565b810181811067ffffffffffffffff8211171561102b5761102a610fd4565b5b80604052505050565b600061103e610f47565b905061104a8282611003565b919050565b600067ffffffffffffffff82111561106a57611069610fd4565b5b61107382610fc3565b9050602081019050919050565b82818337600083830152505050565b60006110a261109d8461104f565b611034565b9050828152602081018484840111156110be576110bd610fbe565b5b6110c9848285611080565b509392505050565b600082601f8301126110e6576110e5610fb9565b5b81356110f684826020860161108f565b91505092915050565b600080600080600060a0868803121561111b5761111a610f51565b5b600061112988828901610fa4565b955050602061113a88828901610fa4565b945050604086013567ffffffffffffffff81111561115b5761115a610f56565b5b611167888289016110d1565b935050606086013567ffffffffffffffff81111561118857611187610f56565b5b611194888289016110d1565b925050608086013567ffffffffffffffff8111156111b5576111b4610f56565b5b6111c1888289016110d1565b9150509295509295909350565b6000602082840312156111e4576111e3610f51565b5b60006111f284828501610fa4565b91505092915050565b600081519050919050565b600082825260208201905092915050565b60005b8381101561123557808201518184015260208101905061121a565b60008484015250505050565b600061124c826111fb565b6112568185611206565b9350611266818560208601611217565b61126f81610fc3565b840191505092915050565b600060a08201905081810360008301526112948188611241565b905081810360208301526112a88187611241565b905081810360408301526112bc8186611241565b905081810360608301526112d08185611241565b905081810360808301526112e48184611241565b90509695505050505050565b600080600080600060a0868803121561130c5761130b610f51565b5b600086013567ffffffffffffffff81111561132a57611329610f56565b5b611336888289016110d1565b955050602086013567ffffffffffffffff81111561135757611356610f56565b5b611363888289016110d1565b945050604086013567ffffffffffffffff81111561138457611383610f56565b5b611390888289016110d1565b935050606086013567ffffffffffffffff8111156113b1576113b0610f56565b5b6113bd888289016110d1565b925050608086013567ffffffffffffffff8111156113de576113dd610f56565b5b6113ea888289016110d1565b9150509295509295909350565b600081519050919050565b600082825260208201905092915050565b6000819050602082019050919050565b61142c81610f7b565b82525050565b600082825260208201905092915050565b600061144e826111fb565b6114588185611432565b9350611468818560208601611217565b61147181610fc3565b840191505092915050565b60008115159050919050565b6114918161147c565b82525050565b600060c0830160008301516114af6000860182611423565b5060208301516114c26020860182611423565b50604083015184820360408601526114da8282611443565b915050606083015184820360608601526114f48282611443565b9150506080830151848203608086015261150e8282611443565b91505060a083015161152360a0860182611488565b508091505092915050565b600061153a8383611497565b905092915050565b6000602082019050919050565b600061155a826113f7565b6115648185611402565b93508360208202850161157685611413565b8060005b858110156115b25784840389528151611593858261152e565b945061159e83611542565b925060208a0199505060018101905061157a565b50829750879550505050505092915050565b600060208201905081810360008301526115de818461154f565b905092915050565b600081905092915050565b60006115fc826111fb565b61160681856115e6565b9350611616818560208601611217565b80840191505092915050565b600061162e82846115f1565b915081905092915050565b7f4e487b7100000000000000000000000000000000000000000000000000000000600052603260045260246000fd5b7f4e487b7100000000000000000000000000000000000000000000000000000000600052602260045260246000fd5b600060028204905060018216806116af57607f821691505b6020821081036116c2576116c1611668565b5b50919050565b60008190508160005260206000209050919050565b600081546116ea81611697565b6116f481866115e6565b9450600182166000811461170f576001811461172457611757565b60ff1983168652811515820286019350611757565b61172d856116c8565b60005b8381101561174f57815481890152600182019150602081019050611730565b838801955050505b50505092915050565b600061176c82846116dd565b915081905092915050565b7f436572746966696361746520616c726561647920657869737473000000000000600082015250565b60006117ad601a83611206565b91506117b882611777565b602082019050919050565b600060208201905081810360008301526117dc816117a0565b9050919050565b7f4e487b7100000000000000000000000000000000000000000000000000000000600052601160045260246000fd5b6000819050919050565b600061182782611812565b91507fffffffffffffffffffffffffffffffffffffffffffffffffffffffffffffffff8203611859576118586117e3565b5b600182019050919050565b60006020601f8301049050919050565b600082821b905092915050565b6000600883026118b17fffffffffffffffffffffffffffffffffffffffffffffffffffffffffffffffff82611874565b6118bb8683611874565b95508019841693508086168417925050509392505050565b6000819050919050565b60006118f86118f36118ee84611812565b6118d3565b611812565b9050919050565b6000819050919050565b611912836118dd565b61192661191e826118ff565b848454611881565b825550505050565b600090565b61193b61192e565b611946818484611909565b505050565b5b8181101561196a5761195f600082611933565b60018101905061194c565b5050565b601f8211156119af57611980816116c8565b61198984611864565b81016020851015611998578190505b6119ac6119a485611864565b83018261194b565b50505b505050565b600082821c905092915050565b60006119d2600019846008026119b4565b1980831691505092915050565b60006119eb83836119c1565b9150826002028217905092915050565b611a04826111fb565b67ffffffffffffffff811115611a1d57611a1c610fd4565b5b611a278254611697565b611a3282828561196e565b600060209050601f831160018114611a655760008415611a53578287015190505b611a5d85826119df565b865550611ac5565b601f198416611a73866116c8565b60005b82811015611a9b57848901518255600182019150602085019450602081019050611a76565b86831015611ab85784890151611ab4601f8916826119c1565b8355505b6001600288020188555050505b505050505050565b7f55736572206e6f7420666f756e642e0000000000000000000000000000000000600082015250565b6000611b03600f83611206565b9150611b0e82611acd565b602082019050919050565b60006020820190508181036000830152611b3281611af6565b9050919050565b7f46756c6c206e616d652069732072657175697265642e00000000000000000000600082015250565b6000611b6f601683611206565b9150611b7a82611b39565b602082019050919050565b60006020820190508181036000830152611b9e81611b62565b9050919050565b7f456d61696c2069732072657175697265642e0000000000000000000000000000600082015250565b6000611bdb601283611206565b9150611be682611ba5565b602082019050919050565b60006020820190508181036000830152611c0a81611bce565b9050919050565b7f50617373776f72642069732072657175697265642e0000000000000000000000600082015250565b6000611c47601583611206565b9150611c5282611c11565b602082019050919050565b60006020820190508181036000830152611c7681611c3a565b9050919050565b7f557365726e616d652069732072657175697265642e0000000000000000000000600082015250565b6000611cb3601583611206565b9150611cbe82611c7d565b602082019050919050565b60006020820190508181036000830152611ce281611ca6565b9050919050565b7f5573657220747970652069732072657175697265642e00000000000000000000600082015250565b6000611d1f601683611206565b9150611d2a82611ce9565b602082019050919050565b60006020820190508181036000830152611d4e81611d12565b9050919050565b7f5573657220616c726561647920726567697374657265642e0000000000000000600082015250565b6000611d8b601883611206565b9150611d9682611d55565b602082019050919050565b60006020820190508181036000830152611dba81611d7e565b9050919050565b7f557365726e616d6520616c72656164792074616b656e2e000000000000000000600082015250565b6000611df7601783611206565b9150611e0282611dc1565b602082019050919050565b60006020820190508181036000830152611e2681611dea565b905091905056fea26469706673582212205c0a23011bdf7db9171db683f8ae4c88abcc8a2691eafe7f39eff7cc1fd478aa64736f6c63430008130033",
  "immutableReferences": {},
  "source": "// SPDX-License-Identifier: MIT\npragma solidity 0.8.19;\n\ncontract Certi {\n    // Struct to represent a user\n    struct User {\n        string fullName;\n        string email;\n        string password; // Store hashed password\n        string username;\n        string usertype; // Add the user type field\n    }\n\n    // Struct to represent a certificate\n    struct Certificate {\n        address issuer;  // Address of the user who issued the certificate\n        address user;\n        string hash;     // Hash of the certificate file\n        string title;\n        string filePath; // Path of the stored certificate\n        bool exist;\n    }\n\n    // Mapping to store certificates by user and issuer addresses\n    mapping(address => Certificate[]) private userCertificates;\n    mapping(address => Certificate[]) private organizationCertificates;\n\n    // Function to add a certificate\n    function addCertificate(address _issuer, address _user, string memory _hash, string memory _title, string memory _filePath) public {\n        // Check if the certificate already exists for the issuer and user\n        Certificate[] storage issuerCertificates = organizationCertificates[_issuer];\n        for (uint i = 0; i < issuerCertificates.length; i++) {\n            require(\n                keccak256(abi.encodePacked(issuerCertificates[i].hash)) != keccak256(abi.encodePacked(_hash)),\n                \"Certificate already exists\"\n            );\n        }\n\n        // Create the new certificate\n        Certificate memory new_certificate = Certificate({\n            issuer: _issuer,\n            user: _user,\n            hash: _hash,\n            title: _title,\n            filePath: _filePath,\n            exist: true\n        });\n\n        // Add the new certificate to the mappings\n        userCertificates[_user].push(new_certificate);\n        organizationCertificates[_issuer].push(new_certificate);\n    }\n\n    // Mapping to store users by their Ethereum address\n    mapping(address => User) private users;\n\n    // Mapping to ensure unique usernames\n    mapping(string => bool) private usernames;\n\n    // Function to add a new user\n    function addUser(\n        string memory fullName, \n        string memory email, \n        string memory password, \n        string memory username, \n        string memory usertype // Add usertype parameter\n    ) public {\n        require(bytes(fullName).length > 0, \"Full name is required.\");\n        require(bytes(email).length > 0, \"Email is required.\");\n        require(bytes(password).length > 0, \"Password is required.\");\n        require(bytes(username).length > 0, \"Username is required.\");\n        require(bytes(usertype).length > 0, \"User type is required.\");\n\n        require(bytes(users[msg.sender].email).length == 0, \"User already registered.\");\n        require(!usernames[username], \"Username already taken.\");\n\n        users[msg.sender] = User(fullName, email, password, username, usertype); // Store usertype\n        usernames[username] = true;\n    }\n\n    // Function to fetch user details\n    function getUser(address userAddress)\n        public\n        view\n        returns (string memory fullName, string memory email, string memory username, string memory password, string memory usertype)\n    {\n        User memory user = users[userAddress];\n        require(bytes(user.email).length > 0, \"User not found.\");\n        return (user.fullName, user.email, user.username, user.password, user.usertype); // Return usertype\n    }\n\n    // Function to fetch certificates for a specific address\n    function getCertificates(address userAddress) public view returns (Certificate[] memory) {\n        return userCertificates[userAddress];\n    }\n}\n",
  "sourcePath": "E:\\KITS-BLOCKCHAIN\\New-certi\\contracts\\certi.sol",
  "compiler": {
    "name": "solc",
    "version": "0.8.19+commit.7dd6d404.Emscripten.clang"
  },
  "schemaVersion": "3.4.16",
  "updatedAt": "2025-01-11T07:12:12.938Z",
  "networkType": "ethereum",
  "devdoc": {
    "kind": "dev",
    "methods": {},
    "version": 1
  },
  "userdoc": {
    "kind": "user",
    "methods": {},
    "version": 1
  }
}