{
  "contractName": "certi",
  "abi": [
    {
      "anonymous": false,
      "inputs": [
        {
          "indexed": true,
          "internalType": "address",
          "name": "userAddress",
          "type": "address"
        },
        {
          "indexed": false,
          "internalType": "string",
          "name": "fullName",
          "type": "string"
        },
        {
          "indexed": false,
          "internalType": "string",
          "name": "email",
          "type": "string"
        },
        {
          "indexed": false,
          "internalType": "string",
          "name": "username",
          "type": "string"
        }
      ],
      "name": "UserAdded",
      "type": "event"
    },
    {
      "inputs": [
        {
          "internalType": "string",
          "name": "fullName",
          "type": "string"
        },
        {
          "internalType": "string",
          "name": "email",
          "type": "string"
        },
        {
          "internalType": "string",
          "name": "password",
          "type": "string"
        },
        {
          "internalType": "string",
          "name": "username",
          "type": "string"
        }
      ],
      "name": "addUser",
      "outputs": [],
      "stateMutability": "nonpayable",
      "type": "function"
    },
    {
      "inputs": [
        {
          "internalType": "address",
          "name": "userAddress",
          "type": "address"
        }
      ],
      "name": "getUser",
      "outputs": [
        {
          "internalType": "string",
          "name": "fullName",
          "type": "string"
        },
        {
          "internalType": "string",
          "name": "email",
          "type": "string"
        },
        {
          "internalType": "string",
          "name": "username",
          "type": "string"
        }
      ],
      "stateMutability": "view",
      "type": "function",
      "constant": true
    }
  ],
  "bytecode": "0x608060405234801561001057600080fd5b506110c8806100206000396000f3fe608060405234801561001057600080fd5b50600436106100365760003560e01c806301cda3ac1461003b5780636f77926b14610057575b600080fd5b61005560048036038101906100509190610836565b610089565b005b610071600480360381019061006c919061096b565b6103dd565b60405161008093929190610a17565b60405180910390f35b60008451116100cd576040517f08c379a00000000000000000000000000000000000000000000000000000000081526004016100c490610aaf565b60405180910390fd5b6000835111610111576040517f08c379a000000000000000000000000000000000000000000000000000000000815260040161010890610b1b565b60405180910390fd5b6000825111610155576040517f08c379a000000000000000000000000000000000000000000000000000000000815260040161014c90610b87565b60405180910390fd5b6000815111610199576040517f08c379a000000000000000000000000000000000000000000000000000000000815260040161019090610bf3565b60405180910390fd5b60008060003373ffffffffffffffffffffffffffffffffffffffff1673ffffffffffffffffffffffffffffffffffffffff16815260200190815260200160002060010180546101e790610c42565b905014610229576040517f08c379a000000000000000000000000000000000000000000000000000000000815260040161022090610cbf565b60405180910390fd5b6001816040516102399190610d1b565b908152602001604051809103902060009054906101000a900460ff1615610295576040517f08c379a000000000000000000000000000000000000000000000000000000000815260040161028c90610d7e565b60405180910390fd5b6040518060800160405280858152602001848152602001838152602001828152506000803373ffffffffffffffffffffffffffffffffffffffff1673ffffffffffffffffffffffffffffffffffffffff16815260200190815260200160002060008201518160000190816103099190610f54565b50602082015181600101908161031f9190610f54565b5060408201518160020190816103359190610f54565b50606082015181600301908161034b9190610f54565b50905050600180826040516103609190610d1b565b908152602001604051809103902060006101000a81548160ff0219169083151502179055503373ffffffffffffffffffffffffffffffffffffffff167f7c1f1acc946af35ee1335c400b20f647ccb811619308e1c626cbd88fb38a42918585846040516103cf93929190610a17565b60405180910390a250505050565b606080606060008060008673ffffffffffffffffffffffffffffffffffffffff1673ffffffffffffffffffffffffffffffffffffffff16815260200190815260200160002060405180608001604052908160008201805461043d90610c42565b80601f016020809104026020016040519081016040528092919081815260200182805461046990610c42565b80156104b65780601f1061048b576101008083540402835291602001916104b6565b820191906000526020600020905b81548152906001019060200180831161049957829003601f168201915b505050505081526020016001820180546104cf90610c42565b80601f01602080910402602001604051908101604052809291908181526020018280546104fb90610c42565b80156105485780601f1061051d57610100808354040283529160200191610548565b820191906000526020600020905b81548152906001019060200180831161052b57829003601f168201915b5050505050815260200160028201805461056190610c42565b80601f016020809104026020016040519081016040528092919081815260200182805461058d90610c42565b80156105da5780601f106105af576101008083540402835291602001916105da565b820191906000526020600020905b8154815290600101906020018083116105bd57829003601f168201915b505050505081526020016003820180546105f390610c42565b80601f016020809104026020016040519081016040528092919081815260200182805461061f90610c42565b801561066c5780601f106106415761010080835404028352916020019161066c565b820191906000526020600020905b81548152906001019060200180831161064f57829003601f168201915b50505050508152505090506000816020015151116106bf576040517f08c379a00000000000000000000000000000000000000000000000000000000081526004016106b690611072565b60405180910390fd5b806000015181602001518260600151935093509350509193909250565b6000604051905090565b600080fd5b600080fd5b600080fd5b600080fd5b6000601f19601f8301169050919050565b7f4e487b7100000000000000000000000000000000000000000000000000000000600052604160045260246000fd5b610743826106fa565b810181811067ffffffffffffffff821117156107625761076161070b565b5b80604052505050565b60006107756106dc565b9050610781828261073a565b919050565b600067ffffffffffffffff8211156107a1576107a061070b565b5b6107aa826106fa565b9050602081019050919050565b82818337600083830152505050565b60006107d96107d484610786565b61076b565b9050828152602081018484840111156107f5576107f46106f5565b5b6108008482856107b7565b509392505050565b600082601f83011261081d5761081c6106f0565b5b813561082d8482602086016107c6565b91505092915050565b600080600080608085870312156108505761084f6106e6565b5b600085013567ffffffffffffffff81111561086e5761086d6106eb565b5b61087a87828801610808565b945050602085013567ffffffffffffffff81111561089b5761089a6106eb565b5b6108a787828801610808565b935050604085013567ffffffffffffffff8111156108c8576108c76106eb565b5b6108d487828801610808565b925050606085013567ffffffffffffffff8111156108f5576108f46106eb565b5b61090187828801610808565b91505092959194509250565b600073ffffffffffffffffffffffffffffffffffffffff82169050919050565b60006109388261090d565b9050919050565b6109488161092d565b811461095357600080fd5b50565b6000813590506109658161093f565b92915050565b600060208284031215610981576109806106e6565b5b600061098f84828501610956565b91505092915050565b600081519050919050565b600082825260208201905092915050565b60005b838110156109d25780820151818401526020810190506109b7565b60008484015250505050565b60006109e982610998565b6109f381856109a3565b9350610a038185602086016109b4565b610a0c816106fa565b840191505092915050565b60006060820190508181036000830152610a3181866109de565b90508181036020830152610a4581856109de565b90508181036040830152610a5981846109de565b9050949350505050565b7f46756c6c206e616d652069732072657175697265642e00000000000000000000600082015250565b6000610a996016836109a3565b9150610aa482610a63565b602082019050919050565b60006020820190508181036000830152610ac881610a8c565b9050919050565b7f456d61696c2069732072657175697265642e0000000000000000000000000000600082015250565b6000610b056012836109a3565b9150610b1082610acf565b602082019050919050565b60006020820190508181036000830152610b3481610af8565b9050919050565b7f50617373776f72642069732072657175697265642e0000000000000000000000600082015250565b6000610b716015836109a3565b9150610b7c82610b3b565b602082019050919050565b60006020820190508181036000830152610ba081610b64565b9050919050565b7f557365726e616d652069732072657175697265642e0000000000000000000000600082015250565b6000610bdd6015836109a3565b9150610be882610ba7565b602082019050919050565b60006020820190508181036000830152610c0c81610bd0565b9050919050565b7f4e487b7100000000000000000000000000000000000000000000000000000000600052602260045260246000fd5b60006002820490506001821680610c5a57607f821691505b602082108103610c6d57610c6c610c13565b5b50919050565b7f5573657220616c726561647920726567697374657265642e0000000000000000600082015250565b6000610ca96018836109a3565b9150610cb482610c73565b602082019050919050565b60006020820190508181036000830152610cd881610c9c565b9050919050565b600081905092915050565b6000610cf582610998565b610cff8185610cdf565b9350610d0f8185602086016109b4565b80840191505092915050565b6000610d278284610cea565b915081905092915050565b7f557365726e616d6520616c72656164792074616b656e2e000000000000000000600082015250565b6000610d686017836109a3565b9150610d7382610d32565b602082019050919050565b60006020820190508181036000830152610d9781610d5b565b9050919050565b60008190508160005260206000209050919050565b60006020601f8301049050919050565b600082821b905092915050565b600060088302610e007fffffffffffffffffffffffffffffffffffffffffffffffffffffffffffffffff82610dc3565b610e0a8683610dc3565b95508019841693508086168417925050509392505050565b6000819050919050565b6000819050919050565b6000610e51610e4c610e4784610e22565b610e2c565b610e22565b9050919050565b6000819050919050565b610e6b83610e36565b610e7f610e7782610e58565b848454610dd0565b825550505050565b600090565b610e94610e87565b610e9f818484610e62565b505050565b5b81811015610ec357610eb8600082610e8c565b600181019050610ea5565b5050565b601f821115610f0857610ed981610d9e565b610ee284610db3565b81016020851015610ef1578190505b610f05610efd85610db3565b830182610ea4565b50505b505050565b600082821c905092915050565b6000610f2b60001984600802610f0d565b1980831691505092915050565b6000610f448383610f1a565b9150826002028217905092915050565b610f5d82610998565b67ffffffffffffffff811115610f7657610f7561070b565b5b610f808254610c42565b610f8b828285610ec7565b600060209050601f831160018114610fbe5760008415610fac578287015190505b610fb68582610f38565b86555061101e565b601f198416610fcc86610d9e565b60005b82811015610ff457848901518255600182019150602085019450602081019050610fcf565b86831015611011578489015161100d601f891682610f1a565b8355505b6001600288020188555050505b505050505050565b7f55736572206e6f7420666f756e642e0000000000000000000000000000000000600082015250565b600061105c600f836109a3565b915061106782611026565b602082019050919050565b6000602082019050818103600083015261108b8161104f565b905091905056fea2646970667358221220c67824acbfe2f5190c737f0edc18a11d7874a2944b17c149c2cb4c929e9c060e64736f6c63430008130033",
  "immutableReferences": {},
  "source": "// SPDX-License-Identifier: MIT\npragma solidity 0.8.19;\n\ncontract certi {\n    // Struct to represent a user\n    struct User {\n        string fullName;\n        string email;\n        string password; // In practice, use a hash of the password\n        string username;\n    }\n\n    // Mapping to store users by their Ethereum address\n    mapping(address => User) private users;\n\n    // Mapping to ensure unique usernames\n    mapping(string => bool) private usernames;\n\n    // Event to log the addition of a new user\n    event UserAdded(address indexed userAddress, string fullName, string email, string username);\n\n    // Function to add a new user\n    function addUser(string memory fullName, string memory email, string memory password, string memory username) public {\n        // Ensure the email, fullName, password, and username are not empty\n        require(bytes(fullName).length > 0, \"Full name is required.\");\n        require(bytes(email).length > 0, \"Email is required.\");\n        require(bytes(password).length > 0, \"Password is required.\");\n        require(bytes(username).length > 0, \"Username is required.\");\n\n        // Ensure the user is not already registered\n        require(bytes(users[msg.sender].email).length == 0, \"User already registered.\");\n\n        // Ensure the username is unique\n        require(!usernames[username], \"Username already taken.\");\n\n        // Add the user to the mapping\n        users[msg.sender] = User(fullName, email, password, username);\n\n        // Mark the username as used\n        usernames[username] = true;\n\n        // Emit an event to log the addition of the new user\n        emit UserAdded(msg.sender, fullName, email, username);\n    }\n\n    // Function to fetch user details\n    function getUser(address userAddress)\n        public\n        view\n        returns (string memory fullName, string memory email, string memory username)\n    {\n        User memory user = users[userAddress];\n        require(bytes(user.email).length > 0, \"User not found.\");\n        return (user.fullName, user.email, user.username);\n    }\n}\n",
  "sourcePath": "E:\\KITS-BLOCKCHAIN\\New-certi\\contracts\\certi.sol",
  "compiler": {
    "name": "solc",
    "version": "0.8.19+commit.7dd6d404.Emscripten.clang"
  },
  "schemaVersion": "3.4.16",
  "updatedAt": "2024-12-30T08:58:14.092Z",
  "networkType": "ethereum",
  "devdoc": {
    "kind": "dev",
    "methods": {},
    "version": 1
  },
  "userdoc": {
    "kind": "user",
    "methods": {},
    "version": 1
  }
}